{
	"Crowd_Funding/contract.sol": {
		"crowd_fund": {
			"abi": [
				{
					"inputs": [
						{
							"internalType": "uint256",
							"name": "_target",
							"type": "uint256"
						},
						{
							"internalType": "uint256",
							"name": "_deadline",
							"type": "uint256"
						}
					],
					"stateMutability": "nonpayable",
					"type": "constructor"
				},
				{
					"inputs": [],
					"name": "Owner",
					"outputs": [
						{
							"internalType": "address",
							"name": "",
							"type": "address"
						}
					],
					"stateMutability": "view",
					"type": "function"
				},
				{
					"inputs": [],
					"name": "checkBalance",
					"outputs": [
						{
							"internalType": "uint256",
							"name": "",
							"type": "uint256"
						}
					],
					"stateMutability": "view",
					"type": "function"
				},
				{
					"inputs": [
						{
							"internalType": "string",
							"name": "_desc",
							"type": "string"
						},
						{
							"internalType": "address payable",
							"name": "_recipient",
							"type": "address"
						},
						{
							"internalType": "uint256",
							"name": "_value",
							"type": "uint256"
						}
					],
					"name": "createFund",
					"outputs": [],
					"stateMutability": "nonpayable",
					"type": "function"
				},
				{
					"inputs": [],
					"name": "deadline",
					"outputs": [
						{
							"internalType": "uint256",
							"name": "",
							"type": "uint256"
						}
					],
					"stateMutability": "view",
					"type": "function"
				},
				{
					"inputs": [],
					"name": "donate",
					"outputs": [],
					"stateMutability": "payable",
					"type": "function"
				},
				{
					"inputs": [
						{
							"internalType": "address",
							"name": "",
							"type": "address"
						}
					],
					"name": "donation",
					"outputs": [
						{
							"internalType": "uint256",
							"name": "",
							"type": "uint256"
						}
					],
					"stateMutability": "view",
					"type": "function"
				},
				{
					"inputs": [
						{
							"internalType": "uint256",
							"name": "",
							"type": "uint256"
						}
					],
					"name": "funds",
					"outputs": [
						{
							"internalType": "string",
							"name": "description",
							"type": "string"
						},
						{
							"internalType": "uint256",
							"name": "value",
							"type": "uint256"
						},
						{
							"internalType": "address payable",
							"name": "recipient",
							"type": "address"
						},
						{
							"internalType": "bool",
							"name": "completed",
							"type": "bool"
						}
					],
					"stateMutability": "view",
					"type": "function"
				},
				{
					"inputs": [],
					"name": "min_donation",
					"outputs": [
						{
							"internalType": "uint256",
							"name": "",
							"type": "uint256"
						}
					],
					"stateMutability": "view",
					"type": "function"
				},
				{
					"inputs": [],
					"name": "no_of_donors",
					"outputs": [
						{
							"internalType": "uint256",
							"name": "",
							"type": "uint256"
						}
					],
					"stateMutability": "view",
					"type": "function"
				},
				{
					"inputs": [],
					"name": "num_requests",
					"outputs": [
						{
							"internalType": "uint256",
							"name": "",
							"type": "uint256"
						}
					],
					"stateMutability": "view",
					"type": "function"
				},
				{
					"inputs": [],
					"name": "raised_amt",
					"outputs": [
						{
							"internalType": "uint256",
							"name": "",
							"type": "uint256"
						}
					],
					"stateMutability": "view",
					"type": "function"
				},
				{
					"inputs": [],
					"name": "requestRefund",
					"outputs": [],
					"stateMutability": "nonpayable",
					"type": "function"
				},
				{
					"inputs": [],
					"name": "target",
					"outputs": [
						{
							"internalType": "uint256",
							"name": "",
							"type": "uint256"
						}
					],
					"stateMutability": "view",
					"type": "function"
				},
				{
					"inputs": [
						{
							"internalType": "uint256",
							"name": "fund_num",
							"type": "uint256"
						}
					],
					"name": "transfer",
					"outputs": [],
					"stateMutability": "nonpayable",
					"type": "function"
				}
			],
			"devdoc": {
				"kind": "dev",
				"methods": {},
				"version": 1
			},
			"evm": {
				"assembly": "    /* \"Crowd_Funding/contract.sol\":35:3201  contract crowd_fund{... */\n  mstore(0x40, 0x80)\n    /* \"Crowd_Funding/contract.sol\":667:895  constructor(uint _target, uint _deadline){... */\n  callvalue\n  dup1\n  iszero\n  tag_1\n  jumpi\n  0x00\n  dup1\n  revert\ntag_1:\n  pop\n  mload(0x40)\n  sub(codesize, bytecodeSize)\n  dup1\n  bytecodeSize\n  dup4\n  codecopy\n  dup2\n  dup2\n  add\n  0x40\n  mstore\n  dup2\n  add\n  swap1\n  tag_2\n  swap2\n  swap1\n  tag_3\n  jump\t// in\ntag_2:\n    /* \"Crowd_Funding/contract.sol\":726:733  _target */\n  dup2\n    /* \"Crowd_Funding/contract.sol\":719:725  target */\n  0x01\n    /* \"Crowd_Funding/contract.sol\":719:733  target=_target */\n  dup2\n  swap1\n  sstore\n  pop\n    /* \"Crowd_Funding/contract.sol\":769:778  _deadline */\n  dup1\n    /* \"Crowd_Funding/contract.sol\":753:768  block.timestamp */\n  timestamp\n    /* \"Crowd_Funding/contract.sol\":753:778  block.timestamp+_deadline */\n  tag_6\n  swap2\n  swap1\n  tag_7\n  jump\t// in\ntag_6:\n    /* \"Crowd_Funding/contract.sol\":744:752  deadline */\n  0x00\n    /* \"Crowd_Funding/contract.sol\":744:778  deadline=block.timestamp+_deadline */\n  dup2\n  swap1\n  sstore\n  pop\n    /* \"Crowd_Funding/contract.sol\":853:860  1 ether */\n  0x0de0b6b3a7640000\n    /* \"Crowd_Funding/contract.sol\":840:852  min_donation */\n  0x03\n    /* \"Crowd_Funding/contract.sol\":840:860  min_donation=1 ether */\n  dup2\n  swap1\n  sstore\n  pop\n    /* \"Crowd_Funding/contract.sol\":877:887  msg.sender */\n  caller\n    /* \"Crowd_Funding/contract.sol\":871:876  Owner */\n  0x06\n  0x00\n    /* \"Crowd_Funding/contract.sol\":871:887  Owner=msg.sender */\n  0x0100\n  exp\n  dup2\n  sload\n  dup2\n  0xffffffffffffffffffffffffffffffffffffffff\n  mul\n  not\n  and\n  swap1\n  dup4\n  0xffffffffffffffffffffffffffffffffffffffff\n  and\n  mul\n  or\n  swap1\n  sstore\n  pop\n    /* \"Crowd_Funding/contract.sol\":667:895  constructor(uint _target, uint _deadline){... */\n  pop\n  pop\n    /* \"Crowd_Funding/contract.sol\":35:3201  contract crowd_fund{... */\n  jump(tag_8)\n    /* \"#utility.yul\":88:205   */\ntag_10:\n    /* \"#utility.yul\":197:198   */\n  0x00\n    /* \"#utility.yul\":194:195   */\n  dup1\n    /* \"#utility.yul\":187:199   */\n  revert\n    /* \"#utility.yul\":334:411   */\ntag_12:\n    /* \"#utility.yul\":371:378   */\n  0x00\n    /* \"#utility.yul\":400:405   */\n  dup2\n    /* \"#utility.yul\":389:405   */\n  swap1\n  pop\n    /* \"#utility.yul\":334:411   */\n  swap2\n  swap1\n  pop\n  jump\t// out\n    /* \"#utility.yul\":417:539   */\ntag_13:\n    /* \"#utility.yul\":490:514   */\n  tag_22\n    /* \"#utility.yul\":508:513   */\n  dup2\n    /* \"#utility.yul\":490:514   */\n  tag_12\n  jump\t// in\ntag_22:\n    /* \"#utility.yul\":483:488   */\n  dup2\n    /* \"#utility.yul\":480:515   */\n  eq\n    /* \"#utility.yul\":470:533   */\n  tag_23\n  jumpi\n    /* \"#utility.yul\":529:530   */\n  0x00\n    /* \"#utility.yul\":526:527   */\n  dup1\n    /* \"#utility.yul\":519:531   */\n  revert\n    /* \"#utility.yul\":470:533   */\ntag_23:\n    /* \"#utility.yul\":417:539   */\n  pop\n  jump\t// out\n    /* \"#utility.yul\":545:688   */\ntag_14:\n    /* \"#utility.yul\":602:607   */\n  0x00\n    /* \"#utility.yul\":633:639   */\n  dup2\n    /* \"#utility.yul\":627:640   */\n  mload\n    /* \"#utility.yul\":618:640   */\n  swap1\n  pop\n    /* \"#utility.yul\":649:682   */\n  tag_25\n    /* \"#utility.yul\":676:681   */\n  dup2\n    /* \"#utility.yul\":649:682   */\n  tag_13\n  jump\t// in\ntag_25:\n    /* \"#utility.yul\":545:688   */\n  swap3\n  swap2\n  pop\n  pop\n  jump\t// out\n    /* \"#utility.yul\":694:1201   */\ntag_3:\n    /* \"#utility.yul\":773:779   */\n  0x00\n    /* \"#utility.yul\":781:787   */\n  dup1\n    /* \"#utility.yul\":830:832   */\n  0x40\n    /* \"#utility.yul\":818:827   */\n  dup4\n    /* \"#utility.yul\":809:816   */\n  dup6\n    /* \"#utility.yul\":805:828   */\n  sub\n    /* \"#utility.yul\":801:833   */\n  slt\n    /* \"#utility.yul\":798:917   */\n  iszero\n  tag_27\n  jumpi\n    /* \"#utility.yul\":836:915   */\n  tag_28\n  tag_10\n  jump\t// in\ntag_28:\n    /* \"#utility.yul\":798:917   */\ntag_27:\n    /* \"#utility.yul\":956:957   */\n  0x00\n    /* \"#utility.yul\":981:1045   */\n  tag_29\n    /* \"#utility.yul\":1037:1044   */\n  dup6\n    /* \"#utility.yul\":1028:1034   */\n  dup3\n    /* \"#utility.yul\":1017:1026   */\n  dup7\n    /* \"#utility.yul\":1013:1035   */\n  add\n    /* \"#utility.yul\":981:1045   */\n  tag_14\n  jump\t// in\ntag_29:\n    /* \"#utility.yul\":971:1045   */\n  swap3\n  pop\n    /* \"#utility.yul\":927:1055   */\n  pop\n    /* \"#utility.yul\":1094:1096   */\n  0x20\n    /* \"#utility.yul\":1120:1184   */\n  tag_30\n    /* \"#utility.yul\":1176:1183   */\n  dup6\n    /* \"#utility.yul\":1167:1173   */\n  dup3\n    /* \"#utility.yul\":1156:1165   */\n  dup7\n    /* \"#utility.yul\":1152:1174   */\n  add\n    /* \"#utility.yul\":1120:1184   */\n  tag_14\n  jump\t// in\ntag_30:\n    /* \"#utility.yul\":1110:1184   */\n  swap2\n  pop\n    /* \"#utility.yul\":1065:1194   */\n  pop\n    /* \"#utility.yul\":694:1201   */\n  swap3\n  pop\n  swap3\n  swap1\n  pop\n  jump\t// out\n    /* \"#utility.yul\":1207:1387   */\ntag_15:\n    /* \"#utility.yul\":1255:1332   */\n  0x4e487b7100000000000000000000000000000000000000000000000000000000\n    /* \"#utility.yul\":1252:1253   */\n  0x00\n    /* \"#utility.yul\":1245:1333   */\n  mstore\n    /* \"#utility.yul\":1352:1356   */\n  0x11\n    /* \"#utility.yul\":1349:1350   */\n  0x04\n    /* \"#utility.yul\":1342:1357   */\n  mstore\n    /* \"#utility.yul\":1376:1380   */\n  0x24\n    /* \"#utility.yul\":1373:1374   */\n  0x00\n    /* \"#utility.yul\":1366:1381   */\n  revert\n    /* \"#utility.yul\":1393:1584   */\ntag_7:\n    /* \"#utility.yul\":1433:1436   */\n  0x00\n    /* \"#utility.yul\":1452:1472   */\n  tag_33\n    /* \"#utility.yul\":1470:1471   */\n  dup3\n    /* \"#utility.yul\":1452:1472   */\n  tag_12\n  jump\t// in\ntag_33:\n    /* \"#utility.yul\":1447:1472   */\n  swap2\n  pop\n    /* \"#utility.yul\":1486:1506   */\n  tag_34\n    /* \"#utility.yul\":1504:1505   */\n  dup4\n    /* \"#utility.yul\":1486:1506   */\n  tag_12\n  jump\t// in\ntag_34:\n    /* \"#utility.yul\":1481:1506   */\n  swap3\n  pop\n    /* \"#utility.yul\":1529:1530   */\n  dup3\n    /* \"#utility.yul\":1526:1527   */\n  dup3\n    /* \"#utility.yul\":1522:1531   */\n  add\n    /* \"#utility.yul\":1515:1531   */\n  swap1\n  pop\n    /* \"#utility.yul\":1550:1553   */\n  dup1\n    /* \"#utility.yul\":1547:1548   */\n  dup3\n    /* \"#utility.yul\":1544:1554   */\n  gt\n    /* \"#utility.yul\":1541:1577   */\n  iszero\n  tag_35\n  jumpi\n    /* \"#utility.yul\":1557:1575   */\n  tag_36\n  tag_15\n  jump\t// in\ntag_36:\n    /* \"#utility.yul\":1541:1577   */\ntag_35:\n    /* \"#utility.yul\":1393:1584   */\n  swap3\n  swap2\n  pop\n  pop\n  jump\t// out\n    /* \"Crowd_Funding/contract.sol\":35:3201  contract crowd_fund{... */\ntag_8:\n  dataSize(sub_0)\n  dup1\n  dataOffset(sub_0)\n  0x00\n  codecopy\n  0x00\n  return\nstop\n\nsub_0: assembly {\n        /* \"Crowd_Funding/contract.sol\":35:3201  contract crowd_fund{... */\n      mstore(0x40, 0x80)\n      jumpi(tag_1, lt(calldatasize, 0x04))\n      shr(0xe0, calldataload(0x00))\n      dup1\n      0xc71daccb\n      gt\n      tag_16\n      jumpi\n      dup1\n      0xd84d188b\n      gt\n      tag_17\n      jumpi\n      dup1\n      0xd84d188b\n      eq\n      tag_12\n      jumpi\n      dup1\n      0xe6c18374\n      eq\n      tag_13\n      jumpi\n      dup1\n      0xed88c68e\n      eq\n      tag_14\n      jumpi\n      dup1\n      0xf457ee5a\n      eq\n      tag_15\n      jumpi\n      jump(tag_1)\n    tag_17:\n      dup1\n      0xc71daccb\n      eq\n      tag_9\n      jumpi\n      dup1\n      0xd4b83992\n      eq\n      tag_10\n      jumpi\n      dup1\n      0xd5cef133\n      eq\n      tag_11\n      jumpi\n      jump(tag_1)\n    tag_16:\n      dup1\n      0x73081905\n      gt\n      tag_18\n      jumpi\n      dup1\n      0x73081905\n      eq\n      tag_5\n      jumpi\n      dup1\n      0x7773ded1\n      eq\n      tag_6\n      jumpi\n      dup1\n      0x7b8e8895\n      eq\n      tag_7\n      jumpi\n      dup1\n      0xb4a99a4e\n      eq\n      tag_8\n      jumpi\n      jump(tag_1)\n    tag_18:\n      dup1\n      0x12514bba\n      eq\n      tag_2\n      jumpi\n      dup1\n      0x29dcb0cf\n      eq\n      tag_3\n      jumpi\n      dup1\n      0x5b6681e8\n      eq\n      tag_4\n      jumpi\n    tag_1:\n      0x00\n      dup1\n      revert\n        /* \"Crowd_Funding/contract.sol\":2832:3198  function transfer(uint fund_num) public ownerReq{... */\n    tag_2:\n      callvalue\n      dup1\n      iszero\n      tag_19\n      jumpi\n      0x00\n      dup1\n      revert\n    tag_19:\n      pop\n      tag_20\n      0x04\n      dup1\n      calldatasize\n      sub\n      dup2\n      add\n      swap1\n      tag_21\n      swap2\n      swap1\n      tag_22\n      jump\t// in\n    tag_21:\n      tag_23\n      jump\t// in\n    tag_20:\n      stop\n        /* \"Crowd_Funding/contract.sol\":258:278  uint public deadline */\n    tag_3:\n      callvalue\n      dup1\n      iszero\n      tag_24\n      jumpi\n      0x00\n      dup1\n      revert\n    tag_24:\n      pop\n      tag_25\n      tag_26\n      jump\t// in\n    tag_25:\n      mload(0x40)\n      tag_27\n      swap2\n      swap1\n      tag_28\n      jump\t// in\n    tag_27:\n      mload(0x40)\n      dup1\n      swap2\n      sub\n      swap1\n      return\n        /* \"Crowd_Funding/contract.sol\":310:332  uint public raised_amt */\n    tag_4:\n      callvalue\n      dup1\n      iszero\n      tag_29\n      jumpi\n      0x00\n      dup1\n      revert\n    tag_29:\n      pop\n      tag_30\n      tag_31\n      jump\t// in\n    tag_30:\n      mload(0x40)\n      tag_32\n      swap2\n      swap1\n      tag_28\n      jump\t// in\n    tag_32:\n      mload(0x40)\n      dup1\n      swap2\n      sub\n      swap1\n      return\n        /* \"Crowd_Funding/contract.sol\":370:394  uint public no_of_donors */\n    tag_5:\n      callvalue\n      dup1\n      iszero\n      tag_33\n      jumpi\n      0x00\n      dup1\n      revert\n    tag_33:\n      pop\n      tag_34\n      tag_35\n      jump\t// in\n    tag_34:\n      mload(0x40)\n      tag_36\n      swap2\n      swap1\n      tag_28\n      jump\t// in\n    tag_36:\n      mload(0x40)\n      dup1\n      swap2\n      sub\n      swap1\n      return\n        /* \"Crowd_Funding/contract.sol\":1108:1573  function createFund (string calldata _desc,address payable _recipient, uint _value) public ownerReq {... */\n    tag_6:\n      callvalue\n      dup1\n      iszero\n      tag_37\n      jumpi\n      0x00\n      dup1\n      revert\n    tag_37:\n      pop\n      tag_38\n      0x04\n      dup1\n      calldatasize\n      sub\n      dup2\n      add\n      swap1\n      tag_39\n      swap2\n      swap1\n      tag_40\n      jump\t// in\n    tag_39:\n      tag_41\n      jump\t// in\n    tag_38:\n      stop\n        /* \"Crowd_Funding/contract.sol\":521:562  mapping (uint=>fund_details) public funds */\n    tag_7:\n      callvalue\n      dup1\n      iszero\n      tag_42\n      jumpi\n      0x00\n      dup1\n      revert\n    tag_42:\n      pop\n      tag_43\n      0x04\n      dup1\n      calldatasize\n      sub\n      dup2\n      add\n      swap1\n      tag_44\n      swap2\n      swap1\n      tag_22\n      jump\t// in\n    tag_44:\n      tag_45\n      jump\t// in\n    tag_43:\n      mload(0x40)\n      tag_46\n      swap5\n      swap4\n      swap3\n      swap2\n      swap1\n      tag_47\n      jump\t// in\n    tag_46:\n      mload(0x40)\n      dup1\n      swap2\n      sub\n      swap1\n      return\n        /* \"Crowd_Funding/contract.sol\":432:452  address public Owner */\n    tag_8:\n      callvalue\n      dup1\n      iszero\n      tag_48\n      jumpi\n      0x00\n      dup1\n      revert\n    tag_48:\n      pop\n      tag_49\n      tag_50\n      jump\t// in\n    tag_49:\n      mload(0x40)\n      tag_51\n      swap2\n      swap1\n      tag_52\n      jump\t// in\n    tag_51:\n      mload(0x40)\n      dup1\n      swap2\n      sub\n      swap1\n      return\n        /* \"Crowd_Funding/contract.sol\":2181:2278  function checkBalance () public view returns(uint){... */\n    tag_9:\n      callvalue\n      dup1\n      iszero\n      tag_53\n      jumpi\n      0x00\n      dup1\n      revert\n    tag_53:\n      pop\n      tag_54\n      tag_55\n      jump\t// in\n    tag_54:\n      mload(0x40)\n      tag_56\n      swap2\n      swap1\n      tag_28\n      jump\t// in\n    tag_56:\n      mload(0x40)\n      dup1\n      swap2\n      sub\n      swap1\n      return\n        /* \"Crowd_Funding/contract.sol\":285:303  uint public target */\n    tag_10:\n      callvalue\n      dup1\n      iszero\n      tag_57\n      jumpi\n      0x00\n      dup1\n      revert\n    tag_57:\n      pop\n      tag_58\n      tag_59\n      jump\t// in\n    tag_58:\n      mload(0x40)\n      tag_60\n      swap2\n      swap1\n      tag_28\n      jump\t// in\n    tag_60:\n      mload(0x40)\n      dup1\n      swap2\n      sub\n      swap1\n      return\n        /* \"Crowd_Funding/contract.sol\":2340:2772  function requestRefund() public {... */\n    tag_11:\n      callvalue\n      dup1\n      iszero\n      tag_61\n      jumpi\n      0x00\n      dup1\n      revert\n    tag_61:\n      pop\n      tag_62\n      tag_63\n      jump\t// in\n    tag_62:\n      stop\n        /* \"Crowd_Funding/contract.sol\":401:425  uint public num_requests */\n    tag_12:\n      callvalue\n      dup1\n      iszero\n      tag_64\n      jumpi\n      0x00\n      dup1\n      revert\n    tag_64:\n      pop\n      tag_65\n      tag_66\n      jump\t// in\n    tag_65:\n      mload(0x40)\n      tag_67\n      swap2\n      swap1\n      tag_28\n      jump\t// in\n    tag_67:\n      mload(0x40)\n      dup1\n      swap2\n      sub\n      swap1\n      return\n        /* \"Crowd_Funding/contract.sol\":339:363  uint public min_donation */\n    tag_13:\n      callvalue\n      dup1\n      iszero\n      tag_68\n      jumpi\n      0x00\n      dup1\n      revert\n    tag_68:\n      pop\n      tag_69\n      tag_70\n      jump\t// in\n    tag_69:\n      mload(0x40)\n      tag_71\n      swap2\n      swap1\n      tag_28\n      jump\t// in\n    tag_71:\n      mload(0x40)\n      dup1\n      swap2\n      sub\n      swap1\n      return\n        /* \"Crowd_Funding/contract.sol\":1610:2130  function donate() public payable {... */\n    tag_14:\n      tag_72\n      tag_73\n      jump\t// in\n    tag_72:\n      stop\n        /* \"Crowd_Funding/contract.sol\":459:498  mapping (address=>uint) public donation */\n    tag_15:\n      callvalue\n      dup1\n      iszero\n      tag_74\n      jumpi\n      0x00\n      dup1\n      revert\n    tag_74:\n      pop\n      tag_75\n      0x04\n      dup1\n      calldatasize\n      sub\n      dup2\n      add\n      swap1\n      tag_76\n      swap2\n      swap1\n      tag_77\n      jump\t// in\n    tag_76:\n      tag_78\n      jump\t// in\n    tag_75:\n      mload(0x40)\n      tag_79\n      swap2\n      swap1\n      tag_28\n      jump\t// in\n    tag_79:\n      mload(0x40)\n      dup1\n      swap2\n      sub\n      swap1\n      return\n        /* \"Crowd_Funding/contract.sol\":2832:3198  function transfer(uint fund_num) public ownerReq{... */\n    tag_23:\n        /* \"Crowd_Funding/contract.sol\":991:996  Owner */\n      0x06\n      0x00\n      swap1\n      sload\n      swap1\n      0x0100\n      exp\n      swap1\n      div\n      0xffffffffffffffffffffffffffffffffffffffff\n      and\n        /* \"Crowd_Funding/contract.sol\":979:996  msg.sender==Owner */\n      0xffffffffffffffffffffffffffffffffffffffff\n      and\n        /* \"Crowd_Funding/contract.sol\":979:989  msg.sender */\n      caller\n        /* \"Crowd_Funding/contract.sol\":979:996  msg.sender==Owner */\n      0xffffffffffffffffffffffffffffffffffffffff\n      and\n      eq\n        /* \"Crowd_Funding/contract.sol\":971:1035  require(msg.sender==Owner,\"Can only be used by Contract Owner!\") */\n      tag_81\n      jumpi\n      mload(0x40)\n      0x08c379a000000000000000000000000000000000000000000000000000000000\n      dup2\n      mstore\n      0x04\n      add\n      tag_82\n      swap1\n      tag_83\n      jump\t// in\n    tag_82:\n      mload(0x40)\n      dup1\n      swap2\n      sub\n      swap1\n      revert\n    tag_81:\n        /* \"Crowd_Funding/contract.sol\":2911:2917  target */\n      sload(0x01)\n        /* \"Crowd_Funding/contract.sol\":2899:2909  raised_amt */\n      sload(0x02)\n        /* \"Crowd_Funding/contract.sol\":2899:2917  raised_amt>=target */\n      lt\n      iszero\n        /* \"Crowd_Funding/contract.sol\":2891:2938  require(raised_amt>=target,\"Target isn't met!\") */\n      tag_85\n      jumpi\n      mload(0x40)\n      0x08c379a000000000000000000000000000000000000000000000000000000000\n      dup2\n      mstore\n      0x04\n      add\n      tag_86\n      swap1\n      tag_87\n      jump\t// in\n    tag_86:\n      mload(0x40)\n      dup1\n      swap2\n      sub\n      swap1\n      revert\n    tag_85:\n        /* \"Crowd_Funding/contract.sol\":2949:2973  fund_details storage obj */\n      0x00\n        /* \"Crowd_Funding/contract.sol\":2976:2981  funds */\n      0x08\n        /* \"Crowd_Funding/contract.sol\":2976:2991  funds[fund_num] */\n      0x00\n        /* \"Crowd_Funding/contract.sol\":2982:2990  fund_num */\n      dup4\n        /* \"Crowd_Funding/contract.sol\":2976:2991  funds[fund_num] */\n      dup2\n      mstore\n      0x20\n      add\n      swap1\n      dup2\n      mstore\n      0x20\n      add\n      0x00\n      keccak256\n        /* \"Crowd_Funding/contract.sol\":2949:2991  fund_details storage obj = funds[fund_num] */\n      swap1\n      pop\n        /* \"Crowd_Funding/contract.sol\":3069:3074  false */\n      0x00\n        /* \"Crowd_Funding/contract.sol\":3054:3074  obj.completed==false */\n      iszero\n      iszero\n        /* \"Crowd_Funding/contract.sol\":3054:3057  obj */\n      dup2\n        /* \"Crowd_Funding/contract.sol\":3054:3067  obj.completed */\n      0x02\n      add\n      0x14\n      swap1\n      sload\n      swap1\n      0x0100\n      exp\n      swap1\n      div\n      0xff\n      and\n        /* \"Crowd_Funding/contract.sol\":3054:3074  obj.completed==false */\n      iszero\n      iszero\n      eq\n        /* \"Crowd_Funding/contract.sol\":3046:3117  require(obj.completed==false,\"The Funds have already been transferred\") */\n      tag_88\n      jumpi\n      mload(0x40)\n      0x08c379a000000000000000000000000000000000000000000000000000000000\n      dup2\n      mstore\n      0x04\n      add\n      tag_89\n      swap1\n      tag_90\n      jump\t// in\n    tag_89:\n      mload(0x40)\n      dup1\n      swap2\n      sub\n      swap1\n      revert\n    tag_88:\n        /* \"Crowd_Funding/contract.sol\":3128:3131  obj */\n      dup1\n        /* \"Crowd_Funding/contract.sol\":3128:3141  obj.recipient */\n      0x02\n      add\n      0x00\n      swap1\n      sload\n      swap1\n      0x0100\n      exp\n      swap1\n      div\n      0xffffffffffffffffffffffffffffffffffffffff\n      and\n        /* \"Crowd_Funding/contract.sol\":3128:3150  obj.recipient.transfer */\n      0xffffffffffffffffffffffffffffffffffffffff\n      and\n        /* \"Crowd_Funding/contract.sol\":3128:3161  obj.recipient.transfer(obj.value) */\n      0x08fc\n        /* \"Crowd_Funding/contract.sol\":3151:3154  obj */\n      dup3\n        /* \"Crowd_Funding/contract.sol\":3151:3160  obj.value */\n      0x01\n      add\n      sload\n        /* \"Crowd_Funding/contract.sol\":3128:3161  obj.recipient.transfer(obj.value) */\n      swap1\n      dup2\n      iszero\n      mul\n      swap1\n      mload(0x40)\n      0x00\n      mload(0x40)\n      dup1\n      dup4\n      sub\n      dup2\n      dup6\n      dup9\n      dup9\n      call\n      swap4\n      pop\n      pop\n      pop\n      pop\n      iszero\n      dup1\n      iszero\n      tag_92\n      jumpi\n      returndatasize\n      0x00\n      dup1\n      returndatacopy\n      revert(0x00, returndatasize)\n    tag_92:\n      pop\n        /* \"Crowd_Funding/contract.sol\":3186:3190  true */\n      0x01\n        /* \"Crowd_Funding/contract.sol\":3172:3175  obj */\n      dup2\n        /* \"Crowd_Funding/contract.sol\":3172:3185  obj.completed */\n      0x02\n      add\n      0x14\n        /* \"Crowd_Funding/contract.sol\":3172:3190  obj.completed=true */\n      0x0100\n      exp\n      dup2\n      sload\n      dup2\n      0xff\n      mul\n      not\n      and\n      swap1\n      dup4\n      iszero\n      iszero\n      mul\n      or\n      swap1\n      sstore\n      pop\n        /* \"Crowd_Funding/contract.sol\":2880:3198  {... */\n      pop\n        /* \"Crowd_Funding/contract.sol\":2832:3198  function transfer(uint fund_num) public ownerReq{... */\n      pop\n      jump\t// out\n        /* \"Crowd_Funding/contract.sol\":258:278  uint public deadline */\n    tag_26:\n      sload(0x00)\n      dup2\n      jump\t// out\n        /* \"Crowd_Funding/contract.sol\":310:332  uint public raised_amt */\n    tag_31:\n      sload(0x02)\n      dup2\n      jump\t// out\n        /* \"Crowd_Funding/contract.sol\":370:394  uint public no_of_donors */\n    tag_35:\n      sload(0x04)\n      dup2\n      jump\t// out\n        /* \"Crowd_Funding/contract.sol\":1108:1573  function createFund (string calldata _desc,address payable _recipient, uint _value) public ownerReq {... */\n    tag_41:\n        /* \"Crowd_Funding/contract.sol\":991:996  Owner */\n      0x06\n      0x00\n      swap1\n      sload\n      swap1\n      0x0100\n      exp\n      swap1\n      div\n      0xffffffffffffffffffffffffffffffffffffffff\n      and\n        /* \"Crowd_Funding/contract.sol\":979:996  msg.sender==Owner */\n      0xffffffffffffffffffffffffffffffffffffffff\n      and\n        /* \"Crowd_Funding/contract.sol\":979:989  msg.sender */\n      caller\n        /* \"Crowd_Funding/contract.sol\":979:996  msg.sender==Owner */\n      0xffffffffffffffffffffffffffffffffffffffff\n      and\n      eq\n        /* \"Crowd_Funding/contract.sol\":971:1035  require(msg.sender==Owner,\"Can only be used by Contract Owner!\") */\n      tag_94\n      jumpi\n      mload(0x40)\n      0x08c379a000000000000000000000000000000000000000000000000000000000\n      dup2\n      mstore\n      0x04\n      add\n      tag_95\n      swap1\n      tag_83\n      jump\t// in\n    tag_95:\n      mload(0x40)\n      dup1\n      swap2\n      sub\n      swap1\n      revert\n    tag_94:\n        /* \"Crowd_Funding/contract.sol\":1345:1374  fund_details storage fund_obj */\n      0x00\n        /* \"Crowd_Funding/contract.sol\":1377:1382  funds */\n      0x08\n        /* \"Crowd_Funding/contract.sol\":1377:1396  funds[num_requests] */\n      0x00\n        /* \"Crowd_Funding/contract.sol\":1383:1395  num_requests */\n      sload(0x05)\n        /* \"Crowd_Funding/contract.sol\":1377:1396  funds[num_requests] */\n      dup2\n      mstore\n      0x20\n      add\n      swap1\n      dup2\n      mstore\n      0x20\n      add\n      0x00\n      keccak256\n        /* \"Crowd_Funding/contract.sol\":1345:1396  fund_details storage fund_obj = funds[num_requests] */\n      swap1\n      pop\n        /* \"Crowd_Funding/contract.sol\":1407:1419  num_requests */\n      0x05\n      0x00\n        /* \"Crowd_Funding/contract.sol\":1407:1421  num_requests++ */\n      dup2\n      sload\n      dup1\n      swap3\n      swap2\n      swap1\n      tag_97\n      swap1\n      tag_98\n      jump\t// in\n    tag_97:\n      swap2\n      swap1\n      pop\n      sstore\n      pop\n        /* \"Crowd_Funding/contract.sol\":1453:1458  _desc */\n      dup5\n      dup5\n        /* \"Crowd_Funding/contract.sol\":1432:1440  fund_obj */\n      dup3\n        /* \"Crowd_Funding/contract.sol\":1432:1452  fund_obj.description */\n      0x00\n      add\n        /* \"Crowd_Funding/contract.sol\":1432:1458  fund_obj.description=_desc */\n      swap2\n      dup3\n      tag_99\n      swap3\n      swap2\n      swap1\n      tag_100\n      jump\t// in\n    tag_99:\n      pop\n        /* \"Crowd_Funding/contract.sol\":1488:1498  _recipient */\n      dup3\n        /* \"Crowd_Funding/contract.sol\":1469:1477  fund_obj */\n      dup2\n        /* \"Crowd_Funding/contract.sol\":1469:1487  fund_obj.recipient */\n      0x02\n      add\n      0x00\n        /* \"Crowd_Funding/contract.sol\":1469:1498  fund_obj.recipient=_recipient */\n      0x0100\n      exp\n      dup2\n      sload\n      dup2\n      0xffffffffffffffffffffffffffffffffffffffff\n      mul\n      not\n      and\n      swap1\n      dup4\n      0xffffffffffffffffffffffffffffffffffffffff\n      and\n      mul\n      or\n      swap1\n      sstore\n      pop\n        /* \"Crowd_Funding/contract.sol\":1524:1530  _value */\n      dup2\n        /* \"Crowd_Funding/contract.sol\":1509:1517  fund_obj */\n      dup2\n        /* \"Crowd_Funding/contract.sol\":1509:1523  fund_obj.value */\n      0x01\n      add\n        /* \"Crowd_Funding/contract.sol\":1509:1530  fund_obj.value=_value */\n      dup2\n      swap1\n      sstore\n      pop\n        /* \"Crowd_Funding/contract.sol\":1560:1565  false */\n      0x00\n        /* \"Crowd_Funding/contract.sol\":1541:1549  fund_obj */\n      dup2\n        /* \"Crowd_Funding/contract.sol\":1541:1559  fund_obj.completed */\n      0x02\n      add\n      0x14\n        /* \"Crowd_Funding/contract.sol\":1541:1565  fund_obj.completed=false */\n      0x0100\n      exp\n      dup2\n      sload\n      dup2\n      0xff\n      mul\n      not\n      and\n      swap1\n      dup4\n      iszero\n      iszero\n      mul\n      or\n      swap1\n      sstore\n      pop\n        /* \"Crowd_Funding/contract.sol\":1208:1573  {... */\n      pop\n        /* \"Crowd_Funding/contract.sol\":1108:1573  function createFund (string calldata _desc,address payable _recipient, uint _value) public ownerReq {... */\n      pop\n      pop\n      pop\n      pop\n      jump\t// out\n        /* \"Crowd_Funding/contract.sol\":521:562  mapping (uint=>fund_details) public funds */\n    tag_45:\n      mstore(0x20, 0x08)\n      dup1\n      0x00\n      mstore\n      keccak256(0x00, 0x40)\n      0x00\n      swap2\n      pop\n      swap1\n      pop\n      dup1\n      0x00\n      add\n      dup1\n      sload\n      tag_101\n      swap1\n      tag_102\n      jump\t// in\n    tag_101:\n      dup1\n      0x1f\n      add\n      0x20\n      dup1\n      swap2\n      div\n      mul\n      0x20\n      add\n      mload(0x40)\n      swap1\n      dup2\n      add\n      0x40\n      mstore\n      dup1\n      swap3\n      swap2\n      swap1\n      dup2\n      dup2\n      mstore\n      0x20\n      add\n      dup3\n      dup1\n      sload\n      tag_103\n      swap1\n      tag_102\n      jump\t// in\n    tag_103:\n      dup1\n      iszero\n      tag_104\n      jumpi\n      dup1\n      0x1f\n      lt\n      tag_105\n      jumpi\n      0x0100\n      dup1\n      dup4\n      sload\n      div\n      mul\n      dup4\n      mstore\n      swap2\n      0x20\n      add\n      swap2\n      jump(tag_104)\n    tag_105:\n      dup3\n      add\n      swap2\n      swap1\n      0x00\n      mstore\n      keccak256(0x00, 0x20)\n      swap1\n    tag_106:\n      dup2\n      sload\n      dup2\n      mstore\n      swap1\n      0x01\n      add\n      swap1\n      0x20\n      add\n      dup1\n      dup4\n      gt\n      tag_106\n      jumpi\n      dup3\n      swap1\n      sub\n      0x1f\n      and\n      dup3\n      add\n      swap2\n    tag_104:\n      pop\n      pop\n      pop\n      pop\n      pop\n      swap1\n      dup1\n      0x01\n      add\n      sload\n      swap1\n      dup1\n      0x02\n      add\n      0x00\n      swap1\n      sload\n      swap1\n      0x0100\n      exp\n      swap1\n      div\n      0xffffffffffffffffffffffffffffffffffffffff\n      and\n      swap1\n      dup1\n      0x02\n      add\n      0x14\n      swap1\n      sload\n      swap1\n      0x0100\n      exp\n      swap1\n      div\n      0xff\n      and\n      swap1\n      pop\n      dup5\n      jump\t// out\n        /* \"Crowd_Funding/contract.sol\":432:452  address public Owner */\n    tag_50:\n      0x06\n      0x00\n      swap1\n      sload\n      swap1\n      0x0100\n      exp\n      swap1\n      div\n      0xffffffffffffffffffffffffffffffffffffffff\n      and\n      dup2\n      jump\t// out\n        /* \"Crowd_Funding/contract.sol\":2181:2278  function checkBalance () public view returns(uint){... */\n    tag_55:\n        /* \"Crowd_Funding/contract.sol\":2226:2230  uint */\n      0x00\n        /* \"Crowd_Funding/contract.sol\":2249:2270  address(this).balance */\n      selfbalance\n        /* \"Crowd_Funding/contract.sol\":2242:2270  return address(this).balance */\n      swap1\n      pop\n        /* \"Crowd_Funding/contract.sol\":2181:2278  function checkBalance () public view returns(uint){... */\n      swap1\n      jump\t// out\n        /* \"Crowd_Funding/contract.sol\":285:303  uint public target */\n    tag_59:\n      sload(0x01)\n      dup2\n      jump\t// out\n        /* \"Crowd_Funding/contract.sol\":2340:2772  function requestRefund() public {... */\n    tag_63:\n        /* \"Crowd_Funding/contract.sol\":2407:2415  deadline */\n      sload(0x00)\n        /* \"Crowd_Funding/contract.sol\":2391:2406  block.timestamp */\n      timestamp\n        /* \"Crowd_Funding/contract.sol\":2391:2415  block.timestamp>deadline */\n      gt\n        /* \"Crowd_Funding/contract.sol\":2391:2436  block.timestamp>deadline && raised_amt<target */\n      dup1\n      iszero\n      tag_109\n      jumpi\n      pop\n        /* \"Crowd_Funding/contract.sol\":2430:2436  target */\n      sload(0x01)\n        /* \"Crowd_Funding/contract.sol\":2419:2429  raised_amt */\n      sload(0x02)\n        /* \"Crowd_Funding/contract.sol\":2419:2436  raised_amt<target */\n      lt\n        /* \"Crowd_Funding/contract.sol\":2391:2436  block.timestamp>deadline && raised_amt<target */\n    tag_109:\n        /* \"Crowd_Funding/contract.sol\":2383:2470  require(block.timestamp>deadline && raised_amt<target,\"You're not eligible for Refund\") */\n      tag_110\n      jumpi\n      mload(0x40)\n      0x08c379a000000000000000000000000000000000000000000000000000000000\n      dup2\n      mstore\n      0x04\n      add\n      tag_111\n      swap1\n      tag_112\n      jump\t// in\n    tag_111:\n      mload(0x40)\n      dup1\n      swap2\n      sub\n      swap1\n      revert\n    tag_110:\n        /* \"Crowd_Funding/contract.sol\":2510:2511  0 */\n      0x00\n        /* \"Crowd_Funding/contract.sol\":2489:2497  donation */\n      0x07\n        /* \"Crowd_Funding/contract.sol\":2489:2509  donation[msg.sender] */\n      0x00\n        /* \"Crowd_Funding/contract.sol\":2498:2508  msg.sender */\n      caller\n        /* \"Crowd_Funding/contract.sol\":2489:2509  donation[msg.sender] */\n      0xffffffffffffffffffffffffffffffffffffffff\n      and\n      0xffffffffffffffffffffffffffffffffffffffff\n      and\n      dup2\n      mstore\n      0x20\n      add\n      swap1\n      dup2\n      mstore\n      0x20\n      add\n      0x00\n      keccak256\n      sload\n        /* \"Crowd_Funding/contract.sol\":2489:2511  donation[msg.sender]>0 */\n      gt\n        /* \"Crowd_Funding/contract.sol\":2481:2534  require(donation[msg.sender]>0,\"You are not a donor\") */\n      tag_113\n      jumpi\n      mload(0x40)\n      0x08c379a000000000000000000000000000000000000000000000000000000000\n      dup2\n      mstore\n      0x04\n      add\n      tag_114\n      swap1\n      tag_115\n      jump\t// in\n    tag_114:\n      mload(0x40)\n      dup1\n      swap2\n      sub\n      swap1\n      revert\n    tag_113:\n        /* \"Crowd_Funding/contract.sol\":2632:2642  msg.sender */\n      caller\n        /* \"Crowd_Funding/contract.sol\":2623:2652  payable (msg.sender).transfer */\n      0xffffffffffffffffffffffffffffffffffffffff\n      and\n        /* \"Crowd_Funding/contract.sol\":2623:2674  payable (msg.sender).transfer(donation[msg.sender]) */\n      0x08fc\n        /* \"Crowd_Funding/contract.sol\":2653:2661  donation */\n      0x07\n        /* \"Crowd_Funding/contract.sol\":2653:2673  donation[msg.sender] */\n      0x00\n        /* \"Crowd_Funding/contract.sol\":2662:2672  msg.sender */\n      caller\n        /* \"Crowd_Funding/contract.sol\":2653:2673  donation[msg.sender] */\n      0xffffffffffffffffffffffffffffffffffffffff\n      and\n      0xffffffffffffffffffffffffffffffffffffffff\n      and\n      dup2\n      mstore\n      0x20\n      add\n      swap1\n      dup2\n      mstore\n      0x20\n      add\n      0x00\n      keccak256\n      sload\n        /* \"Crowd_Funding/contract.sol\":2623:2674  payable (msg.sender).transfer(donation[msg.sender]) */\n      swap1\n      dup2\n      iszero\n      mul\n      swap1\n      mload(0x40)\n      0x00\n      mload(0x40)\n      dup1\n      dup4\n      sub\n      dup2\n      dup6\n      dup9\n      dup9\n      call\n      swap4\n      pop\n      pop\n      pop\n      pop\n      iszero\n      dup1\n      iszero\n      tag_117\n      jumpi\n      returndatasize\n      0x00\n      dup1\n      returndatacopy\n      revert(0x00, returndatasize)\n    tag_117:\n      pop\n        /* \"Crowd_Funding/contract.sol\":2746:2747  0 */\n      0x00\n        /* \"Crowd_Funding/contract.sol\":2725:2733  donation */\n      0x07\n        /* \"Crowd_Funding/contract.sol\":2725:2745  donation[msg.sender] */\n      0x00\n        /* \"Crowd_Funding/contract.sol\":2734:2744  msg.sender */\n      caller\n        /* \"Crowd_Funding/contract.sol\":2725:2745  donation[msg.sender] */\n      0xffffffffffffffffffffffffffffffffffffffff\n      and\n      0xffffffffffffffffffffffffffffffffffffffff\n      and\n      dup2\n      mstore\n      0x20\n      add\n      swap1\n      dup2\n      mstore\n      0x20\n      add\n      0x00\n      keccak256\n        /* \"Crowd_Funding/contract.sol\":2725:2747  donation[msg.sender]=0 */\n      dup2\n      swap1\n      sstore\n      pop\n        /* \"Crowd_Funding/contract.sol\":2340:2772  function requestRefund() public {... */\n      jump\t// out\n        /* \"Crowd_Funding/contract.sol\":401:425  uint public num_requests */\n    tag_66:\n      sload(0x05)\n      dup2\n      jump\t// out\n        /* \"Crowd_Funding/contract.sol\":339:363  uint public min_donation */\n    tag_70:\n      sload(0x03)\n      dup2\n      jump\t// out\n        /* \"Crowd_Funding/contract.sol\":1610:2130  function donate() public payable {... */\n    tag_73:\n        /* \"Crowd_Funding/contract.sol\":1678:1686  deadline */\n      sload(0x00)\n        /* \"Crowd_Funding/contract.sol\":1662:1677  block.timestamp */\n      timestamp\n        /* \"Crowd_Funding/contract.sol\":1662:1686  block.timestamp<deadline */\n      lt\n        /* \"Crowd_Funding/contract.sol\":1654:1712  require(block.timestamp<deadline,\"This Fund has expired!\") */\n      tag_119\n      jumpi\n      mload(0x40)\n      0x08c379a000000000000000000000000000000000000000000000000000000000\n      dup2\n      mstore\n      0x04\n      add\n      tag_120\n      swap1\n      tag_121\n      jump\t// in\n    tag_120:\n      mload(0x40)\n      dup1\n      swap2\n      sub\n      swap1\n      revert\n    tag_119:\n        /* \"Crowd_Funding/contract.sol\":1742:1754  min_donation */\n      sload(0x03)\n        /* \"Crowd_Funding/contract.sol\":1731:1740  msg.value */\n      callvalue\n        /* \"Crowd_Funding/contract.sol\":1731:1754  msg.value>=min_donation */\n      lt\n      iszero\n        /* \"Crowd_Funding/contract.sol\":1723:1795  require(msg.value>=min_donation,\"Minimun Donation required is 1 Ether \") */\n      tag_122\n      jumpi\n      mload(0x40)\n      0x08c379a000000000000000000000000000000000000000000000000000000000\n      dup2\n      mstore\n      0x04\n      add\n      tag_123\n      swap1\n      tag_124\n      jump\t// in\n    tag_123:\n      mload(0x40)\n      dup1\n      swap2\n      sub\n      swap1\n      revert\n    tag_122:\n        /* \"Crowd_Funding/contract.sol\":1831:1832  0 */\n      0x00\n        /* \"Crowd_Funding/contract.sol\":1809:1817  donation */\n      0x07\n        /* \"Crowd_Funding/contract.sol\":1809:1829  donation[msg.sender] */\n      0x00\n        /* \"Crowd_Funding/contract.sol\":1818:1828  msg.sender */\n      caller\n        /* \"Crowd_Funding/contract.sol\":1809:1829  donation[msg.sender] */\n      0xffffffffffffffffffffffffffffffffffffffff\n      and\n      0xffffffffffffffffffffffffffffffffffffffff\n      and\n      dup2\n      mstore\n      0x20\n      add\n      swap1\n      dup2\n      mstore\n      0x20\n      add\n      0x00\n      keccak256\n      sload\n        /* \"Crowd_Funding/contract.sol\":1809:1832  donation[msg.sender]==0 */\n      sub\n        /* \"Crowd_Funding/contract.sol\":1806:1984  if(donation[msg.sender]==0) //checks if the address already exists by checking the amount, and for every new address, we increase the number of donars... */\n      tag_125\n      jumpi\n        /* \"Crowd_Funding/contract.sol\":1970:1982  no_of_donors */\n      0x04\n      0x00\n        /* \"Crowd_Funding/contract.sol\":1970:1984  no_of_donors++ */\n      dup2\n      sload\n      dup1\n      swap3\n      swap2\n      swap1\n      tag_126\n      swap1\n      tag_98\n      jump\t// in\n    tag_126:\n      swap2\n      swap1\n      pop\n      sstore\n      pop\n        /* \"Crowd_Funding/contract.sol\":1806:1984  if(donation[msg.sender]==0) //checks if the address already exists by checking the amount, and for every new address, we increase the number of donars... */\n    tag_125:\n        /* \"Crowd_Funding/contract.sol\":2017:2026  msg.value */\n      callvalue\n        /* \"Crowd_Funding/contract.sol\":1995:2003  donation */\n      0x07\n        /* \"Crowd_Funding/contract.sol\":1995:2015  donation[msg.sender] */\n      0x00\n        /* \"Crowd_Funding/contract.sol\":2004:2014  msg.sender */\n      caller\n        /* \"Crowd_Funding/contract.sol\":1995:2015  donation[msg.sender] */\n      0xffffffffffffffffffffffffffffffffffffffff\n      and\n      0xffffffffffffffffffffffffffffffffffffffff\n      and\n      dup2\n      mstore\n      0x20\n      add\n      swap1\n      dup2\n      mstore\n      0x20\n      add\n      0x00\n      keccak256\n      0x00\n        /* \"Crowd_Funding/contract.sol\":1995:2026  donation[msg.sender]+=msg.value */\n      dup3\n      dup3\n      sload\n      tag_127\n      swap2\n      swap1\n      tag_128\n      jump\t// in\n    tag_127:\n      swap3\n      pop\n      pop\n      dup2\n      swap1\n      sstore\n      pop\n        /* \"Crowd_Funding/contract.sol\":2112:2121  msg.value */\n      callvalue\n        /* \"Crowd_Funding/contract.sol\":2100:2110  raised_amt */\n      0x02\n      0x00\n        /* \"Crowd_Funding/contract.sol\":2100:2121  raised_amt+=msg.value */\n      dup3\n      dup3\n      sload\n      tag_129\n      swap2\n      swap1\n      tag_128\n      jump\t// in\n    tag_129:\n      swap3\n      pop\n      pop\n      dup2\n      swap1\n      sstore\n      pop\n        /* \"Crowd_Funding/contract.sol\":1610:2130  function donate() public payable {... */\n      jump\t// out\n        /* \"Crowd_Funding/contract.sol\":459:498  mapping (address=>uint) public donation */\n    tag_78:\n      mstore(0x20, 0x07)\n      dup1\n      0x00\n      mstore\n      keccak256(0x00, 0x40)\n      0x00\n      swap2\n      pop\n      swap1\n      pop\n      sload\n      dup2\n      jump\t// out\n        /* \"#utility.yul\":88:205   */\n    tag_131:\n        /* \"#utility.yul\":197:198   */\n      0x00\n        /* \"#utility.yul\":194:195   */\n      dup1\n        /* \"#utility.yul\":187:199   */\n      revert\n        /* \"#utility.yul\":211:328   */\n    tag_132:\n        /* \"#utility.yul\":320:321   */\n      0x00\n        /* \"#utility.yul\":317:318   */\n      dup1\n        /* \"#utility.yul\":310:322   */\n      revert\n        /* \"#utility.yul\":334:411   */\n    tag_133:\n        /* \"#utility.yul\":371:378   */\n      0x00\n        /* \"#utility.yul\":400:405   */\n      dup2\n        /* \"#utility.yul\":389:405   */\n      swap1\n      pop\n        /* \"#utility.yul\":334:411   */\n      swap2\n      swap1\n      pop\n      jump\t// out\n        /* \"#utility.yul\":417:539   */\n    tag_134:\n        /* \"#utility.yul\":490:514   */\n      tag_196\n        /* \"#utility.yul\":508:513   */\n      dup2\n        /* \"#utility.yul\":490:514   */\n      tag_133\n      jump\t// in\n    tag_196:\n        /* \"#utility.yul\":483:488   */\n      dup2\n        /* \"#utility.yul\":480:515   */\n      eq\n        /* \"#utility.yul\":470:533   */\n      tag_197\n      jumpi\n        /* \"#utility.yul\":529:530   */\n      0x00\n        /* \"#utility.yul\":526:527   */\n      dup1\n        /* \"#utility.yul\":519:531   */\n      revert\n        /* \"#utility.yul\":470:533   */\n    tag_197:\n        /* \"#utility.yul\":417:539   */\n      pop\n      jump\t// out\n        /* \"#utility.yul\":545:684   */\n    tag_135:\n        /* \"#utility.yul\":591:596   */\n      0x00\n        /* \"#utility.yul\":629:635   */\n      dup2\n        /* \"#utility.yul\":616:636   */\n      calldataload\n        /* \"#utility.yul\":607:636   */\n      swap1\n      pop\n        /* \"#utility.yul\":645:678   */\n      tag_199\n        /* \"#utility.yul\":672:677   */\n      dup2\n        /* \"#utility.yul\":645:678   */\n      tag_134\n      jump\t// in\n    tag_199:\n        /* \"#utility.yul\":545:684   */\n      swap3\n      swap2\n      pop\n      pop\n      jump\t// out\n        /* \"#utility.yul\":690:1019   */\n    tag_22:\n        /* \"#utility.yul\":749:755   */\n      0x00\n        /* \"#utility.yul\":798:800   */\n      0x20\n        /* \"#utility.yul\":786:795   */\n      dup3\n        /* \"#utility.yul\":777:784   */\n      dup5\n        /* \"#utility.yul\":773:796   */\n      sub\n        /* \"#utility.yul\":769:801   */\n      slt\n        /* \"#utility.yul\":766:885   */\n      iszero\n      tag_201\n      jumpi\n        /* \"#utility.yul\":804:883   */\n      tag_202\n      tag_131\n      jump\t// in\n    tag_202:\n        /* \"#utility.yul\":766:885   */\n    tag_201:\n        /* \"#utility.yul\":924:925   */\n      0x00\n        /* \"#utility.yul\":949:1002   */\n      tag_203\n        /* \"#utility.yul\":994:1001   */\n      dup5\n        /* \"#utility.yul\":985:991   */\n      dup3\n        /* \"#utility.yul\":974:983   */\n      dup6\n        /* \"#utility.yul\":970:992   */\n      add\n        /* \"#utility.yul\":949:1002   */\n      tag_135\n      jump\t// in\n    tag_203:\n        /* \"#utility.yul\":939:1002   */\n      swap2\n      pop\n        /* \"#utility.yul\":895:1012   */\n      pop\n        /* \"#utility.yul\":690:1019   */\n      swap3\n      swap2\n      pop\n      pop\n      jump\t// out\n        /* \"#utility.yul\":1025:1143   */\n    tag_136:\n        /* \"#utility.yul\":1112:1136   */\n      tag_205\n        /* \"#utility.yul\":1130:1135   */\n      dup2\n        /* \"#utility.yul\":1112:1136   */\n      tag_133\n      jump\t// in\n    tag_205:\n        /* \"#utility.yul\":1107:1110   */\n      dup3\n        /* \"#utility.yul\":1100:1137   */\n      mstore\n        /* \"#utility.yul\":1025:1143   */\n      pop\n      pop\n      jump\t// out\n        /* \"#utility.yul\":1149:1371   */\n    tag_28:\n        /* \"#utility.yul\":1242:1246   */\n      0x00\n        /* \"#utility.yul\":1280:1282   */\n      0x20\n        /* \"#utility.yul\":1269:1278   */\n      dup3\n        /* \"#utility.yul\":1265:1283   */\n      add\n        /* \"#utility.yul\":1257:1283   */\n      swap1\n      pop\n        /* \"#utility.yul\":1293:1364   */\n      tag_207\n        /* \"#utility.yul\":1361:1362   */\n      0x00\n        /* \"#utility.yul\":1350:1359   */\n      dup4\n        /* \"#utility.yul\":1346:1363   */\n      add\n        /* \"#utility.yul\":1337:1343   */\n      dup5\n        /* \"#utility.yul\":1293:1364   */\n      tag_136\n      jump\t// in\n    tag_207:\n        /* \"#utility.yul\":1149:1371   */\n      swap3\n      swap2\n      pop\n      pop\n      jump\t// out\n        /* \"#utility.yul\":1377:1494   */\n    tag_137:\n        /* \"#utility.yul\":1486:1487   */\n      0x00\n        /* \"#utility.yul\":1483:1484   */\n      dup1\n        /* \"#utility.yul\":1476:1488   */\n      revert\n        /* \"#utility.yul\":1500:1617   */\n    tag_138:\n        /* \"#utility.yul\":1609:1610   */\n      0x00\n        /* \"#utility.yul\":1606:1607   */\n      dup1\n        /* \"#utility.yul\":1599:1611   */\n      revert\n        /* \"#utility.yul\":1623:1740   */\n    tag_139:\n        /* \"#utility.yul\":1732:1733   */\n      0x00\n        /* \"#utility.yul\":1729:1730   */\n      dup1\n        /* \"#utility.yul\":1722:1734   */\n      revert\n        /* \"#utility.yul\":1760:2313   */\n    tag_140:\n        /* \"#utility.yul\":1818:1826   */\n      0x00\n        /* \"#utility.yul\":1828:1834   */\n      dup1\n        /* \"#utility.yul\":1878:1881   */\n      dup4\n        /* \"#utility.yul\":1871:1875   */\n      0x1f\n        /* \"#utility.yul\":1863:1869   */\n      dup5\n        /* \"#utility.yul\":1859:1876   */\n      add\n        /* \"#utility.yul\":1855:1882   */\n      slt\n        /* \"#utility.yul\":1845:1967   */\n      tag_212\n      jumpi\n        /* \"#utility.yul\":1886:1965   */\n      tag_213\n      tag_137\n      jump\t// in\n    tag_213:\n        /* \"#utility.yul\":1845:1967   */\n    tag_212:\n        /* \"#utility.yul\":1999:2005   */\n      dup3\n        /* \"#utility.yul\":1986:2006   */\n      calldataload\n        /* \"#utility.yul\":1976:2006   */\n      swap1\n      pop\n        /* \"#utility.yul\":2029:2047   */\n      0xffffffffffffffff\n        /* \"#utility.yul\":2021:2027   */\n      dup2\n        /* \"#utility.yul\":2018:2048   */\n      gt\n        /* \"#utility.yul\":2015:2132   */\n      iszero\n      tag_214\n      jumpi\n        /* \"#utility.yul\":2051:2130   */\n      tag_215\n      tag_138\n      jump\t// in\n    tag_215:\n        /* \"#utility.yul\":2015:2132   */\n    tag_214:\n        /* \"#utility.yul\":2165:2169   */\n      0x20\n        /* \"#utility.yul\":2157:2163   */\n      dup4\n        /* \"#utility.yul\":2153:2170   */\n      add\n        /* \"#utility.yul\":2141:2170   */\n      swap2\n      pop\n        /* \"#utility.yul\":2219:2222   */\n      dup4\n        /* \"#utility.yul\":2211:2215   */\n      0x01\n        /* \"#utility.yul\":2203:2209   */\n      dup3\n        /* \"#utility.yul\":2199:2216   */\n      mul\n        /* \"#utility.yul\":2189:2197   */\n      dup4\n        /* \"#utility.yul\":2185:2217   */\n      add\n        /* \"#utility.yul\":2182:2223   */\n      gt\n        /* \"#utility.yul\":2179:2307   */\n      iszero\n      tag_216\n      jumpi\n        /* \"#utility.yul\":2226:2305   */\n      tag_217\n      tag_139\n      jump\t// in\n    tag_217:\n        /* \"#utility.yul\":2179:2307   */\n    tag_216:\n        /* \"#utility.yul\":1760:2313   */\n      swap3\n      pop\n      swap3\n      swap1\n      pop\n      jump\t// out\n        /* \"#utility.yul\":2319:2445   */\n    tag_141:\n        /* \"#utility.yul\":2356:2363   */\n      0x00\n        /* \"#utility.yul\":2396:2438   */\n      0xffffffffffffffffffffffffffffffffffffffff\n        /* \"#utility.yul\":2389:2394   */\n      dup3\n        /* \"#utility.yul\":2385:2439   */\n      and\n        /* \"#utility.yul\":2374:2439   */\n      swap1\n      pop\n        /* \"#utility.yul\":2319:2445   */\n      swap2\n      swap1\n      pop\n      jump\t// out\n        /* \"#utility.yul\":2451:2555   */\n    tag_142:\n        /* \"#utility.yul\":2496:2503   */\n      0x00\n        /* \"#utility.yul\":2525:2549   */\n      tag_220\n        /* \"#utility.yul\":2543:2548   */\n      dup3\n        /* \"#utility.yul\":2525:2549   */\n      tag_141\n      jump\t// in\n    tag_220:\n        /* \"#utility.yul\":2514:2549   */\n      swap1\n      pop\n        /* \"#utility.yul\":2451:2555   */\n      swap2\n      swap1\n      pop\n      jump\t// out\n        /* \"#utility.yul\":2561:2699   */\n    tag_143:\n        /* \"#utility.yul\":2642:2674   */\n      tag_222\n        /* \"#utility.yul\":2668:2673   */\n      dup2\n        /* \"#utility.yul\":2642:2674   */\n      tag_142\n      jump\t// in\n    tag_222:\n        /* \"#utility.yul\":2635:2640   */\n      dup2\n        /* \"#utility.yul\":2632:2675   */\n      eq\n        /* \"#utility.yul\":2622:2693   */\n      tag_223\n      jumpi\n        /* \"#utility.yul\":2689:2690   */\n      0x00\n        /* \"#utility.yul\":2686:2687   */\n      dup1\n        /* \"#utility.yul\":2679:2691   */\n      revert\n        /* \"#utility.yul\":2622:2693   */\n    tag_223:\n        /* \"#utility.yul\":2561:2699   */\n      pop\n      jump\t// out\n        /* \"#utility.yul\":2705:2860   */\n    tag_144:\n        /* \"#utility.yul\":2759:2764   */\n      0x00\n        /* \"#utility.yul\":2797:2803   */\n      dup2\n        /* \"#utility.yul\":2784:2804   */\n      calldataload\n        /* \"#utility.yul\":2775:2804   */\n      swap1\n      pop\n        /* \"#utility.yul\":2813:2854   */\n      tag_225\n        /* \"#utility.yul\":2848:2853   */\n      dup2\n        /* \"#utility.yul\":2813:2854   */\n      tag_143\n      jump\t// in\n    tag_225:\n        /* \"#utility.yul\":2705:2860   */\n      swap3\n      swap2\n      pop\n      pop\n      jump\t// out\n        /* \"#utility.yul\":2866:3701   */\n    tag_40:\n        /* \"#utility.yul\":2963:2969   */\n      0x00\n        /* \"#utility.yul\":2971:2977   */\n      dup1\n        /* \"#utility.yul\":2979:2985   */\n      0x00\n        /* \"#utility.yul\":2987:2993   */\n      dup1\n        /* \"#utility.yul\":3036:3038   */\n      0x60\n        /* \"#utility.yul\":3024:3033   */\n      dup6\n        /* \"#utility.yul\":3015:3022   */\n      dup8\n        /* \"#utility.yul\":3011:3034   */\n      sub\n        /* \"#utility.yul\":3007:3039   */\n      slt\n        /* \"#utility.yul\":3004:3123   */\n      iszero\n      tag_227\n      jumpi\n        /* \"#utility.yul\":3042:3121   */\n      tag_228\n      tag_131\n      jump\t// in\n    tag_228:\n        /* \"#utility.yul\":3004:3123   */\n    tag_227:\n        /* \"#utility.yul\":3190:3191   */\n      0x00\n        /* \"#utility.yul\":3179:3188   */\n      dup6\n        /* \"#utility.yul\":3175:3192   */\n      add\n        /* \"#utility.yul\":3162:3193   */\n      calldataload\n        /* \"#utility.yul\":3220:3238   */\n      0xffffffffffffffff\n        /* \"#utility.yul\":3212:3218   */\n      dup2\n        /* \"#utility.yul\":3209:3239   */\n      gt\n        /* \"#utility.yul\":3206:3323   */\n      iszero\n      tag_229\n      jumpi\n        /* \"#utility.yul\":3242:3321   */\n      tag_230\n      tag_132\n      jump\t// in\n    tag_230:\n        /* \"#utility.yul\":3206:3323   */\n    tag_229:\n        /* \"#utility.yul\":3355:3420   */\n      tag_231\n        /* \"#utility.yul\":3412:3419   */\n      dup8\n        /* \"#utility.yul\":3403:3409   */\n      dup3\n        /* \"#utility.yul\":3392:3401   */\n      dup9\n        /* \"#utility.yul\":3388:3410   */\n      add\n        /* \"#utility.yul\":3355:3420   */\n      tag_140\n      jump\t// in\n    tag_231:\n        /* \"#utility.yul\":3337:3420   */\n      swap5\n      pop\n      swap5\n      pop\n        /* \"#utility.yul\":3133:3430   */\n      pop\n        /* \"#utility.yul\":3469:3471   */\n      0x20\n        /* \"#utility.yul\":3495:3556   */\n      tag_232\n        /* \"#utility.yul\":3548:3555   */\n      dup8\n        /* \"#utility.yul\":3539:3545   */\n      dup3\n        /* \"#utility.yul\":3528:3537   */\n      dup9\n        /* \"#utility.yul\":3524:3546   */\n      add\n        /* \"#utility.yul\":3495:3556   */\n      tag_144\n      jump\t// in\n    tag_232:\n        /* \"#utility.yul\":3485:3556   */\n      swap3\n      pop\n        /* \"#utility.yul\":3440:3566   */\n      pop\n        /* \"#utility.yul\":3605:3607   */\n      0x40\n        /* \"#utility.yul\":3631:3684   */\n      tag_233\n        /* \"#utility.yul\":3676:3683   */\n      dup8\n        /* \"#utility.yul\":3667:3673   */\n      dup3\n        /* \"#utility.yul\":3656:3665   */\n      dup9\n        /* \"#utility.yul\":3652:3674   */\n      add\n        /* \"#utility.yul\":3631:3684   */\n      tag_135\n      jump\t// in\n    tag_233:\n        /* \"#utility.yul\":3621:3684   */\n      swap2\n      pop\n        /* \"#utility.yul\":3576:3694   */\n      pop\n        /* \"#utility.yul\":2866:3701   */\n      swap3\n      swap6\n      swap2\n      swap5\n      pop\n      swap3\n      pop\n      jump\t// out\n        /* \"#utility.yul\":3707:3806   */\n    tag_145:\n        /* \"#utility.yul\":3759:3765   */\n      0x00\n        /* \"#utility.yul\":3793:3798   */\n      dup2\n        /* \"#utility.yul\":3787:3799   */\n      mload\n        /* \"#utility.yul\":3777:3799   */\n      swap1\n      pop\n        /* \"#utility.yul\":3707:3806   */\n      swap2\n      swap1\n      pop\n      jump\t// out\n        /* \"#utility.yul\":3812:3981   */\n    tag_146:\n        /* \"#utility.yul\":3896:3907   */\n      0x00\n        /* \"#utility.yul\":3930:3936   */\n      dup3\n        /* \"#utility.yul\":3925:3928   */\n      dup3\n        /* \"#utility.yul\":3918:3937   */\n      mstore\n        /* \"#utility.yul\":3970:3974   */\n      0x20\n        /* \"#utility.yul\":3965:3968   */\n      dup3\n        /* \"#utility.yul\":3961:3975   */\n      add\n        /* \"#utility.yul\":3946:3975   */\n      swap1\n      pop\n        /* \"#utility.yul\":3812:3981   */\n      swap3\n      swap2\n      pop\n      pop\n      jump\t// out\n        /* \"#utility.yul\":3987:4126   */\n    tag_147:\n        /* \"#utility.yul\":4076:4082   */\n      dup3\n        /* \"#utility.yul\":4071:4074   */\n      dup2\n        /* \"#utility.yul\":4066:4069   */\n      dup4\n        /* \"#utility.yul\":4060:4083   */\n      mcopy\n        /* \"#utility.yul\":4117:4118   */\n      0x00\n        /* \"#utility.yul\":4108:4114   */\n      dup4\n        /* \"#utility.yul\":4103:4106   */\n      dup4\n        /* \"#utility.yul\":4099:4115   */\n      add\n        /* \"#utility.yul\":4092:4119   */\n      mstore\n        /* \"#utility.yul\":3987:4126   */\n      pop\n      pop\n      pop\n      jump\t// out\n        /* \"#utility.yul\":4132:4234   */\n    tag_148:\n        /* \"#utility.yul\":4173:4179   */\n      0x00\n        /* \"#utility.yul\":4224:4226   */\n      0x1f\n        /* \"#utility.yul\":4220:4227   */\n      not\n        /* \"#utility.yul\":4215:4217   */\n      0x1f\n        /* \"#utility.yul\":4208:4213   */\n      dup4\n        /* \"#utility.yul\":4204:4218   */\n      add\n        /* \"#utility.yul\":4200:4228   */\n      and\n        /* \"#utility.yul\":4190:4228   */\n      swap1\n      pop\n        /* \"#utility.yul\":4132:4234   */\n      swap2\n      swap1\n      pop\n      jump\t// out\n        /* \"#utility.yul\":4240:4617   */\n    tag_149:\n        /* \"#utility.yul\":4328:4331   */\n      0x00\n        /* \"#utility.yul\":4356:4395   */\n      tag_239\n        /* \"#utility.yul\":4389:4394   */\n      dup3\n        /* \"#utility.yul\":4356:4395   */\n      tag_145\n      jump\t// in\n    tag_239:\n        /* \"#utility.yul\":4411:4482   */\n      tag_240\n        /* \"#utility.yul\":4475:4481   */\n      dup2\n        /* \"#utility.yul\":4470:4473   */\n      dup6\n        /* \"#utility.yul\":4411:4482   */\n      tag_146\n      jump\t// in\n    tag_240:\n        /* \"#utility.yul\":4404:4482   */\n      swap4\n      pop\n        /* \"#utility.yul\":4491:4556   */\n      tag_241\n        /* \"#utility.yul\":4549:4555   */\n      dup2\n        /* \"#utility.yul\":4544:4547   */\n      dup6\n        /* \"#utility.yul\":4537:4541   */\n      0x20\n        /* \"#utility.yul\":4530:4535   */\n      dup7\n        /* \"#utility.yul\":4526:4542   */\n      add\n        /* \"#utility.yul\":4491:4556   */\n      tag_147\n      jump\t// in\n    tag_241:\n        /* \"#utility.yul\":4581:4610   */\n      tag_242\n        /* \"#utility.yul\":4603:4609   */\n      dup2\n        /* \"#utility.yul\":4581:4610   */\n      tag_148\n      jump\t// in\n    tag_242:\n        /* \"#utility.yul\":4576:4579   */\n      dup5\n        /* \"#utility.yul\":4572:4611   */\n      add\n        /* \"#utility.yul\":4565:4611   */\n      swap2\n      pop\n        /* \"#utility.yul\":4332:4617   */\n      pop\n        /* \"#utility.yul\":4240:4617   */\n      swap3\n      swap2\n      pop\n      pop\n      jump\t// out\n        /* \"#utility.yul\":4623:4765   */\n    tag_150:\n        /* \"#utility.yul\":4726:4758   */\n      tag_244\n        /* \"#utility.yul\":4752:4757   */\n      dup2\n        /* \"#utility.yul\":4726:4758   */\n      tag_142\n      jump\t// in\n    tag_244:\n        /* \"#utility.yul\":4721:4724   */\n      dup3\n        /* \"#utility.yul\":4714:4759   */\n      mstore\n        /* \"#utility.yul\":4623:4765   */\n      pop\n      pop\n      jump\t// out\n        /* \"#utility.yul\":4771:4861   */\n    tag_151:\n        /* \"#utility.yul\":4805:4812   */\n      0x00\n        /* \"#utility.yul\":4848:4853   */\n      dup2\n        /* \"#utility.yul\":4841:4854   */\n      iszero\n        /* \"#utility.yul\":4834:4855   */\n      iszero\n        /* \"#utility.yul\":4823:4855   */\n      swap1\n      pop\n        /* \"#utility.yul\":4771:4861   */\n      swap2\n      swap1\n      pop\n      jump\t// out\n        /* \"#utility.yul\":4867:4976   */\n    tag_152:\n        /* \"#utility.yul\":4948:4969   */\n      tag_247\n        /* \"#utility.yul\":4963:4968   */\n      dup2\n        /* \"#utility.yul\":4948:4969   */\n      tag_151\n      jump\t// in\n    tag_247:\n        /* \"#utility.yul\":4943:4946   */\n      dup3\n        /* \"#utility.yul\":4936:4970   */\n      mstore\n        /* \"#utility.yul\":4867:4976   */\n      pop\n      pop\n      jump\t// out\n        /* \"#utility.yul\":4982:5646   */\n    tag_47:\n        /* \"#utility.yul\":5189:5193   */\n      0x00\n        /* \"#utility.yul\":5227:5230   */\n      0x80\n        /* \"#utility.yul\":5216:5225   */\n      dup3\n        /* \"#utility.yul\":5212:5231   */\n      add\n        /* \"#utility.yul\":5204:5231   */\n      swap1\n      pop\n        /* \"#utility.yul\":5277:5286   */\n      dup2\n        /* \"#utility.yul\":5271:5275   */\n      dup2\n        /* \"#utility.yul\":5267:5287   */\n      sub\n        /* \"#utility.yul\":5263:5264   */\n      0x00\n        /* \"#utility.yul\":5252:5261   */\n      dup4\n        /* \"#utility.yul\":5248:5265   */\n      add\n        /* \"#utility.yul\":5241:5288   */\n      mstore\n        /* \"#utility.yul\":5305:5383   */\n      tag_249\n        /* \"#utility.yul\":5378:5382   */\n      dup2\n        /* \"#utility.yul\":5369:5375   */\n      dup8\n        /* \"#utility.yul\":5305:5383   */\n      tag_149\n      jump\t// in\n    tag_249:\n        /* \"#utility.yul\":5297:5383   */\n      swap1\n      pop\n        /* \"#utility.yul\":5393:5465   */\n      tag_250\n        /* \"#utility.yul\":5461:5463   */\n      0x20\n        /* \"#utility.yul\":5450:5459   */\n      dup4\n        /* \"#utility.yul\":5446:5464   */\n      add\n        /* \"#utility.yul\":5437:5443   */\n      dup7\n        /* \"#utility.yul\":5393:5465   */\n      tag_136\n      jump\t// in\n    tag_250:\n        /* \"#utility.yul\":5475:5563   */\n      tag_251\n        /* \"#utility.yul\":5559:5561   */\n      0x40\n        /* \"#utility.yul\":5548:5557   */\n      dup4\n        /* \"#utility.yul\":5544:5562   */\n      add\n        /* \"#utility.yul\":5535:5541   */\n      dup6\n        /* \"#utility.yul\":5475:5563   */\n      tag_150\n      jump\t// in\n    tag_251:\n        /* \"#utility.yul\":5573:5639   */\n      tag_252\n        /* \"#utility.yul\":5635:5637   */\n      0x60\n        /* \"#utility.yul\":5624:5633   */\n      dup4\n        /* \"#utility.yul\":5620:5638   */\n      add\n        /* \"#utility.yul\":5611:5617   */\n      dup5\n        /* \"#utility.yul\":5573:5639   */\n      tag_152\n      jump\t// in\n    tag_252:\n        /* \"#utility.yul\":4982:5646   */\n      swap6\n      swap5\n      pop\n      pop\n      pop\n      pop\n      pop\n      jump\t// out\n        /* \"#utility.yul\":5652:5748   */\n    tag_153:\n        /* \"#utility.yul\":5689:5696   */\n      0x00\n        /* \"#utility.yul\":5718:5742   */\n      tag_254\n        /* \"#utility.yul\":5736:5741   */\n      dup3\n        /* \"#utility.yul\":5718:5742   */\n      tag_141\n      jump\t// in\n    tag_254:\n        /* \"#utility.yul\":5707:5742   */\n      swap1\n      pop\n        /* \"#utility.yul\":5652:5748   */\n      swap2\n      swap1\n      pop\n      jump\t// out\n        /* \"#utility.yul\":5754:5872   */\n    tag_154:\n        /* \"#utility.yul\":5841:5865   */\n      tag_256\n        /* \"#utility.yul\":5859:5864   */\n      dup2\n        /* \"#utility.yul\":5841:5865   */\n      tag_153\n      jump\t// in\n    tag_256:\n        /* \"#utility.yul\":5836:5839   */\n      dup3\n        /* \"#utility.yul\":5829:5866   */\n      mstore\n        /* \"#utility.yul\":5754:5872   */\n      pop\n      pop\n      jump\t// out\n        /* \"#utility.yul\":5878:6100   */\n    tag_52:\n        /* \"#utility.yul\":5971:5975   */\n      0x00\n        /* \"#utility.yul\":6009:6011   */\n      0x20\n        /* \"#utility.yul\":5998:6007   */\n      dup3\n        /* \"#utility.yul\":5994:6012   */\n      add\n        /* \"#utility.yul\":5986:6012   */\n      swap1\n      pop\n        /* \"#utility.yul\":6022:6093   */\n      tag_258\n        /* \"#utility.yul\":6090:6091   */\n      0x00\n        /* \"#utility.yul\":6079:6088   */\n      dup4\n        /* \"#utility.yul\":6075:6092   */\n      add\n        /* \"#utility.yul\":6066:6072   */\n      dup5\n        /* \"#utility.yul\":6022:6093   */\n      tag_154\n      jump\t// in\n    tag_258:\n        /* \"#utility.yul\":5878:6100   */\n      swap3\n      swap2\n      pop\n      pop\n      jump\t// out\n        /* \"#utility.yul\":6106:6228   */\n    tag_155:\n        /* \"#utility.yul\":6179:6203   */\n      tag_260\n        /* \"#utility.yul\":6197:6202   */\n      dup2\n        /* \"#utility.yul\":6179:6203   */\n      tag_153\n      jump\t// in\n    tag_260:\n        /* \"#utility.yul\":6172:6177   */\n      dup2\n        /* \"#utility.yul\":6169:6204   */\n      eq\n        /* \"#utility.yul\":6159:6222   */\n      tag_261\n      jumpi\n        /* \"#utility.yul\":6218:6219   */\n      0x00\n        /* \"#utility.yul\":6215:6216   */\n      dup1\n        /* \"#utility.yul\":6208:6220   */\n      revert\n        /* \"#utility.yul\":6159:6222   */\n    tag_261:\n        /* \"#utility.yul\":6106:6228   */\n      pop\n      jump\t// out\n        /* \"#utility.yul\":6234:6373   */\n    tag_156:\n        /* \"#utility.yul\":6280:6285   */\n      0x00\n        /* \"#utility.yul\":6318:6324   */\n      dup2\n        /* \"#utility.yul\":6305:6325   */\n      calldataload\n        /* \"#utility.yul\":6296:6325   */\n      swap1\n      pop\n        /* \"#utility.yul\":6334:6367   */\n      tag_263\n        /* \"#utility.yul\":6361:6366   */\n      dup2\n        /* \"#utility.yul\":6334:6367   */\n      tag_155\n      jump\t// in\n    tag_263:\n        /* \"#utility.yul\":6234:6373   */\n      swap3\n      swap2\n      pop\n      pop\n      jump\t// out\n        /* \"#utility.yul\":6379:6708   */\n    tag_77:\n        /* \"#utility.yul\":6438:6444   */\n      0x00\n        /* \"#utility.yul\":6487:6489   */\n      0x20\n        /* \"#utility.yul\":6475:6484   */\n      dup3\n        /* \"#utility.yul\":6466:6473   */\n      dup5\n        /* \"#utility.yul\":6462:6485   */\n      sub\n        /* \"#utility.yul\":6458:6490   */\n      slt\n        /* \"#utility.yul\":6455:6574   */\n      iszero\n      tag_265\n      jumpi\n        /* \"#utility.yul\":6493:6572   */\n      tag_266\n      tag_131\n      jump\t// in\n    tag_266:\n        /* \"#utility.yul\":6455:6574   */\n    tag_265:\n        /* \"#utility.yul\":6613:6614   */\n      0x00\n        /* \"#utility.yul\":6638:6691   */\n      tag_267\n        /* \"#utility.yul\":6683:6690   */\n      dup5\n        /* \"#utility.yul\":6674:6680   */\n      dup3\n        /* \"#utility.yul\":6663:6672   */\n      dup6\n        /* \"#utility.yul\":6659:6681   */\n      add\n        /* \"#utility.yul\":6638:6691   */\n      tag_156\n      jump\t// in\n    tag_267:\n        /* \"#utility.yul\":6628:6691   */\n      swap2\n      pop\n        /* \"#utility.yul\":6584:6701   */\n      pop\n        /* \"#utility.yul\":6379:6708   */\n      swap3\n      swap2\n      pop\n      pop\n      jump\t// out\n        /* \"#utility.yul\":6714:6936   */\n    tag_157:\n        /* \"#utility.yul\":6854:6888   */\n      0x43616e206f6e6c79206265207573656420627920436f6e7472616374204f776e\n        /* \"#utility.yul\":6850:6851   */\n      0x00\n        /* \"#utility.yul\":6842:6848   */\n      dup3\n        /* \"#utility.yul\":6838:6852   */\n      add\n        /* \"#utility.yul\":6831:6889   */\n      mstore\n        /* \"#utility.yul\":6923:6928   */\n      0x6572210000000000000000000000000000000000000000000000000000000000\n        /* \"#utility.yul\":6918:6920   */\n      0x20\n        /* \"#utility.yul\":6910:6916   */\n      dup3\n        /* \"#utility.yul\":6906:6921   */\n      add\n        /* \"#utility.yul\":6899:6929   */\n      mstore\n        /* \"#utility.yul\":6714:6936   */\n      pop\n      jump\t// out\n        /* \"#utility.yul\":6942:7308   */\n    tag_158:\n        /* \"#utility.yul\":7084:7087   */\n      0x00\n        /* \"#utility.yul\":7105:7172   */\n      tag_270\n        /* \"#utility.yul\":7169:7171   */\n      0x23\n        /* \"#utility.yul\":7164:7167   */\n      dup4\n        /* \"#utility.yul\":7105:7172   */\n      tag_146\n      jump\t// in\n    tag_270:\n        /* \"#utility.yul\":7098:7172   */\n      swap2\n      pop\n        /* \"#utility.yul\":7181:7274   */\n      tag_271\n        /* \"#utility.yul\":7270:7273   */\n      dup3\n        /* \"#utility.yul\":7181:7274   */\n      tag_157\n      jump\t// in\n    tag_271:\n        /* \"#utility.yul\":7299:7301   */\n      0x40\n        /* \"#utility.yul\":7294:7297   */\n      dup3\n        /* \"#utility.yul\":7290:7302   */\n      add\n        /* \"#utility.yul\":7283:7302   */\n      swap1\n      pop\n        /* \"#utility.yul\":6942:7308   */\n      swap2\n      swap1\n      pop\n      jump\t// out\n        /* \"#utility.yul\":7314:7733   */\n    tag_83:\n        /* \"#utility.yul\":7480:7484   */\n      0x00\n        /* \"#utility.yul\":7518:7520   */\n      0x20\n        /* \"#utility.yul\":7507:7516   */\n      dup3\n        /* \"#utility.yul\":7503:7521   */\n      add\n        /* \"#utility.yul\":7495:7521   */\n      swap1\n      pop\n        /* \"#utility.yul\":7567:7576   */\n      dup2\n        /* \"#utility.yul\":7561:7565   */\n      dup2\n        /* \"#utility.yul\":7557:7577   */\n      sub\n        /* \"#utility.yul\":7553:7554   */\n      0x00\n        /* \"#utility.yul\":7542:7551   */\n      dup4\n        /* \"#utility.yul\":7538:7555   */\n      add\n        /* \"#utility.yul\":7531:7578   */\n      mstore\n        /* \"#utility.yul\":7595:7726   */\n      tag_273\n        /* \"#utility.yul\":7721:7725   */\n      dup2\n        /* \"#utility.yul\":7595:7726   */\n      tag_158\n      jump\t// in\n    tag_273:\n        /* \"#utility.yul\":7587:7726   */\n      swap1\n      pop\n        /* \"#utility.yul\":7314:7733   */\n      swap2\n      swap1\n      pop\n      jump\t// out\n        /* \"#utility.yul\":7739:7906   */\n    tag_159:\n        /* \"#utility.yul\":7879:7898   */\n      0x5461726765742069736e2774206d657421000000000000000000000000000000\n        /* \"#utility.yul\":7875:7876   */\n      0x00\n        /* \"#utility.yul\":7867:7873   */\n      dup3\n        /* \"#utility.yul\":7863:7877   */\n      add\n        /* \"#utility.yul\":7856:7899   */\n      mstore\n        /* \"#utility.yul\":7739:7906   */\n      pop\n      jump\t// out\n        /* \"#utility.yul\":7912:8278   */\n    tag_160:\n        /* \"#utility.yul\":8054:8057   */\n      0x00\n        /* \"#utility.yul\":8075:8142   */\n      tag_276\n        /* \"#utility.yul\":8139:8141   */\n      0x11\n        /* \"#utility.yul\":8134:8137   */\n      dup4\n        /* \"#utility.yul\":8075:8142   */\n      tag_146\n      jump\t// in\n    tag_276:\n        /* \"#utility.yul\":8068:8142   */\n      swap2\n      pop\n        /* \"#utility.yul\":8151:8244   */\n      tag_277\n        /* \"#utility.yul\":8240:8243   */\n      dup3\n        /* \"#utility.yul\":8151:8244   */\n      tag_159\n      jump\t// in\n    tag_277:\n        /* \"#utility.yul\":8269:8271   */\n      0x20\n        /* \"#utility.yul\":8264:8267   */\n      dup3\n        /* \"#utility.yul\":8260:8272   */\n      add\n        /* \"#utility.yul\":8253:8272   */\n      swap1\n      pop\n        /* \"#utility.yul\":7912:8278   */\n      swap2\n      swap1\n      pop\n      jump\t// out\n        /* \"#utility.yul\":8284:8703   */\n    tag_87:\n        /* \"#utility.yul\":8450:8454   */\n      0x00\n        /* \"#utility.yul\":8488:8490   */\n      0x20\n        /* \"#utility.yul\":8477:8486   */\n      dup3\n        /* \"#utility.yul\":8473:8491   */\n      add\n        /* \"#utility.yul\":8465:8491   */\n      swap1\n      pop\n        /* \"#utility.yul\":8537:8546   */\n      dup2\n        /* \"#utility.yul\":8531:8535   */\n      dup2\n        /* \"#utility.yul\":8527:8547   */\n      sub\n        /* \"#utility.yul\":8523:8524   */\n      0x00\n        /* \"#utility.yul\":8512:8521   */\n      dup4\n        /* \"#utility.yul\":8508:8525   */\n      add\n        /* \"#utility.yul\":8501:8548   */\n      mstore\n        /* \"#utility.yul\":8565:8696   */\n      tag_279\n        /* \"#utility.yul\":8691:8695   */\n      dup2\n        /* \"#utility.yul\":8565:8696   */\n      tag_160\n      jump\t// in\n    tag_279:\n        /* \"#utility.yul\":8557:8696   */\n      swap1\n      pop\n        /* \"#utility.yul\":8284:8703   */\n      swap2\n      swap1\n      pop\n      jump\t// out\n        /* \"#utility.yul\":8709:8935   */\n    tag_161:\n        /* \"#utility.yul\":8849:8883   */\n      0x5468652046756e6473206861766520616c7265616479206265656e207472616e\n        /* \"#utility.yul\":8845:8846   */\n      0x00\n        /* \"#utility.yul\":8837:8843   */\n      dup3\n        /* \"#utility.yul\":8833:8847   */\n      add\n        /* \"#utility.yul\":8826:8884   */\n      mstore\n        /* \"#utility.yul\":8918:8927   */\n      0x7366657272656400000000000000000000000000000000000000000000000000\n        /* \"#utility.yul\":8913:8915   */\n      0x20\n        /* \"#utility.yul\":8905:8911   */\n      dup3\n        /* \"#utility.yul\":8901:8916   */\n      add\n        /* \"#utility.yul\":8894:8928   */\n      mstore\n        /* \"#utility.yul\":8709:8935   */\n      pop\n      jump\t// out\n        /* \"#utility.yul\":8941:9307   */\n    tag_162:\n        /* \"#utility.yul\":9083:9086   */\n      0x00\n        /* \"#utility.yul\":9104:9171   */\n      tag_282\n        /* \"#utility.yul\":9168:9170   */\n      0x27\n        /* \"#utility.yul\":9163:9166   */\n      dup4\n        /* \"#utility.yul\":9104:9171   */\n      tag_146\n      jump\t// in\n    tag_282:\n        /* \"#utility.yul\":9097:9171   */\n      swap2\n      pop\n        /* \"#utility.yul\":9180:9273   */\n      tag_283\n        /* \"#utility.yul\":9269:9272   */\n      dup3\n        /* \"#utility.yul\":9180:9273   */\n      tag_161\n      jump\t// in\n    tag_283:\n        /* \"#utility.yul\":9298:9300   */\n      0x40\n        /* \"#utility.yul\":9293:9296   */\n      dup3\n        /* \"#utility.yul\":9289:9301   */\n      add\n        /* \"#utility.yul\":9282:9301   */\n      swap1\n      pop\n        /* \"#utility.yul\":8941:9307   */\n      swap2\n      swap1\n      pop\n      jump\t// out\n        /* \"#utility.yul\":9313:9732   */\n    tag_90:\n        /* \"#utility.yul\":9479:9483   */\n      0x00\n        /* \"#utility.yul\":9517:9519   */\n      0x20\n        /* \"#utility.yul\":9506:9515   */\n      dup3\n        /* \"#utility.yul\":9502:9520   */\n      add\n        /* \"#utility.yul\":9494:9520   */\n      swap1\n      pop\n        /* \"#utility.yul\":9566:9575   */\n      dup2\n        /* \"#utility.yul\":9560:9564   */\n      dup2\n        /* \"#utility.yul\":9556:9576   */\n      sub\n        /* \"#utility.yul\":9552:9553   */\n      0x00\n        /* \"#utility.yul\":9541:9550   */\n      dup4\n        /* \"#utility.yul\":9537:9554   */\n      add\n        /* \"#utility.yul\":9530:9577   */\n      mstore\n        /* \"#utility.yul\":9594:9725   */\n      tag_285\n        /* \"#utility.yul\":9720:9724   */\n      dup2\n        /* \"#utility.yul\":9594:9725   */\n      tag_162\n      jump\t// in\n    tag_285:\n        /* \"#utility.yul\":9586:9725   */\n      swap1\n      pop\n        /* \"#utility.yul\":9313:9732   */\n      swap2\n      swap1\n      pop\n      jump\t// out\n        /* \"#utility.yul\":9738:9918   */\n    tag_163:\n        /* \"#utility.yul\":9786:9863   */\n      0x4e487b7100000000000000000000000000000000000000000000000000000000\n        /* \"#utility.yul\":9783:9784   */\n      0x00\n        /* \"#utility.yul\":9776:9864   */\n      mstore\n        /* \"#utility.yul\":9883:9887   */\n      0x11\n        /* \"#utility.yul\":9880:9881   */\n      0x04\n        /* \"#utility.yul\":9873:9888   */\n      mstore\n        /* \"#utility.yul\":9907:9911   */\n      0x24\n        /* \"#utility.yul\":9904:9905   */\n      0x00\n        /* \"#utility.yul\":9897:9912   */\n      revert\n        /* \"#utility.yul\":9924:10157   */\n    tag_98:\n        /* \"#utility.yul\":9963:9966   */\n      0x00\n        /* \"#utility.yul\":9986:10010   */\n      tag_288\n        /* \"#utility.yul\":10004:10009   */\n      dup3\n        /* \"#utility.yul\":9986:10010   */\n      tag_133\n      jump\t// in\n    tag_288:\n        /* \"#utility.yul\":9977:10010   */\n      swap2\n      pop\n        /* \"#utility.yul\":10032:10098   */\n      0xffffffffffffffffffffffffffffffffffffffffffffffffffffffffffffffff\n        /* \"#utility.yul\":10025:10030   */\n      dup3\n        /* \"#utility.yul\":10022:10099   */\n      sub\n        /* \"#utility.yul\":10019:10122   */\n      tag_289\n      jumpi\n        /* \"#utility.yul\":10102:10120   */\n      tag_290\n      tag_163\n      jump\t// in\n    tag_290:\n        /* \"#utility.yul\":10019:10122   */\n    tag_289:\n        /* \"#utility.yul\":10149:10150   */\n      0x01\n        /* \"#utility.yul\":10142:10147   */\n      dup3\n        /* \"#utility.yul\":10138:10151   */\n      add\n        /* \"#utility.yul\":10131:10151   */\n      swap1\n      pop\n        /* \"#utility.yul\":9924:10157   */\n      swap2\n      swap1\n      pop\n      jump\t// out\n        /* \"#utility.yul\":10163:10260   */\n    tag_164:\n        /* \"#utility.yul\":10222:10228   */\n      0x00\n        /* \"#utility.yul\":10250:10253   */\n      dup3\n        /* \"#utility.yul\":10240:10253   */\n      swap1\n      pop\n        /* \"#utility.yul\":10163:10260   */\n      swap3\n      swap2\n      pop\n      pop\n      jump\t// out\n        /* \"#utility.yul\":10266:10446   */\n    tag_165:\n        /* \"#utility.yul\":10314:10391   */\n      0x4e487b7100000000000000000000000000000000000000000000000000000000\n        /* \"#utility.yul\":10311:10312   */\n      0x00\n        /* \"#utility.yul\":10304:10392   */\n      mstore\n        /* \"#utility.yul\":10411:10415   */\n      0x41\n        /* \"#utility.yul\":10408:10409   */\n      0x04\n        /* \"#utility.yul\":10401:10416   */\n      mstore\n        /* \"#utility.yul\":10435:10439   */\n      0x24\n        /* \"#utility.yul\":10432:10433   */\n      0x00\n        /* \"#utility.yul\":10425:10440   */\n      revert\n        /* \"#utility.yul\":10452:10632   */\n    tag_166:\n        /* \"#utility.yul\":10500:10577   */\n      0x4e487b7100000000000000000000000000000000000000000000000000000000\n        /* \"#utility.yul\":10497:10498   */\n      0x00\n        /* \"#utility.yul\":10490:10578   */\n      mstore\n        /* \"#utility.yul\":10597:10601   */\n      0x22\n        /* \"#utility.yul\":10594:10595   */\n      0x04\n        /* \"#utility.yul\":10587:10602   */\n      mstore\n        /* \"#utility.yul\":10621:10625   */\n      0x24\n        /* \"#utility.yul\":10618:10619   */\n      0x00\n        /* \"#utility.yul\":10611:10626   */\n      revert\n        /* \"#utility.yul\":10638:10958   */\n    tag_102:\n        /* \"#utility.yul\":10682:10688   */\n      0x00\n        /* \"#utility.yul\":10719:10720   */\n      0x02\n        /* \"#utility.yul\":10713:10717   */\n      dup3\n        /* \"#utility.yul\":10709:10721   */\n      div\n        /* \"#utility.yul\":10699:10721   */\n      swap1\n      pop\n        /* \"#utility.yul\":10766:10767   */\n      0x01\n        /* \"#utility.yul\":10760:10764   */\n      dup3\n        /* \"#utility.yul\":10756:10768   */\n      and\n        /* \"#utility.yul\":10787:10805   */\n      dup1\n        /* \"#utility.yul\":10777:10858   */\n      tag_295\n      jumpi\n        /* \"#utility.yul\":10843:10847   */\n      0x7f\n        /* \"#utility.yul\":10835:10841   */\n      dup3\n        /* \"#utility.yul\":10831:10848   */\n      and\n        /* \"#utility.yul\":10821:10848   */\n      swap2\n      pop\n        /* \"#utility.yul\":10777:10858   */\n    tag_295:\n        /* \"#utility.yul\":10905:10907   */\n      0x20\n        /* \"#utility.yul\":10897:10903   */\n      dup3\n        /* \"#utility.yul\":10894:10908   */\n      lt\n        /* \"#utility.yul\":10874:10892   */\n      dup2\n        /* \"#utility.yul\":10871:10909   */\n      sub\n        /* \"#utility.yul\":10868:10952   */\n      tag_296\n      jumpi\n        /* \"#utility.yul\":10924:10942   */\n      tag_297\n      tag_166\n      jump\t// in\n    tag_297:\n        /* \"#utility.yul\":10868:10952   */\n    tag_296:\n        /* \"#utility.yul\":10689:10958   */\n      pop\n        /* \"#utility.yul\":10638:10958   */\n      swap2\n      swap1\n      pop\n      jump\t// out\n        /* \"#utility.yul\":10964:11105   */\n    tag_167:\n        /* \"#utility.yul\":11013:11017   */\n      0x00\n        /* \"#utility.yul\":11036:11039   */\n      dup2\n        /* \"#utility.yul\":11028:11039   */\n      swap1\n      pop\n        /* \"#utility.yul\":11059:11062   */\n      dup2\n        /* \"#utility.yul\":11056:11057   */\n      0x00\n        /* \"#utility.yul\":11049:11063   */\n      mstore\n        /* \"#utility.yul\":11093:11097   */\n      0x20\n        /* \"#utility.yul\":11090:11091   */\n      0x00\n        /* \"#utility.yul\":11080:11098   */\n      keccak256\n        /* \"#utility.yul\":11072:11098   */\n      swap1\n      pop\n        /* \"#utility.yul\":10964:11105   */\n      swap2\n      swap1\n      pop\n      jump\t// out\n        /* \"#utility.yul\":11111:11204   */\n    tag_168:\n        /* \"#utility.yul\":11148:11154   */\n      0x00\n        /* \"#utility.yul\":11195:11197   */\n      0x20\n        /* \"#utility.yul\":11190:11192   */\n      0x1f\n        /* \"#utility.yul\":11183:11188   */\n      dup4\n        /* \"#utility.yul\":11179:11193   */\n      add\n        /* \"#utility.yul\":11175:11198   */\n      div\n        /* \"#utility.yul\":11165:11198   */\n      swap1\n      pop\n        /* \"#utility.yul\":11111:11204   */\n      swap2\n      swap1\n      pop\n      jump\t// out\n        /* \"#utility.yul\":11210:11317   */\n    tag_169:\n        /* \"#utility.yul\":11254:11262   */\n      0x00\n        /* \"#utility.yul\":11304:11309   */\n      dup3\n        /* \"#utility.yul\":11298:11302   */\n      dup3\n        /* \"#utility.yul\":11294:11310   */\n      shl\n        /* \"#utility.yul\":11273:11310   */\n      swap1\n      pop\n        /* \"#utility.yul\":11210:11317   */\n      swap3\n      swap2\n      pop\n      pop\n      jump\t// out\n        /* \"#utility.yul\":11323:11716   */\n    tag_170:\n        /* \"#utility.yul\":11392:11398   */\n      0x00\n        /* \"#utility.yul\":11442:11443   */\n      0x08\n        /* \"#utility.yul\":11430:11440   */\n      dup4\n        /* \"#utility.yul\":11426:11444   */\n      mul\n        /* \"#utility.yul\":11465:11562   */\n      tag_302\n        /* \"#utility.yul\":11495:11561   */\n      0xffffffffffffffffffffffffffffffffffffffffffffffffffffffffffffffff\n        /* \"#utility.yul\":11484:11493   */\n      dup3\n        /* \"#utility.yul\":11465:11562   */\n      tag_169\n      jump\t// in\n    tag_302:\n        /* \"#utility.yul\":11583:11622   */\n      tag_303\n        /* \"#utility.yul\":11613:11621   */\n      dup7\n        /* \"#utility.yul\":11602:11611   */\n      dup4\n        /* \"#utility.yul\":11583:11622   */\n      tag_169\n      jump\t// in\n    tag_303:\n        /* \"#utility.yul\":11571:11622   */\n      swap6\n      pop\n        /* \"#utility.yul\":11655:11659   */\n      dup1\n        /* \"#utility.yul\":11651:11660   */\n      not\n        /* \"#utility.yul\":11644:11649   */\n      dup5\n        /* \"#utility.yul\":11640:11661   */\n      and\n        /* \"#utility.yul\":11631:11661   */\n      swap4\n      pop\n        /* \"#utility.yul\":11704:11708   */\n      dup1\n        /* \"#utility.yul\":11694:11702   */\n      dup7\n        /* \"#utility.yul\":11690:11709   */\n      and\n        /* \"#utility.yul\":11683:11688   */\n      dup5\n        /* \"#utility.yul\":11680:11710   */\n      or\n        /* \"#utility.yul\":11670:11710   */\n      swap3\n      pop\n        /* \"#utility.yul\":11399:11716   */\n      pop\n      pop\n        /* \"#utility.yul\":11323:11716   */\n      swap4\n      swap3\n      pop\n      pop\n      pop\n      jump\t// out\n        /* \"#utility.yul\":11722:11782   */\n    tag_171:\n        /* \"#utility.yul\":11750:11753   */\n      0x00\n        /* \"#utility.yul\":11771:11776   */\n      dup2\n        /* \"#utility.yul\":11764:11776   */\n      swap1\n      pop\n        /* \"#utility.yul\":11722:11782   */\n      swap2\n      swap1\n      pop\n      jump\t// out\n        /* \"#utility.yul\":11788:11930   */\n    tag_172:\n        /* \"#utility.yul\":11838:11847   */\n      0x00\n        /* \"#utility.yul\":11871:11924   */\n      tag_306\n        /* \"#utility.yul\":11889:11923   */\n      tag_307\n        /* \"#utility.yul\":11898:11922   */\n      tag_308\n        /* \"#utility.yul\":11916:11921   */\n      dup5\n        /* \"#utility.yul\":11898:11922   */\n      tag_133\n      jump\t// in\n    tag_308:\n        /* \"#utility.yul\":11889:11923   */\n      tag_171\n      jump\t// in\n    tag_307:\n        /* \"#utility.yul\":11871:11924   */\n      tag_133\n      jump\t// in\n    tag_306:\n        /* \"#utility.yul\":11858:11924   */\n      swap1\n      pop\n        /* \"#utility.yul\":11788:11930   */\n      swap2\n      swap1\n      pop\n      jump\t// out\n        /* \"#utility.yul\":11936:12011   */\n    tag_173:\n        /* \"#utility.yul\":11979:11982   */\n      0x00\n        /* \"#utility.yul\":12000:12005   */\n      dup2\n        /* \"#utility.yul\":11993:12005   */\n      swap1\n      pop\n        /* \"#utility.yul\":11936:12011   */\n      swap2\n      swap1\n      pop\n      jump\t// out\n        /* \"#utility.yul\":12017:12286   */\n    tag_174:\n        /* \"#utility.yul\":12127:12166   */\n      tag_311\n        /* \"#utility.yul\":12158:12165   */\n      dup4\n        /* \"#utility.yul\":12127:12166   */\n      tag_172\n      jump\t// in\n    tag_311:\n        /* \"#utility.yul\":12188:12279   */\n      tag_312\n        /* \"#utility.yul\":12237:12278   */\n      tag_313\n        /* \"#utility.yul\":12261:12277   */\n      dup3\n        /* \"#utility.yul\":12237:12278   */\n      tag_173\n      jump\t// in\n    tag_313:\n        /* \"#utility.yul\":12229:12235   */\n      dup5\n        /* \"#utility.yul\":12222:12226   */\n      dup5\n        /* \"#utility.yul\":12216:12227   */\n      sload\n        /* \"#utility.yul\":12188:12279   */\n      tag_170\n      jump\t// in\n    tag_312:\n        /* \"#utility.yul\":12182:12186   */\n      dup3\n        /* \"#utility.yul\":12175:12280   */\n      sstore\n        /* \"#utility.yul\":12093:12286   */\n      pop\n        /* \"#utility.yul\":12017:12286   */\n      pop\n      pop\n      pop\n      jump\t// out\n        /* \"#utility.yul\":12292:12365   */\n    tag_175:\n        /* \"#utility.yul\":12337:12340   */\n      0x00\n        /* \"#utility.yul\":12292:12365   */\n      swap1\n      jump\t// out\n        /* \"#utility.yul\":12371:12560   */\n    tag_176:\n        /* \"#utility.yul\":12448:12480   */\n      tag_316\n      tag_175\n      jump\t// in\n    tag_316:\n        /* \"#utility.yul\":12489:12554   */\n      tag_317\n        /* \"#utility.yul\":12547:12553   */\n      dup2\n        /* \"#utility.yul\":12539:12545   */\n      dup5\n        /* \"#utility.yul\":12533:12537   */\n      dup5\n        /* \"#utility.yul\":12489:12554   */\n      tag_174\n      jump\t// in\n    tag_317:\n        /* \"#utility.yul\":12424:12560   */\n      pop\n        /* \"#utility.yul\":12371:12560   */\n      pop\n      pop\n      jump\t// out\n        /* \"#utility.yul\":12566:12752   */\n    tag_177:\n        /* \"#utility.yul\":12626:12746   */\n    tag_319:\n        /* \"#utility.yul\":12643:12646   */\n      dup2\n        /* \"#utility.yul\":12636:12641   */\n      dup2\n        /* \"#utility.yul\":12633:12647   */\n      lt\n        /* \"#utility.yul\":12626:12746   */\n      iszero\n      tag_321\n      jumpi\n        /* \"#utility.yul\":12697:12736   */\n      tag_322\n        /* \"#utility.yul\":12734:12735   */\n      0x00\n        /* \"#utility.yul\":12727:12732   */\n      dup3\n        /* \"#utility.yul\":12697:12736   */\n      tag_176\n      jump\t// in\n    tag_322:\n        /* \"#utility.yul\":12670:12671   */\n      0x01\n        /* \"#utility.yul\":12663:12668   */\n      dup2\n        /* \"#utility.yul\":12659:12672   */\n      add\n        /* \"#utility.yul\":12650:12672   */\n      swap1\n      pop\n        /* \"#utility.yul\":12626:12746   */\n      jump(tag_319)\n    tag_321:\n        /* \"#utility.yul\":12566:12752   */\n      pop\n      pop\n      jump\t// out\n        /* \"#utility.yul\":12758:13301   */\n    tag_178:\n        /* \"#utility.yul\":12859:12861   */\n      0x1f\n        /* \"#utility.yul\":12854:12857   */\n      dup3\n        /* \"#utility.yul\":12851:12862   */\n      gt\n        /* \"#utility.yul\":12848:13294   */\n      iszero\n      tag_324\n      jumpi\n        /* \"#utility.yul\":12893:12931   */\n      tag_325\n        /* \"#utility.yul\":12925:12930   */\n      dup2\n        /* \"#utility.yul\":12893:12931   */\n      tag_167\n      jump\t// in\n    tag_325:\n        /* \"#utility.yul\":12977:13006   */\n      tag_326\n        /* \"#utility.yul\":12995:13005   */\n      dup5\n        /* \"#utility.yul\":12977:13006   */\n      tag_168\n      jump\t// in\n    tag_326:\n        /* \"#utility.yul\":12967:12975   */\n      dup2\n        /* \"#utility.yul\":12963:13007   */\n      add\n        /* \"#utility.yul\":13160:13162   */\n      0x20\n        /* \"#utility.yul\":13148:13158   */\n      dup6\n        /* \"#utility.yul\":13145:13163   */\n      lt\n        /* \"#utility.yul\":13142:13191   */\n      iszero\n      tag_327\n      jumpi\n        /* \"#utility.yul\":13181:13189   */\n      dup2\n        /* \"#utility.yul\":13166:13189   */\n      swap1\n      pop\n        /* \"#utility.yul\":13142:13191   */\n    tag_327:\n        /* \"#utility.yul\":13204:13284   */\n      tag_328\n        /* \"#utility.yul\":13260:13282   */\n      tag_329\n        /* \"#utility.yul\":13278:13281   */\n      dup6\n        /* \"#utility.yul\":13260:13282   */\n      tag_168\n      jump\t// in\n    tag_329:\n        /* \"#utility.yul\":13250:13258   */\n      dup4\n        /* \"#utility.yul\":13246:13283   */\n      add\n        /* \"#utility.yul\":13233:13244   */\n      dup3\n        /* \"#utility.yul\":13204:13284   */\n      tag_177\n      jump\t// in\n    tag_328:\n        /* \"#utility.yul\":12863:13294   */\n      pop\n      pop\n        /* \"#utility.yul\":12848:13294   */\n    tag_324:\n        /* \"#utility.yul\":12758:13301   */\n      pop\n      pop\n      pop\n      jump\t// out\n        /* \"#utility.yul\":13307:13424   */\n    tag_179:\n        /* \"#utility.yul\":13361:13369   */\n      0x00\n        /* \"#utility.yul\":13411:13416   */\n      dup3\n        /* \"#utility.yul\":13405:13409   */\n      dup3\n        /* \"#utility.yul\":13401:13417   */\n      shr\n        /* \"#utility.yul\":13380:13417   */\n      swap1\n      pop\n        /* \"#utility.yul\":13307:13424   */\n      swap3\n      swap2\n      pop\n      pop\n      jump\t// out\n        /* \"#utility.yul\":13430:13599   */\n    tag_180:\n        /* \"#utility.yul\":13474:13480   */\n      0x00\n        /* \"#utility.yul\":13507:13558   */\n      tag_332\n        /* \"#utility.yul\":13555:13556   */\n      0x00\n        /* \"#utility.yul\":13551:13557   */\n      not\n        /* \"#utility.yul\":13543:13548   */\n      dup5\n        /* \"#utility.yul\":13540:13541   */\n      0x08\n        /* \"#utility.yul\":13536:13549   */\n      mul\n        /* \"#utility.yul\":13507:13558   */\n      tag_179\n      jump\t// in\n    tag_332:\n        /* \"#utility.yul\":13503:13559   */\n      not\n        /* \"#utility.yul\":13588:13592   */\n      dup1\n        /* \"#utility.yul\":13582:13586   */\n      dup4\n        /* \"#utility.yul\":13578:13593   */\n      and\n        /* \"#utility.yul\":13568:13593   */\n      swap2\n      pop\n        /* \"#utility.yul\":13481:13599   */\n      pop\n        /* \"#utility.yul\":13430:13599   */\n      swap3\n      swap2\n      pop\n      pop\n      jump\t// out\n        /* \"#utility.yul\":13604:13899   */\n    tag_181:\n        /* \"#utility.yul\":13680:13684   */\n      0x00\n        /* \"#utility.yul\":13826:13855   */\n      tag_334\n        /* \"#utility.yul\":13851:13854   */\n      dup4\n        /* \"#utility.yul\":13845:13849   */\n      dup4\n        /* \"#utility.yul\":13826:13855   */\n      tag_180\n      jump\t// in\n    tag_334:\n        /* \"#utility.yul\":13818:13855   */\n      swap2\n      pop\n        /* \"#utility.yul\":13888:13891   */\n      dup3\n        /* \"#utility.yul\":13885:13886   */\n      0x02\n        /* \"#utility.yul\":13881:13892   */\n      mul\n        /* \"#utility.yul\":13875:13879   */\n      dup3\n        /* \"#utility.yul\":13872:13893   */\n      or\n        /* \"#utility.yul\":13864:13893   */\n      swap1\n      pop\n        /* \"#utility.yul\":13604:13899   */\n      swap3\n      swap2\n      pop\n      pop\n      jump\t// out\n        /* \"#utility.yul\":13904:15307   */\n    tag_100:\n        /* \"#utility.yul\":14028:14072   */\n      tag_336\n        /* \"#utility.yul\":14068:14071   */\n      dup4\n        /* \"#utility.yul\":14063:14066   */\n      dup4\n        /* \"#utility.yul\":14028:14072   */\n      tag_164\n      jump\t// in\n    tag_336:\n        /* \"#utility.yul\":14137:14155   */\n      0xffffffffffffffff\n        /* \"#utility.yul\":14129:14135   */\n      dup2\n        /* \"#utility.yul\":14126:14156   */\n      gt\n        /* \"#utility.yul\":14123:14179   */\n      iszero\n      tag_337\n      jumpi\n        /* \"#utility.yul\":14159:14177   */\n      tag_338\n      tag_165\n      jump\t// in\n    tag_338:\n        /* \"#utility.yul\":14123:14179   */\n    tag_337:\n        /* \"#utility.yul\":14203:14241   */\n      tag_339\n        /* \"#utility.yul\":14235:14239   */\n      dup3\n        /* \"#utility.yul\":14229:14240   */\n      sload\n        /* \"#utility.yul\":14203:14241   */\n      tag_102\n      jump\t// in\n    tag_339:\n        /* \"#utility.yul\":14288:14355   */\n      tag_340\n        /* \"#utility.yul\":14348:14354   */\n      dup3\n        /* \"#utility.yul\":14340:14346   */\n      dup3\n        /* \"#utility.yul\":14334:14338   */\n      dup6\n        /* \"#utility.yul\":14288:14355   */\n      tag_178\n      jump\t// in\n    tag_340:\n        /* \"#utility.yul\":14382:14383   */\n      0x00\n        /* \"#utility.yul\":14411:14413   */\n      0x1f\n        /* \"#utility.yul\":14403:14409   */\n      dup4\n        /* \"#utility.yul\":14400:14414   */\n      gt\n        /* \"#utility.yul\":14428:14429   */\n      0x01\n        /* \"#utility.yul\":14423:15055   */\n      dup2\n      eq\n      tag_342\n      jumpi\n        /* \"#utility.yul\":15099:15100   */\n      0x00\n        /* \"#utility.yul\":15116:15122   */\n      dup5\n        /* \"#utility.yul\":15113:15197   */\n      iszero\n      tag_343\n      jumpi\n        /* \"#utility.yul\":15172:15181   */\n      dup3\n        /* \"#utility.yul\":15167:15170   */\n      dup8\n        /* \"#utility.yul\":15163:15182   */\n      add\n        /* \"#utility.yul\":15150:15183   */\n      calldataload\n        /* \"#utility.yul\":15141:15183   */\n      swap1\n      pop\n        /* \"#utility.yul\":15113:15197   */\n    tag_343:\n        /* \"#utility.yul\":15223:15290   */\n      tag_344\n        /* \"#utility.yul\":15283:15289   */\n      dup6\n        /* \"#utility.yul\":15276:15281   */\n      dup3\n        /* \"#utility.yul\":15223:15290   */\n      tag_181\n      jump\t// in\n    tag_344:\n        /* \"#utility.yul\":15217:15221   */\n      dup7\n        /* \"#utility.yul\":15210:15291   */\n      sstore\n        /* \"#utility.yul\":15072:15301   */\n      pop\n        /* \"#utility.yul\":14393:15301   */\n      jump(tag_341)\n        /* \"#utility.yul\":14423:15055   */\n    tag_342:\n        /* \"#utility.yul\":14475:14479   */\n      0x1f\n        /* \"#utility.yul\":14471:14480   */\n      not\n        /* \"#utility.yul\":14463:14469   */\n      dup5\n        /* \"#utility.yul\":14459:14481   */\n      and\n        /* \"#utility.yul\":14509:14546   */\n      tag_345\n        /* \"#utility.yul\":14541:14545   */\n      dup7\n        /* \"#utility.yul\":14509:14546   */\n      tag_167\n      jump\t// in\n    tag_345:\n        /* \"#utility.yul\":14568:14569   */\n      0x00\n        /* \"#utility.yul\":14582:14797   */\n    tag_346:\n        /* \"#utility.yul\":14596:14603   */\n      dup3\n        /* \"#utility.yul\":14593:14594   */\n      dup2\n        /* \"#utility.yul\":14590:14604   */\n      lt\n        /* \"#utility.yul\":14582:14797   */\n      iszero\n      tag_348\n      jumpi\n        /* \"#utility.yul\":14682:14691   */\n      dup5\n        /* \"#utility.yul\":14677:14680   */\n      dup10\n        /* \"#utility.yul\":14673:14692   */\n      add\n        /* \"#utility.yul\":14660:14693   */\n      calldataload\n        /* \"#utility.yul\":14652:14658   */\n      dup3\n        /* \"#utility.yul\":14645:14694   */\n      sstore\n        /* \"#utility.yul\":14733:14734   */\n      0x01\n        /* \"#utility.yul\":14725:14731   */\n      dup3\n        /* \"#utility.yul\":14721:14735   */\n      add\n        /* \"#utility.yul\":14711:14735   */\n      swap2\n      pop\n        /* \"#utility.yul\":14780:14782   */\n      0x20\n        /* \"#utility.yul\":14769:14778   */\n      dup6\n        /* \"#utility.yul\":14765:14783   */\n      add\n        /* \"#utility.yul\":14752:14783   */\n      swap5\n      pop\n        /* \"#utility.yul\":14619:14623   */\n      0x20\n        /* \"#utility.yul\":14616:14617   */\n      dup2\n        /* \"#utility.yul\":14612:14624   */\n      add\n        /* \"#utility.yul\":14607:14624   */\n      swap1\n      pop\n        /* \"#utility.yul\":14582:14797   */\n      jump(tag_346)\n    tag_348:\n        /* \"#utility.yul\":14825:14831   */\n      dup7\n        /* \"#utility.yul\":14816:14823   */\n      dup4\n        /* \"#utility.yul\":14813:14832   */\n      lt\n        /* \"#utility.yul\":14810:14996   */\n      iszero\n      tag_349\n      jumpi\n        /* \"#utility.yul\":14890:14899   */\n      dup5\n        /* \"#utility.yul\":14885:14888   */\n      dup10\n        /* \"#utility.yul\":14881:14900   */\n      add\n        /* \"#utility.yul\":14868:14901   */\n      calldataload\n        /* \"#utility.yul\":14933:14981   */\n      tag_350\n        /* \"#utility.yul\":14975:14979   */\n      0x1f\n        /* \"#utility.yul\":14967:14973   */\n      dup10\n        /* \"#utility.yul\":14963:14980   */\n      and\n        /* \"#utility.yul\":14952:14961   */\n      dup3\n        /* \"#utility.yul\":14933:14981   */\n      tag_180\n      jump\t// in\n    tag_350:\n        /* \"#utility.yul\":14925:14931   */\n      dup4\n        /* \"#utility.yul\":14918:14982   */\n      sstore\n        /* \"#utility.yul\":14833:14996   */\n      pop\n        /* \"#utility.yul\":14810:14996   */\n    tag_349:\n        /* \"#utility.yul\":15042:15043   */\n      0x01\n        /* \"#utility.yul\":15038:15039   */\n      0x02\n        /* \"#utility.yul\":15030:15036   */\n      dup9\n        /* \"#utility.yul\":15026:15040   */\n      mul\n        /* \"#utility.yul\":15022:15044   */\n      add\n        /* \"#utility.yul\":15016:15020   */\n      dup9\n        /* \"#utility.yul\":15009:15045   */\n      sstore\n        /* \"#utility.yul\":14430:15055   */\n      pop\n      pop\n      pop\n        /* \"#utility.yul\":14393:15301   */\n    tag_341:\n      pop\n        /* \"#utility.yul\":14003:15307   */\n      pop\n      pop\n      pop\n        /* \"#utility.yul\":13904:15307   */\n      pop\n      pop\n      pop\n      jump\t// out\n        /* \"#utility.yul\":15313:15493   */\n    tag_182:\n        /* \"#utility.yul\":15453:15485   */\n      0x596f75277265206e6f7420656c696769626c6520666f7220526566756e640000\n        /* \"#utility.yul\":15449:15450   */\n      0x00\n        /* \"#utility.yul\":15441:15447   */\n      dup3\n        /* \"#utility.yul\":15437:15451   */\n      add\n        /* \"#utility.yul\":15430:15486   */\n      mstore\n        /* \"#utility.yul\":15313:15493   */\n      pop\n      jump\t// out\n        /* \"#utility.yul\":15499:15865   */\n    tag_183:\n        /* \"#utility.yul\":15641:15644   */\n      0x00\n        /* \"#utility.yul\":15662:15729   */\n      tag_353\n        /* \"#utility.yul\":15726:15728   */\n      0x1e\n        /* \"#utility.yul\":15721:15724   */\n      dup4\n        /* \"#utility.yul\":15662:15729   */\n      tag_146\n      jump\t// in\n    tag_353:\n        /* \"#utility.yul\":15655:15729   */\n      swap2\n      pop\n        /* \"#utility.yul\":15738:15831   */\n      tag_354\n        /* \"#utility.yul\":15827:15830   */\n      dup3\n        /* \"#utility.yul\":15738:15831   */\n      tag_182\n      jump\t// in\n    tag_354:\n        /* \"#utility.yul\":15856:15858   */\n      0x20\n        /* \"#utility.yul\":15851:15854   */\n      dup3\n        /* \"#utility.yul\":15847:15859   */\n      add\n        /* \"#utility.yul\":15840:15859   */\n      swap1\n      pop\n        /* \"#utility.yul\":15499:15865   */\n      swap2\n      swap1\n      pop\n      jump\t// out\n        /* \"#utility.yul\":15871:16290   */\n    tag_112:\n        /* \"#utility.yul\":16037:16041   */\n      0x00\n        /* \"#utility.yul\":16075:16077   */\n      0x20\n        /* \"#utility.yul\":16064:16073   */\n      dup3\n        /* \"#utility.yul\":16060:16078   */\n      add\n        /* \"#utility.yul\":16052:16078   */\n      swap1\n      pop\n        /* \"#utility.yul\":16124:16133   */\n      dup2\n        /* \"#utility.yul\":16118:16122   */\n      dup2\n        /* \"#utility.yul\":16114:16134   */\n      sub\n        /* \"#utility.yul\":16110:16111   */\n      0x00\n        /* \"#utility.yul\":16099:16108   */\n      dup4\n        /* \"#utility.yul\":16095:16112   */\n      add\n        /* \"#utility.yul\":16088:16135   */\n      mstore\n        /* \"#utility.yul\":16152:16283   */\n      tag_356\n        /* \"#utility.yul\":16278:16282   */\n      dup2\n        /* \"#utility.yul\":16152:16283   */\n      tag_183\n      jump\t// in\n    tag_356:\n        /* \"#utility.yul\":16144:16283   */\n      swap1\n      pop\n        /* \"#utility.yul\":15871:16290   */\n      swap2\n      swap1\n      pop\n      jump\t// out\n        /* \"#utility.yul\":16296:16465   */\n    tag_184:\n        /* \"#utility.yul\":16436:16457   */\n      0x596f7520617265206e6f74206120646f6e6f7200000000000000000000000000\n        /* \"#utility.yul\":16432:16433   */\n      0x00\n        /* \"#utility.yul\":16424:16430   */\n      dup3\n        /* \"#utility.yul\":16420:16434   */\n      add\n        /* \"#utility.yul\":16413:16458   */\n      mstore\n        /* \"#utility.yul\":16296:16465   */\n      pop\n      jump\t// out\n        /* \"#utility.yul\":16471:16837   */\n    tag_185:\n        /* \"#utility.yul\":16613:16616   */\n      0x00\n        /* \"#utility.yul\":16634:16701   */\n      tag_359\n        /* \"#utility.yul\":16698:16700   */\n      0x13\n        /* \"#utility.yul\":16693:16696   */\n      dup4\n        /* \"#utility.yul\":16634:16701   */\n      tag_146\n      jump\t// in\n    tag_359:\n        /* \"#utility.yul\":16627:16701   */\n      swap2\n      pop\n        /* \"#utility.yul\":16710:16803   */\n      tag_360\n        /* \"#utility.yul\":16799:16802   */\n      dup3\n        /* \"#utility.yul\":16710:16803   */\n      tag_184\n      jump\t// in\n    tag_360:\n        /* \"#utility.yul\":16828:16830   */\n      0x20\n        /* \"#utility.yul\":16823:16826   */\n      dup3\n        /* \"#utility.yul\":16819:16831   */\n      add\n        /* \"#utility.yul\":16812:16831   */\n      swap1\n      pop\n        /* \"#utility.yul\":16471:16837   */\n      swap2\n      swap1\n      pop\n      jump\t// out\n        /* \"#utility.yul\":16843:17262   */\n    tag_115:\n        /* \"#utility.yul\":17009:17013   */\n      0x00\n        /* \"#utility.yul\":17047:17049   */\n      0x20\n        /* \"#utility.yul\":17036:17045   */\n      dup3\n        /* \"#utility.yul\":17032:17050   */\n      add\n        /* \"#utility.yul\":17024:17050   */\n      swap1\n      pop\n        /* \"#utility.yul\":17096:17105   */\n      dup2\n        /* \"#utility.yul\":17090:17094   */\n      dup2\n        /* \"#utility.yul\":17086:17106   */\n      sub\n        /* \"#utility.yul\":17082:17083   */\n      0x00\n        /* \"#utility.yul\":17071:17080   */\n      dup4\n        /* \"#utility.yul\":17067:17084   */\n      add\n        /* \"#utility.yul\":17060:17107   */\n      mstore\n        /* \"#utility.yul\":17124:17255   */\n      tag_362\n        /* \"#utility.yul\":17250:17254   */\n      dup2\n        /* \"#utility.yul\":17124:17255   */\n      tag_185\n      jump\t// in\n    tag_362:\n        /* \"#utility.yul\":17116:17255   */\n      swap1\n      pop\n        /* \"#utility.yul\":16843:17262   */\n      swap2\n      swap1\n      pop\n      jump\t// out\n        /* \"#utility.yul\":17268:17440   */\n    tag_186:\n        /* \"#utility.yul\":17408:17432   */\n      0x546869732046756e642068617320657870697265642100000000000000000000\n        /* \"#utility.yul\":17404:17405   */\n      0x00\n        /* \"#utility.yul\":17396:17402   */\n      dup3\n        /* \"#utility.yul\":17392:17406   */\n      add\n        /* \"#utility.yul\":17385:17433   */\n      mstore\n        /* \"#utility.yul\":17268:17440   */\n      pop\n      jump\t// out\n        /* \"#utility.yul\":17446:17812   */\n    tag_187:\n        /* \"#utility.yul\":17588:17591   */\n      0x00\n        /* \"#utility.yul\":17609:17676   */\n      tag_365\n        /* \"#utility.yul\":17673:17675   */\n      0x16\n        /* \"#utility.yul\":17668:17671   */\n      dup4\n        /* \"#utility.yul\":17609:17676   */\n      tag_146\n      jump\t// in\n    tag_365:\n        /* \"#utility.yul\":17602:17676   */\n      swap2\n      pop\n        /* \"#utility.yul\":17685:17778   */\n      tag_366\n        /* \"#utility.yul\":17774:17777   */\n      dup3\n        /* \"#utility.yul\":17685:17778   */\n      tag_186\n      jump\t// in\n    tag_366:\n        /* \"#utility.yul\":17803:17805   */\n      0x20\n        /* \"#utility.yul\":17798:17801   */\n      dup3\n        /* \"#utility.yul\":17794:17806   */\n      add\n        /* \"#utility.yul\":17787:17806   */\n      swap1\n      pop\n        /* \"#utility.yul\":17446:17812   */\n      swap2\n      swap1\n      pop\n      jump\t// out\n        /* \"#utility.yul\":17818:18237   */\n    tag_121:\n        /* \"#utility.yul\":17984:17988   */\n      0x00\n        /* \"#utility.yul\":18022:18024   */\n      0x20\n        /* \"#utility.yul\":18011:18020   */\n      dup3\n        /* \"#utility.yul\":18007:18025   */\n      add\n        /* \"#utility.yul\":17999:18025   */\n      swap1\n      pop\n        /* \"#utility.yul\":18071:18080   */\n      dup2\n        /* \"#utility.yul\":18065:18069   */\n      dup2\n        /* \"#utility.yul\":18061:18081   */\n      sub\n        /* \"#utility.yul\":18057:18058   */\n      0x00\n        /* \"#utility.yul\":18046:18055   */\n      dup4\n        /* \"#utility.yul\":18042:18059   */\n      add\n        /* \"#utility.yul\":18035:18082   */\n      mstore\n        /* \"#utility.yul\":18099:18230   */\n      tag_368\n        /* \"#utility.yul\":18225:18229   */\n      dup2\n        /* \"#utility.yul\":18099:18230   */\n      tag_187\n      jump\t// in\n    tag_368:\n        /* \"#utility.yul\":18091:18230   */\n      swap1\n      pop\n        /* \"#utility.yul\":17818:18237   */\n      swap2\n      swap1\n      pop\n      jump\t// out\n        /* \"#utility.yul\":18243:18467   */\n    tag_188:\n        /* \"#utility.yul\":18383:18417   */\n      0x4d696e696d756e20446f6e6174696f6e20726571756972656420697320312045\n        /* \"#utility.yul\":18379:18380   */\n      0x00\n        /* \"#utility.yul\":18371:18377   */\n      dup3\n        /* \"#utility.yul\":18367:18381   */\n      add\n        /* \"#utility.yul\":18360:18418   */\n      mstore\n        /* \"#utility.yul\":18452:18459   */\n      0x7468657220000000000000000000000000000000000000000000000000000000\n        /* \"#utility.yul\":18447:18449   */\n      0x20\n        /* \"#utility.yul\":18439:18445   */\n      dup3\n        /* \"#utility.yul\":18435:18450   */\n      add\n        /* \"#utility.yul\":18428:18460   */\n      mstore\n        /* \"#utility.yul\":18243:18467   */\n      pop\n      jump\t// out\n        /* \"#utility.yul\":18473:18839   */\n    tag_189:\n        /* \"#utility.yul\":18615:18618   */\n      0x00\n        /* \"#utility.yul\":18636:18703   */\n      tag_371\n        /* \"#utility.yul\":18700:18702   */\n      0x25\n        /* \"#utility.yul\":18695:18698   */\n      dup4\n        /* \"#utility.yul\":18636:18703   */\n      tag_146\n      jump\t// in\n    tag_371:\n        /* \"#utility.yul\":18629:18703   */\n      swap2\n      pop\n        /* \"#utility.yul\":18712:18805   */\n      tag_372\n        /* \"#utility.yul\":18801:18804   */\n      dup3\n        /* \"#utility.yul\":18712:18805   */\n      tag_188\n      jump\t// in\n    tag_372:\n        /* \"#utility.yul\":18830:18832   */\n      0x40\n        /* \"#utility.yul\":18825:18828   */\n      dup3\n        /* \"#utility.yul\":18821:18833   */\n      add\n        /* \"#utility.yul\":18814:18833   */\n      swap1\n      pop\n        /* \"#utility.yul\":18473:18839   */\n      swap2\n      swap1\n      pop\n      jump\t// out\n        /* \"#utility.yul\":18845:19264   */\n    tag_124:\n        /* \"#utility.yul\":19011:19015   */\n      0x00\n        /* \"#utility.yul\":19049:19051   */\n      0x20\n        /* \"#utility.yul\":19038:19047   */\n      dup3\n        /* \"#utility.yul\":19034:19052   */\n      add\n        /* \"#utility.yul\":19026:19052   */\n      swap1\n      pop\n        /* \"#utility.yul\":19098:19107   */\n      dup2\n        /* \"#utility.yul\":19092:19096   */\n      dup2\n        /* \"#utility.yul\":19088:19108   */\n      sub\n        /* \"#utility.yul\":19084:19085   */\n      0x00\n        /* \"#utility.yul\":19073:19082   */\n      dup4\n        /* \"#utility.yul\":19069:19086   */\n      add\n        /* \"#utility.yul\":19062:19109   */\n      mstore\n        /* \"#utility.yul\":19126:19257   */\n      tag_374\n        /* \"#utility.yul\":19252:19256   */\n      dup2\n        /* \"#utility.yul\":19126:19257   */\n      tag_189\n      jump\t// in\n    tag_374:\n        /* \"#utility.yul\":19118:19257   */\n      swap1\n      pop\n        /* \"#utility.yul\":18845:19264   */\n      swap2\n      swap1\n      pop\n      jump\t// out\n        /* \"#utility.yul\":19270:19461   */\n    tag_128:\n        /* \"#utility.yul\":19310:19313   */\n      0x00\n        /* \"#utility.yul\":19329:19349   */\n      tag_376\n        /* \"#utility.yul\":19347:19348   */\n      dup3\n        /* \"#utility.yul\":19329:19349   */\n      tag_133\n      jump\t// in\n    tag_376:\n        /* \"#utility.yul\":19324:19349   */\n      swap2\n      pop\n        /* \"#utility.yul\":19363:19383   */\n      tag_377\n        /* \"#utility.yul\":19381:19382   */\n      dup4\n        /* \"#utility.yul\":19363:19383   */\n      tag_133\n      jump\t// in\n    tag_377:\n        /* \"#utility.yul\":19358:19383   */\n      swap3\n      pop\n        /* \"#utility.yul\":19406:19407   */\n      dup3\n        /* \"#utility.yul\":19403:19404   */\n      dup3\n        /* \"#utility.yul\":19399:19408   */\n      add\n        /* \"#utility.yul\":19392:19408   */\n      swap1\n      pop\n        /* \"#utility.yul\":19427:19430   */\n      dup1\n        /* \"#utility.yul\":19424:19425   */\n      dup3\n        /* \"#utility.yul\":19421:19431   */\n      gt\n        /* \"#utility.yul\":19418:19454   */\n      iszero\n      tag_378\n      jumpi\n        /* \"#utility.yul\":19434:19452   */\n      tag_379\n      tag_163\n      jump\t// in\n    tag_379:\n        /* \"#utility.yul\":19418:19454   */\n    tag_378:\n        /* \"#utility.yul\":19270:19461   */\n      swap3\n      swap2\n      pop\n      pop\n      jump\t// out\n\n    auxdata: 0xa26469706673582212206a80c82103e10d25836498e8bf40605c27e273daa4cd26aab31c9c424fa5119864736f6c63430008190033\n}\n",
				"bytecode": {
					"linkReferences": {},
					"object": "608060405234801561000f575f80fd5b5060405161161f38038061161f833981810160405281019061003191906100d6565b8160018190555080426100449190610141565b5f81905550670de0b6b3a76400006003819055503360065f6101000a81548173ffffffffffffffffffffffffffffffffffffffff021916908373ffffffffffffffffffffffffffffffffffffffff1602179055505050610174565b5f80fd5b5f819050919050565b6100b5816100a3565b81146100bf575f80fd5b50565b5f815190506100d0816100ac565b92915050565b5f80604083850312156100ec576100eb61009f565b5b5f6100f9858286016100c2565b925050602061010a858286016100c2565b9150509250929050565b7f4e487b71000000000000000000000000000000000000000000000000000000005f52601160045260245ffd5b5f61014b826100a3565b9150610156836100a3565b925082820190508082111561016e5761016d610114565b5b92915050565b61149e806101815f395ff3fe6080604052600436106100dc575f3560e01c8063c71daccb1161007e578063d84d188b11610058578063d84d188b14610281578063e6c18374146102ab578063ed88c68e146102d5578063f457ee5a146102df576100dc565b8063c71daccb14610217578063d4b8399214610241578063d5cef1331461026b576100dc565b806373081905116100ba578063730819051461015c5780637773ded1146101865780637b8e8895146101ae578063b4a99a4e146101ed576100dc565b806312514bba146100e057806329dcb0cf146101085780635b6681e814610132575b5f80fd5b3480156100eb575f80fd5b5061010660048036038101906101019190610a89565b61031b565b005b348015610113575f80fd5b5061011c6104e8565b6040516101299190610ac3565b60405180910390f35b34801561013d575f80fd5b506101466104ed565b6040516101539190610ac3565b60405180910390f35b348015610167575f80fd5b506101706104f3565b60405161017d9190610ac3565b60405180910390f35b348015610191575f80fd5b506101ac60048036038101906101a79190610b97565b6104f9565b005b3480156101b9575f80fd5b506101d460048036038101906101cf9190610a89565b610636565b6040516101e49493929190610ca1565b60405180910390f35b3480156101f8575f80fd5b50610201610714565b60405161020e9190610d0b565b60405180910390f35b348015610222575f80fd5b5061022b610739565b6040516102389190610ac3565b60405180910390f35b34801561024c575f80fd5b50610255610740565b6040516102629190610ac3565b60405180910390f35b348015610276575f80fd5b5061027f610746565b005b34801561028c575f80fd5b506102956108dc565b6040516102a29190610ac3565b60405180910390f35b3480156102b6575f80fd5b506102bf6108e2565b6040516102cc9190610ac3565b60405180910390f35b6102dd6108e8565b005b3480156102ea575f80fd5b5061030560048036038101906103009190610d4e565b610a39565b6040516103129190610ac3565b60405180910390f35b60065f9054906101000a900473ffffffffffffffffffffffffffffffffffffffff1673ffffffffffffffffffffffffffffffffffffffff163373ffffffffffffffffffffffffffffffffffffffff16146103aa576040517f08c379a00000000000000000000000000000000000000000000000000000000081526004016103a190610de9565b60405180910390fd5b60015460025410156103f1576040517f08c379a00000000000000000000000000000000000000000000000000000000081526004016103e890610e51565b60405180910390fd5b5f60085f8381526020019081526020015f2090505f15158160020160149054906101000a900460ff1615151461045c576040517f08c379a000000000000000000000000000000000000000000000000000000000815260040161045390610edf565b60405180910390fd5b806002015f9054906101000a900473ffffffffffffffffffffffffffffffffffffffff1673ffffffffffffffffffffffffffffffffffffffff166108fc826001015490811502906040515f60405180830381858888f193505050501580156104c6573d5f803e3d5ffd5b5060018160020160146101000a81548160ff0219169083151502179055505050565b5f5481565b60025481565b60045481565b60065f9054906101000a900473ffffffffffffffffffffffffffffffffffffffff1673ffffffffffffffffffffffffffffffffffffffff163373ffffffffffffffffffffffffffffffffffffffff1614610588576040517f08c379a000000000000000000000000000000000000000000000000000000000815260040161057f90610de9565b60405180910390fd5b5f60085f60055481526020019081526020015f20905060055f8154809291906105b090610f2a565b91905055508484825f0191826105c79291906111a2565b5082816002015f6101000a81548173ffffffffffffffffffffffffffffffffffffffff021916908373ffffffffffffffffffffffffffffffffffffffff1602179055508181600101819055505f8160020160146101000a81548160ff0219169083151502179055505050505050565b6008602052805f5260405f205f91509050805f01805461065590610fd5565b80601f016020809104026020016040519081016040528092919081815260200182805461068190610fd5565b80156106cc5780601f106106a3576101008083540402835291602001916106cc565b820191905f5260205f20905b8154815290600101906020018083116106af57829003601f168201915b505050505090806001015490806002015f9054906101000a900473ffffffffffffffffffffffffffffffffffffffff16908060020160149054906101000a900460ff16905084565b60065f9054906101000a900473ffffffffffffffffffffffffffffffffffffffff1681565b5f47905090565b60015481565b5f54421180156107595750600154600254105b610798576040517f08c379a000000000000000000000000000000000000000000000000000000000815260040161078f906112b9565b60405180910390fd5b5f60075f3373ffffffffffffffffffffffffffffffffffffffff1673ffffffffffffffffffffffffffffffffffffffff1681526020019081526020015f205411610817576040517f08c379a000000000000000000000000000000000000000000000000000000000815260040161080e90611321565b60405180910390fd5b3373ffffffffffffffffffffffffffffffffffffffff166108fc60075f3373ffffffffffffffffffffffffffffffffffffffff1673ffffffffffffffffffffffffffffffffffffffff1681526020019081526020015f205490811502906040515f60405180830381858888f19350505050158015610897573d5f803e3d5ffd5b505f60075f3373ffffffffffffffffffffffffffffffffffffffff1673ffffffffffffffffffffffffffffffffffffffff1681526020019081526020015f2081905550565b60055481565b60035481565b5f54421061092b576040517f08c379a000000000000000000000000000000000000000000000000000000000815260040161092290611389565b60405180910390fd5b600354341015610970576040517f08c379a000000000000000000000000000000000000000000000000000000000815260040161096790611417565b60405180910390fd5b5f60075f3373ffffffffffffffffffffffffffffffffffffffff1673ffffffffffffffffffffffffffffffffffffffff1681526020019081526020015f2054036109cc5760045f8154809291906109c690610f2a565b91905055505b3460075f3373ffffffffffffffffffffffffffffffffffffffff1673ffffffffffffffffffffffffffffffffffffffff1681526020019081526020015f205f828254610a189190611435565b925050819055503460025f828254610a309190611435565b92505081905550565b6007602052805f5260405f205f915090505481565b5f80fd5b5f80fd5b5f819050919050565b610a6881610a56565b8114610a72575f80fd5b50565b5f81359050610a8381610a5f565b92915050565b5f60208284031215610a9e57610a9d610a4e565b5b5f610aab84828501610a75565b91505092915050565b610abd81610a56565b82525050565b5f602082019050610ad65f830184610ab4565b92915050565b5f80fd5b5f80fd5b5f80fd5b5f8083601f840112610afd57610afc610adc565b5b8235905067ffffffffffffffff811115610b1a57610b19610ae0565b5b602083019150836001820283011115610b3657610b35610ae4565b5b9250929050565b5f73ffffffffffffffffffffffffffffffffffffffff82169050919050565b5f610b6682610b3d565b9050919050565b610b7681610b5c565b8114610b80575f80fd5b50565b5f81359050610b9181610b6d565b92915050565b5f805f8060608587031215610baf57610bae610a4e565b5b5f85013567ffffffffffffffff811115610bcc57610bcb610a52565b5b610bd887828801610ae8565b94509450506020610beb87828801610b83565b9250506040610bfc87828801610a75565b91505092959194509250565b5f81519050919050565b5f82825260208201905092915050565b8281835e5f83830152505050565b5f601f19601f8301169050919050565b5f610c4a82610c08565b610c548185610c12565b9350610c64818560208601610c22565b610c6d81610c30565b840191505092915050565b610c8181610b5c565b82525050565b5f8115159050919050565b610c9b81610c87565b82525050565b5f6080820190508181035f830152610cb98187610c40565b9050610cc86020830186610ab4565b610cd56040830185610c78565b610ce26060830184610c92565b95945050505050565b5f610cf582610b3d565b9050919050565b610d0581610ceb565b82525050565b5f602082019050610d1e5f830184610cfc565b92915050565b610d2d81610ceb565b8114610d37575f80fd5b50565b5f81359050610d4881610d24565b92915050565b5f60208284031215610d6357610d62610a4e565b5b5f610d7084828501610d3a565b91505092915050565b7f43616e206f6e6c79206265207573656420627920436f6e7472616374204f776e5f8201527f6572210000000000000000000000000000000000000000000000000000000000602082015250565b5f610dd3602383610c12565b9150610dde82610d79565b604082019050919050565b5f6020820190508181035f830152610e0081610dc7565b9050919050565b7f5461726765742069736e2774206d6574210000000000000000000000000000005f82015250565b5f610e3b601183610c12565b9150610e4682610e07565b602082019050919050565b5f6020820190508181035f830152610e6881610e2f565b9050919050565b7f5468652046756e6473206861766520616c7265616479206265656e207472616e5f8201527f7366657272656400000000000000000000000000000000000000000000000000602082015250565b5f610ec9602783610c12565b9150610ed482610e6f565b604082019050919050565b5f6020820190508181035f830152610ef681610ebd565b9050919050565b7f4e487b71000000000000000000000000000000000000000000000000000000005f52601160045260245ffd5b5f610f3482610a56565b91507fffffffffffffffffffffffffffffffffffffffffffffffffffffffffffffffff8203610f6657610f65610efd565b5b600182019050919050565b5f82905092915050565b7f4e487b71000000000000000000000000000000000000000000000000000000005f52604160045260245ffd5b7f4e487b71000000000000000000000000000000000000000000000000000000005f52602260045260245ffd5b5f6002820490506001821680610fec57607f821691505b602082108103610fff57610ffe610fa8565b5b50919050565b5f819050815f5260205f209050919050565b5f6020601f8301049050919050565b5f82821b905092915050565b5f600883026110617fffffffffffffffffffffffffffffffffffffffffffffffffffffffffffffffff82611026565b61106b8683611026565b95508019841693508086168417925050509392505050565b5f819050919050565b5f6110a66110a161109c84610a56565b611083565b610a56565b9050919050565b5f819050919050565b6110bf8361108c565b6110d36110cb826110ad565b848454611032565b825550505050565b5f90565b6110e76110db565b6110f28184846110b6565b505050565b5b818110156111155761110a5f826110df565b6001810190506110f8565b5050565b601f82111561115a5761112b81611005565b61113484611017565b81016020851015611143578190505b61115761114f85611017565b8301826110f7565b50505b505050565b5f82821c905092915050565b5f61117a5f198460080261115f565b1980831691505092915050565b5f611192838361116b565b9150826002028217905092915050565b6111ac8383610f71565b67ffffffffffffffff8111156111c5576111c4610f7b565b5b6111cf8254610fd5565b6111da828285611119565b5f601f831160018114611207575f84156111f5578287013590505b6111ff8582611187565b865550611266565b601f19841661121586611005565b5f5b8281101561123c57848901358255600182019150602085019450602081019050611217565b868310156112595784890135611255601f89168261116b565b8355505b6001600288020188555050505b50505050505050565b7f596f75277265206e6f7420656c696769626c6520666f7220526566756e6400005f82015250565b5f6112a3601e83610c12565b91506112ae8261126f565b602082019050919050565b5f6020820190508181035f8301526112d081611297565b9050919050565b7f596f7520617265206e6f74206120646f6e6f72000000000000000000000000005f82015250565b5f61130b601383610c12565b9150611316826112d7565b602082019050919050565b5f6020820190508181035f830152611338816112ff565b9050919050565b7f546869732046756e6420686173206578706972656421000000000000000000005f82015250565b5f611373601683610c12565b915061137e8261133f565b602082019050919050565b5f6020820190508181035f8301526113a081611367565b9050919050565b7f4d696e696d756e20446f6e6174696f6e207265717569726564206973203120455f8201527f7468657220000000000000000000000000000000000000000000000000000000602082015250565b5f611401602583610c12565b915061140c826113a7565b604082019050919050565b5f6020820190508181035f83015261142e816113f5565b9050919050565b5f61143f82610a56565b915061144a83610a56565b925082820190508082111561146257611461610efd565b5b9291505056fea26469706673582212206a80c82103e10d25836498e8bf40605c27e273daa4cd26aab31c9c424fa5119864736f6c63430008190033",
					"opcodes": "PUSH1 0x80 PUSH1 0x40 MSTORE CALLVALUE DUP1 ISZERO PUSH2 0xF JUMPI PUSH0 DUP1 REVERT JUMPDEST POP PUSH1 0x40 MLOAD PUSH2 0x161F CODESIZE SUB DUP1 PUSH2 0x161F DUP4 CODECOPY DUP2 DUP2 ADD PUSH1 0x40 MSTORE DUP2 ADD SWAP1 PUSH2 0x31 SWAP2 SWAP1 PUSH2 0xD6 JUMP JUMPDEST DUP2 PUSH1 0x1 DUP2 SWAP1 SSTORE POP DUP1 TIMESTAMP PUSH2 0x44 SWAP2 SWAP1 PUSH2 0x141 JUMP JUMPDEST PUSH0 DUP2 SWAP1 SSTORE POP PUSH8 0xDE0B6B3A7640000 PUSH1 0x3 DUP2 SWAP1 SSTORE POP CALLER PUSH1 0x6 PUSH0 PUSH2 0x100 EXP DUP2 SLOAD DUP2 PUSH20 0xFFFFFFFFFFFFFFFFFFFFFFFFFFFFFFFFFFFFFFFF MUL NOT AND SWAP1 DUP4 PUSH20 0xFFFFFFFFFFFFFFFFFFFFFFFFFFFFFFFFFFFFFFFF AND MUL OR SWAP1 SSTORE POP POP POP PUSH2 0x174 JUMP JUMPDEST PUSH0 DUP1 REVERT JUMPDEST PUSH0 DUP2 SWAP1 POP SWAP2 SWAP1 POP JUMP JUMPDEST PUSH2 0xB5 DUP2 PUSH2 0xA3 JUMP JUMPDEST DUP2 EQ PUSH2 0xBF JUMPI PUSH0 DUP1 REVERT JUMPDEST POP JUMP JUMPDEST PUSH0 DUP2 MLOAD SWAP1 POP PUSH2 0xD0 DUP2 PUSH2 0xAC JUMP JUMPDEST SWAP3 SWAP2 POP POP JUMP JUMPDEST PUSH0 DUP1 PUSH1 0x40 DUP4 DUP6 SUB SLT ISZERO PUSH2 0xEC JUMPI PUSH2 0xEB PUSH2 0x9F JUMP JUMPDEST JUMPDEST PUSH0 PUSH2 0xF9 DUP6 DUP3 DUP7 ADD PUSH2 0xC2 JUMP JUMPDEST SWAP3 POP POP PUSH1 0x20 PUSH2 0x10A DUP6 DUP3 DUP7 ADD PUSH2 0xC2 JUMP JUMPDEST SWAP2 POP POP SWAP3 POP SWAP3 SWAP1 POP JUMP JUMPDEST PUSH32 0x4E487B7100000000000000000000000000000000000000000000000000000000 PUSH0 MSTORE PUSH1 0x11 PUSH1 0x4 MSTORE PUSH1 0x24 PUSH0 REVERT JUMPDEST PUSH0 PUSH2 0x14B DUP3 PUSH2 0xA3 JUMP JUMPDEST SWAP2 POP PUSH2 0x156 DUP4 PUSH2 0xA3 JUMP JUMPDEST SWAP3 POP DUP3 DUP3 ADD SWAP1 POP DUP1 DUP3 GT ISZERO PUSH2 0x16E JUMPI PUSH2 0x16D PUSH2 0x114 JUMP JUMPDEST JUMPDEST SWAP3 SWAP2 POP POP JUMP JUMPDEST PUSH2 0x149E DUP1 PUSH2 0x181 PUSH0 CODECOPY PUSH0 RETURN INVALID PUSH1 0x80 PUSH1 0x40 MSTORE PUSH1 0x4 CALLDATASIZE LT PUSH2 0xDC JUMPI PUSH0 CALLDATALOAD PUSH1 0xE0 SHR DUP1 PUSH4 0xC71DACCB GT PUSH2 0x7E JUMPI DUP1 PUSH4 0xD84D188B GT PUSH2 0x58 JUMPI DUP1 PUSH4 0xD84D188B EQ PUSH2 0x281 JUMPI DUP1 PUSH4 0xE6C18374 EQ PUSH2 0x2AB JUMPI DUP1 PUSH4 0xED88C68E EQ PUSH2 0x2D5 JUMPI DUP1 PUSH4 0xF457EE5A EQ PUSH2 0x2DF JUMPI PUSH2 0xDC JUMP JUMPDEST DUP1 PUSH4 0xC71DACCB EQ PUSH2 0x217 JUMPI DUP1 PUSH4 0xD4B83992 EQ PUSH2 0x241 JUMPI DUP1 PUSH4 0xD5CEF133 EQ PUSH2 0x26B JUMPI PUSH2 0xDC JUMP JUMPDEST DUP1 PUSH4 0x73081905 GT PUSH2 0xBA JUMPI DUP1 PUSH4 0x73081905 EQ PUSH2 0x15C JUMPI DUP1 PUSH4 0x7773DED1 EQ PUSH2 0x186 JUMPI DUP1 PUSH4 0x7B8E8895 EQ PUSH2 0x1AE JUMPI DUP1 PUSH4 0xB4A99A4E EQ PUSH2 0x1ED JUMPI PUSH2 0xDC JUMP JUMPDEST DUP1 PUSH4 0x12514BBA EQ PUSH2 0xE0 JUMPI DUP1 PUSH4 0x29DCB0CF EQ PUSH2 0x108 JUMPI DUP1 PUSH4 0x5B6681E8 EQ PUSH2 0x132 JUMPI JUMPDEST PUSH0 DUP1 REVERT JUMPDEST CALLVALUE DUP1 ISZERO PUSH2 0xEB JUMPI PUSH0 DUP1 REVERT JUMPDEST POP PUSH2 0x106 PUSH1 0x4 DUP1 CALLDATASIZE SUB DUP2 ADD SWAP1 PUSH2 0x101 SWAP2 SWAP1 PUSH2 0xA89 JUMP JUMPDEST PUSH2 0x31B JUMP JUMPDEST STOP JUMPDEST CALLVALUE DUP1 ISZERO PUSH2 0x113 JUMPI PUSH0 DUP1 REVERT JUMPDEST POP PUSH2 0x11C PUSH2 0x4E8 JUMP JUMPDEST PUSH1 0x40 MLOAD PUSH2 0x129 SWAP2 SWAP1 PUSH2 0xAC3 JUMP JUMPDEST PUSH1 0x40 MLOAD DUP1 SWAP2 SUB SWAP1 RETURN JUMPDEST CALLVALUE DUP1 ISZERO PUSH2 0x13D JUMPI PUSH0 DUP1 REVERT JUMPDEST POP PUSH2 0x146 PUSH2 0x4ED JUMP JUMPDEST PUSH1 0x40 MLOAD PUSH2 0x153 SWAP2 SWAP1 PUSH2 0xAC3 JUMP JUMPDEST PUSH1 0x40 MLOAD DUP1 SWAP2 SUB SWAP1 RETURN JUMPDEST CALLVALUE DUP1 ISZERO PUSH2 0x167 JUMPI PUSH0 DUP1 REVERT JUMPDEST POP PUSH2 0x170 PUSH2 0x4F3 JUMP JUMPDEST PUSH1 0x40 MLOAD PUSH2 0x17D SWAP2 SWAP1 PUSH2 0xAC3 JUMP JUMPDEST PUSH1 0x40 MLOAD DUP1 SWAP2 SUB SWAP1 RETURN JUMPDEST CALLVALUE DUP1 ISZERO PUSH2 0x191 JUMPI PUSH0 DUP1 REVERT JUMPDEST POP PUSH2 0x1AC PUSH1 0x4 DUP1 CALLDATASIZE SUB DUP2 ADD SWAP1 PUSH2 0x1A7 SWAP2 SWAP1 PUSH2 0xB97 JUMP JUMPDEST PUSH2 0x4F9 JUMP JUMPDEST STOP JUMPDEST CALLVALUE DUP1 ISZERO PUSH2 0x1B9 JUMPI PUSH0 DUP1 REVERT JUMPDEST POP PUSH2 0x1D4 PUSH1 0x4 DUP1 CALLDATASIZE SUB DUP2 ADD SWAP1 PUSH2 0x1CF SWAP2 SWAP1 PUSH2 0xA89 JUMP JUMPDEST PUSH2 0x636 JUMP JUMPDEST PUSH1 0x40 MLOAD PUSH2 0x1E4 SWAP5 SWAP4 SWAP3 SWAP2 SWAP1 PUSH2 0xCA1 JUMP JUMPDEST PUSH1 0x40 MLOAD DUP1 SWAP2 SUB SWAP1 RETURN JUMPDEST CALLVALUE DUP1 ISZERO PUSH2 0x1F8 JUMPI PUSH0 DUP1 REVERT JUMPDEST POP PUSH2 0x201 PUSH2 0x714 JUMP JUMPDEST PUSH1 0x40 MLOAD PUSH2 0x20E SWAP2 SWAP1 PUSH2 0xD0B JUMP JUMPDEST PUSH1 0x40 MLOAD DUP1 SWAP2 SUB SWAP1 RETURN JUMPDEST CALLVALUE DUP1 ISZERO PUSH2 0x222 JUMPI PUSH0 DUP1 REVERT JUMPDEST POP PUSH2 0x22B PUSH2 0x739 JUMP JUMPDEST PUSH1 0x40 MLOAD PUSH2 0x238 SWAP2 SWAP1 PUSH2 0xAC3 JUMP JUMPDEST PUSH1 0x40 MLOAD DUP1 SWAP2 SUB SWAP1 RETURN JUMPDEST CALLVALUE DUP1 ISZERO PUSH2 0x24C JUMPI PUSH0 DUP1 REVERT JUMPDEST POP PUSH2 0x255 PUSH2 0x740 JUMP JUMPDEST PUSH1 0x40 MLOAD PUSH2 0x262 SWAP2 SWAP1 PUSH2 0xAC3 JUMP JUMPDEST PUSH1 0x40 MLOAD DUP1 SWAP2 SUB SWAP1 RETURN JUMPDEST CALLVALUE DUP1 ISZERO PUSH2 0x276 JUMPI PUSH0 DUP1 REVERT JUMPDEST POP PUSH2 0x27F PUSH2 0x746 JUMP JUMPDEST STOP JUMPDEST CALLVALUE DUP1 ISZERO PUSH2 0x28C JUMPI PUSH0 DUP1 REVERT JUMPDEST POP PUSH2 0x295 PUSH2 0x8DC JUMP JUMPDEST PUSH1 0x40 MLOAD PUSH2 0x2A2 SWAP2 SWAP1 PUSH2 0xAC3 JUMP JUMPDEST PUSH1 0x40 MLOAD DUP1 SWAP2 SUB SWAP1 RETURN JUMPDEST CALLVALUE DUP1 ISZERO PUSH2 0x2B6 JUMPI PUSH0 DUP1 REVERT JUMPDEST POP PUSH2 0x2BF PUSH2 0x8E2 JUMP JUMPDEST PUSH1 0x40 MLOAD PUSH2 0x2CC SWAP2 SWAP1 PUSH2 0xAC3 JUMP JUMPDEST PUSH1 0x40 MLOAD DUP1 SWAP2 SUB SWAP1 RETURN JUMPDEST PUSH2 0x2DD PUSH2 0x8E8 JUMP JUMPDEST STOP JUMPDEST CALLVALUE DUP1 ISZERO PUSH2 0x2EA JUMPI PUSH0 DUP1 REVERT JUMPDEST POP PUSH2 0x305 PUSH1 0x4 DUP1 CALLDATASIZE SUB DUP2 ADD SWAP1 PUSH2 0x300 SWAP2 SWAP1 PUSH2 0xD4E JUMP JUMPDEST PUSH2 0xA39 JUMP JUMPDEST PUSH1 0x40 MLOAD PUSH2 0x312 SWAP2 SWAP1 PUSH2 0xAC3 JUMP JUMPDEST PUSH1 0x40 MLOAD DUP1 SWAP2 SUB SWAP1 RETURN JUMPDEST PUSH1 0x6 PUSH0 SWAP1 SLOAD SWAP1 PUSH2 0x100 EXP SWAP1 DIV PUSH20 0xFFFFFFFFFFFFFFFFFFFFFFFFFFFFFFFFFFFFFFFF AND PUSH20 0xFFFFFFFFFFFFFFFFFFFFFFFFFFFFFFFFFFFFFFFF AND CALLER PUSH20 0xFFFFFFFFFFFFFFFFFFFFFFFFFFFFFFFFFFFFFFFF AND EQ PUSH2 0x3AA JUMPI PUSH1 0x40 MLOAD PUSH32 0x8C379A000000000000000000000000000000000000000000000000000000000 DUP2 MSTORE PUSH1 0x4 ADD PUSH2 0x3A1 SWAP1 PUSH2 0xDE9 JUMP JUMPDEST PUSH1 0x40 MLOAD DUP1 SWAP2 SUB SWAP1 REVERT JUMPDEST PUSH1 0x1 SLOAD PUSH1 0x2 SLOAD LT ISZERO PUSH2 0x3F1 JUMPI PUSH1 0x40 MLOAD PUSH32 0x8C379A000000000000000000000000000000000000000000000000000000000 DUP2 MSTORE PUSH1 0x4 ADD PUSH2 0x3E8 SWAP1 PUSH2 0xE51 JUMP JUMPDEST PUSH1 0x40 MLOAD DUP1 SWAP2 SUB SWAP1 REVERT JUMPDEST PUSH0 PUSH1 0x8 PUSH0 DUP4 DUP2 MSTORE PUSH1 0x20 ADD SWAP1 DUP2 MSTORE PUSH1 0x20 ADD PUSH0 KECCAK256 SWAP1 POP PUSH0 ISZERO ISZERO DUP2 PUSH1 0x2 ADD PUSH1 0x14 SWAP1 SLOAD SWAP1 PUSH2 0x100 EXP SWAP1 DIV PUSH1 0xFF AND ISZERO ISZERO EQ PUSH2 0x45C JUMPI PUSH1 0x40 MLOAD PUSH32 0x8C379A000000000000000000000000000000000000000000000000000000000 DUP2 MSTORE PUSH1 0x4 ADD PUSH2 0x453 SWAP1 PUSH2 0xEDF JUMP JUMPDEST PUSH1 0x40 MLOAD DUP1 SWAP2 SUB SWAP1 REVERT JUMPDEST DUP1 PUSH1 0x2 ADD PUSH0 SWAP1 SLOAD SWAP1 PUSH2 0x100 EXP SWAP1 DIV PUSH20 0xFFFFFFFFFFFFFFFFFFFFFFFFFFFFFFFFFFFFFFFF AND PUSH20 0xFFFFFFFFFFFFFFFFFFFFFFFFFFFFFFFFFFFFFFFF AND PUSH2 0x8FC DUP3 PUSH1 0x1 ADD SLOAD SWAP1 DUP2 ISZERO MUL SWAP1 PUSH1 0x40 MLOAD PUSH0 PUSH1 0x40 MLOAD DUP1 DUP4 SUB DUP2 DUP6 DUP9 DUP9 CALL SWAP4 POP POP POP POP ISZERO DUP1 ISZERO PUSH2 0x4C6 JUMPI RETURNDATASIZE PUSH0 DUP1 RETURNDATACOPY RETURNDATASIZE PUSH0 REVERT JUMPDEST POP PUSH1 0x1 DUP2 PUSH1 0x2 ADD PUSH1 0x14 PUSH2 0x100 EXP DUP2 SLOAD DUP2 PUSH1 0xFF MUL NOT AND SWAP1 DUP4 ISZERO ISZERO MUL OR SWAP1 SSTORE POP POP POP JUMP JUMPDEST PUSH0 SLOAD DUP2 JUMP JUMPDEST PUSH1 0x2 SLOAD DUP2 JUMP JUMPDEST PUSH1 0x4 SLOAD DUP2 JUMP JUMPDEST PUSH1 0x6 PUSH0 SWAP1 SLOAD SWAP1 PUSH2 0x100 EXP SWAP1 DIV PUSH20 0xFFFFFFFFFFFFFFFFFFFFFFFFFFFFFFFFFFFFFFFF AND PUSH20 0xFFFFFFFFFFFFFFFFFFFFFFFFFFFFFFFFFFFFFFFF AND CALLER PUSH20 0xFFFFFFFFFFFFFFFFFFFFFFFFFFFFFFFFFFFFFFFF AND EQ PUSH2 0x588 JUMPI PUSH1 0x40 MLOAD PUSH32 0x8C379A000000000000000000000000000000000000000000000000000000000 DUP2 MSTORE PUSH1 0x4 ADD PUSH2 0x57F SWAP1 PUSH2 0xDE9 JUMP JUMPDEST PUSH1 0x40 MLOAD DUP1 SWAP2 SUB SWAP1 REVERT JUMPDEST PUSH0 PUSH1 0x8 PUSH0 PUSH1 0x5 SLOAD DUP2 MSTORE PUSH1 0x20 ADD SWAP1 DUP2 MSTORE PUSH1 0x20 ADD PUSH0 KECCAK256 SWAP1 POP PUSH1 0x5 PUSH0 DUP2 SLOAD DUP1 SWAP3 SWAP2 SWAP1 PUSH2 0x5B0 SWAP1 PUSH2 0xF2A JUMP JUMPDEST SWAP2 SWAP1 POP SSTORE POP DUP5 DUP5 DUP3 PUSH0 ADD SWAP2 DUP3 PUSH2 0x5C7 SWAP3 SWAP2 SWAP1 PUSH2 0x11A2 JUMP JUMPDEST POP DUP3 DUP2 PUSH1 0x2 ADD PUSH0 PUSH2 0x100 EXP DUP2 SLOAD DUP2 PUSH20 0xFFFFFFFFFFFFFFFFFFFFFFFFFFFFFFFFFFFFFFFF MUL NOT AND SWAP1 DUP4 PUSH20 0xFFFFFFFFFFFFFFFFFFFFFFFFFFFFFFFFFFFFFFFF AND MUL OR SWAP1 SSTORE POP DUP2 DUP2 PUSH1 0x1 ADD DUP2 SWAP1 SSTORE POP PUSH0 DUP2 PUSH1 0x2 ADD PUSH1 0x14 PUSH2 0x100 EXP DUP2 SLOAD DUP2 PUSH1 0xFF MUL NOT AND SWAP1 DUP4 ISZERO ISZERO MUL OR SWAP1 SSTORE POP POP POP POP POP POP JUMP JUMPDEST PUSH1 0x8 PUSH1 0x20 MSTORE DUP1 PUSH0 MSTORE PUSH1 0x40 PUSH0 KECCAK256 PUSH0 SWAP2 POP SWAP1 POP DUP1 PUSH0 ADD DUP1 SLOAD PUSH2 0x655 SWAP1 PUSH2 0xFD5 JUMP JUMPDEST DUP1 PUSH1 0x1F ADD PUSH1 0x20 DUP1 SWAP2 DIV MUL PUSH1 0x20 ADD PUSH1 0x40 MLOAD SWAP1 DUP2 ADD PUSH1 0x40 MSTORE DUP1 SWAP3 SWAP2 SWAP1 DUP2 DUP2 MSTORE PUSH1 0x20 ADD DUP3 DUP1 SLOAD PUSH2 0x681 SWAP1 PUSH2 0xFD5 JUMP JUMPDEST DUP1 ISZERO PUSH2 0x6CC JUMPI DUP1 PUSH1 0x1F LT PUSH2 0x6A3 JUMPI PUSH2 0x100 DUP1 DUP4 SLOAD DIV MUL DUP4 MSTORE SWAP2 PUSH1 0x20 ADD SWAP2 PUSH2 0x6CC JUMP JUMPDEST DUP3 ADD SWAP2 SWAP1 PUSH0 MSTORE PUSH1 0x20 PUSH0 KECCAK256 SWAP1 JUMPDEST DUP2 SLOAD DUP2 MSTORE SWAP1 PUSH1 0x1 ADD SWAP1 PUSH1 0x20 ADD DUP1 DUP4 GT PUSH2 0x6AF JUMPI DUP3 SWAP1 SUB PUSH1 0x1F AND DUP3 ADD SWAP2 JUMPDEST POP POP POP POP POP SWAP1 DUP1 PUSH1 0x1 ADD SLOAD SWAP1 DUP1 PUSH1 0x2 ADD PUSH0 SWAP1 SLOAD SWAP1 PUSH2 0x100 EXP SWAP1 DIV PUSH20 0xFFFFFFFFFFFFFFFFFFFFFFFFFFFFFFFFFFFFFFFF AND SWAP1 DUP1 PUSH1 0x2 ADD PUSH1 0x14 SWAP1 SLOAD SWAP1 PUSH2 0x100 EXP SWAP1 DIV PUSH1 0xFF AND SWAP1 POP DUP5 JUMP JUMPDEST PUSH1 0x6 PUSH0 SWAP1 SLOAD SWAP1 PUSH2 0x100 EXP SWAP1 DIV PUSH20 0xFFFFFFFFFFFFFFFFFFFFFFFFFFFFFFFFFFFFFFFF AND DUP2 JUMP JUMPDEST PUSH0 SELFBALANCE SWAP1 POP SWAP1 JUMP JUMPDEST PUSH1 0x1 SLOAD DUP2 JUMP JUMPDEST PUSH0 SLOAD TIMESTAMP GT DUP1 ISZERO PUSH2 0x759 JUMPI POP PUSH1 0x1 SLOAD PUSH1 0x2 SLOAD LT JUMPDEST PUSH2 0x798 JUMPI PUSH1 0x40 MLOAD PUSH32 0x8C379A000000000000000000000000000000000000000000000000000000000 DUP2 MSTORE PUSH1 0x4 ADD PUSH2 0x78F SWAP1 PUSH2 0x12B9 JUMP JUMPDEST PUSH1 0x40 MLOAD DUP1 SWAP2 SUB SWAP1 REVERT JUMPDEST PUSH0 PUSH1 0x7 PUSH0 CALLER PUSH20 0xFFFFFFFFFFFFFFFFFFFFFFFFFFFFFFFFFFFFFFFF AND PUSH20 0xFFFFFFFFFFFFFFFFFFFFFFFFFFFFFFFFFFFFFFFF AND DUP2 MSTORE PUSH1 0x20 ADD SWAP1 DUP2 MSTORE PUSH1 0x20 ADD PUSH0 KECCAK256 SLOAD GT PUSH2 0x817 JUMPI PUSH1 0x40 MLOAD PUSH32 0x8C379A000000000000000000000000000000000000000000000000000000000 DUP2 MSTORE PUSH1 0x4 ADD PUSH2 0x80E SWAP1 PUSH2 0x1321 JUMP JUMPDEST PUSH1 0x40 MLOAD DUP1 SWAP2 SUB SWAP1 REVERT JUMPDEST CALLER PUSH20 0xFFFFFFFFFFFFFFFFFFFFFFFFFFFFFFFFFFFFFFFF AND PUSH2 0x8FC PUSH1 0x7 PUSH0 CALLER PUSH20 0xFFFFFFFFFFFFFFFFFFFFFFFFFFFFFFFFFFFFFFFF AND PUSH20 0xFFFFFFFFFFFFFFFFFFFFFFFFFFFFFFFFFFFFFFFF AND DUP2 MSTORE PUSH1 0x20 ADD SWAP1 DUP2 MSTORE PUSH1 0x20 ADD PUSH0 KECCAK256 SLOAD SWAP1 DUP2 ISZERO MUL SWAP1 PUSH1 0x40 MLOAD PUSH0 PUSH1 0x40 MLOAD DUP1 DUP4 SUB DUP2 DUP6 DUP9 DUP9 CALL SWAP4 POP POP POP POP ISZERO DUP1 ISZERO PUSH2 0x897 JUMPI RETURNDATASIZE PUSH0 DUP1 RETURNDATACOPY RETURNDATASIZE PUSH0 REVERT JUMPDEST POP PUSH0 PUSH1 0x7 PUSH0 CALLER PUSH20 0xFFFFFFFFFFFFFFFFFFFFFFFFFFFFFFFFFFFFFFFF AND PUSH20 0xFFFFFFFFFFFFFFFFFFFFFFFFFFFFFFFFFFFFFFFF AND DUP2 MSTORE PUSH1 0x20 ADD SWAP1 DUP2 MSTORE PUSH1 0x20 ADD PUSH0 KECCAK256 DUP2 SWAP1 SSTORE POP JUMP JUMPDEST PUSH1 0x5 SLOAD DUP2 JUMP JUMPDEST PUSH1 0x3 SLOAD DUP2 JUMP JUMPDEST PUSH0 SLOAD TIMESTAMP LT PUSH2 0x92B JUMPI PUSH1 0x40 MLOAD PUSH32 0x8C379A000000000000000000000000000000000000000000000000000000000 DUP2 MSTORE PUSH1 0x4 ADD PUSH2 0x922 SWAP1 PUSH2 0x1389 JUMP JUMPDEST PUSH1 0x40 MLOAD DUP1 SWAP2 SUB SWAP1 REVERT JUMPDEST PUSH1 0x3 SLOAD CALLVALUE LT ISZERO PUSH2 0x970 JUMPI PUSH1 0x40 MLOAD PUSH32 0x8C379A000000000000000000000000000000000000000000000000000000000 DUP2 MSTORE PUSH1 0x4 ADD PUSH2 0x967 SWAP1 PUSH2 0x1417 JUMP JUMPDEST PUSH1 0x40 MLOAD DUP1 SWAP2 SUB SWAP1 REVERT JUMPDEST PUSH0 PUSH1 0x7 PUSH0 CALLER PUSH20 0xFFFFFFFFFFFFFFFFFFFFFFFFFFFFFFFFFFFFFFFF AND PUSH20 0xFFFFFFFFFFFFFFFFFFFFFFFFFFFFFFFFFFFFFFFF AND DUP2 MSTORE PUSH1 0x20 ADD SWAP1 DUP2 MSTORE PUSH1 0x20 ADD PUSH0 KECCAK256 SLOAD SUB PUSH2 0x9CC JUMPI PUSH1 0x4 PUSH0 DUP2 SLOAD DUP1 SWAP3 SWAP2 SWAP1 PUSH2 0x9C6 SWAP1 PUSH2 0xF2A JUMP JUMPDEST SWAP2 SWAP1 POP SSTORE POP JUMPDEST CALLVALUE PUSH1 0x7 PUSH0 CALLER PUSH20 0xFFFFFFFFFFFFFFFFFFFFFFFFFFFFFFFFFFFFFFFF AND PUSH20 0xFFFFFFFFFFFFFFFFFFFFFFFFFFFFFFFFFFFFFFFF AND DUP2 MSTORE PUSH1 0x20 ADD SWAP1 DUP2 MSTORE PUSH1 0x20 ADD PUSH0 KECCAK256 PUSH0 DUP3 DUP3 SLOAD PUSH2 0xA18 SWAP2 SWAP1 PUSH2 0x1435 JUMP JUMPDEST SWAP3 POP POP DUP2 SWAP1 SSTORE POP CALLVALUE PUSH1 0x2 PUSH0 DUP3 DUP3 SLOAD PUSH2 0xA30 SWAP2 SWAP1 PUSH2 0x1435 JUMP JUMPDEST SWAP3 POP POP DUP2 SWAP1 SSTORE POP JUMP JUMPDEST PUSH1 0x7 PUSH1 0x20 MSTORE DUP1 PUSH0 MSTORE PUSH1 0x40 PUSH0 KECCAK256 PUSH0 SWAP2 POP SWAP1 POP SLOAD DUP2 JUMP JUMPDEST PUSH0 DUP1 REVERT JUMPDEST PUSH0 DUP1 REVERT JUMPDEST PUSH0 DUP2 SWAP1 POP SWAP2 SWAP1 POP JUMP JUMPDEST PUSH2 0xA68 DUP2 PUSH2 0xA56 JUMP JUMPDEST DUP2 EQ PUSH2 0xA72 JUMPI PUSH0 DUP1 REVERT JUMPDEST POP JUMP JUMPDEST PUSH0 DUP2 CALLDATALOAD SWAP1 POP PUSH2 0xA83 DUP2 PUSH2 0xA5F JUMP JUMPDEST SWAP3 SWAP2 POP POP JUMP JUMPDEST PUSH0 PUSH1 0x20 DUP3 DUP5 SUB SLT ISZERO PUSH2 0xA9E JUMPI PUSH2 0xA9D PUSH2 0xA4E JUMP JUMPDEST JUMPDEST PUSH0 PUSH2 0xAAB DUP5 DUP3 DUP6 ADD PUSH2 0xA75 JUMP JUMPDEST SWAP2 POP POP SWAP3 SWAP2 POP POP JUMP JUMPDEST PUSH2 0xABD DUP2 PUSH2 0xA56 JUMP JUMPDEST DUP3 MSTORE POP POP JUMP JUMPDEST PUSH0 PUSH1 0x20 DUP3 ADD SWAP1 POP PUSH2 0xAD6 PUSH0 DUP4 ADD DUP5 PUSH2 0xAB4 JUMP JUMPDEST SWAP3 SWAP2 POP POP JUMP JUMPDEST PUSH0 DUP1 REVERT JUMPDEST PUSH0 DUP1 REVERT JUMPDEST PUSH0 DUP1 REVERT JUMPDEST PUSH0 DUP1 DUP4 PUSH1 0x1F DUP5 ADD SLT PUSH2 0xAFD JUMPI PUSH2 0xAFC PUSH2 0xADC JUMP JUMPDEST JUMPDEST DUP3 CALLDATALOAD SWAP1 POP PUSH8 0xFFFFFFFFFFFFFFFF DUP2 GT ISZERO PUSH2 0xB1A JUMPI PUSH2 0xB19 PUSH2 0xAE0 JUMP JUMPDEST JUMPDEST PUSH1 0x20 DUP4 ADD SWAP2 POP DUP4 PUSH1 0x1 DUP3 MUL DUP4 ADD GT ISZERO PUSH2 0xB36 JUMPI PUSH2 0xB35 PUSH2 0xAE4 JUMP JUMPDEST JUMPDEST SWAP3 POP SWAP3 SWAP1 POP JUMP JUMPDEST PUSH0 PUSH20 0xFFFFFFFFFFFFFFFFFFFFFFFFFFFFFFFFFFFFFFFF DUP3 AND SWAP1 POP SWAP2 SWAP1 POP JUMP JUMPDEST PUSH0 PUSH2 0xB66 DUP3 PUSH2 0xB3D JUMP JUMPDEST SWAP1 POP SWAP2 SWAP1 POP JUMP JUMPDEST PUSH2 0xB76 DUP2 PUSH2 0xB5C JUMP JUMPDEST DUP2 EQ PUSH2 0xB80 JUMPI PUSH0 DUP1 REVERT JUMPDEST POP JUMP JUMPDEST PUSH0 DUP2 CALLDATALOAD SWAP1 POP PUSH2 0xB91 DUP2 PUSH2 0xB6D JUMP JUMPDEST SWAP3 SWAP2 POP POP JUMP JUMPDEST PUSH0 DUP1 PUSH0 DUP1 PUSH1 0x60 DUP6 DUP8 SUB SLT ISZERO PUSH2 0xBAF JUMPI PUSH2 0xBAE PUSH2 0xA4E JUMP JUMPDEST JUMPDEST PUSH0 DUP6 ADD CALLDATALOAD PUSH8 0xFFFFFFFFFFFFFFFF DUP2 GT ISZERO PUSH2 0xBCC JUMPI PUSH2 0xBCB PUSH2 0xA52 JUMP JUMPDEST JUMPDEST PUSH2 0xBD8 DUP8 DUP3 DUP9 ADD PUSH2 0xAE8 JUMP JUMPDEST SWAP5 POP SWAP5 POP POP PUSH1 0x20 PUSH2 0xBEB DUP8 DUP3 DUP9 ADD PUSH2 0xB83 JUMP JUMPDEST SWAP3 POP POP PUSH1 0x40 PUSH2 0xBFC DUP8 DUP3 DUP9 ADD PUSH2 0xA75 JUMP JUMPDEST SWAP2 POP POP SWAP3 SWAP6 SWAP2 SWAP5 POP SWAP3 POP JUMP JUMPDEST PUSH0 DUP2 MLOAD SWAP1 POP SWAP2 SWAP1 POP JUMP JUMPDEST PUSH0 DUP3 DUP3 MSTORE PUSH1 0x20 DUP3 ADD SWAP1 POP SWAP3 SWAP2 POP POP JUMP JUMPDEST DUP3 DUP2 DUP4 MCOPY PUSH0 DUP4 DUP4 ADD MSTORE POP POP POP JUMP JUMPDEST PUSH0 PUSH1 0x1F NOT PUSH1 0x1F DUP4 ADD AND SWAP1 POP SWAP2 SWAP1 POP JUMP JUMPDEST PUSH0 PUSH2 0xC4A DUP3 PUSH2 0xC08 JUMP JUMPDEST PUSH2 0xC54 DUP2 DUP6 PUSH2 0xC12 JUMP JUMPDEST SWAP4 POP PUSH2 0xC64 DUP2 DUP6 PUSH1 0x20 DUP7 ADD PUSH2 0xC22 JUMP JUMPDEST PUSH2 0xC6D DUP2 PUSH2 0xC30 JUMP JUMPDEST DUP5 ADD SWAP2 POP POP SWAP3 SWAP2 POP POP JUMP JUMPDEST PUSH2 0xC81 DUP2 PUSH2 0xB5C JUMP JUMPDEST DUP3 MSTORE POP POP JUMP JUMPDEST PUSH0 DUP2 ISZERO ISZERO SWAP1 POP SWAP2 SWAP1 POP JUMP JUMPDEST PUSH2 0xC9B DUP2 PUSH2 0xC87 JUMP JUMPDEST DUP3 MSTORE POP POP JUMP JUMPDEST PUSH0 PUSH1 0x80 DUP3 ADD SWAP1 POP DUP2 DUP2 SUB PUSH0 DUP4 ADD MSTORE PUSH2 0xCB9 DUP2 DUP8 PUSH2 0xC40 JUMP JUMPDEST SWAP1 POP PUSH2 0xCC8 PUSH1 0x20 DUP4 ADD DUP7 PUSH2 0xAB4 JUMP JUMPDEST PUSH2 0xCD5 PUSH1 0x40 DUP4 ADD DUP6 PUSH2 0xC78 JUMP JUMPDEST PUSH2 0xCE2 PUSH1 0x60 DUP4 ADD DUP5 PUSH2 0xC92 JUMP JUMPDEST SWAP6 SWAP5 POP POP POP POP POP JUMP JUMPDEST PUSH0 PUSH2 0xCF5 DUP3 PUSH2 0xB3D JUMP JUMPDEST SWAP1 POP SWAP2 SWAP1 POP JUMP JUMPDEST PUSH2 0xD05 DUP2 PUSH2 0xCEB JUMP JUMPDEST DUP3 MSTORE POP POP JUMP JUMPDEST PUSH0 PUSH1 0x20 DUP3 ADD SWAP1 POP PUSH2 0xD1E PUSH0 DUP4 ADD DUP5 PUSH2 0xCFC JUMP JUMPDEST SWAP3 SWAP2 POP POP JUMP JUMPDEST PUSH2 0xD2D DUP2 PUSH2 0xCEB JUMP JUMPDEST DUP2 EQ PUSH2 0xD37 JUMPI PUSH0 DUP1 REVERT JUMPDEST POP JUMP JUMPDEST PUSH0 DUP2 CALLDATALOAD SWAP1 POP PUSH2 0xD48 DUP2 PUSH2 0xD24 JUMP JUMPDEST SWAP3 SWAP2 POP POP JUMP JUMPDEST PUSH0 PUSH1 0x20 DUP3 DUP5 SUB SLT ISZERO PUSH2 0xD63 JUMPI PUSH2 0xD62 PUSH2 0xA4E JUMP JUMPDEST JUMPDEST PUSH0 PUSH2 0xD70 DUP5 DUP3 DUP6 ADD PUSH2 0xD3A JUMP JUMPDEST SWAP2 POP POP SWAP3 SWAP2 POP POP JUMP JUMPDEST PUSH32 0x43616E206F6E6C79206265207573656420627920436F6E7472616374204F776E PUSH0 DUP3 ADD MSTORE PUSH32 0x6572210000000000000000000000000000000000000000000000000000000000 PUSH1 0x20 DUP3 ADD MSTORE POP JUMP JUMPDEST PUSH0 PUSH2 0xDD3 PUSH1 0x23 DUP4 PUSH2 0xC12 JUMP JUMPDEST SWAP2 POP PUSH2 0xDDE DUP3 PUSH2 0xD79 JUMP JUMPDEST PUSH1 0x40 DUP3 ADD SWAP1 POP SWAP2 SWAP1 POP JUMP JUMPDEST PUSH0 PUSH1 0x20 DUP3 ADD SWAP1 POP DUP2 DUP2 SUB PUSH0 DUP4 ADD MSTORE PUSH2 0xE00 DUP2 PUSH2 0xDC7 JUMP JUMPDEST SWAP1 POP SWAP2 SWAP1 POP JUMP JUMPDEST PUSH32 0x5461726765742069736E2774206D657421000000000000000000000000000000 PUSH0 DUP3 ADD MSTORE POP JUMP JUMPDEST PUSH0 PUSH2 0xE3B PUSH1 0x11 DUP4 PUSH2 0xC12 JUMP JUMPDEST SWAP2 POP PUSH2 0xE46 DUP3 PUSH2 0xE07 JUMP JUMPDEST PUSH1 0x20 DUP3 ADD SWAP1 POP SWAP2 SWAP1 POP JUMP JUMPDEST PUSH0 PUSH1 0x20 DUP3 ADD SWAP1 POP DUP2 DUP2 SUB PUSH0 DUP4 ADD MSTORE PUSH2 0xE68 DUP2 PUSH2 0xE2F JUMP JUMPDEST SWAP1 POP SWAP2 SWAP1 POP JUMP JUMPDEST PUSH32 0x5468652046756E6473206861766520616C7265616479206265656E207472616E PUSH0 DUP3 ADD MSTORE PUSH32 0x7366657272656400000000000000000000000000000000000000000000000000 PUSH1 0x20 DUP3 ADD MSTORE POP JUMP JUMPDEST PUSH0 PUSH2 0xEC9 PUSH1 0x27 DUP4 PUSH2 0xC12 JUMP JUMPDEST SWAP2 POP PUSH2 0xED4 DUP3 PUSH2 0xE6F JUMP JUMPDEST PUSH1 0x40 DUP3 ADD SWAP1 POP SWAP2 SWAP1 POP JUMP JUMPDEST PUSH0 PUSH1 0x20 DUP3 ADD SWAP1 POP DUP2 DUP2 SUB PUSH0 DUP4 ADD MSTORE PUSH2 0xEF6 DUP2 PUSH2 0xEBD JUMP JUMPDEST SWAP1 POP SWAP2 SWAP1 POP JUMP JUMPDEST PUSH32 0x4E487B7100000000000000000000000000000000000000000000000000000000 PUSH0 MSTORE PUSH1 0x11 PUSH1 0x4 MSTORE PUSH1 0x24 PUSH0 REVERT JUMPDEST PUSH0 PUSH2 0xF34 DUP3 PUSH2 0xA56 JUMP JUMPDEST SWAP2 POP PUSH32 0xFFFFFFFFFFFFFFFFFFFFFFFFFFFFFFFFFFFFFFFFFFFFFFFFFFFFFFFFFFFFFFFF DUP3 SUB PUSH2 0xF66 JUMPI PUSH2 0xF65 PUSH2 0xEFD JUMP JUMPDEST JUMPDEST PUSH1 0x1 DUP3 ADD SWAP1 POP SWAP2 SWAP1 POP JUMP JUMPDEST PUSH0 DUP3 SWAP1 POP SWAP3 SWAP2 POP POP JUMP JUMPDEST PUSH32 0x4E487B7100000000000000000000000000000000000000000000000000000000 PUSH0 MSTORE PUSH1 0x41 PUSH1 0x4 MSTORE PUSH1 0x24 PUSH0 REVERT JUMPDEST PUSH32 0x4E487B7100000000000000000000000000000000000000000000000000000000 PUSH0 MSTORE PUSH1 0x22 PUSH1 0x4 MSTORE PUSH1 0x24 PUSH0 REVERT JUMPDEST PUSH0 PUSH1 0x2 DUP3 DIV SWAP1 POP PUSH1 0x1 DUP3 AND DUP1 PUSH2 0xFEC JUMPI PUSH1 0x7F DUP3 AND SWAP2 POP JUMPDEST PUSH1 0x20 DUP3 LT DUP2 SUB PUSH2 0xFFF JUMPI PUSH2 0xFFE PUSH2 0xFA8 JUMP JUMPDEST JUMPDEST POP SWAP2 SWAP1 POP JUMP JUMPDEST PUSH0 DUP2 SWAP1 POP DUP2 PUSH0 MSTORE PUSH1 0x20 PUSH0 KECCAK256 SWAP1 POP SWAP2 SWAP1 POP JUMP JUMPDEST PUSH0 PUSH1 0x20 PUSH1 0x1F DUP4 ADD DIV SWAP1 POP SWAP2 SWAP1 POP JUMP JUMPDEST PUSH0 DUP3 DUP3 SHL SWAP1 POP SWAP3 SWAP2 POP POP JUMP JUMPDEST PUSH0 PUSH1 0x8 DUP4 MUL PUSH2 0x1061 PUSH32 0xFFFFFFFFFFFFFFFFFFFFFFFFFFFFFFFFFFFFFFFFFFFFFFFFFFFFFFFFFFFFFFFF DUP3 PUSH2 0x1026 JUMP JUMPDEST PUSH2 0x106B DUP7 DUP4 PUSH2 0x1026 JUMP JUMPDEST SWAP6 POP DUP1 NOT DUP5 AND SWAP4 POP DUP1 DUP7 AND DUP5 OR SWAP3 POP POP POP SWAP4 SWAP3 POP POP POP JUMP JUMPDEST PUSH0 DUP2 SWAP1 POP SWAP2 SWAP1 POP JUMP JUMPDEST PUSH0 PUSH2 0x10A6 PUSH2 0x10A1 PUSH2 0x109C DUP5 PUSH2 0xA56 JUMP JUMPDEST PUSH2 0x1083 JUMP JUMPDEST PUSH2 0xA56 JUMP JUMPDEST SWAP1 POP SWAP2 SWAP1 POP JUMP JUMPDEST PUSH0 DUP2 SWAP1 POP SWAP2 SWAP1 POP JUMP JUMPDEST PUSH2 0x10BF DUP4 PUSH2 0x108C JUMP JUMPDEST PUSH2 0x10D3 PUSH2 0x10CB DUP3 PUSH2 0x10AD JUMP JUMPDEST DUP5 DUP5 SLOAD PUSH2 0x1032 JUMP JUMPDEST DUP3 SSTORE POP POP POP POP JUMP JUMPDEST PUSH0 SWAP1 JUMP JUMPDEST PUSH2 0x10E7 PUSH2 0x10DB JUMP JUMPDEST PUSH2 0x10F2 DUP2 DUP5 DUP5 PUSH2 0x10B6 JUMP JUMPDEST POP POP POP JUMP JUMPDEST JUMPDEST DUP2 DUP2 LT ISZERO PUSH2 0x1115 JUMPI PUSH2 0x110A PUSH0 DUP3 PUSH2 0x10DF JUMP JUMPDEST PUSH1 0x1 DUP2 ADD SWAP1 POP PUSH2 0x10F8 JUMP JUMPDEST POP POP JUMP JUMPDEST PUSH1 0x1F DUP3 GT ISZERO PUSH2 0x115A JUMPI PUSH2 0x112B DUP2 PUSH2 0x1005 JUMP JUMPDEST PUSH2 0x1134 DUP5 PUSH2 0x1017 JUMP JUMPDEST DUP2 ADD PUSH1 0x20 DUP6 LT ISZERO PUSH2 0x1143 JUMPI DUP2 SWAP1 POP JUMPDEST PUSH2 0x1157 PUSH2 0x114F DUP6 PUSH2 0x1017 JUMP JUMPDEST DUP4 ADD DUP3 PUSH2 0x10F7 JUMP JUMPDEST POP POP JUMPDEST POP POP POP JUMP JUMPDEST PUSH0 DUP3 DUP3 SHR SWAP1 POP SWAP3 SWAP2 POP POP JUMP JUMPDEST PUSH0 PUSH2 0x117A PUSH0 NOT DUP5 PUSH1 0x8 MUL PUSH2 0x115F JUMP JUMPDEST NOT DUP1 DUP4 AND SWAP2 POP POP SWAP3 SWAP2 POP POP JUMP JUMPDEST PUSH0 PUSH2 0x1192 DUP4 DUP4 PUSH2 0x116B JUMP JUMPDEST SWAP2 POP DUP3 PUSH1 0x2 MUL DUP3 OR SWAP1 POP SWAP3 SWAP2 POP POP JUMP JUMPDEST PUSH2 0x11AC DUP4 DUP4 PUSH2 0xF71 JUMP JUMPDEST PUSH8 0xFFFFFFFFFFFFFFFF DUP2 GT ISZERO PUSH2 0x11C5 JUMPI PUSH2 0x11C4 PUSH2 0xF7B JUMP JUMPDEST JUMPDEST PUSH2 0x11CF DUP3 SLOAD PUSH2 0xFD5 JUMP JUMPDEST PUSH2 0x11DA DUP3 DUP3 DUP6 PUSH2 0x1119 JUMP JUMPDEST PUSH0 PUSH1 0x1F DUP4 GT PUSH1 0x1 DUP2 EQ PUSH2 0x1207 JUMPI PUSH0 DUP5 ISZERO PUSH2 0x11F5 JUMPI DUP3 DUP8 ADD CALLDATALOAD SWAP1 POP JUMPDEST PUSH2 0x11FF DUP6 DUP3 PUSH2 0x1187 JUMP JUMPDEST DUP7 SSTORE POP PUSH2 0x1266 JUMP JUMPDEST PUSH1 0x1F NOT DUP5 AND PUSH2 0x1215 DUP7 PUSH2 0x1005 JUMP JUMPDEST PUSH0 JUMPDEST DUP3 DUP2 LT ISZERO PUSH2 0x123C JUMPI DUP5 DUP10 ADD CALLDATALOAD DUP3 SSTORE PUSH1 0x1 DUP3 ADD SWAP2 POP PUSH1 0x20 DUP6 ADD SWAP5 POP PUSH1 0x20 DUP2 ADD SWAP1 POP PUSH2 0x1217 JUMP JUMPDEST DUP7 DUP4 LT ISZERO PUSH2 0x1259 JUMPI DUP5 DUP10 ADD CALLDATALOAD PUSH2 0x1255 PUSH1 0x1F DUP10 AND DUP3 PUSH2 0x116B JUMP JUMPDEST DUP4 SSTORE POP JUMPDEST PUSH1 0x1 PUSH1 0x2 DUP9 MUL ADD DUP9 SSTORE POP POP POP JUMPDEST POP POP POP POP POP POP POP JUMP JUMPDEST PUSH32 0x596F75277265206E6F7420656C696769626C6520666F7220526566756E640000 PUSH0 DUP3 ADD MSTORE POP JUMP JUMPDEST PUSH0 PUSH2 0x12A3 PUSH1 0x1E DUP4 PUSH2 0xC12 JUMP JUMPDEST SWAP2 POP PUSH2 0x12AE DUP3 PUSH2 0x126F JUMP JUMPDEST PUSH1 0x20 DUP3 ADD SWAP1 POP SWAP2 SWAP1 POP JUMP JUMPDEST PUSH0 PUSH1 0x20 DUP3 ADD SWAP1 POP DUP2 DUP2 SUB PUSH0 DUP4 ADD MSTORE PUSH2 0x12D0 DUP2 PUSH2 0x1297 JUMP JUMPDEST SWAP1 POP SWAP2 SWAP1 POP JUMP JUMPDEST PUSH32 0x596F7520617265206E6F74206120646F6E6F7200000000000000000000000000 PUSH0 DUP3 ADD MSTORE POP JUMP JUMPDEST PUSH0 PUSH2 0x130B PUSH1 0x13 DUP4 PUSH2 0xC12 JUMP JUMPDEST SWAP2 POP PUSH2 0x1316 DUP3 PUSH2 0x12D7 JUMP JUMPDEST PUSH1 0x20 DUP3 ADD SWAP1 POP SWAP2 SWAP1 POP JUMP JUMPDEST PUSH0 PUSH1 0x20 DUP3 ADD SWAP1 POP DUP2 DUP2 SUB PUSH0 DUP4 ADD MSTORE PUSH2 0x1338 DUP2 PUSH2 0x12FF JUMP JUMPDEST SWAP1 POP SWAP2 SWAP1 POP JUMP JUMPDEST PUSH32 0x546869732046756E642068617320657870697265642100000000000000000000 PUSH0 DUP3 ADD MSTORE POP JUMP JUMPDEST PUSH0 PUSH2 0x1373 PUSH1 0x16 DUP4 PUSH2 0xC12 JUMP JUMPDEST SWAP2 POP PUSH2 0x137E DUP3 PUSH2 0x133F JUMP JUMPDEST PUSH1 0x20 DUP3 ADD SWAP1 POP SWAP2 SWAP1 POP JUMP JUMPDEST PUSH0 PUSH1 0x20 DUP3 ADD SWAP1 POP DUP2 DUP2 SUB PUSH0 DUP4 ADD MSTORE PUSH2 0x13A0 DUP2 PUSH2 0x1367 JUMP JUMPDEST SWAP1 POP SWAP2 SWAP1 POP JUMP JUMPDEST PUSH32 0x4D696E696D756E20446F6E6174696F6E20726571756972656420697320312045 PUSH0 DUP3 ADD MSTORE PUSH32 0x7468657220000000000000000000000000000000000000000000000000000000 PUSH1 0x20 DUP3 ADD MSTORE POP JUMP JUMPDEST PUSH0 PUSH2 0x1401 PUSH1 0x25 DUP4 PUSH2 0xC12 JUMP JUMPDEST SWAP2 POP PUSH2 0x140C DUP3 PUSH2 0x13A7 JUMP JUMPDEST PUSH1 0x40 DUP3 ADD SWAP1 POP SWAP2 SWAP1 POP JUMP JUMPDEST PUSH0 PUSH1 0x20 DUP3 ADD SWAP1 POP DUP2 DUP2 SUB PUSH0 DUP4 ADD MSTORE PUSH2 0x142E DUP2 PUSH2 0x13F5 JUMP JUMPDEST SWAP1 POP SWAP2 SWAP1 POP JUMP JUMPDEST PUSH0 PUSH2 0x143F DUP3 PUSH2 0xA56 JUMP JUMPDEST SWAP2 POP PUSH2 0x144A DUP4 PUSH2 0xA56 JUMP JUMPDEST SWAP3 POP DUP3 DUP3 ADD SWAP1 POP DUP1 DUP3 GT ISZERO PUSH2 0x1462 JUMPI PUSH2 0x1461 PUSH2 0xEFD JUMP JUMPDEST JUMPDEST SWAP3 SWAP2 POP POP JUMP INVALID LOG2 PUSH5 0x6970667358 0x22 SLT KECCAK256 PUSH11 0x80C82103E10D25836498E8 0xBF BLOCKHASH PUSH1 0x5C 0x27 0xE2 PUSH20 0xDAA4CD26AAB31C9C424FA5119864736F6C634300 ADDMOD NOT STOP CALLER "
				},
				"gasEstimates": {
					"creation": {
						"codeDepositCost": "1055600",
						"executionCost": "infinite",
						"totalCost": "infinite"
					},
					"external": {
						"Owner()": "2597",
						"checkBalance()": "357",
						"createFund(string,address,uint256)": "infinite",
						"deadline()": "2470",
						"donate()": "infinite",
						"donation(address)": "2890",
						"funds(uint256)": "infinite",
						"min_donation()": "2469",
						"no_of_donors()": "2448",
						"num_requests()": "2447",
						"raised_amt()": "2493",
						"requestRefund()": "infinite",
						"target()": "2470",
						"transfer(uint256)": "infinite"
					}
				},
				"methodIdentifiers": {
					"Owner()": "b4a99a4e",
					"checkBalance()": "c71daccb",
					"createFund(string,address,uint256)": "7773ded1",
					"deadline()": "29dcb0cf",
					"donate()": "ed88c68e",
					"donation(address)": "f457ee5a",
					"funds(uint256)": "7b8e8895",
					"min_donation()": "e6c18374",
					"no_of_donors()": "73081905",
					"num_requests()": "d84d188b",
					"raised_amt()": "5b6681e8",
					"requestRefund()": "d5cef133",
					"target()": "d4b83992",
					"transfer(uint256)": "12514bba"
				}
			},
			"storageLayout": {
				"storage": [
					{
						"astId": 12,
						"contract": "Crowd_Funding/contract.sol:crowd_fund",
						"label": "deadline",
						"offset": 0,
						"slot": "0",
						"type": "t_uint256"
					},
					{
						"astId": 14,
						"contract": "Crowd_Funding/contract.sol:crowd_fund",
						"label": "target",
						"offset": 0,
						"slot": "1",
						"type": "t_uint256"
					},
					{
						"astId": 16,
						"contract": "Crowd_Funding/contract.sol:crowd_fund",
						"label": "raised_amt",
						"offset": 0,
						"slot": "2",
						"type": "t_uint256"
					},
					{
						"astId": 18,
						"contract": "Crowd_Funding/contract.sol:crowd_fund",
						"label": "min_donation",
						"offset": 0,
						"slot": "3",
						"type": "t_uint256"
					},
					{
						"astId": 20,
						"contract": "Crowd_Funding/contract.sol:crowd_fund",
						"label": "no_of_donors",
						"offset": 0,
						"slot": "4",
						"type": "t_uint256"
					},
					{
						"astId": 22,
						"contract": "Crowd_Funding/contract.sol:crowd_fund",
						"label": "num_requests",
						"offset": 0,
						"slot": "5",
						"type": "t_uint256"
					},
					{
						"astId": 24,
						"contract": "Crowd_Funding/contract.sol:crowd_fund",
						"label": "Owner",
						"offset": 0,
						"slot": "6",
						"type": "t_address"
					},
					{
						"astId": 28,
						"contract": "Crowd_Funding/contract.sol:crowd_fund",
						"label": "donation",
						"offset": 0,
						"slot": "7",
						"type": "t_mapping(t_address,t_uint256)"
					},
					{
						"astId": 33,
						"contract": "Crowd_Funding/contract.sol:crowd_fund",
						"label": "funds",
						"offset": 0,
						"slot": "8",
						"type": "t_mapping(t_uint256,t_struct(fund_details)10_storage)"
					}
				],
				"types": {
					"t_address": {
						"encoding": "inplace",
						"label": "address",
						"numberOfBytes": "20"
					},
					"t_address_payable": {
						"encoding": "inplace",
						"label": "address payable",
						"numberOfBytes": "20"
					},
					"t_bool": {
						"encoding": "inplace",
						"label": "bool",
						"numberOfBytes": "1"
					},
					"t_mapping(t_address,t_uint256)": {
						"encoding": "mapping",
						"key": "t_address",
						"label": "mapping(address => uint256)",
						"numberOfBytes": "32",
						"value": "t_uint256"
					},
					"t_mapping(t_uint256,t_struct(fund_details)10_storage)": {
						"encoding": "mapping",
						"key": "t_uint256",
						"label": "mapping(uint256 => struct crowd_fund.fund_details)",
						"numberOfBytes": "32",
						"value": "t_struct(fund_details)10_storage"
					},
					"t_string_storage": {
						"encoding": "bytes",
						"label": "string",
						"numberOfBytes": "32"
					},
					"t_struct(fund_details)10_storage": {
						"encoding": "inplace",
						"label": "struct crowd_fund.fund_details",
						"members": [
							{
								"astId": 3,
								"contract": "Crowd_Funding/contract.sol:crowd_fund",
								"label": "description",
								"offset": 0,
								"slot": "0",
								"type": "t_string_storage"
							},
							{
								"astId": 5,
								"contract": "Crowd_Funding/contract.sol:crowd_fund",
								"label": "value",
								"offset": 0,
								"slot": "1",
								"type": "t_uint256"
							},
							{
								"astId": 7,
								"contract": "Crowd_Funding/contract.sol:crowd_fund",
								"label": "recipient",
								"offset": 0,
								"slot": "2",
								"type": "t_address_payable"
							},
							{
								"astId": 9,
								"contract": "Crowd_Funding/contract.sol:crowd_fund",
								"label": "completed",
								"offset": 20,
								"slot": "2",
								"type": "t_bool"
							}
						],
						"numberOfBytes": "96"
					},
					"t_uint256": {
						"encoding": "inplace",
						"label": "uint256",
						"numberOfBytes": "32"
					}
				}
			},
			"userdoc": {
				"kind": "user",
				"methods": {},
				"version": 1
			}
		}
	}
}