{
	"Event Management/contract.sol": {
		"EventOrg": {
			"abi": [
				{
					"inputs": [
						{
							"internalType": "uint256",
							"name": "_eventId",
							"type": "uint256"
						},
						{
							"internalType": "uint16",
							"name": "_ticketQuantity",
							"type": "uint16"
						}
					],
					"name": "buy_tickets",
					"outputs": [],
					"stateMutability": "payable",
					"type": "function"
				},
				{
					"inputs": [
						{
							"internalType": "string",
							"name": "_name_of_event",
							"type": "string"
						},
						{
							"internalType": "uint32",
							"name": "_price",
							"type": "uint32"
						},
						{
							"internalType": "uint16",
							"name": "_num_tickets",
							"type": "uint16"
						},
						{
							"internalType": "uint64",
							"name": "_date",
							"type": "uint64"
						}
					],
					"name": "create_event",
					"outputs": [],
					"stateMutability": "nonpayable",
					"type": "function"
				},
				{
					"inputs": [],
					"name": "eventId",
					"outputs": [
						{
							"internalType": "uint256",
							"name": "",
							"type": "uint256"
						}
					],
					"stateMutability": "view",
					"type": "function"
				},
				{
					"inputs": [
						{
							"internalType": "uint256",
							"name": "",
							"type": "uint256"
						}
					],
					"name": "no_of_events",
					"outputs": [
						{
							"internalType": "address",
							"name": "organiser",
							"type": "address"
						},
						{
							"internalType": "string",
							"name": "name_of_event",
							"type": "string"
						},
						{
							"internalType": "uint32",
							"name": "price",
							"type": "uint32"
						},
						{
							"internalType": "uint16",
							"name": "tickets",
							"type": "uint16"
						},
						{
							"internalType": "uint16",
							"name": "tickets_remaining",
							"type": "uint16"
						},
						{
							"internalType": "uint64",
							"name": "date",
							"type": "uint64"
						}
					],
					"stateMutability": "view",
					"type": "function"
				},
				{
					"inputs": [
						{
							"internalType": "address",
							"name": "",
							"type": "address"
						},
						{
							"internalType": "uint256",
							"name": "",
							"type": "uint256"
						}
					],
					"name": "tickets",
					"outputs": [
						{
							"internalType": "uint256",
							"name": "",
							"type": "uint256"
						}
					],
					"stateMutability": "view",
					"type": "function"
				},
				{
					"inputs": [
						{
							"internalType": "uint16",
							"name": "_quantity",
							"type": "uint16"
						},
						{
							"internalType": "address",
							"name": "_to",
							"type": "address"
						},
						{
							"internalType": "uint256",
							"name": "_eventId",
							"type": "uint256"
						}
					],
					"name": "transfer",
					"outputs": [],
					"stateMutability": "nonpayable",
					"type": "function"
				}
			],
			"devdoc": {
				"kind": "dev",
				"methods": {},
				"version": 1
			},
			"evm": {
				"assembly": "    /* \"Event Management/contract.sol\":67:2559  contract EventOrg{... */\n  mstore(0x40, 0x80)\n  callvalue\n  dup1\n  iszero\n  tag_1\n  jumpi\n  0x00\n  dup1\n  revert\ntag_1:\n  pop\n  dataSize(sub_0)\n  dup1\n  dataOffset(sub_0)\n  0x00\n  codecopy\n  0x00\n  return\nstop\n\nsub_0: assembly {\n        /* \"Event Management/contract.sol\":67:2559  contract EventOrg{... */\n      mstore(0x40, 0x80)\n      jumpi(tag_1, lt(calldatasize, 0x04))\n      shr(0xe0, calldataload(0x00))\n      dup1\n      0x089cdd0c\n      eq\n      tag_2\n      jumpi\n      dup1\n      0x7322b604\n      eq\n      tag_3\n      jumpi\n      dup1\n      0x86156302\n      eq\n      tag_4\n      jumpi\n      dup1\n      0x9c7e1d6a\n      eq\n      tag_5\n      jumpi\n      dup1\n      0xada1ddca\n      eq\n      tag_6\n      jumpi\n      dup1\n      0xdae7a13c\n      eq\n      tag_7\n      jumpi\n    tag_1:\n      0x00\n      dup1\n      revert\n        /* \"Event Management/contract.sol\":497:516  uint public eventId */\n    tag_2:\n      callvalue\n      dup1\n      iszero\n      tag_8\n      jumpi\n      0x00\n      dup1\n      revert\n    tag_8:\n      pop\n      tag_9\n      tag_10\n      jump\t// in\n    tag_9:\n      mload(0x40)\n      tag_11\n      swap2\n      swap1\n      tag_12\n      jump\t// in\n    tag_11:\n      mload(0x40)\n      dup1\n      swap2\n      sub\n      swap1\n      return\n        /* \"Event Management/contract.sol\":321:364  mapping (uint=>Details) public no_of_events */\n    tag_3:\n      callvalue\n      dup1\n      iszero\n      tag_13\n      jumpi\n      0x00\n      dup1\n      revert\n    tag_13:\n      pop\n      tag_14\n      0x04\n      dup1\n      calldatasize\n      sub\n      dup2\n      add\n      swap1\n      tag_15\n      swap2\n      swap1\n      tag_16\n      jump\t// in\n    tag_15:\n      tag_17\n      jump\t// in\n    tag_14:\n      mload(0x40)\n      tag_18\n      swap7\n      swap6\n      swap5\n      swap4\n      swap3\n      swap2\n      swap1\n      tag_19\n      jump\t// in\n    tag_18:\n      mload(0x40)\n      dup1\n      swap2\n      sub\n      swap1\n      return\n        /* \"Event Management/contract.sol\":561:970  function create_event(string calldata _name_of_event, uint32 _price, uint16 _num_tickets, uint64 _date) public {... */\n    tag_4:\n      callvalue\n      dup1\n      iszero\n      tag_20\n      jumpi\n      0x00\n      dup1\n      revert\n    tag_20:\n      pop\n      tag_21\n      0x04\n      dup1\n      calldatasize\n      sub\n      dup2\n      add\n      swap1\n      tag_22\n      swap2\n      swap1\n      tag_23\n      jump\t// in\n    tag_22:\n      tag_24\n      jump\t// in\n    tag_21:\n      stop\n        /* \"Event Management/contract.sol\":1008:1935  function buy_tickets(uint _eventId, uint16 _ticketQuantity) public payable {... */\n    tag_5:\n      tag_25\n      0x04\n      dup1\n      calldatasize\n      sub\n      dup2\n      add\n      swap1\n      tag_26\n      swap2\n      swap1\n      tag_27\n      jump\t// in\n    tag_26:\n      tag_28\n      jump\t// in\n    tag_25:\n      stop\n        /* \"Event Management/contract.sol\":1984:2556  function transfer(uint16 _quantity, address _to, uint _eventId) public {... */\n    tag_6:\n      callvalue\n      dup1\n      iszero\n      tag_29\n      jumpi\n      0x00\n      dup1\n      revert\n    tag_29:\n      pop\n      tag_30\n      0x04\n      dup1\n      calldatasize\n      sub\n      dup2\n      add\n      swap1\n      tag_31\n      swap2\n      swap1\n      tag_32\n      jump\t// in\n    tag_31:\n      tag_33\n      jump\t// in\n    tag_30:\n      stop\n        /* \"Event Management/contract.sol\":399:453  mapping (address=>mapping (uint=>uint)) public tickets */\n    tag_7:\n      callvalue\n      dup1\n      iszero\n      tag_34\n      jumpi\n      0x00\n      dup1\n      revert\n    tag_34:\n      pop\n      tag_35\n      0x04\n      dup1\n      calldatasize\n      sub\n      dup2\n      add\n      swap1\n      tag_36\n      swap2\n      swap1\n      tag_37\n      jump\t// in\n    tag_36:\n      tag_38\n      jump\t// in\n    tag_35:\n      mload(0x40)\n      tag_39\n      swap2\n      swap1\n      tag_12\n      jump\t// in\n    tag_39:\n      mload(0x40)\n      dup1\n      swap2\n      sub\n      swap1\n      return\n        /* \"Event Management/contract.sol\":497:516  uint public eventId */\n    tag_10:\n      sload(0x02)\n      dup2\n      jump\t// out\n        /* \"Event Management/contract.sol\":321:364  mapping (uint=>Details) public no_of_events */\n    tag_17:\n      mstore(0x20, 0x00)\n      dup1\n      0x00\n      mstore\n      keccak256(0x00, 0x40)\n      0x00\n      swap2\n      pop\n      swap1\n      pop\n      dup1\n      0x00\n      add\n      0x00\n      swap1\n      sload\n      swap1\n      0x0100\n      exp\n      swap1\n      div\n      0xffffffffffffffffffffffffffffffffffffffff\n      and\n      swap1\n      dup1\n      0x01\n      add\n      dup1\n      sload\n      tag_40\n      swap1\n      tag_41\n      jump\t// in\n    tag_40:\n      dup1\n      0x1f\n      add\n      0x20\n      dup1\n      swap2\n      div\n      mul\n      0x20\n      add\n      mload(0x40)\n      swap1\n      dup2\n      add\n      0x40\n      mstore\n      dup1\n      swap3\n      swap2\n      swap1\n      dup2\n      dup2\n      mstore\n      0x20\n      add\n      dup3\n      dup1\n      sload\n      tag_42\n      swap1\n      tag_41\n      jump\t// in\n    tag_42:\n      dup1\n      iszero\n      tag_43\n      jumpi\n      dup1\n      0x1f\n      lt\n      tag_44\n      jumpi\n      0x0100\n      dup1\n      dup4\n      sload\n      div\n      mul\n      dup4\n      mstore\n      swap2\n      0x20\n      add\n      swap2\n      jump(tag_43)\n    tag_44:\n      dup3\n      add\n      swap2\n      swap1\n      0x00\n      mstore\n      keccak256(0x00, 0x20)\n      swap1\n    tag_45:\n      dup2\n      sload\n      dup2\n      mstore\n      swap1\n      0x01\n      add\n      swap1\n      0x20\n      add\n      dup1\n      dup4\n      gt\n      tag_45\n      jumpi\n      dup3\n      swap1\n      sub\n      0x1f\n      and\n      dup3\n      add\n      swap2\n    tag_43:\n      pop\n      pop\n      pop\n      pop\n      pop\n      swap1\n      dup1\n      0x02\n      add\n      0x00\n      swap1\n      sload\n      swap1\n      0x0100\n      exp\n      swap1\n      div\n      0xffffffff\n      and\n      swap1\n      dup1\n      0x02\n      add\n      0x04\n      swap1\n      sload\n      swap1\n      0x0100\n      exp\n      swap1\n      div\n      0xffff\n      and\n      swap1\n      dup1\n      0x02\n      add\n      0x06\n      swap1\n      sload\n      swap1\n      0x0100\n      exp\n      swap1\n      div\n      0xffff\n      and\n      swap1\n      dup1\n      0x02\n      add\n      0x08\n      swap1\n      sload\n      swap1\n      0x0100\n      exp\n      swap1\n      div\n      0xffffffffffffffff\n      and\n      swap1\n      pop\n      dup7\n      jump\t// out\n        /* \"Event Management/contract.sol\":561:970  function create_event(string calldata _name_of_event, uint32 _price, uint16 _num_tickets, uint64 _date) public {... */\n    tag_24:\n        /* \"Event Management/contract.sol\":707:712  _date */\n      dup1\n        /* \"Event Management/contract.sol\":691:712  block.timestamp<_date */\n      0xffffffffffffffff\n      and\n        /* \"Event Management/contract.sol\":691:706  block.timestamp */\n      timestamp\n        /* \"Event Management/contract.sol\":691:712  block.timestamp<_date */\n      lt\n        /* \"Event Management/contract.sol\":683:756  require(block.timestamp<_date,\"Event cannot be created for a past date.\") */\n      tag_47\n      jumpi\n      mload(0x40)\n      0x08c379a000000000000000000000000000000000000000000000000000000000\n      dup2\n      mstore\n      0x04\n      add\n      tag_48\n      swap1\n      tag_49\n      jump\t// in\n    tag_48:\n      mload(0x40)\n      dup1\n      swap2\n      sub\n      swap1\n      revert\n    tag_47:\n        /* \"Event Management/contract.sol\":789:790  0 */\n      0x00\n        /* \"Event Management/contract.sol\":775:787  _num_tickets */\n      dup3\n        /* \"Event Management/contract.sol\":775:790  _num_tickets!=0 */\n      0xffff\n      and\n      sub\n        /* \"Event Management/contract.sol\":767:836  require(_num_tickets!=0,\"Number of Tickets cannot be equal to zero.\") */\n      tag_50\n      jumpi\n      mload(0x40)\n      0x08c379a000000000000000000000000000000000000000000000000000000000\n      dup2\n      mstore\n      0x04\n      add\n      tag_51\n      swap1\n      tag_52\n      jump\t// in\n    tag_51:\n      mload(0x40)\n      dup1\n      swap2\n      sub\n      swap1\n      revert\n    tag_50:\n        /* \"Event Management/contract.sol\":869:942  Details(msg.sender,_name_of_event,_price,_num_tickets,_num_tickets,_date) */\n      mload(0x40)\n      dup1\n      0xc0\n      add\n      0x40\n      mstore\n      dup1\n        /* \"Event Management/contract.sol\":877:887  msg.sender */\n      caller\n        /* \"Event Management/contract.sol\":869:942  Details(msg.sender,_name_of_event,_price,_num_tickets,_num_tickets,_date) */\n      0xffffffffffffffffffffffffffffffffffffffff\n      and\n      dup2\n      mstore\n      0x20\n      add\n        /* \"Event Management/contract.sol\":888:902  _name_of_event */\n      dup7\n      dup7\n        /* \"Event Management/contract.sol\":869:942  Details(msg.sender,_name_of_event,_price,_num_tickets,_num_tickets,_date) */\n      dup1\n      dup1\n      0x1f\n      add\n      0x20\n      dup1\n      swap2\n      div\n      mul\n      0x20\n      add\n      mload(0x40)\n      swap1\n      dup2\n      add\n      0x40\n      mstore\n      dup1\n      swap4\n      swap3\n      swap2\n      swap1\n      dup2\n      dup2\n      mstore\n      0x20\n      add\n      dup4\n      dup4\n      dup1\n      dup3\n      dup5\n      calldatacopy\n      0x00\n      dup2\n      dup5\n      add\n      mstore\n      not(0x1f)\n      0x1f\n      dup3\n      add\n      and\n      swap1\n      pop\n      dup1\n      dup4\n      add\n      swap3\n      pop\n      pop\n      pop\n      pop\n      pop\n      pop\n      pop\n      dup2\n      mstore\n      0x20\n      add\n        /* \"Event Management/contract.sol\":903:909  _price */\n      dup5\n        /* \"Event Management/contract.sol\":869:942  Details(msg.sender,_name_of_event,_price,_num_tickets,_num_tickets,_date) */\n      0xffffffff\n      and\n      dup2\n      mstore\n      0x20\n      add\n        /* \"Event Management/contract.sol\":910:922  _num_tickets */\n      dup4\n        /* \"Event Management/contract.sol\":869:942  Details(msg.sender,_name_of_event,_price,_num_tickets,_num_tickets,_date) */\n      0xffff\n      and\n      dup2\n      mstore\n      0x20\n      add\n        /* \"Event Management/contract.sol\":923:935  _num_tickets */\n      dup4\n        /* \"Event Management/contract.sol\":869:942  Details(msg.sender,_name_of_event,_price,_num_tickets,_num_tickets,_date) */\n      0xffff\n      and\n      dup2\n      mstore\n      0x20\n      add\n        /* \"Event Management/contract.sol\":936:941  _date */\n      dup3\n        /* \"Event Management/contract.sol\":869:942  Details(msg.sender,_name_of_event,_price,_num_tickets,_num_tickets,_date) */\n      0xffffffffffffffff\n      and\n      dup2\n      mstore\n      pop\n        /* \"Event Management/contract.sol\":847:859  no_of_events */\n      0x00\n        /* \"Event Management/contract.sol\":847:868  no_of_events[eventId] */\n      dup1\n        /* \"Event Management/contract.sol\":860:867  eventId */\n      sload(0x02)\n        /* \"Event Management/contract.sol\":847:868  no_of_events[eventId] */\n      dup2\n      mstore\n      0x20\n      add\n      swap1\n      dup2\n      mstore\n      0x20\n      add\n      0x00\n      keccak256\n        /* \"Event Management/contract.sol\":847:942  no_of_events[eventId]=Details(msg.sender,_name_of_event,_price,_num_tickets,_num_tickets,_date) */\n      0x00\n      dup3\n      add\n      mload\n      dup2\n      0x00\n      add\n      exp(0x0100, 0x00)\n      dup2\n      sload\n      dup2\n      0xffffffffffffffffffffffffffffffffffffffff\n      mul\n      not\n      and\n      swap1\n      dup4\n      0xffffffffffffffffffffffffffffffffffffffff\n      and\n      mul\n      or\n      swap1\n      sstore\n      pop\n      0x20\n      dup3\n      add\n      mload\n      dup2\n      0x01\n      add\n      swap1\n      dup2\n      tag_53\n      swap2\n      swap1\n      tag_54\n      jump\t// in\n    tag_53:\n      pop\n      0x40\n      dup3\n      add\n      mload\n      dup2\n      0x02\n      add\n      exp(0x0100, 0x00)\n      dup2\n      sload\n      dup2\n      0xffffffff\n      mul\n      not\n      and\n      swap1\n      dup4\n      0xffffffff\n      and\n      mul\n      or\n      swap1\n      sstore\n      pop\n      0x60\n      dup3\n      add\n      mload\n      dup2\n      0x02\n      add\n      exp(0x0100, 0x04)\n      dup2\n      sload\n      dup2\n      0xffff\n      mul\n      not\n      and\n      swap1\n      dup4\n      0xffff\n      and\n      mul\n      or\n      swap1\n      sstore\n      pop\n      0x80\n      dup3\n      add\n      mload\n      dup2\n      0x02\n      add\n      exp(0x0100, 0x06)\n      dup2\n      sload\n      dup2\n      0xffff\n      mul\n      not\n      and\n      swap1\n      dup4\n      0xffff\n      and\n      mul\n      or\n      swap1\n      sstore\n      pop\n      0xa0\n      dup3\n      add\n      mload\n      dup2\n      0x02\n      add\n      exp(0x0100, 0x08)\n      dup2\n      sload\n      dup2\n      0xffffffffffffffff\n      mul\n      not\n      and\n      swap1\n      dup4\n      0xffffffffffffffff\n      and\n      mul\n      or\n      swap1\n      sstore\n      pop\n      swap1\n      pop\n      pop\n        /* \"Event Management/contract.sol\":953:960  eventId */\n      0x02\n      0x00\n        /* \"Event Management/contract.sol\":953:962  eventId++ */\n      dup2\n      sload\n      dup1\n      swap3\n      swap2\n      swap1\n      tag_55\n      swap1\n      tag_56\n      jump\t// in\n    tag_55:\n      swap2\n      swap1\n      pop\n      sstore\n      pop\n        /* \"Event Management/contract.sol\":561:970  function create_event(string calldata _name_of_event, uint32 _price, uint16 _num_tickets, uint64 _date) public {... */\n      pop\n      pop\n      pop\n      pop\n      pop\n      jump\t// out\n        /* \"Event Management/contract.sol\":1008:1935  function buy_tickets(uint _eventId, uint16 _ticketQuantity) public payable {... */\n    tag_28:\n        /* \"Event Management/contract.sol\":1131:1132  0 */\n      0x00\n        /* \"Event Management/contract.sol\":1102:1114  no_of_events */\n      dup1\n        /* \"Event Management/contract.sol\":1102:1124  no_of_events[_eventId] */\n      0x00\n        /* \"Event Management/contract.sol\":1115:1123  _eventId */\n      dup5\n        /* \"Event Management/contract.sol\":1102:1124  no_of_events[_eventId] */\n      dup2\n      mstore\n      0x20\n      add\n      swap1\n      dup2\n      mstore\n      0x20\n      add\n      0x00\n      keccak256\n        /* \"Event Management/contract.sol\":1102:1129  no_of_events[_eventId].date */\n      0x02\n      add\n      0x08\n      swap1\n      sload\n      swap1\n      0x0100\n      exp\n      swap1\n      div\n      0xffffffffffffffff\n      and\n        /* \"Event Management/contract.sol\":1102:1132  no_of_events[_eventId].date!=0 */\n      0xffffffffffffffff\n      and\n      sub\n        /* \"Event Management/contract.sol\":1094:1157  require(no_of_events[_eventId].date!=0,\"Event does not exist!\") */\n      tag_58\n      jumpi\n      mload(0x40)\n      0x08c379a000000000000000000000000000000000000000000000000000000000\n      dup2\n      mstore\n      0x04\n      add\n      tag_59\n      swap1\n      tag_60\n      jump\t// in\n    tag_59:\n      mload(0x40)\n      dup1\n      swap2\n      sub\n      swap1\n      revert\n    tag_58:\n        /* \"Event Management/contract.sol\":1258:1273  block.timestamp */\n      timestamp\n        /* \"Event Management/contract.sol\":1230:1242  no_of_events */\n      0x00\n        /* \"Event Management/contract.sol\":1230:1252  no_of_events[_eventId] */\n      dup1\n        /* \"Event Management/contract.sol\":1243:1251  _eventId */\n      dup5\n        /* \"Event Management/contract.sol\":1230:1252  no_of_events[_eventId] */\n      dup2\n      mstore\n      0x20\n      add\n      swap1\n      dup2\n      mstore\n      0x20\n      add\n      0x00\n      keccak256\n        /* \"Event Management/contract.sol\":1230:1257  no_of_events[_eventId].date */\n      0x02\n      add\n      0x08\n      swap1\n      sload\n      swap1\n      0x0100\n      exp\n      swap1\n      div\n      0xffffffffffffffff\n      and\n        /* \"Event Management/contract.sol\":1230:1273  no_of_events[_eventId].date>block.timestamp */\n      0xffffffffffffffff\n      and\n      gt\n        /* \"Event Management/contract.sol\":1222:1293  require(no_of_events[_eventId].date>block.timestamp,\"Event has ended.\") */\n      tag_61\n      jumpi\n      mload(0x40)\n      0x08c379a000000000000000000000000000000000000000000000000000000000\n      dup2\n      mstore\n      0x04\n      add\n      tag_62\n      swap1\n      tag_63\n      jump\t// in\n    tag_62:\n      mload(0x40)\n      dup1\n      swap2\n      sub\n      swap1\n      revert\n    tag_61:\n        /* \"Event Management/contract.sol\":1304:1334  Details storage _current_event */\n      0x00\n        /* \"Event Management/contract.sol\":1335:1347  no_of_events */\n      dup1\n        /* \"Event Management/contract.sol\":1335:1357  no_of_events[_eventId] */\n      0x00\n        /* \"Event Management/contract.sol\":1348:1356  _eventId */\n      dup5\n        /* \"Event Management/contract.sol\":1335:1357  no_of_events[_eventId] */\n      dup2\n      mstore\n      0x20\n      add\n      swap1\n      dup2\n      mstore\n      0x20\n      add\n      0x00\n      keccak256\n        /* \"Event Management/contract.sol\":1304:1357  Details storage _current_event=no_of_events[_eventId] */\n      swap1\n      pop\n        /* \"Event Management/contract.sol\":1433:1445  no_of_events */\n      0x00\n        /* \"Event Management/contract.sol\":1433:1455  no_of_events[_eventId] */\n      dup1\n        /* \"Event Management/contract.sol\":1446:1454  _eventId */\n      dup5\n        /* \"Event Management/contract.sol\":1433:1455  no_of_events[_eventId] */\n      dup2\n      mstore\n      0x20\n      add\n      swap1\n      dup2\n      mstore\n      0x20\n      add\n      0x00\n      keccak256\n        /* \"Event Management/contract.sol\":1433:1473  no_of_events[_eventId].tickets_remaining */\n      0x02\n      add\n      0x06\n      swap1\n      sload\n      swap1\n      0x0100\n      exp\n      swap1\n      div\n      0xffff\n      and\n        /* \"Event Management/contract.sol\":1416:1473  _ticketQuantity<=no_of_events[_eventId].tickets_remaining */\n      0xffff\n      and\n        /* \"Event Management/contract.sol\":1416:1431  _ticketQuantity */\n      dup3\n        /* \"Event Management/contract.sol\":1416:1473  _ticketQuantity<=no_of_events[_eventId].tickets_remaining */\n      0xffff\n      and\n      gt\n      iszero\n        /* \"Event Management/contract.sol\":1408:1500  require(_ticketQuantity<=no_of_events[_eventId].tickets_remaining,\"Not enough tickets left\") */\n      tag_64\n      jumpi\n      mload(0x40)\n      0x08c379a000000000000000000000000000000000000000000000000000000000\n      dup2\n      mstore\n      0x04\n      add\n      tag_65\n      swap1\n      tag_66\n      jump\t// in\n    tag_65:\n      mload(0x40)\n      dup1\n      swap2\n      sub\n      swap1\n      revert\n    tag_64:\n        /* \"Event Management/contract.sol\":1560:1575  _ticketQuantity */\n      dup2\n        /* \"Event Management/contract.sol\":1531:1575  no_of_events[_eventId].price*_ticketQuantity */\n      0xffff\n      and\n        /* \"Event Management/contract.sol\":1531:1543  no_of_events */\n      0x00\n        /* \"Event Management/contract.sol\":1531:1553  no_of_events[_eventId] */\n      dup1\n        /* \"Event Management/contract.sol\":1544:1552  _eventId */\n      dup6\n        /* \"Event Management/contract.sol\":1531:1553  no_of_events[_eventId] */\n      dup2\n      mstore\n      0x20\n      add\n      swap1\n      dup2\n      mstore\n      0x20\n      add\n      0x00\n      keccak256\n        /* \"Event Management/contract.sol\":1531:1559  no_of_events[_eventId].price */\n      0x02\n      add\n      0x00\n      swap1\n      sload\n      swap1\n      0x0100\n      exp\n      swap1\n      div\n      0xffffffff\n      and\n        /* \"Event Management/contract.sol\":1531:1575  no_of_events[_eventId].price*_ticketQuantity */\n      tag_67\n      swap2\n      swap1\n      tag_68\n      jump\t// in\n    tag_67:\n        /* \"Event Management/contract.sol\":1519:1576  msg.value==(no_of_events[_eventId].price*_ticketQuantity) */\n      0xffffffff\n      and\n        /* \"Event Management/contract.sol\":1519:1528  msg.value */\n      callvalue\n        /* \"Event Management/contract.sol\":1519:1576  msg.value==(no_of_events[_eventId].price*_ticketQuantity) */\n      eq\n        /* \"Event Management/contract.sol\":1511:1615  require(msg.value==(no_of_events[_eventId].price*_ticketQuantity),\"Not enough Ether present in Account\") */\n      tag_69\n      jumpi\n      mload(0x40)\n      0x08c379a000000000000000000000000000000000000000000000000000000000\n      dup2\n      mstore\n      0x04\n      add\n      tag_70\n      swap1\n      tag_71\n      jump\t// in\n    tag_70:\n      mload(0x40)\n      dup1\n      swap2\n      sub\n      swap1\n      revert\n    tag_69:\n        /* \"Event Management/contract.sol\":1696:1711  _ticketQuantity */\n      dup2\n        /* \"Event Management/contract.sol\":1662:1676  _current_event */\n      dup2\n        /* \"Event Management/contract.sol\":1662:1694  _current_event.tickets_remaining */\n      0x02\n      add\n      0x06\n        /* \"Event Management/contract.sol\":1662:1711  _current_event.tickets_remaining-=_ticketQuantity */\n      dup3\n      dup3\n      dup3\n      swap1\n      sload\n      swap1\n      0x0100\n      exp\n      swap1\n      div\n      0xffff\n      and\n      tag_72\n      swap2\n      swap1\n      tag_73\n      jump\t// in\n    tag_72:\n      swap3\n      pop\n      0x0100\n      exp\n      dup2\n      sload\n      dup2\n      0xffff\n      mul\n      not\n      and\n      swap1\n      dup4\n      0xffff\n      and\n      mul\n      or\n      swap1\n      sstore\n      pop\n        /* \"Event Management/contract.sol\":1753:1768  _ticketQuantity */\n      dup2\n        /* \"Event Management/contract.sol\":1722:1768  tickets[msg.sender][_eventId]+=_ticketQuantity */\n      0xffff\n      and\n        /* \"Event Management/contract.sol\":1722:1729  tickets */\n      0x01\n        /* \"Event Management/contract.sol\":1722:1741  tickets[msg.sender] */\n      0x00\n        /* \"Event Management/contract.sol\":1730:1740  msg.sender */\n      caller\n        /* \"Event Management/contract.sol\":1722:1741  tickets[msg.sender] */\n      0xffffffffffffffffffffffffffffffffffffffff\n      and\n      0xffffffffffffffffffffffffffffffffffffffff\n      and\n      dup2\n      mstore\n      0x20\n      add\n      swap1\n      dup2\n      mstore\n      0x20\n      add\n      0x00\n      keccak256\n        /* \"Event Management/contract.sol\":1722:1751  tickets[msg.sender][_eventId] */\n      0x00\n        /* \"Event Management/contract.sol\":1742:1750  _eventId */\n      dup6\n        /* \"Event Management/contract.sol\":1722:1751  tickets[msg.sender][_eventId] */\n      dup2\n      mstore\n      0x20\n      add\n      swap1\n      dup2\n      mstore\n      0x20\n      add\n      0x00\n      keccak256\n      0x00\n        /* \"Event Management/contract.sol\":1722:1768  tickets[msg.sender][_eventId]+=_ticketQuantity */\n      dup3\n      dup3\n      sload\n      tag_74\n      swap2\n      swap1\n      tag_75\n      jump\t// in\n    tag_74:\n      swap3\n      pop\n      pop\n      dup2\n      swap1\n      sstore\n      pop\n        /* \"Event Management/contract.sol\":1083:1935  {... */\n      pop\n        /* \"Event Management/contract.sol\":1008:1935  function buy_tickets(uint _eventId, uint16 _ticketQuantity) public payable {... */\n      pop\n      pop\n      jump\t// out\n        /* \"Event Management/contract.sol\":1984:2556  function transfer(uint16 _quantity, address _to, uint _eventId) public {... */\n    tag_33:\n        /* \"Event Management/contract.sol\":2103:2104  0 */\n      0x00\n        /* \"Event Management/contract.sol\":2074:2086  no_of_events */\n      dup1\n        /* \"Event Management/contract.sol\":2074:2096  no_of_events[_eventId] */\n      0x00\n        /* \"Event Management/contract.sol\":2087:2095  _eventId */\n      dup4\n        /* \"Event Management/contract.sol\":2074:2096  no_of_events[_eventId] */\n      dup2\n      mstore\n      0x20\n      add\n      swap1\n      dup2\n      mstore\n      0x20\n      add\n      0x00\n      keccak256\n        /* \"Event Management/contract.sol\":2074:2101  no_of_events[_eventId].date */\n      0x02\n      add\n      0x08\n      swap1\n      sload\n      swap1\n      0x0100\n      exp\n      swap1\n      div\n      0xffffffffffffffff\n      and\n        /* \"Event Management/contract.sol\":2074:2104  no_of_events[_eventId].date!=0 */\n      0xffffffffffffffff\n      and\n      sub\n        /* \"Event Management/contract.sol\":2066:2129  require(no_of_events[_eventId].date!=0,\"Event does not exist!\") */\n      tag_77\n      jumpi\n      mload(0x40)\n      0x08c379a000000000000000000000000000000000000000000000000000000000\n      dup2\n      mstore\n      0x04\n      add\n      tag_78\n      swap1\n      tag_60\n      jump\t// in\n    tag_78:\n      mload(0x40)\n      dup1\n      swap2\n      sub\n      swap1\n      revert\n    tag_77:\n        /* \"Event Management/contract.sol\":2230:2245  block.timestamp */\n      timestamp\n        /* \"Event Management/contract.sol\":2202:2214  no_of_events */\n      0x00\n        /* \"Event Management/contract.sol\":2202:2224  no_of_events[_eventId] */\n      dup1\n        /* \"Event Management/contract.sol\":2215:2223  _eventId */\n      dup4\n        /* \"Event Management/contract.sol\":2202:2224  no_of_events[_eventId] */\n      dup2\n      mstore\n      0x20\n      add\n      swap1\n      dup2\n      mstore\n      0x20\n      add\n      0x00\n      keccak256\n        /* \"Event Management/contract.sol\":2202:2229  no_of_events[_eventId].date */\n      0x02\n      add\n      0x08\n      swap1\n      sload\n      swap1\n      0x0100\n      exp\n      swap1\n      div\n      0xffffffffffffffff\n      and\n        /* \"Event Management/contract.sol\":2202:2245  no_of_events[_eventId].date>block.timestamp */\n      0xffffffffffffffff\n      and\n      gt\n        /* \"Event Management/contract.sol\":2194:2265  require(no_of_events[_eventId].date>block.timestamp,\"Event has ended.\") */\n      tag_79\n      jumpi\n      mload(0x40)\n      0x08c379a000000000000000000000000000000000000000000000000000000000\n      dup2\n      mstore\n      0x04\n      add\n      tag_80\n      swap1\n      tag_63\n      jump\t// in\n    tag_80:\n      mload(0x40)\n      dup1\n      swap2\n      sub\n      swap1\n      revert\n    tag_79:\n        /* \"Event Management/contract.sol\":2315:2324  _quantity */\n      dup3\n        /* \"Event Management/contract.sol\":2284:2324  tickets[msg.sender][_eventId]>=_quantity */\n      0xffff\n      and\n        /* \"Event Management/contract.sol\":2284:2291  tickets */\n      0x01\n        /* \"Event Management/contract.sol\":2284:2303  tickets[msg.sender] */\n      0x00\n        /* \"Event Management/contract.sol\":2292:2302  msg.sender */\n      caller\n        /* \"Event Management/contract.sol\":2284:2303  tickets[msg.sender] */\n      0xffffffffffffffffffffffffffffffffffffffff\n      and\n      0xffffffffffffffffffffffffffffffffffffffff\n      and\n      dup2\n      mstore\n      0x20\n      add\n      swap1\n      dup2\n      mstore\n      0x20\n      add\n      0x00\n      keccak256\n        /* \"Event Management/contract.sol\":2284:2313  tickets[msg.sender][_eventId] */\n      0x00\n        /* \"Event Management/contract.sol\":2304:2312  _eventId */\n      dup4\n        /* \"Event Management/contract.sol\":2284:2313  tickets[msg.sender][_eventId] */\n      dup2\n      mstore\n      0x20\n      add\n      swap1\n      dup2\n      mstore\n      0x20\n      add\n      0x00\n      keccak256\n      sload\n        /* \"Event Management/contract.sol\":2284:2324  tickets[msg.sender][_eventId]>=_quantity */\n      lt\n      iszero\n        /* \"Event Management/contract.sol\":2276:2386  require(tickets[msg.sender][_eventId]>=_quantity,\"Quantity exceeds the number of tickets you have in account\") */\n      tag_81\n      jumpi\n      mload(0x40)\n      0x08c379a000000000000000000000000000000000000000000000000000000000\n      dup2\n      mstore\n      0x04\n      add\n      tag_82\n      swap1\n      tag_83\n      jump\t// in\n    tag_82:\n      mload(0x40)\n      dup1\n      swap2\n      sub\n      swap1\n      revert\n    tag_81:\n        /* \"Event Management/contract.sol\":2428:2437  _quantity */\n      dup3\n        /* \"Event Management/contract.sol\":2397:2437  tickets[msg.sender][_eventId]-=_quantity */\n      0xffff\n      and\n        /* \"Event Management/contract.sol\":2397:2404  tickets */\n      0x01\n        /* \"Event Management/contract.sol\":2397:2416  tickets[msg.sender] */\n      0x00\n        /* \"Event Management/contract.sol\":2405:2415  msg.sender */\n      caller\n        /* \"Event Management/contract.sol\":2397:2416  tickets[msg.sender] */\n      0xffffffffffffffffffffffffffffffffffffffff\n      and\n      0xffffffffffffffffffffffffffffffffffffffff\n      and\n      dup2\n      mstore\n      0x20\n      add\n      swap1\n      dup2\n      mstore\n      0x20\n      add\n      0x00\n      keccak256\n        /* \"Event Management/contract.sol\":2397:2426  tickets[msg.sender][_eventId] */\n      0x00\n        /* \"Event Management/contract.sol\":2417:2425  _eventId */\n      dup4\n        /* \"Event Management/contract.sol\":2397:2426  tickets[msg.sender][_eventId] */\n      dup2\n      mstore\n      0x20\n      add\n      swap1\n      dup2\n      mstore\n      0x20\n      add\n      0x00\n      keccak256\n      0x00\n        /* \"Event Management/contract.sol\":2397:2437  tickets[msg.sender][_eventId]-=_quantity */\n      dup3\n      dup3\n      sload\n      tag_84\n      swap2\n      swap1\n      tag_85\n      jump\t// in\n    tag_84:\n      swap3\n      pop\n      pop\n      dup2\n      swap1\n      sstore\n      pop\n        /* \"Event Management/contract.sol\":2506:2515  _quantity */\n      dup3\n        /* \"Event Management/contract.sol\":2482:2515  tickets[_to][_eventId]+=_quantity */\n      0xffff\n      and\n        /* \"Event Management/contract.sol\":2482:2489  tickets */\n      0x01\n        /* \"Event Management/contract.sol\":2482:2494  tickets[_to] */\n      0x00\n        /* \"Event Management/contract.sol\":2490:2493  _to */\n      dup5\n        /* \"Event Management/contract.sol\":2482:2494  tickets[_to] */\n      0xffffffffffffffffffffffffffffffffffffffff\n      and\n      0xffffffffffffffffffffffffffffffffffffffff\n      and\n      dup2\n      mstore\n      0x20\n      add\n      swap1\n      dup2\n      mstore\n      0x20\n      add\n      0x00\n      keccak256\n        /* \"Event Management/contract.sol\":2482:2504  tickets[_to][_eventId] */\n      0x00\n        /* \"Event Management/contract.sol\":2495:2503  _eventId */\n      dup4\n        /* \"Event Management/contract.sol\":2482:2504  tickets[_to][_eventId] */\n      dup2\n      mstore\n      0x20\n      add\n      swap1\n      dup2\n      mstore\n      0x20\n      add\n      0x00\n      keccak256\n      0x00\n        /* \"Event Management/contract.sol\":2482:2515  tickets[_to][_eventId]+=_quantity */\n      dup3\n      dup3\n      sload\n      tag_86\n      swap2\n      swap1\n      tag_75\n      jump\t// in\n    tag_86:\n      swap3\n      pop\n      pop\n      dup2\n      swap1\n      sstore\n      pop\n        /* \"Event Management/contract.sol\":1984:2556  function transfer(uint16 _quantity, address _to, uint _eventId) public {... */\n      pop\n      pop\n      pop\n      jump\t// out\n        /* \"Event Management/contract.sol\":399:453  mapping (address=>mapping (uint=>uint)) public tickets */\n    tag_38:\n      mstore(0x20, 0x01)\n      dup2\n      0x00\n      mstore\n      mstore(0x20, keccak256(0x00, 0x40))\n      dup1\n      0x00\n      mstore\n      keccak256(0x00, 0x40)\n      0x00\n      swap2\n      pop\n      swap2\n      pop\n      pop\n      sload\n      dup2\n      jump\t// out\n        /* \"#utility.yul\":7:84   */\n    tag_87:\n        /* \"#utility.yul\":44:51   */\n      0x00\n        /* \"#utility.yul\":73:78   */\n      dup2\n        /* \"#utility.yul\":62:78   */\n      swap1\n      pop\n        /* \"#utility.yul\":7:84   */\n      swap2\n      swap1\n      pop\n      jump\t// out\n        /* \"#utility.yul\":90:208   */\n    tag_88:\n        /* \"#utility.yul\":177:201   */\n      tag_155\n        /* \"#utility.yul\":195:200   */\n      dup2\n        /* \"#utility.yul\":177:201   */\n      tag_87\n      jump\t// in\n    tag_155:\n        /* \"#utility.yul\":172:175   */\n      dup3\n        /* \"#utility.yul\":165:202   */\n      mstore\n        /* \"#utility.yul\":90:208   */\n      pop\n      pop\n      jump\t// out\n        /* \"#utility.yul\":214:436   */\n    tag_12:\n        /* \"#utility.yul\":307:311   */\n      0x00\n        /* \"#utility.yul\":345:347   */\n      0x20\n        /* \"#utility.yul\":334:343   */\n      dup3\n        /* \"#utility.yul\":330:348   */\n      add\n        /* \"#utility.yul\":322:348   */\n      swap1\n      pop\n        /* \"#utility.yul\":358:429   */\n      tag_157\n        /* \"#utility.yul\":426:427   */\n      0x00\n        /* \"#utility.yul\":415:424   */\n      dup4\n        /* \"#utility.yul\":411:428   */\n      add\n        /* \"#utility.yul\":402:408   */\n      dup5\n        /* \"#utility.yul\":358:429   */\n      tag_88\n      jump\t// in\n    tag_157:\n        /* \"#utility.yul\":214:436   */\n      swap3\n      swap2\n      pop\n      pop\n      jump\t// out\n        /* \"#utility.yul\":523:640   */\n    tag_90:\n        /* \"#utility.yul\":632:633   */\n      0x00\n        /* \"#utility.yul\":629:630   */\n      dup1\n        /* \"#utility.yul\":622:634   */\n      revert\n        /* \"#utility.yul\":646:763   */\n    tag_91:\n        /* \"#utility.yul\":755:756   */\n      0x00\n        /* \"#utility.yul\":752:753   */\n      dup1\n        /* \"#utility.yul\":745:757   */\n      revert\n        /* \"#utility.yul\":769:891   */\n    tag_92:\n        /* \"#utility.yul\":842:866   */\n      tag_162\n        /* \"#utility.yul\":860:865   */\n      dup2\n        /* \"#utility.yul\":842:866   */\n      tag_87\n      jump\t// in\n    tag_162:\n        /* \"#utility.yul\":835:840   */\n      dup2\n        /* \"#utility.yul\":832:867   */\n      eq\n        /* \"#utility.yul\":822:885   */\n      tag_163\n      jumpi\n        /* \"#utility.yul\":881:882   */\n      0x00\n        /* \"#utility.yul\":878:879   */\n      dup1\n        /* \"#utility.yul\":871:883   */\n      revert\n        /* \"#utility.yul\":822:885   */\n    tag_163:\n        /* \"#utility.yul\":769:891   */\n      pop\n      jump\t// out\n        /* \"#utility.yul\":897:1036   */\n    tag_93:\n        /* \"#utility.yul\":943:948   */\n      0x00\n        /* \"#utility.yul\":981:987   */\n      dup2\n        /* \"#utility.yul\":968:988   */\n      calldataload\n        /* \"#utility.yul\":959:988   */\n      swap1\n      pop\n        /* \"#utility.yul\":997:1030   */\n      tag_165\n        /* \"#utility.yul\":1024:1029   */\n      dup2\n        /* \"#utility.yul\":997:1030   */\n      tag_92\n      jump\t// in\n    tag_165:\n        /* \"#utility.yul\":897:1036   */\n      swap3\n      swap2\n      pop\n      pop\n      jump\t// out\n        /* \"#utility.yul\":1042:1371   */\n    tag_16:\n        /* \"#utility.yul\":1101:1107   */\n      0x00\n        /* \"#utility.yul\":1150:1152   */\n      0x20\n        /* \"#utility.yul\":1138:1147   */\n      dup3\n        /* \"#utility.yul\":1129:1136   */\n      dup5\n        /* \"#utility.yul\":1125:1148   */\n      sub\n        /* \"#utility.yul\":1121:1153   */\n      slt\n        /* \"#utility.yul\":1118:1237   */\n      iszero\n      tag_167\n      jumpi\n        /* \"#utility.yul\":1156:1235   */\n      tag_168\n      tag_90\n      jump\t// in\n    tag_168:\n        /* \"#utility.yul\":1118:1237   */\n    tag_167:\n        /* \"#utility.yul\":1276:1277   */\n      0x00\n        /* \"#utility.yul\":1301:1354   */\n      tag_169\n        /* \"#utility.yul\":1346:1353   */\n      dup5\n        /* \"#utility.yul\":1337:1343   */\n      dup3\n        /* \"#utility.yul\":1326:1335   */\n      dup6\n        /* \"#utility.yul\":1322:1344   */\n      add\n        /* \"#utility.yul\":1301:1354   */\n      tag_93\n      jump\t// in\n    tag_169:\n        /* \"#utility.yul\":1291:1354   */\n      swap2\n      pop\n        /* \"#utility.yul\":1247:1364   */\n      pop\n        /* \"#utility.yul\":1042:1371   */\n      swap3\n      swap2\n      pop\n      pop\n      jump\t// out\n        /* \"#utility.yul\":1377:1503   */\n    tag_94:\n        /* \"#utility.yul\":1414:1421   */\n      0x00\n        /* \"#utility.yul\":1454:1496   */\n      0xffffffffffffffffffffffffffffffffffffffff\n        /* \"#utility.yul\":1447:1452   */\n      dup3\n        /* \"#utility.yul\":1443:1497   */\n      and\n        /* \"#utility.yul\":1432:1497   */\n      swap1\n      pop\n        /* \"#utility.yul\":1377:1503   */\n      swap2\n      swap1\n      pop\n      jump\t// out\n        /* \"#utility.yul\":1509:1605   */\n    tag_95:\n        /* \"#utility.yul\":1546:1553   */\n      0x00\n        /* \"#utility.yul\":1575:1599   */\n      tag_172\n        /* \"#utility.yul\":1593:1598   */\n      dup3\n        /* \"#utility.yul\":1575:1599   */\n      tag_94\n      jump\t// in\n    tag_172:\n        /* \"#utility.yul\":1564:1599   */\n      swap1\n      pop\n        /* \"#utility.yul\":1509:1605   */\n      swap2\n      swap1\n      pop\n      jump\t// out\n        /* \"#utility.yul\":1611:1729   */\n    tag_96:\n        /* \"#utility.yul\":1698:1722   */\n      tag_174\n        /* \"#utility.yul\":1716:1721   */\n      dup2\n        /* \"#utility.yul\":1698:1722   */\n      tag_95\n      jump\t// in\n    tag_174:\n        /* \"#utility.yul\":1693:1696   */\n      dup3\n        /* \"#utility.yul\":1686:1723   */\n      mstore\n        /* \"#utility.yul\":1611:1729   */\n      pop\n      pop\n      jump\t// out\n        /* \"#utility.yul\":1735:1834   */\n    tag_97:\n        /* \"#utility.yul\":1787:1793   */\n      0x00\n        /* \"#utility.yul\":1821:1826   */\n      dup2\n        /* \"#utility.yul\":1815:1827   */\n      mload\n        /* \"#utility.yul\":1805:1827   */\n      swap1\n      pop\n        /* \"#utility.yul\":1735:1834   */\n      swap2\n      swap1\n      pop\n      jump\t// out\n        /* \"#utility.yul\":1840:2009   */\n    tag_98:\n        /* \"#utility.yul\":1924:1935   */\n      0x00\n        /* \"#utility.yul\":1958:1964   */\n      dup3\n        /* \"#utility.yul\":1953:1956   */\n      dup3\n        /* \"#utility.yul\":1946:1965   */\n      mstore\n        /* \"#utility.yul\":1998:2002   */\n      0x20\n        /* \"#utility.yul\":1993:1996   */\n      dup3\n        /* \"#utility.yul\":1989:2003   */\n      add\n        /* \"#utility.yul\":1974:2003   */\n      swap1\n      pop\n        /* \"#utility.yul\":1840:2009   */\n      swap3\n      swap2\n      pop\n      pop\n      jump\t// out\n        /* \"#utility.yul\":2015:2154   */\n    tag_99:\n        /* \"#utility.yul\":2104:2110   */\n      dup3\n        /* \"#utility.yul\":2099:2102   */\n      dup2\n        /* \"#utility.yul\":2094:2097   */\n      dup4\n        /* \"#utility.yul\":2088:2111   */\n      mcopy\n        /* \"#utility.yul\":2145:2146   */\n      0x00\n        /* \"#utility.yul\":2136:2142   */\n      dup4\n        /* \"#utility.yul\":2131:2134   */\n      dup4\n        /* \"#utility.yul\":2127:2143   */\n      add\n        /* \"#utility.yul\":2120:2147   */\n      mstore\n        /* \"#utility.yul\":2015:2154   */\n      pop\n      pop\n      pop\n      jump\t// out\n        /* \"#utility.yul\":2160:2262   */\n    tag_100:\n        /* \"#utility.yul\":2201:2207   */\n      0x00\n        /* \"#utility.yul\":2252:2254   */\n      0x1f\n        /* \"#utility.yul\":2248:2255   */\n      not\n        /* \"#utility.yul\":2243:2245   */\n      0x1f\n        /* \"#utility.yul\":2236:2241   */\n      dup4\n        /* \"#utility.yul\":2232:2246   */\n      add\n        /* \"#utility.yul\":2228:2256   */\n      and\n        /* \"#utility.yul\":2218:2256   */\n      swap1\n      pop\n        /* \"#utility.yul\":2160:2262   */\n      swap2\n      swap1\n      pop\n      jump\t// out\n        /* \"#utility.yul\":2268:2645   */\n    tag_101:\n        /* \"#utility.yul\":2356:2359   */\n      0x00\n        /* \"#utility.yul\":2384:2423   */\n      tag_180\n        /* \"#utility.yul\":2417:2422   */\n      dup3\n        /* \"#utility.yul\":2384:2423   */\n      tag_97\n      jump\t// in\n    tag_180:\n        /* \"#utility.yul\":2439:2510   */\n      tag_181\n        /* \"#utility.yul\":2503:2509   */\n      dup2\n        /* \"#utility.yul\":2498:2501   */\n      dup6\n        /* \"#utility.yul\":2439:2510   */\n      tag_98\n      jump\t// in\n    tag_181:\n        /* \"#utility.yul\":2432:2510   */\n      swap4\n      pop\n        /* \"#utility.yul\":2519:2584   */\n      tag_182\n        /* \"#utility.yul\":2577:2583   */\n      dup2\n        /* \"#utility.yul\":2572:2575   */\n      dup6\n        /* \"#utility.yul\":2565:2569   */\n      0x20\n        /* \"#utility.yul\":2558:2563   */\n      dup7\n        /* \"#utility.yul\":2554:2570   */\n      add\n        /* \"#utility.yul\":2519:2584   */\n      tag_99\n      jump\t// in\n    tag_182:\n        /* \"#utility.yul\":2609:2638   */\n      tag_183\n        /* \"#utility.yul\":2631:2637   */\n      dup2\n        /* \"#utility.yul\":2609:2638   */\n      tag_100\n      jump\t// in\n    tag_183:\n        /* \"#utility.yul\":2604:2607   */\n      dup5\n        /* \"#utility.yul\":2600:2639   */\n      add\n        /* \"#utility.yul\":2593:2639   */\n      swap2\n      pop\n        /* \"#utility.yul\":2360:2645   */\n      pop\n        /* \"#utility.yul\":2268:2645   */\n      swap3\n      swap2\n      pop\n      pop\n      jump\t// out\n        /* \"#utility.yul\":2651:2744   */\n    tag_102:\n        /* \"#utility.yul\":2687:2694   */\n      0x00\n        /* \"#utility.yul\":2727:2737   */\n      0xffffffff\n        /* \"#utility.yul\":2720:2725   */\n      dup3\n        /* \"#utility.yul\":2716:2738   */\n      and\n        /* \"#utility.yul\":2705:2738   */\n      swap1\n      pop\n        /* \"#utility.yul\":2651:2744   */\n      swap2\n      swap1\n      pop\n      jump\t// out\n        /* \"#utility.yul\":2750:2865   */\n    tag_103:\n        /* \"#utility.yul\":2835:2858   */\n      tag_186\n        /* \"#utility.yul\":2852:2857   */\n      dup2\n        /* \"#utility.yul\":2835:2858   */\n      tag_102\n      jump\t// in\n    tag_186:\n        /* \"#utility.yul\":2830:2833   */\n      dup3\n        /* \"#utility.yul\":2823:2859   */\n      mstore\n        /* \"#utility.yul\":2750:2865   */\n      pop\n      pop\n      jump\t// out\n        /* \"#utility.yul\":2871:2960   */\n    tag_104:\n        /* \"#utility.yul\":2907:2914   */\n      0x00\n        /* \"#utility.yul\":2947:2953   */\n      0xffff\n        /* \"#utility.yul\":2940:2945   */\n      dup3\n        /* \"#utility.yul\":2936:2954   */\n      and\n        /* \"#utility.yul\":2925:2954   */\n      swap1\n      pop\n        /* \"#utility.yul\":2871:2960   */\n      swap2\n      swap1\n      pop\n      jump\t// out\n        /* \"#utility.yul\":2966:3081   */\n    tag_105:\n        /* \"#utility.yul\":3051:3074   */\n      tag_189\n        /* \"#utility.yul\":3068:3073   */\n      dup2\n        /* \"#utility.yul\":3051:3074   */\n      tag_104\n      jump\t// in\n    tag_189:\n        /* \"#utility.yul\":3046:3049   */\n      dup3\n        /* \"#utility.yul\":3039:3075   */\n      mstore\n        /* \"#utility.yul\":2966:3081   */\n      pop\n      pop\n      jump\t// out\n        /* \"#utility.yul\":3087:3188   */\n    tag_106:\n        /* \"#utility.yul\":3123:3130   */\n      0x00\n        /* \"#utility.yul\":3163:3181   */\n      0xffffffffffffffff\n        /* \"#utility.yul\":3156:3161   */\n      dup3\n        /* \"#utility.yul\":3152:3182   */\n      and\n        /* \"#utility.yul\":3141:3182   */\n      swap1\n      pop\n        /* \"#utility.yul\":3087:3188   */\n      swap2\n      swap1\n      pop\n      jump\t// out\n        /* \"#utility.yul\":3194:3309   */\n    tag_107:\n        /* \"#utility.yul\":3279:3302   */\n      tag_192\n        /* \"#utility.yul\":3296:3301   */\n      dup2\n        /* \"#utility.yul\":3279:3302   */\n      tag_106\n      jump\t// in\n    tag_192:\n        /* \"#utility.yul\":3274:3277   */\n      dup3\n        /* \"#utility.yul\":3267:3303   */\n      mstore\n        /* \"#utility.yul\":3194:3309   */\n      pop\n      pop\n      jump\t// out\n        /* \"#utility.yul\":3315:4165   */\n    tag_19:\n        /* \"#utility.yul\":3560:3564   */\n      0x00\n        /* \"#utility.yul\":3598:3601   */\n      0xc0\n        /* \"#utility.yul\":3587:3596   */\n      dup3\n        /* \"#utility.yul\":3583:3602   */\n      add\n        /* \"#utility.yul\":3575:3602   */\n      swap1\n      pop\n        /* \"#utility.yul\":3612:3683   */\n      tag_194\n        /* \"#utility.yul\":3680:3681   */\n      0x00\n        /* \"#utility.yul\":3669:3678   */\n      dup4\n        /* \"#utility.yul\":3665:3682   */\n      add\n        /* \"#utility.yul\":3656:3662   */\n      dup10\n        /* \"#utility.yul\":3612:3683   */\n      tag_96\n      jump\t// in\n    tag_194:\n        /* \"#utility.yul\":3730:3739   */\n      dup2\n        /* \"#utility.yul\":3724:3728   */\n      dup2\n        /* \"#utility.yul\":3720:3740   */\n      sub\n        /* \"#utility.yul\":3715:3717   */\n      0x20\n        /* \"#utility.yul\":3704:3713   */\n      dup4\n        /* \"#utility.yul\":3700:3718   */\n      add\n        /* \"#utility.yul\":3693:3741   */\n      mstore\n        /* \"#utility.yul\":3758:3836   */\n      tag_195\n        /* \"#utility.yul\":3831:3835   */\n      dup2\n        /* \"#utility.yul\":3822:3828   */\n      dup9\n        /* \"#utility.yul\":3758:3836   */\n      tag_101\n      jump\t// in\n    tag_195:\n        /* \"#utility.yul\":3750:3836   */\n      swap1\n      pop\n        /* \"#utility.yul\":3846:3916   */\n      tag_196\n        /* \"#utility.yul\":3912:3914   */\n      0x40\n        /* \"#utility.yul\":3901:3910   */\n      dup4\n        /* \"#utility.yul\":3897:3915   */\n      add\n        /* \"#utility.yul\":3888:3894   */\n      dup8\n        /* \"#utility.yul\":3846:3916   */\n      tag_103\n      jump\t// in\n    tag_196:\n        /* \"#utility.yul\":3926:3996   */\n      tag_197\n        /* \"#utility.yul\":3992:3994   */\n      0x60\n        /* \"#utility.yul\":3981:3990   */\n      dup4\n        /* \"#utility.yul\":3977:3995   */\n      add\n        /* \"#utility.yul\":3968:3974   */\n      dup7\n        /* \"#utility.yul\":3926:3996   */\n      tag_105\n      jump\t// in\n    tag_197:\n        /* \"#utility.yul\":4006:4077   */\n      tag_198\n        /* \"#utility.yul\":4072:4075   */\n      0x80\n        /* \"#utility.yul\":4061:4070   */\n      dup4\n        /* \"#utility.yul\":4057:4076   */\n      add\n        /* \"#utility.yul\":4048:4054   */\n      dup6\n        /* \"#utility.yul\":4006:4077   */\n      tag_105\n      jump\t// in\n    tag_198:\n        /* \"#utility.yul\":4087:4158   */\n      tag_199\n        /* \"#utility.yul\":4153:4156   */\n      0xa0\n        /* \"#utility.yul\":4142:4151   */\n      dup4\n        /* \"#utility.yul\":4138:4157   */\n      add\n        /* \"#utility.yul\":4129:4135   */\n      dup5\n        /* \"#utility.yul\":4087:4158   */\n      tag_107\n      jump\t// in\n    tag_199:\n        /* \"#utility.yul\":3315:4165   */\n      swap8\n      swap7\n      pop\n      pop\n      pop\n      pop\n      pop\n      pop\n      pop\n      jump\t// out\n        /* \"#utility.yul\":4171:4288   */\n    tag_108:\n        /* \"#utility.yul\":4280:4281   */\n      0x00\n        /* \"#utility.yul\":4277:4278   */\n      dup1\n        /* \"#utility.yul\":4270:4282   */\n      revert\n        /* \"#utility.yul\":4294:4411   */\n    tag_109:\n        /* \"#utility.yul\":4403:4404   */\n      0x00\n        /* \"#utility.yul\":4400:4401   */\n      dup1\n        /* \"#utility.yul\":4393:4405   */\n      revert\n        /* \"#utility.yul\":4417:4534   */\n    tag_110:\n        /* \"#utility.yul\":4526:4527   */\n      0x00\n        /* \"#utility.yul\":4523:4524   */\n      dup1\n        /* \"#utility.yul\":4516:4528   */\n      revert\n        /* \"#utility.yul\":4554:5107   */\n    tag_111:\n        /* \"#utility.yul\":4612:4620   */\n      0x00\n        /* \"#utility.yul\":4622:4628   */\n      dup1\n        /* \"#utility.yul\":4672:4675   */\n      dup4\n        /* \"#utility.yul\":4665:4669   */\n      0x1f\n        /* \"#utility.yul\":4657:4663   */\n      dup5\n        /* \"#utility.yul\":4653:4670   */\n      add\n        /* \"#utility.yul\":4649:4676   */\n      slt\n        /* \"#utility.yul\":4639:4761   */\n      tag_204\n      jumpi\n        /* \"#utility.yul\":4680:4759   */\n      tag_205\n      tag_108\n      jump\t// in\n    tag_205:\n        /* \"#utility.yul\":4639:4761   */\n    tag_204:\n        /* \"#utility.yul\":4793:4799   */\n      dup3\n        /* \"#utility.yul\":4780:4800   */\n      calldataload\n        /* \"#utility.yul\":4770:4800   */\n      swap1\n      pop\n        /* \"#utility.yul\":4823:4841   */\n      0xffffffffffffffff\n        /* \"#utility.yul\":4815:4821   */\n      dup2\n        /* \"#utility.yul\":4812:4842   */\n      gt\n        /* \"#utility.yul\":4809:4926   */\n      iszero\n      tag_206\n      jumpi\n        /* \"#utility.yul\":4845:4924   */\n      tag_207\n      tag_109\n      jump\t// in\n    tag_207:\n        /* \"#utility.yul\":4809:4926   */\n    tag_206:\n        /* \"#utility.yul\":4959:4963   */\n      0x20\n        /* \"#utility.yul\":4951:4957   */\n      dup4\n        /* \"#utility.yul\":4947:4964   */\n      add\n        /* \"#utility.yul\":4935:4964   */\n      swap2\n      pop\n        /* \"#utility.yul\":5013:5016   */\n      dup4\n        /* \"#utility.yul\":5005:5009   */\n      0x01\n        /* \"#utility.yul\":4997:5003   */\n      dup3\n        /* \"#utility.yul\":4993:5010   */\n      mul\n        /* \"#utility.yul\":4983:4991   */\n      dup4\n        /* \"#utility.yul\":4979:5011   */\n      add\n        /* \"#utility.yul\":4976:5017   */\n      gt\n        /* \"#utility.yul\":4973:5101   */\n      iszero\n      tag_208\n      jumpi\n        /* \"#utility.yul\":5020:5099   */\n      tag_209\n      tag_110\n      jump\t// in\n    tag_209:\n        /* \"#utility.yul\":4973:5101   */\n    tag_208:\n        /* \"#utility.yul\":4554:5107   */\n      swap3\n      pop\n      swap3\n      swap1\n      pop\n      jump\t// out\n        /* \"#utility.yul\":5113:5233   */\n    tag_112:\n        /* \"#utility.yul\":5185:5208   */\n      tag_211\n        /* \"#utility.yul\":5202:5207   */\n      dup2\n        /* \"#utility.yul\":5185:5208   */\n      tag_102\n      jump\t// in\n    tag_211:\n        /* \"#utility.yul\":5178:5183   */\n      dup2\n        /* \"#utility.yul\":5175:5209   */\n      eq\n        /* \"#utility.yul\":5165:5227   */\n      tag_212\n      jumpi\n        /* \"#utility.yul\":5223:5224   */\n      0x00\n        /* \"#utility.yul\":5220:5221   */\n      dup1\n        /* \"#utility.yul\":5213:5225   */\n      revert\n        /* \"#utility.yul\":5165:5227   */\n    tag_212:\n        /* \"#utility.yul\":5113:5233   */\n      pop\n      jump\t// out\n        /* \"#utility.yul\":5239:5376   */\n    tag_113:\n        /* \"#utility.yul\":5284:5289   */\n      0x00\n        /* \"#utility.yul\":5322:5328   */\n      dup2\n        /* \"#utility.yul\":5309:5329   */\n      calldataload\n        /* \"#utility.yul\":5300:5329   */\n      swap1\n      pop\n        /* \"#utility.yul\":5338:5370   */\n      tag_214\n        /* \"#utility.yul\":5364:5369   */\n      dup2\n        /* \"#utility.yul\":5338:5370   */\n      tag_112\n      jump\t// in\n    tag_214:\n        /* \"#utility.yul\":5239:5376   */\n      swap3\n      swap2\n      pop\n      pop\n      jump\t// out\n        /* \"#utility.yul\":5382:5502   */\n    tag_114:\n        /* \"#utility.yul\":5454:5477   */\n      tag_216\n        /* \"#utility.yul\":5471:5476   */\n      dup2\n        /* \"#utility.yul\":5454:5477   */\n      tag_104\n      jump\t// in\n    tag_216:\n        /* \"#utility.yul\":5447:5452   */\n      dup2\n        /* \"#utility.yul\":5444:5478   */\n      eq\n        /* \"#utility.yul\":5434:5496   */\n      tag_217\n      jumpi\n        /* \"#utility.yul\":5492:5493   */\n      0x00\n        /* \"#utility.yul\":5489:5490   */\n      dup1\n        /* \"#utility.yul\":5482:5494   */\n      revert\n        /* \"#utility.yul\":5434:5496   */\n    tag_217:\n        /* \"#utility.yul\":5382:5502   */\n      pop\n      jump\t// out\n        /* \"#utility.yul\":5508:5645   */\n    tag_115:\n        /* \"#utility.yul\":5553:5558   */\n      0x00\n        /* \"#utility.yul\":5591:5597   */\n      dup2\n        /* \"#utility.yul\":5578:5598   */\n      calldataload\n        /* \"#utility.yul\":5569:5598   */\n      swap1\n      pop\n        /* \"#utility.yul\":5607:5639   */\n      tag_219\n        /* \"#utility.yul\":5633:5638   */\n      dup2\n        /* \"#utility.yul\":5607:5639   */\n      tag_114\n      jump\t// in\n    tag_219:\n        /* \"#utility.yul\":5508:5645   */\n      swap3\n      swap2\n      pop\n      pop\n      jump\t// out\n        /* \"#utility.yul\":5651:5771   */\n    tag_116:\n        /* \"#utility.yul\":5723:5746   */\n      tag_221\n        /* \"#utility.yul\":5740:5745   */\n      dup2\n        /* \"#utility.yul\":5723:5746   */\n      tag_106\n      jump\t// in\n    tag_221:\n        /* \"#utility.yul\":5716:5721   */\n      dup2\n        /* \"#utility.yul\":5713:5747   */\n      eq\n        /* \"#utility.yul\":5703:5765   */\n      tag_222\n      jumpi\n        /* \"#utility.yul\":5761:5762   */\n      0x00\n        /* \"#utility.yul\":5758:5759   */\n      dup1\n        /* \"#utility.yul\":5751:5763   */\n      revert\n        /* \"#utility.yul\":5703:5765   */\n    tag_222:\n        /* \"#utility.yul\":5651:5771   */\n      pop\n      jump\t// out\n        /* \"#utility.yul\":5777:5914   */\n    tag_117:\n        /* \"#utility.yul\":5822:5827   */\n      0x00\n        /* \"#utility.yul\":5860:5866   */\n      dup2\n        /* \"#utility.yul\":5847:5867   */\n      calldataload\n        /* \"#utility.yul\":5838:5867   */\n      swap1\n      pop\n        /* \"#utility.yul\":5876:5908   */\n      tag_224\n        /* \"#utility.yul\":5902:5907   */\n      dup2\n        /* \"#utility.yul\":5876:5908   */\n      tag_116\n      jump\t// in\n    tag_224:\n        /* \"#utility.yul\":5777:5914   */\n      swap3\n      swap2\n      pop\n      pop\n      jump\t// out\n        /* \"#utility.yul\":5920:6879   */\n    tag_23:\n        /* \"#utility.yul\":6015:6021   */\n      0x00\n        /* \"#utility.yul\":6023:6029   */\n      dup1\n        /* \"#utility.yul\":6031:6037   */\n      0x00\n        /* \"#utility.yul\":6039:6045   */\n      dup1\n        /* \"#utility.yul\":6047:6053   */\n      0x00\n        /* \"#utility.yul\":6096:6099   */\n      0x80\n        /* \"#utility.yul\":6084:6093   */\n      dup7\n        /* \"#utility.yul\":6075:6082   */\n      dup9\n        /* \"#utility.yul\":6071:6094   */\n      sub\n        /* \"#utility.yul\":6067:6100   */\n      slt\n        /* \"#utility.yul\":6064:6184   */\n      iszero\n      tag_226\n      jumpi\n        /* \"#utility.yul\":6103:6182   */\n      tag_227\n      tag_90\n      jump\t// in\n    tag_227:\n        /* \"#utility.yul\":6064:6184   */\n    tag_226:\n        /* \"#utility.yul\":6251:6252   */\n      0x00\n        /* \"#utility.yul\":6240:6249   */\n      dup7\n        /* \"#utility.yul\":6236:6253   */\n      add\n        /* \"#utility.yul\":6223:6254   */\n      calldataload\n        /* \"#utility.yul\":6281:6299   */\n      0xffffffffffffffff\n        /* \"#utility.yul\":6273:6279   */\n      dup2\n        /* \"#utility.yul\":6270:6300   */\n      gt\n        /* \"#utility.yul\":6267:6384   */\n      iszero\n      tag_228\n      jumpi\n        /* \"#utility.yul\":6303:6382   */\n      tag_229\n      tag_91\n      jump\t// in\n    tag_229:\n        /* \"#utility.yul\":6267:6384   */\n    tag_228:\n        /* \"#utility.yul\":6416:6481   */\n      tag_230\n        /* \"#utility.yul\":6473:6480   */\n      dup9\n        /* \"#utility.yul\":6464:6470   */\n      dup3\n        /* \"#utility.yul\":6453:6462   */\n      dup10\n        /* \"#utility.yul\":6449:6471   */\n      add\n        /* \"#utility.yul\":6416:6481   */\n      tag_111\n      jump\t// in\n    tag_230:\n        /* \"#utility.yul\":6398:6481   */\n      swap6\n      pop\n      swap6\n      pop\n        /* \"#utility.yul\":6194:6491   */\n      pop\n        /* \"#utility.yul\":6530:6532   */\n      0x20\n        /* \"#utility.yul\":6556:6608   */\n      tag_231\n        /* \"#utility.yul\":6600:6607   */\n      dup9\n        /* \"#utility.yul\":6591:6597   */\n      dup3\n        /* \"#utility.yul\":6580:6589   */\n      dup10\n        /* \"#utility.yul\":6576:6598   */\n      add\n        /* \"#utility.yul\":6556:6608   */\n      tag_113\n      jump\t// in\n    tag_231:\n        /* \"#utility.yul\":6546:6608   */\n      swap4\n      pop\n        /* \"#utility.yul\":6501:6618   */\n      pop\n        /* \"#utility.yul\":6657:6659   */\n      0x40\n        /* \"#utility.yul\":6683:6735   */\n      tag_232\n        /* \"#utility.yul\":6727:6734   */\n      dup9\n        /* \"#utility.yul\":6718:6724   */\n      dup3\n        /* \"#utility.yul\":6707:6716   */\n      dup10\n        /* \"#utility.yul\":6703:6725   */\n      add\n        /* \"#utility.yul\":6683:6735   */\n      tag_115\n      jump\t// in\n    tag_232:\n        /* \"#utility.yul\":6673:6735   */\n      swap3\n      pop\n        /* \"#utility.yul\":6628:6745   */\n      pop\n        /* \"#utility.yul\":6784:6786   */\n      0x60\n        /* \"#utility.yul\":6810:6862   */\n      tag_233\n        /* \"#utility.yul\":6854:6861   */\n      dup9\n        /* \"#utility.yul\":6845:6851   */\n      dup3\n        /* \"#utility.yul\":6834:6843   */\n      dup10\n        /* \"#utility.yul\":6830:6852   */\n      add\n        /* \"#utility.yul\":6810:6862   */\n      tag_117\n      jump\t// in\n    tag_233:\n        /* \"#utility.yul\":6800:6862   */\n      swap2\n      pop\n        /* \"#utility.yul\":6755:6872   */\n      pop\n        /* \"#utility.yul\":5920:6879   */\n      swap3\n      swap6\n      pop\n      swap3\n      swap6\n      swap1\n      swap4\n      pop\n      jump\t// out\n        /* \"#utility.yul\":6885:7357   */\n    tag_27:\n        /* \"#utility.yul\":6952:6958   */\n      0x00\n        /* \"#utility.yul\":6960:6966   */\n      dup1\n        /* \"#utility.yul\":7009:7011   */\n      0x40\n        /* \"#utility.yul\":6997:7006   */\n      dup4\n        /* \"#utility.yul\":6988:6995   */\n      dup6\n        /* \"#utility.yul\":6984:7007   */\n      sub\n        /* \"#utility.yul\":6980:7012   */\n      slt\n        /* \"#utility.yul\":6977:7096   */\n      iszero\n      tag_235\n      jumpi\n        /* \"#utility.yul\":7015:7094   */\n      tag_236\n      tag_90\n      jump\t// in\n    tag_236:\n        /* \"#utility.yul\":6977:7096   */\n    tag_235:\n        /* \"#utility.yul\":7135:7136   */\n      0x00\n        /* \"#utility.yul\":7160:7213   */\n      tag_237\n        /* \"#utility.yul\":7205:7212   */\n      dup6\n        /* \"#utility.yul\":7196:7202   */\n      dup3\n        /* \"#utility.yul\":7185:7194   */\n      dup7\n        /* \"#utility.yul\":7181:7203   */\n      add\n        /* \"#utility.yul\":7160:7213   */\n      tag_93\n      jump\t// in\n    tag_237:\n        /* \"#utility.yul\":7150:7213   */\n      swap3\n      pop\n        /* \"#utility.yul\":7106:7223   */\n      pop\n        /* \"#utility.yul\":7262:7264   */\n      0x20\n        /* \"#utility.yul\":7288:7340   */\n      tag_238\n        /* \"#utility.yul\":7332:7339   */\n      dup6\n        /* \"#utility.yul\":7323:7329   */\n      dup3\n        /* \"#utility.yul\":7312:7321   */\n      dup7\n        /* \"#utility.yul\":7308:7330   */\n      add\n        /* \"#utility.yul\":7288:7340   */\n      tag_115\n      jump\t// in\n    tag_238:\n        /* \"#utility.yul\":7278:7340   */\n      swap2\n      pop\n        /* \"#utility.yul\":7233:7350   */\n      pop\n        /* \"#utility.yul\":6885:7357   */\n      swap3\n      pop\n      swap3\n      swap1\n      pop\n      jump\t// out\n        /* \"#utility.yul\":7363:7485   */\n    tag_118:\n        /* \"#utility.yul\":7436:7460   */\n      tag_240\n        /* \"#utility.yul\":7454:7459   */\n      dup2\n        /* \"#utility.yul\":7436:7460   */\n      tag_95\n      jump\t// in\n    tag_240:\n        /* \"#utility.yul\":7429:7434   */\n      dup2\n        /* \"#utility.yul\":7426:7461   */\n      eq\n        /* \"#utility.yul\":7416:7479   */\n      tag_241\n      jumpi\n        /* \"#utility.yul\":7475:7476   */\n      0x00\n        /* \"#utility.yul\":7472:7473   */\n      dup1\n        /* \"#utility.yul\":7465:7477   */\n      revert\n        /* \"#utility.yul\":7416:7479   */\n    tag_241:\n        /* \"#utility.yul\":7363:7485   */\n      pop\n      jump\t// out\n        /* \"#utility.yul\":7491:7630   */\n    tag_119:\n        /* \"#utility.yul\":7537:7542   */\n      0x00\n        /* \"#utility.yul\":7575:7581   */\n      dup2\n        /* \"#utility.yul\":7562:7582   */\n      calldataload\n        /* \"#utility.yul\":7553:7582   */\n      swap1\n      pop\n        /* \"#utility.yul\":7591:7624   */\n      tag_243\n        /* \"#utility.yul\":7618:7623   */\n      dup2\n        /* \"#utility.yul\":7591:7624   */\n      tag_118\n      jump\t// in\n    tag_243:\n        /* \"#utility.yul\":7491:7630   */\n      swap3\n      swap2\n      pop\n      pop\n      jump\t// out\n        /* \"#utility.yul\":7636:8253   */\n    tag_32:\n        /* \"#utility.yul\":7712:7718   */\n      0x00\n        /* \"#utility.yul\":7720:7726   */\n      dup1\n        /* \"#utility.yul\":7728:7734   */\n      0x00\n        /* \"#utility.yul\":7777:7779   */\n      0x60\n        /* \"#utility.yul\":7765:7774   */\n      dup5\n        /* \"#utility.yul\":7756:7763   */\n      dup7\n        /* \"#utility.yul\":7752:7775   */\n      sub\n        /* \"#utility.yul\":7748:7780   */\n      slt\n        /* \"#utility.yul\":7745:7864   */\n      iszero\n      tag_245\n      jumpi\n        /* \"#utility.yul\":7783:7862   */\n      tag_246\n      tag_90\n      jump\t// in\n    tag_246:\n        /* \"#utility.yul\":7745:7864   */\n    tag_245:\n        /* \"#utility.yul\":7903:7904   */\n      0x00\n        /* \"#utility.yul\":7928:7980   */\n      tag_247\n        /* \"#utility.yul\":7972:7979   */\n      dup7\n        /* \"#utility.yul\":7963:7969   */\n      dup3\n        /* \"#utility.yul\":7952:7961   */\n      dup8\n        /* \"#utility.yul\":7948:7970   */\n      add\n        /* \"#utility.yul\":7928:7980   */\n      tag_115\n      jump\t// in\n    tag_247:\n        /* \"#utility.yul\":7918:7980   */\n      swap4\n      pop\n        /* \"#utility.yul\":7874:7990   */\n      pop\n        /* \"#utility.yul\":8029:8031   */\n      0x20\n        /* \"#utility.yul\":8055:8108   */\n      tag_248\n        /* \"#utility.yul\":8100:8107   */\n      dup7\n        /* \"#utility.yul\":8091:8097   */\n      dup3\n        /* \"#utility.yul\":8080:8089   */\n      dup8\n        /* \"#utility.yul\":8076:8098   */\n      add\n        /* \"#utility.yul\":8055:8108   */\n      tag_119\n      jump\t// in\n    tag_248:\n        /* \"#utility.yul\":8045:8108   */\n      swap3\n      pop\n        /* \"#utility.yul\":8000:8118   */\n      pop\n        /* \"#utility.yul\":8157:8159   */\n      0x40\n        /* \"#utility.yul\":8183:8236   */\n      tag_249\n        /* \"#utility.yul\":8228:8235   */\n      dup7\n        /* \"#utility.yul\":8219:8225   */\n      dup3\n        /* \"#utility.yul\":8208:8217   */\n      dup8\n        /* \"#utility.yul\":8204:8226   */\n      add\n        /* \"#utility.yul\":8183:8236   */\n      tag_93\n      jump\t// in\n    tag_249:\n        /* \"#utility.yul\":8173:8236   */\n      swap2\n      pop\n        /* \"#utility.yul\":8128:8246   */\n      pop\n        /* \"#utility.yul\":7636:8253   */\n      swap3\n      pop\n      swap3\n      pop\n      swap3\n      jump\t// out\n        /* \"#utility.yul\":8259:8733   */\n    tag_37:\n        /* \"#utility.yul\":8327:8333   */\n      0x00\n        /* \"#utility.yul\":8335:8341   */\n      dup1\n        /* \"#utility.yul\":8384:8386   */\n      0x40\n        /* \"#utility.yul\":8372:8381   */\n      dup4\n        /* \"#utility.yul\":8363:8370   */\n      dup6\n        /* \"#utility.yul\":8359:8382   */\n      sub\n        /* \"#utility.yul\":8355:8387   */\n      slt\n        /* \"#utility.yul\":8352:8471   */\n      iszero\n      tag_251\n      jumpi\n        /* \"#utility.yul\":8390:8469   */\n      tag_252\n      tag_90\n      jump\t// in\n    tag_252:\n        /* \"#utility.yul\":8352:8471   */\n    tag_251:\n        /* \"#utility.yul\":8510:8511   */\n      0x00\n        /* \"#utility.yul\":8535:8588   */\n      tag_253\n        /* \"#utility.yul\":8580:8587   */\n      dup6\n        /* \"#utility.yul\":8571:8577   */\n      dup3\n        /* \"#utility.yul\":8560:8569   */\n      dup7\n        /* \"#utility.yul\":8556:8578   */\n      add\n        /* \"#utility.yul\":8535:8588   */\n      tag_119\n      jump\t// in\n    tag_253:\n        /* \"#utility.yul\":8525:8588   */\n      swap3\n      pop\n        /* \"#utility.yul\":8481:8598   */\n      pop\n        /* \"#utility.yul\":8637:8639   */\n      0x20\n        /* \"#utility.yul\":8663:8716   */\n      tag_254\n        /* \"#utility.yul\":8708:8715   */\n      dup6\n        /* \"#utility.yul\":8699:8705   */\n      dup3\n        /* \"#utility.yul\":8688:8697   */\n      dup7\n        /* \"#utility.yul\":8684:8706   */\n      add\n        /* \"#utility.yul\":8663:8716   */\n      tag_93\n      jump\t// in\n    tag_254:\n        /* \"#utility.yul\":8653:8716   */\n      swap2\n      pop\n        /* \"#utility.yul\":8608:8726   */\n      pop\n        /* \"#utility.yul\":8259:8733   */\n      swap3\n      pop\n      swap3\n      swap1\n      pop\n      jump\t// out\n        /* \"#utility.yul\":8739:8919   */\n    tag_120:\n        /* \"#utility.yul\":8787:8864   */\n      0x4e487b7100000000000000000000000000000000000000000000000000000000\n        /* \"#utility.yul\":8784:8785   */\n      0x00\n        /* \"#utility.yul\":8777:8865   */\n      mstore\n        /* \"#utility.yul\":8884:8888   */\n      0x22\n        /* \"#utility.yul\":8881:8882   */\n      0x04\n        /* \"#utility.yul\":8874:8889   */\n      mstore\n        /* \"#utility.yul\":8908:8912   */\n      0x24\n        /* \"#utility.yul\":8905:8906   */\n      0x00\n        /* \"#utility.yul\":8898:8913   */\n      revert\n        /* \"#utility.yul\":8925:9245   */\n    tag_41:\n        /* \"#utility.yul\":8969:8975   */\n      0x00\n        /* \"#utility.yul\":9006:9007   */\n      0x02\n        /* \"#utility.yul\":9000:9004   */\n      dup3\n        /* \"#utility.yul\":8996:9008   */\n      div\n        /* \"#utility.yul\":8986:9008   */\n      swap1\n      pop\n        /* \"#utility.yul\":9053:9054   */\n      0x01\n        /* \"#utility.yul\":9047:9051   */\n      dup3\n        /* \"#utility.yul\":9043:9055   */\n      and\n        /* \"#utility.yul\":9074:9092   */\n      dup1\n        /* \"#utility.yul\":9064:9145   */\n      tag_257\n      jumpi\n        /* \"#utility.yul\":9130:9134   */\n      0x7f\n        /* \"#utility.yul\":9122:9128   */\n      dup3\n        /* \"#utility.yul\":9118:9135   */\n      and\n        /* \"#utility.yul\":9108:9135   */\n      swap2\n      pop\n        /* \"#utility.yul\":9064:9145   */\n    tag_257:\n        /* \"#utility.yul\":9192:9194   */\n      0x20\n        /* \"#utility.yul\":9184:9190   */\n      dup3\n        /* \"#utility.yul\":9181:9195   */\n      lt\n        /* \"#utility.yul\":9161:9179   */\n      dup2\n        /* \"#utility.yul\":9158:9196   */\n      sub\n        /* \"#utility.yul\":9155:9239   */\n      tag_258\n      jumpi\n        /* \"#utility.yul\":9211:9229   */\n      tag_259\n      tag_120\n      jump\t// in\n    tag_259:\n        /* \"#utility.yul\":9155:9239   */\n    tag_258:\n        /* \"#utility.yul\":8976:9245   */\n      pop\n        /* \"#utility.yul\":8925:9245   */\n      swap2\n      swap1\n      pop\n      jump\t// out\n        /* \"#utility.yul\":9251:9478   */\n    tag_121:\n        /* \"#utility.yul\":9391:9425   */\n      0x4576656e742063616e6e6f74206265206372656174656420666f722061207061\n        /* \"#utility.yul\":9387:9388   */\n      0x00\n        /* \"#utility.yul\":9379:9385   */\n      dup3\n        /* \"#utility.yul\":9375:9389   */\n      add\n        /* \"#utility.yul\":9368:9426   */\n      mstore\n        /* \"#utility.yul\":9460:9470   */\n      0x737420646174652e000000000000000000000000000000000000000000000000\n        /* \"#utility.yul\":9455:9457   */\n      0x20\n        /* \"#utility.yul\":9447:9453   */\n      dup3\n        /* \"#utility.yul\":9443:9458   */\n      add\n        /* \"#utility.yul\":9436:9471   */\n      mstore\n        /* \"#utility.yul\":9251:9478   */\n      pop\n      jump\t// out\n        /* \"#utility.yul\":9484:9850   */\n    tag_122:\n        /* \"#utility.yul\":9626:9629   */\n      0x00\n        /* \"#utility.yul\":9647:9714   */\n      tag_262\n        /* \"#utility.yul\":9711:9713   */\n      0x28\n        /* \"#utility.yul\":9706:9709   */\n      dup4\n        /* \"#utility.yul\":9647:9714   */\n      tag_98\n      jump\t// in\n    tag_262:\n        /* \"#utility.yul\":9640:9714   */\n      swap2\n      pop\n        /* \"#utility.yul\":9723:9816   */\n      tag_263\n        /* \"#utility.yul\":9812:9815   */\n      dup3\n        /* \"#utility.yul\":9723:9816   */\n      tag_121\n      jump\t// in\n    tag_263:\n        /* \"#utility.yul\":9841:9843   */\n      0x40\n        /* \"#utility.yul\":9836:9839   */\n      dup3\n        /* \"#utility.yul\":9832:9844   */\n      add\n        /* \"#utility.yul\":9825:9844   */\n      swap1\n      pop\n        /* \"#utility.yul\":9484:9850   */\n      swap2\n      swap1\n      pop\n      jump\t// out\n        /* \"#utility.yul\":9856:10275   */\n    tag_49:\n        /* \"#utility.yul\":10022:10026   */\n      0x00\n        /* \"#utility.yul\":10060:10062   */\n      0x20\n        /* \"#utility.yul\":10049:10058   */\n      dup3\n        /* \"#utility.yul\":10045:10063   */\n      add\n        /* \"#utility.yul\":10037:10063   */\n      swap1\n      pop\n        /* \"#utility.yul\":10109:10118   */\n      dup2\n        /* \"#utility.yul\":10103:10107   */\n      dup2\n        /* \"#utility.yul\":10099:10119   */\n      sub\n        /* \"#utility.yul\":10095:10096   */\n      0x00\n        /* \"#utility.yul\":10084:10093   */\n      dup4\n        /* \"#utility.yul\":10080:10097   */\n      add\n        /* \"#utility.yul\":10073:10120   */\n      mstore\n        /* \"#utility.yul\":10137:10268   */\n      tag_265\n        /* \"#utility.yul\":10263:10267   */\n      dup2\n        /* \"#utility.yul\":10137:10268   */\n      tag_122\n      jump\t// in\n    tag_265:\n        /* \"#utility.yul\":10129:10268   */\n      swap1\n      pop\n        /* \"#utility.yul\":9856:10275   */\n      swap2\n      swap1\n      pop\n      jump\t// out\n        /* \"#utility.yul\":10281:10510   */\n    tag_123:\n        /* \"#utility.yul\":10421:10455   */\n      0x4e756d626572206f66205469636b6574732063616e6e6f742062652065717561\n        /* \"#utility.yul\":10417:10418   */\n      0x00\n        /* \"#utility.yul\":10409:10415   */\n      dup3\n        /* \"#utility.yul\":10405:10419   */\n      add\n        /* \"#utility.yul\":10398:10456   */\n      mstore\n        /* \"#utility.yul\":10490:10502   */\n      0x6c20746f207a65726f2e00000000000000000000000000000000000000000000\n        /* \"#utility.yul\":10485:10487   */\n      0x20\n        /* \"#utility.yul\":10477:10483   */\n      dup3\n        /* \"#utility.yul\":10473:10488   */\n      add\n        /* \"#utility.yul\":10466:10503   */\n      mstore\n        /* \"#utility.yul\":10281:10510   */\n      pop\n      jump\t// out\n        /* \"#utility.yul\":10516:10882   */\n    tag_124:\n        /* \"#utility.yul\":10658:10661   */\n      0x00\n        /* \"#utility.yul\":10679:10746   */\n      tag_268\n        /* \"#utility.yul\":10743:10745   */\n      0x2a\n        /* \"#utility.yul\":10738:10741   */\n      dup4\n        /* \"#utility.yul\":10679:10746   */\n      tag_98\n      jump\t// in\n    tag_268:\n        /* \"#utility.yul\":10672:10746   */\n      swap2\n      pop\n        /* \"#utility.yul\":10755:10848   */\n      tag_269\n        /* \"#utility.yul\":10844:10847   */\n      dup3\n        /* \"#utility.yul\":10755:10848   */\n      tag_123\n      jump\t// in\n    tag_269:\n        /* \"#utility.yul\":10873:10875   */\n      0x40\n        /* \"#utility.yul\":10868:10871   */\n      dup3\n        /* \"#utility.yul\":10864:10876   */\n      add\n        /* \"#utility.yul\":10857:10876   */\n      swap1\n      pop\n        /* \"#utility.yul\":10516:10882   */\n      swap2\n      swap1\n      pop\n      jump\t// out\n        /* \"#utility.yul\":10888:11307   */\n    tag_52:\n        /* \"#utility.yul\":11054:11058   */\n      0x00\n        /* \"#utility.yul\":11092:11094   */\n      0x20\n        /* \"#utility.yul\":11081:11090   */\n      dup3\n        /* \"#utility.yul\":11077:11095   */\n      add\n        /* \"#utility.yul\":11069:11095   */\n      swap1\n      pop\n        /* \"#utility.yul\":11141:11150   */\n      dup2\n        /* \"#utility.yul\":11135:11139   */\n      dup2\n        /* \"#utility.yul\":11131:11151   */\n      sub\n        /* \"#utility.yul\":11127:11128   */\n      0x00\n        /* \"#utility.yul\":11116:11125   */\n      dup4\n        /* \"#utility.yul\":11112:11129   */\n      add\n        /* \"#utility.yul\":11105:11152   */\n      mstore\n        /* \"#utility.yul\":11169:11300   */\n      tag_271\n        /* \"#utility.yul\":11295:11299   */\n      dup2\n        /* \"#utility.yul\":11169:11300   */\n      tag_124\n      jump\t// in\n    tag_271:\n        /* \"#utility.yul\":11161:11300   */\n      swap1\n      pop\n        /* \"#utility.yul\":10888:11307   */\n      swap2\n      swap1\n      pop\n      jump\t// out\n        /* \"#utility.yul\":11313:11493   */\n    tag_125:\n        /* \"#utility.yul\":11361:11438   */\n      0x4e487b7100000000000000000000000000000000000000000000000000000000\n        /* \"#utility.yul\":11358:11359   */\n      0x00\n        /* \"#utility.yul\":11351:11439   */\n      mstore\n        /* \"#utility.yul\":11458:11462   */\n      0x41\n        /* \"#utility.yul\":11455:11456   */\n      0x04\n        /* \"#utility.yul\":11448:11463   */\n      mstore\n        /* \"#utility.yul\":11482:11486   */\n      0x24\n        /* \"#utility.yul\":11479:11480   */\n      0x00\n        /* \"#utility.yul\":11472:11487   */\n      revert\n        /* \"#utility.yul\":11499:11640   */\n    tag_126:\n        /* \"#utility.yul\":11548:11552   */\n      0x00\n        /* \"#utility.yul\":11571:11574   */\n      dup2\n        /* \"#utility.yul\":11563:11574   */\n      swap1\n      pop\n        /* \"#utility.yul\":11594:11597   */\n      dup2\n        /* \"#utility.yul\":11591:11592   */\n      0x00\n        /* \"#utility.yul\":11584:11598   */\n      mstore\n        /* \"#utility.yul\":11628:11632   */\n      0x20\n        /* \"#utility.yul\":11625:11626   */\n      0x00\n        /* \"#utility.yul\":11615:11633   */\n      keccak256\n        /* \"#utility.yul\":11607:11633   */\n      swap1\n      pop\n        /* \"#utility.yul\":11499:11640   */\n      swap2\n      swap1\n      pop\n      jump\t// out\n        /* \"#utility.yul\":11646:11739   */\n    tag_127:\n        /* \"#utility.yul\":11683:11689   */\n      0x00\n        /* \"#utility.yul\":11730:11732   */\n      0x20\n        /* \"#utility.yul\":11725:11727   */\n      0x1f\n        /* \"#utility.yul\":11718:11723   */\n      dup4\n        /* \"#utility.yul\":11714:11728   */\n      add\n        /* \"#utility.yul\":11710:11733   */\n      div\n        /* \"#utility.yul\":11700:11733   */\n      swap1\n      pop\n        /* \"#utility.yul\":11646:11739   */\n      swap2\n      swap1\n      pop\n      jump\t// out\n        /* \"#utility.yul\":11745:11852   */\n    tag_128:\n        /* \"#utility.yul\":11789:11797   */\n      0x00\n        /* \"#utility.yul\":11839:11844   */\n      dup3\n        /* \"#utility.yul\":11833:11837   */\n      dup3\n        /* \"#utility.yul\":11829:11845   */\n      shl\n        /* \"#utility.yul\":11808:11845   */\n      swap1\n      pop\n        /* \"#utility.yul\":11745:11852   */\n      swap3\n      swap2\n      pop\n      pop\n      jump\t// out\n        /* \"#utility.yul\":11858:12251   */\n    tag_129:\n        /* \"#utility.yul\":11927:11933   */\n      0x00\n        /* \"#utility.yul\":11977:11978   */\n      0x08\n        /* \"#utility.yul\":11965:11975   */\n      dup4\n        /* \"#utility.yul\":11961:11979   */\n      mul\n        /* \"#utility.yul\":12000:12097   */\n      tag_277\n        /* \"#utility.yul\":12030:12096   */\n      0xffffffffffffffffffffffffffffffffffffffffffffffffffffffffffffffff\n        /* \"#utility.yul\":12019:12028   */\n      dup3\n        /* \"#utility.yul\":12000:12097   */\n      tag_128\n      jump\t// in\n    tag_277:\n        /* \"#utility.yul\":12118:12157   */\n      tag_278\n        /* \"#utility.yul\":12148:12156   */\n      dup7\n        /* \"#utility.yul\":12137:12146   */\n      dup4\n        /* \"#utility.yul\":12118:12157   */\n      tag_128\n      jump\t// in\n    tag_278:\n        /* \"#utility.yul\":12106:12157   */\n      swap6\n      pop\n        /* \"#utility.yul\":12190:12194   */\n      dup1\n        /* \"#utility.yul\":12186:12195   */\n      not\n        /* \"#utility.yul\":12179:12184   */\n      dup5\n        /* \"#utility.yul\":12175:12196   */\n      and\n        /* \"#utility.yul\":12166:12196   */\n      swap4\n      pop\n        /* \"#utility.yul\":12239:12243   */\n      dup1\n        /* \"#utility.yul\":12229:12237   */\n      dup7\n        /* \"#utility.yul\":12225:12244   */\n      and\n        /* \"#utility.yul\":12218:12223   */\n      dup5\n        /* \"#utility.yul\":12215:12245   */\n      or\n        /* \"#utility.yul\":12205:12245   */\n      swap3\n      pop\n        /* \"#utility.yul\":11934:12251   */\n      pop\n      pop\n        /* \"#utility.yul\":11858:12251   */\n      swap4\n      swap3\n      pop\n      pop\n      pop\n      jump\t// out\n        /* \"#utility.yul\":12257:12317   */\n    tag_130:\n        /* \"#utility.yul\":12285:12288   */\n      0x00\n        /* \"#utility.yul\":12306:12311   */\n      dup2\n        /* \"#utility.yul\":12299:12311   */\n      swap1\n      pop\n        /* \"#utility.yul\":12257:12317   */\n      swap2\n      swap1\n      pop\n      jump\t// out\n        /* \"#utility.yul\":12323:12465   */\n    tag_131:\n        /* \"#utility.yul\":12373:12382   */\n      0x00\n        /* \"#utility.yul\":12406:12459   */\n      tag_281\n        /* \"#utility.yul\":12424:12458   */\n      tag_282\n        /* \"#utility.yul\":12433:12457   */\n      tag_283\n        /* \"#utility.yul\":12451:12456   */\n      dup5\n        /* \"#utility.yul\":12433:12457   */\n      tag_87\n      jump\t// in\n    tag_283:\n        /* \"#utility.yul\":12424:12458   */\n      tag_130\n      jump\t// in\n    tag_282:\n        /* \"#utility.yul\":12406:12459   */\n      tag_87\n      jump\t// in\n    tag_281:\n        /* \"#utility.yul\":12393:12459   */\n      swap1\n      pop\n        /* \"#utility.yul\":12323:12465   */\n      swap2\n      swap1\n      pop\n      jump\t// out\n        /* \"#utility.yul\":12471:12546   */\n    tag_132:\n        /* \"#utility.yul\":12514:12517   */\n      0x00\n        /* \"#utility.yul\":12535:12540   */\n      dup2\n        /* \"#utility.yul\":12528:12540   */\n      swap1\n      pop\n        /* \"#utility.yul\":12471:12546   */\n      swap2\n      swap1\n      pop\n      jump\t// out\n        /* \"#utility.yul\":12552:12821   */\n    tag_133:\n        /* \"#utility.yul\":12662:12701   */\n      tag_286\n        /* \"#utility.yul\":12693:12700   */\n      dup4\n        /* \"#utility.yul\":12662:12701   */\n      tag_131\n      jump\t// in\n    tag_286:\n        /* \"#utility.yul\":12723:12814   */\n      tag_287\n        /* \"#utility.yul\":12772:12813   */\n      tag_288\n        /* \"#utility.yul\":12796:12812   */\n      dup3\n        /* \"#utility.yul\":12772:12813   */\n      tag_132\n      jump\t// in\n    tag_288:\n        /* \"#utility.yul\":12764:12770   */\n      dup5\n        /* \"#utility.yul\":12757:12761   */\n      dup5\n        /* \"#utility.yul\":12751:12762   */\n      sload\n        /* \"#utility.yul\":12723:12814   */\n      tag_129\n      jump\t// in\n    tag_287:\n        /* \"#utility.yul\":12717:12721   */\n      dup3\n        /* \"#utility.yul\":12710:12815   */\n      sstore\n        /* \"#utility.yul\":12628:12821   */\n      pop\n        /* \"#utility.yul\":12552:12821   */\n      pop\n      pop\n      pop\n      jump\t// out\n        /* \"#utility.yul\":12827:12900   */\n    tag_134:\n        /* \"#utility.yul\":12872:12875   */\n      0x00\n        /* \"#utility.yul\":12827:12900   */\n      swap1\n      jump\t// out\n        /* \"#utility.yul\":12906:13095   */\n    tag_135:\n        /* \"#utility.yul\":12983:13015   */\n      tag_291\n      tag_134\n      jump\t// in\n    tag_291:\n        /* \"#utility.yul\":13024:13089   */\n      tag_292\n        /* \"#utility.yul\":13082:13088   */\n      dup2\n        /* \"#utility.yul\":13074:13080   */\n      dup5\n        /* \"#utility.yul\":13068:13072   */\n      dup5\n        /* \"#utility.yul\":13024:13089   */\n      tag_133\n      jump\t// in\n    tag_292:\n        /* \"#utility.yul\":12959:13095   */\n      pop\n        /* \"#utility.yul\":12906:13095   */\n      pop\n      pop\n      jump\t// out\n        /* \"#utility.yul\":13101:13287   */\n    tag_136:\n        /* \"#utility.yul\":13161:13281   */\n    tag_294:\n        /* \"#utility.yul\":13178:13181   */\n      dup2\n        /* \"#utility.yul\":13171:13176   */\n      dup2\n        /* \"#utility.yul\":13168:13182   */\n      lt\n        /* \"#utility.yul\":13161:13281   */\n      iszero\n      tag_296\n      jumpi\n        /* \"#utility.yul\":13232:13271   */\n      tag_297\n        /* \"#utility.yul\":13269:13270   */\n      0x00\n        /* \"#utility.yul\":13262:13267   */\n      dup3\n        /* \"#utility.yul\":13232:13271   */\n      tag_135\n      jump\t// in\n    tag_297:\n        /* \"#utility.yul\":13205:13206   */\n      0x01\n        /* \"#utility.yul\":13198:13203   */\n      dup2\n        /* \"#utility.yul\":13194:13207   */\n      add\n        /* \"#utility.yul\":13185:13207   */\n      swap1\n      pop\n        /* \"#utility.yul\":13161:13281   */\n      jump(tag_294)\n    tag_296:\n        /* \"#utility.yul\":13101:13287   */\n      pop\n      pop\n      jump\t// out\n        /* \"#utility.yul\":13293:13836   */\n    tag_137:\n        /* \"#utility.yul\":13394:13396   */\n      0x1f\n        /* \"#utility.yul\":13389:13392   */\n      dup3\n        /* \"#utility.yul\":13386:13397   */\n      gt\n        /* \"#utility.yul\":13383:13829   */\n      iszero\n      tag_299\n      jumpi\n        /* \"#utility.yul\":13428:13466   */\n      tag_300\n        /* \"#utility.yul\":13460:13465   */\n      dup2\n        /* \"#utility.yul\":13428:13466   */\n      tag_126\n      jump\t// in\n    tag_300:\n        /* \"#utility.yul\":13512:13541   */\n      tag_301\n        /* \"#utility.yul\":13530:13540   */\n      dup5\n        /* \"#utility.yul\":13512:13541   */\n      tag_127\n      jump\t// in\n    tag_301:\n        /* \"#utility.yul\":13502:13510   */\n      dup2\n        /* \"#utility.yul\":13498:13542   */\n      add\n        /* \"#utility.yul\":13695:13697   */\n      0x20\n        /* \"#utility.yul\":13683:13693   */\n      dup6\n        /* \"#utility.yul\":13680:13698   */\n      lt\n        /* \"#utility.yul\":13677:13726   */\n      iszero\n      tag_302\n      jumpi\n        /* \"#utility.yul\":13716:13724   */\n      dup2\n        /* \"#utility.yul\":13701:13724   */\n      swap1\n      pop\n        /* \"#utility.yul\":13677:13726   */\n    tag_302:\n        /* \"#utility.yul\":13739:13819   */\n      tag_303\n        /* \"#utility.yul\":13795:13817   */\n      tag_304\n        /* \"#utility.yul\":13813:13816   */\n      dup6\n        /* \"#utility.yul\":13795:13817   */\n      tag_127\n      jump\t// in\n    tag_304:\n        /* \"#utility.yul\":13785:13793   */\n      dup4\n        /* \"#utility.yul\":13781:13818   */\n      add\n        /* \"#utility.yul\":13768:13779   */\n      dup3\n        /* \"#utility.yul\":13739:13819   */\n      tag_136\n      jump\t// in\n    tag_303:\n        /* \"#utility.yul\":13398:13829   */\n      pop\n      pop\n        /* \"#utility.yul\":13383:13829   */\n    tag_299:\n        /* \"#utility.yul\":13293:13836   */\n      pop\n      pop\n      pop\n      jump\t// out\n        /* \"#utility.yul\":13842:13959   */\n    tag_138:\n        /* \"#utility.yul\":13896:13904   */\n      0x00\n        /* \"#utility.yul\":13946:13951   */\n      dup3\n        /* \"#utility.yul\":13940:13944   */\n      dup3\n        /* \"#utility.yul\":13936:13952   */\n      shr\n        /* \"#utility.yul\":13915:13952   */\n      swap1\n      pop\n        /* \"#utility.yul\":13842:13959   */\n      swap3\n      swap2\n      pop\n      pop\n      jump\t// out\n        /* \"#utility.yul\":13965:14134   */\n    tag_139:\n        /* \"#utility.yul\":14009:14015   */\n      0x00\n        /* \"#utility.yul\":14042:14093   */\n      tag_307\n        /* \"#utility.yul\":14090:14091   */\n      0x00\n        /* \"#utility.yul\":14086:14092   */\n      not\n        /* \"#utility.yul\":14078:14083   */\n      dup5\n        /* \"#utility.yul\":14075:14076   */\n      0x08\n        /* \"#utility.yul\":14071:14084   */\n      mul\n        /* \"#utility.yul\":14042:14093   */\n      tag_138\n      jump\t// in\n    tag_307:\n        /* \"#utility.yul\":14038:14094   */\n      not\n        /* \"#utility.yul\":14123:14127   */\n      dup1\n        /* \"#utility.yul\":14117:14121   */\n      dup4\n        /* \"#utility.yul\":14113:14128   */\n      and\n        /* \"#utility.yul\":14103:14128   */\n      swap2\n      pop\n        /* \"#utility.yul\":14016:14134   */\n      pop\n        /* \"#utility.yul\":13965:14134   */\n      swap3\n      swap2\n      pop\n      pop\n      jump\t// out\n        /* \"#utility.yul\":14139:14434   */\n    tag_140:\n        /* \"#utility.yul\":14215:14219   */\n      0x00\n        /* \"#utility.yul\":14361:14390   */\n      tag_309\n        /* \"#utility.yul\":14386:14389   */\n      dup4\n        /* \"#utility.yul\":14380:14384   */\n      dup4\n        /* \"#utility.yul\":14361:14390   */\n      tag_139\n      jump\t// in\n    tag_309:\n        /* \"#utility.yul\":14353:14390   */\n      swap2\n      pop\n        /* \"#utility.yul\":14423:14426   */\n      dup3\n        /* \"#utility.yul\":14420:14421   */\n      0x02\n        /* \"#utility.yul\":14416:14427   */\n      mul\n        /* \"#utility.yul\":14410:14414   */\n      dup3\n        /* \"#utility.yul\":14407:14428   */\n      or\n        /* \"#utility.yul\":14399:14428   */\n      swap1\n      pop\n        /* \"#utility.yul\":14139:14434   */\n      swap3\n      swap2\n      pop\n      pop\n      jump\t// out\n        /* \"#utility.yul\":14439:15834   */\n    tag_54:\n        /* \"#utility.yul\":14556:14593   */\n      tag_311\n        /* \"#utility.yul\":14589:14592   */\n      dup3\n        /* \"#utility.yul\":14556:14593   */\n      tag_97\n      jump\t// in\n    tag_311:\n        /* \"#utility.yul\":14658:14676   */\n      0xffffffffffffffff\n        /* \"#utility.yul\":14650:14656   */\n      dup2\n        /* \"#utility.yul\":14647:14677   */\n      gt\n        /* \"#utility.yul\":14644:14700   */\n      iszero\n      tag_312\n      jumpi\n        /* \"#utility.yul\":14680:14698   */\n      tag_313\n      tag_125\n      jump\t// in\n    tag_313:\n        /* \"#utility.yul\":14644:14700   */\n    tag_312:\n        /* \"#utility.yul\":14724:14762   */\n      tag_314\n        /* \"#utility.yul\":14756:14760   */\n      dup3\n        /* \"#utility.yul\":14750:14761   */\n      sload\n        /* \"#utility.yul\":14724:14762   */\n      tag_41\n      jump\t// in\n    tag_314:\n        /* \"#utility.yul\":14809:14876   */\n      tag_315\n        /* \"#utility.yul\":14869:14875   */\n      dup3\n        /* \"#utility.yul\":14861:14867   */\n      dup3\n        /* \"#utility.yul\":14855:14859   */\n      dup6\n        /* \"#utility.yul\":14809:14876   */\n      tag_137\n      jump\t// in\n    tag_315:\n        /* \"#utility.yul\":14903:14904   */\n      0x00\n        /* \"#utility.yul\":14927:14931   */\n      0x20\n        /* \"#utility.yul\":14914:14931   */\n      swap1\n      pop\n        /* \"#utility.yul\":14959:14961   */\n      0x1f\n        /* \"#utility.yul\":14951:14957   */\n      dup4\n        /* \"#utility.yul\":14948:14962   */\n      gt\n        /* \"#utility.yul\":14976:14977   */\n      0x01\n        /* \"#utility.yul\":14971:15589   */\n      dup2\n      eq\n      tag_317\n      jumpi\n        /* \"#utility.yul\":15633:15634   */\n      0x00\n        /* \"#utility.yul\":15650:15656   */\n      dup5\n        /* \"#utility.yul\":15647:15724   */\n      iszero\n      tag_318\n      jumpi\n        /* \"#utility.yul\":15699:15708   */\n      dup3\n        /* \"#utility.yul\":15694:15697   */\n      dup8\n        /* \"#utility.yul\":15690:15709   */\n      add\n        /* \"#utility.yul\":15684:15710   */\n      mload\n        /* \"#utility.yul\":15675:15710   */\n      swap1\n      pop\n        /* \"#utility.yul\":15647:15724   */\n    tag_318:\n        /* \"#utility.yul\":15750:15817   */\n      tag_319\n        /* \"#utility.yul\":15810:15816   */\n      dup6\n        /* \"#utility.yul\":15803:15808   */\n      dup3\n        /* \"#utility.yul\":15750:15817   */\n      tag_140\n      jump\t// in\n    tag_319:\n        /* \"#utility.yul\":15744:15748   */\n      dup7\n        /* \"#utility.yul\":15737:15818   */\n      sstore\n        /* \"#utility.yul\":15606:15828   */\n      pop\n        /* \"#utility.yul\":14941:15828   */\n      jump(tag_316)\n        /* \"#utility.yul\":14971:15589   */\n    tag_317:\n        /* \"#utility.yul\":15023:15027   */\n      0x1f\n        /* \"#utility.yul\":15019:15028   */\n      not\n        /* \"#utility.yul\":15011:15017   */\n      dup5\n        /* \"#utility.yul\":15007:15029   */\n      and\n        /* \"#utility.yul\":15057:15094   */\n      tag_320\n        /* \"#utility.yul\":15089:15093   */\n      dup7\n        /* \"#utility.yul\":15057:15094   */\n      tag_126\n      jump\t// in\n    tag_320:\n        /* \"#utility.yul\":15116:15117   */\n      0x00\n        /* \"#utility.yul\":15130:15338   */\n    tag_321:\n        /* \"#utility.yul\":15144:15151   */\n      dup3\n        /* \"#utility.yul\":15141:15142   */\n      dup2\n        /* \"#utility.yul\":15138:15152   */\n      lt\n        /* \"#utility.yul\":15130:15338   */\n      iszero\n      tag_323\n      jumpi\n        /* \"#utility.yul\":15223:15232   */\n      dup5\n        /* \"#utility.yul\":15218:15221   */\n      dup10\n        /* \"#utility.yul\":15214:15233   */\n      add\n        /* \"#utility.yul\":15208:15234   */\n      mload\n        /* \"#utility.yul\":15200:15206   */\n      dup3\n        /* \"#utility.yul\":15193:15235   */\n      sstore\n        /* \"#utility.yul\":15274:15275   */\n      0x01\n        /* \"#utility.yul\":15266:15272   */\n      dup3\n        /* \"#utility.yul\":15262:15276   */\n      add\n        /* \"#utility.yul\":15252:15276   */\n      swap2\n      pop\n        /* \"#utility.yul\":15321:15323   */\n      0x20\n        /* \"#utility.yul\":15310:15319   */\n      dup6\n        /* \"#utility.yul\":15306:15324   */\n      add\n        /* \"#utility.yul\":15293:15324   */\n      swap5\n      pop\n        /* \"#utility.yul\":15167:15171   */\n      0x20\n        /* \"#utility.yul\":15164:15165   */\n      dup2\n        /* \"#utility.yul\":15160:15172   */\n      add\n        /* \"#utility.yul\":15155:15172   */\n      swap1\n      pop\n        /* \"#utility.yul\":15130:15338   */\n      jump(tag_321)\n    tag_323:\n        /* \"#utility.yul\":15366:15372   */\n      dup7\n        /* \"#utility.yul\":15357:15364   */\n      dup4\n        /* \"#utility.yul\":15354:15373   */\n      lt\n        /* \"#utility.yul\":15351:15530   */\n      iszero\n      tag_324\n      jumpi\n        /* \"#utility.yul\":15424:15433   */\n      dup5\n        /* \"#utility.yul\":15419:15422   */\n      dup10\n        /* \"#utility.yul\":15415:15434   */\n      add\n        /* \"#utility.yul\":15409:15435   */\n      mload\n        /* \"#utility.yul\":15467:15515   */\n      tag_325\n        /* \"#utility.yul\":15509:15513   */\n      0x1f\n        /* \"#utility.yul\":15501:15507   */\n      dup10\n        /* \"#utility.yul\":15497:15514   */\n      and\n        /* \"#utility.yul\":15486:15495   */\n      dup3\n        /* \"#utility.yul\":15467:15515   */\n      tag_139\n      jump\t// in\n    tag_325:\n        /* \"#utility.yul\":15459:15465   */\n      dup4\n        /* \"#utility.yul\":15452:15516   */\n      sstore\n        /* \"#utility.yul\":15374:15530   */\n      pop\n        /* \"#utility.yul\":15351:15530   */\n    tag_324:\n        /* \"#utility.yul\":15576:15577   */\n      0x01\n        /* \"#utility.yul\":15572:15573   */\n      0x02\n        /* \"#utility.yul\":15564:15570   */\n      dup9\n        /* \"#utility.yul\":15560:15574   */\n      mul\n        /* \"#utility.yul\":15556:15578   */\n      add\n        /* \"#utility.yul\":15550:15554   */\n      dup9\n        /* \"#utility.yul\":15543:15579   */\n      sstore\n        /* \"#utility.yul\":14978:15589   */\n      pop\n      pop\n      pop\n        /* \"#utility.yul\":14941:15828   */\n    tag_316:\n      pop\n        /* \"#utility.yul\":14531:15834   */\n      pop\n      pop\n      pop\n        /* \"#utility.yul\":14439:15834   */\n      pop\n      pop\n      jump\t// out\n        /* \"#utility.yul\":15840:16020   */\n    tag_141:\n        /* \"#utility.yul\":15888:15965   */\n      0x4e487b7100000000000000000000000000000000000000000000000000000000\n        /* \"#utility.yul\":15885:15886   */\n      0x00\n        /* \"#utility.yul\":15878:15966   */\n      mstore\n        /* \"#utility.yul\":15985:15989   */\n      0x11\n        /* \"#utility.yul\":15982:15983   */\n      0x04\n        /* \"#utility.yul\":15975:15990   */\n      mstore\n        /* \"#utility.yul\":16009:16013   */\n      0x24\n        /* \"#utility.yul\":16006:16007   */\n      0x00\n        /* \"#utility.yul\":15999:16014   */\n      revert\n        /* \"#utility.yul\":16026:16259   */\n    tag_56:\n        /* \"#utility.yul\":16065:16068   */\n      0x00\n        /* \"#utility.yul\":16088:16112   */\n      tag_328\n        /* \"#utility.yul\":16106:16111   */\n      dup3\n        /* \"#utility.yul\":16088:16112   */\n      tag_87\n      jump\t// in\n    tag_328:\n        /* \"#utility.yul\":16079:16112   */\n      swap2\n      pop\n        /* \"#utility.yul\":16134:16200   */\n      0xffffffffffffffffffffffffffffffffffffffffffffffffffffffffffffffff\n        /* \"#utility.yul\":16127:16132   */\n      dup3\n        /* \"#utility.yul\":16124:16201   */\n      sub\n        /* \"#utility.yul\":16121:16224   */\n      tag_329\n      jumpi\n        /* \"#utility.yul\":16204:16222   */\n      tag_330\n      tag_141\n      jump\t// in\n    tag_330:\n        /* \"#utility.yul\":16121:16224   */\n    tag_329:\n        /* \"#utility.yul\":16251:16252   */\n      0x01\n        /* \"#utility.yul\":16244:16249   */\n      dup3\n        /* \"#utility.yul\":16240:16253   */\n      add\n        /* \"#utility.yul\":16233:16253   */\n      swap1\n      pop\n        /* \"#utility.yul\":16026:16259   */\n      swap2\n      swap1\n      pop\n      jump\t// out\n        /* \"#utility.yul\":16265:16436   */\n    tag_142:\n        /* \"#utility.yul\":16405:16428   */\n      0x4576656e7420646f6573206e6f74206578697374210000000000000000000000\n        /* \"#utility.yul\":16401:16402   */\n      0x00\n        /* \"#utility.yul\":16393:16399   */\n      dup3\n        /* \"#utility.yul\":16389:16403   */\n      add\n        /* \"#utility.yul\":16382:16429   */\n      mstore\n        /* \"#utility.yul\":16265:16436   */\n      pop\n      jump\t// out\n        /* \"#utility.yul\":16442:16808   */\n    tag_143:\n        /* \"#utility.yul\":16584:16587   */\n      0x00\n        /* \"#utility.yul\":16605:16672   */\n      tag_333\n        /* \"#utility.yul\":16669:16671   */\n      0x15\n        /* \"#utility.yul\":16664:16667   */\n      dup4\n        /* \"#utility.yul\":16605:16672   */\n      tag_98\n      jump\t// in\n    tag_333:\n        /* \"#utility.yul\":16598:16672   */\n      swap2\n      pop\n        /* \"#utility.yul\":16681:16774   */\n      tag_334\n        /* \"#utility.yul\":16770:16773   */\n      dup3\n        /* \"#utility.yul\":16681:16774   */\n      tag_142\n      jump\t// in\n    tag_334:\n        /* \"#utility.yul\":16799:16801   */\n      0x20\n        /* \"#utility.yul\":16794:16797   */\n      dup3\n        /* \"#utility.yul\":16790:16802   */\n      add\n        /* \"#utility.yul\":16783:16802   */\n      swap1\n      pop\n        /* \"#utility.yul\":16442:16808   */\n      swap2\n      swap1\n      pop\n      jump\t// out\n        /* \"#utility.yul\":16814:17233   */\n    tag_60:\n        /* \"#utility.yul\":16980:16984   */\n      0x00\n        /* \"#utility.yul\":17018:17020   */\n      0x20\n        /* \"#utility.yul\":17007:17016   */\n      dup3\n        /* \"#utility.yul\":17003:17021   */\n      add\n        /* \"#utility.yul\":16995:17021   */\n      swap1\n      pop\n        /* \"#utility.yul\":17067:17076   */\n      dup2\n        /* \"#utility.yul\":17061:17065   */\n      dup2\n        /* \"#utility.yul\":17057:17077   */\n      sub\n        /* \"#utility.yul\":17053:17054   */\n      0x00\n        /* \"#utility.yul\":17042:17051   */\n      dup4\n        /* \"#utility.yul\":17038:17055   */\n      add\n        /* \"#utility.yul\":17031:17078   */\n      mstore\n        /* \"#utility.yul\":17095:17226   */\n      tag_336\n        /* \"#utility.yul\":17221:17225   */\n      dup2\n        /* \"#utility.yul\":17095:17226   */\n      tag_143\n      jump\t// in\n    tag_336:\n        /* \"#utility.yul\":17087:17226   */\n      swap1\n      pop\n        /* \"#utility.yul\":16814:17233   */\n      swap2\n      swap1\n      pop\n      jump\t// out\n        /* \"#utility.yul\":17239:17405   */\n    tag_144:\n        /* \"#utility.yul\":17379:17397   */\n      0x4576656e742068617320656e6465642e00000000000000000000000000000000\n        /* \"#utility.yul\":17375:17376   */\n      0x00\n        /* \"#utility.yul\":17367:17373   */\n      dup3\n        /* \"#utility.yul\":17363:17377   */\n      add\n        /* \"#utility.yul\":17356:17398   */\n      mstore\n        /* \"#utility.yul\":17239:17405   */\n      pop\n      jump\t// out\n        /* \"#utility.yul\":17411:17777   */\n    tag_145:\n        /* \"#utility.yul\":17553:17556   */\n      0x00\n        /* \"#utility.yul\":17574:17641   */\n      tag_339\n        /* \"#utility.yul\":17638:17640   */\n      0x10\n        /* \"#utility.yul\":17633:17636   */\n      dup4\n        /* \"#utility.yul\":17574:17641   */\n      tag_98\n      jump\t// in\n    tag_339:\n        /* \"#utility.yul\":17567:17641   */\n      swap2\n      pop\n        /* \"#utility.yul\":17650:17743   */\n      tag_340\n        /* \"#utility.yul\":17739:17742   */\n      dup3\n        /* \"#utility.yul\":17650:17743   */\n      tag_144\n      jump\t// in\n    tag_340:\n        /* \"#utility.yul\":17768:17770   */\n      0x20\n        /* \"#utility.yul\":17763:17766   */\n      dup3\n        /* \"#utility.yul\":17759:17771   */\n      add\n        /* \"#utility.yul\":17752:17771   */\n      swap1\n      pop\n        /* \"#utility.yul\":17411:17777   */\n      swap2\n      swap1\n      pop\n      jump\t// out\n        /* \"#utility.yul\":17783:18202   */\n    tag_63:\n        /* \"#utility.yul\":17949:17953   */\n      0x00\n        /* \"#utility.yul\":17987:17989   */\n      0x20\n        /* \"#utility.yul\":17976:17985   */\n      dup3\n        /* \"#utility.yul\":17972:17990   */\n      add\n        /* \"#utility.yul\":17964:17990   */\n      swap1\n      pop\n        /* \"#utility.yul\":18036:18045   */\n      dup2\n        /* \"#utility.yul\":18030:18034   */\n      dup2\n        /* \"#utility.yul\":18026:18046   */\n      sub\n        /* \"#utility.yul\":18022:18023   */\n      0x00\n        /* \"#utility.yul\":18011:18020   */\n      dup4\n        /* \"#utility.yul\":18007:18024   */\n      add\n        /* \"#utility.yul\":18000:18047   */\n      mstore\n        /* \"#utility.yul\":18064:18195   */\n      tag_342\n        /* \"#utility.yul\":18190:18194   */\n      dup2\n        /* \"#utility.yul\":18064:18195   */\n      tag_145\n      jump\t// in\n    tag_342:\n        /* \"#utility.yul\":18056:18195   */\n      swap1\n      pop\n        /* \"#utility.yul\":17783:18202   */\n      swap2\n      swap1\n      pop\n      jump\t// out\n        /* \"#utility.yul\":18208:18381   */\n    tag_146:\n        /* \"#utility.yul\":18348:18373   */\n      0x4e6f7420656e6f756768207469636b657473206c656674000000000000000000\n        /* \"#utility.yul\":18344:18345   */\n      0x00\n        /* \"#utility.yul\":18336:18342   */\n      dup3\n        /* \"#utility.yul\":18332:18346   */\n      add\n        /* \"#utility.yul\":18325:18374   */\n      mstore\n        /* \"#utility.yul\":18208:18381   */\n      pop\n      jump\t// out\n        /* \"#utility.yul\":18387:18753   */\n    tag_147:\n        /* \"#utility.yul\":18529:18532   */\n      0x00\n        /* \"#utility.yul\":18550:18617   */\n      tag_345\n        /* \"#utility.yul\":18614:18616   */\n      0x17\n        /* \"#utility.yul\":18609:18612   */\n      dup4\n        /* \"#utility.yul\":18550:18617   */\n      tag_98\n      jump\t// in\n    tag_345:\n        /* \"#utility.yul\":18543:18617   */\n      swap2\n      pop\n        /* \"#utility.yul\":18626:18719   */\n      tag_346\n        /* \"#utility.yul\":18715:18718   */\n      dup3\n        /* \"#utility.yul\":18626:18719   */\n      tag_146\n      jump\t// in\n    tag_346:\n        /* \"#utility.yul\":18744:18746   */\n      0x20\n        /* \"#utility.yul\":18739:18742   */\n      dup3\n        /* \"#utility.yul\":18735:18747   */\n      add\n        /* \"#utility.yul\":18728:18747   */\n      swap1\n      pop\n        /* \"#utility.yul\":18387:18753   */\n      swap2\n      swap1\n      pop\n      jump\t// out\n        /* \"#utility.yul\":18759:19178   */\n    tag_66:\n        /* \"#utility.yul\":18925:18929   */\n      0x00\n        /* \"#utility.yul\":18963:18965   */\n      0x20\n        /* \"#utility.yul\":18952:18961   */\n      dup3\n        /* \"#utility.yul\":18948:18966   */\n      add\n        /* \"#utility.yul\":18940:18966   */\n      swap1\n      pop\n        /* \"#utility.yul\":19012:19021   */\n      dup2\n        /* \"#utility.yul\":19006:19010   */\n      dup2\n        /* \"#utility.yul\":19002:19022   */\n      sub\n        /* \"#utility.yul\":18998:18999   */\n      0x00\n        /* \"#utility.yul\":18987:18996   */\n      dup4\n        /* \"#utility.yul\":18983:19000   */\n      add\n        /* \"#utility.yul\":18976:19023   */\n      mstore\n        /* \"#utility.yul\":19040:19171   */\n      tag_348\n        /* \"#utility.yul\":19166:19170   */\n      dup2\n        /* \"#utility.yul\":19040:19171   */\n      tag_147\n      jump\t// in\n    tag_348:\n        /* \"#utility.yul\":19032:19171   */\n      swap1\n      pop\n        /* \"#utility.yul\":18759:19178   */\n      swap2\n      swap1\n      pop\n      jump\t// out\n        /* \"#utility.yul\":19184:19459   */\n    tag_68:\n        /* \"#utility.yul\":19223:19230   */\n      0x00\n        /* \"#utility.yul\":19246:19265   */\n      tag_350\n        /* \"#utility.yul\":19263:19264   */\n      dup3\n        /* \"#utility.yul\":19246:19265   */\n      tag_102\n      jump\t// in\n    tag_350:\n        /* \"#utility.yul\":19241:19265   */\n      swap2\n      pop\n        /* \"#utility.yul\":19279:19298   */\n      tag_351\n        /* \"#utility.yul\":19296:19297   */\n      dup4\n        /* \"#utility.yul\":19279:19298   */\n      tag_102\n      jump\t// in\n    tag_351:\n        /* \"#utility.yul\":19274:19298   */\n      swap3\n      pop\n        /* \"#utility.yul\":19333:19334   */\n      dup3\n        /* \"#utility.yul\":19330:19331   */\n      dup3\n        /* \"#utility.yul\":19326:19335   */\n      mul\n        /* \"#utility.yul\":19355:19384   */\n      tag_352\n        /* \"#utility.yul\":19372:19383   */\n      dup2\n        /* \"#utility.yul\":19355:19384   */\n      tag_102\n      jump\t// in\n    tag_352:\n        /* \"#utility.yul\":19344:19384   */\n      swap2\n      pop\n        /* \"#utility.yul\":19416:19427   */\n      dup1\n        /* \"#utility.yul\":19407:19414   */\n      dup3\n        /* \"#utility.yul\":19404:19428   */\n      eq\n        /* \"#utility.yul\":19394:19452   */\n      tag_353\n      jumpi\n        /* \"#utility.yul\":19432:19450   */\n      tag_354\n      tag_141\n      jump\t// in\n    tag_354:\n        /* \"#utility.yul\":19394:19452   */\n    tag_353:\n        /* \"#utility.yul\":19231:19459   */\n      pop\n        /* \"#utility.yul\":19184:19459   */\n      swap3\n      swap2\n      pop\n      pop\n      jump\t// out\n        /* \"#utility.yul\":19465:19687   */\n    tag_148:\n        /* \"#utility.yul\":19605:19639   */\n      0x4e6f7420656e6f7567682045746865722070726573656e7420696e204163636f\n        /* \"#utility.yul\":19601:19602   */\n      0x00\n        /* \"#utility.yul\":19593:19599   */\n      dup3\n        /* \"#utility.yul\":19589:19603   */\n      add\n        /* \"#utility.yul\":19582:19640   */\n      mstore\n        /* \"#utility.yul\":19674:19679   */\n      0x756e740000000000000000000000000000000000000000000000000000000000\n        /* \"#utility.yul\":19669:19671   */\n      0x20\n        /* \"#utility.yul\":19661:19667   */\n      dup3\n        /* \"#utility.yul\":19657:19672   */\n      add\n        /* \"#utility.yul\":19650:19680   */\n      mstore\n        /* \"#utility.yul\":19465:19687   */\n      pop\n      jump\t// out\n        /* \"#utility.yul\":19693:20059   */\n    tag_149:\n        /* \"#utility.yul\":19835:19838   */\n      0x00\n        /* \"#utility.yul\":19856:19923   */\n      tag_357\n        /* \"#utility.yul\":19920:19922   */\n      0x23\n        /* \"#utility.yul\":19915:19918   */\n      dup4\n        /* \"#utility.yul\":19856:19923   */\n      tag_98\n      jump\t// in\n    tag_357:\n        /* \"#utility.yul\":19849:19923   */\n      swap2\n      pop\n        /* \"#utility.yul\":19932:20025   */\n      tag_358\n        /* \"#utility.yul\":20021:20024   */\n      dup3\n        /* \"#utility.yul\":19932:20025   */\n      tag_148\n      jump\t// in\n    tag_358:\n        /* \"#utility.yul\":20050:20052   */\n      0x40\n        /* \"#utility.yul\":20045:20048   */\n      dup3\n        /* \"#utility.yul\":20041:20053   */\n      add\n        /* \"#utility.yul\":20034:20053   */\n      swap1\n      pop\n        /* \"#utility.yul\":19693:20059   */\n      swap2\n      swap1\n      pop\n      jump\t// out\n        /* \"#utility.yul\":20065:20484   */\n    tag_71:\n        /* \"#utility.yul\":20231:20235   */\n      0x00\n        /* \"#utility.yul\":20269:20271   */\n      0x20\n        /* \"#utility.yul\":20258:20267   */\n      dup3\n        /* \"#utility.yul\":20254:20272   */\n      add\n        /* \"#utility.yul\":20246:20272   */\n      swap1\n      pop\n        /* \"#utility.yul\":20318:20327   */\n      dup2\n        /* \"#utility.yul\":20312:20316   */\n      dup2\n        /* \"#utility.yul\":20308:20328   */\n      sub\n        /* \"#utility.yul\":20304:20305   */\n      0x00\n        /* \"#utility.yul\":20293:20302   */\n      dup4\n        /* \"#utility.yul\":20289:20306   */\n      add\n        /* \"#utility.yul\":20282:20329   */\n      mstore\n        /* \"#utility.yul\":20346:20477   */\n      tag_360\n        /* \"#utility.yul\":20472:20476   */\n      dup2\n        /* \"#utility.yul\":20346:20477   */\n      tag_149\n      jump\t// in\n    tag_360:\n        /* \"#utility.yul\":20338:20477   */\n      swap1\n      pop\n        /* \"#utility.yul\":20065:20484   */\n      swap2\n      swap1\n      pop\n      jump\t// out\n        /* \"#utility.yul\":20490:20686   */\n    tag_73:\n        /* \"#utility.yul\":20529:20533   */\n      0x00\n        /* \"#utility.yul\":20549:20568   */\n      tag_362\n        /* \"#utility.yul\":20566:20567   */\n      dup3\n        /* \"#utility.yul\":20549:20568   */\n      tag_104\n      jump\t// in\n    tag_362:\n        /* \"#utility.yul\":20544:20568   */\n      swap2\n      pop\n        /* \"#utility.yul\":20582:20601   */\n      tag_363\n        /* \"#utility.yul\":20599:20600   */\n      dup4\n        /* \"#utility.yul\":20582:20601   */\n      tag_104\n      jump\t// in\n    tag_363:\n        /* \"#utility.yul\":20577:20601   */\n      swap3\n      pop\n        /* \"#utility.yul\":20625:20626   */\n      dup3\n        /* \"#utility.yul\":20622:20623   */\n      dup3\n        /* \"#utility.yul\":20618:20627   */\n      sub\n        /* \"#utility.yul\":20610:20627   */\n      swap1\n      pop\n        /* \"#utility.yul\":20649:20655   */\n      0xffff\n        /* \"#utility.yul\":20643:20647   */\n      dup2\n        /* \"#utility.yul\":20640:20656   */\n      gt\n        /* \"#utility.yul\":20637:20679   */\n      iszero\n      tag_364\n      jumpi\n        /* \"#utility.yul\":20659:20677   */\n      tag_365\n      tag_141\n      jump\t// in\n    tag_365:\n        /* \"#utility.yul\":20637:20679   */\n    tag_364:\n        /* \"#utility.yul\":20490:20686   */\n      swap3\n      swap2\n      pop\n      pop\n      jump\t// out\n        /* \"#utility.yul\":20692:20883   */\n    tag_75:\n        /* \"#utility.yul\":20732:20735   */\n      0x00\n        /* \"#utility.yul\":20751:20771   */\n      tag_367\n        /* \"#utility.yul\":20769:20770   */\n      dup3\n        /* \"#utility.yul\":20751:20771   */\n      tag_87\n      jump\t// in\n    tag_367:\n        /* \"#utility.yul\":20746:20771   */\n      swap2\n      pop\n        /* \"#utility.yul\":20785:20805   */\n      tag_368\n        /* \"#utility.yul\":20803:20804   */\n      dup4\n        /* \"#utility.yul\":20785:20805   */\n      tag_87\n      jump\t// in\n    tag_368:\n        /* \"#utility.yul\":20780:20805   */\n      swap3\n      pop\n        /* \"#utility.yul\":20828:20829   */\n      dup3\n        /* \"#utility.yul\":20825:20826   */\n      dup3\n        /* \"#utility.yul\":20821:20830   */\n      add\n        /* \"#utility.yul\":20814:20830   */\n      swap1\n      pop\n        /* \"#utility.yul\":20849:20852   */\n      dup1\n        /* \"#utility.yul\":20846:20847   */\n      dup3\n        /* \"#utility.yul\":20843:20853   */\n      gt\n        /* \"#utility.yul\":20840:20876   */\n      iszero\n      tag_369\n      jumpi\n        /* \"#utility.yul\":20856:20874   */\n      tag_370\n      tag_141\n      jump\t// in\n    tag_370:\n        /* \"#utility.yul\":20840:20876   */\n    tag_369:\n        /* \"#utility.yul\":20692:20883   */\n      swap3\n      swap2\n      pop\n      pop\n      jump\t// out\n        /* \"#utility.yul\":20889:21134   */\n    tag_150:\n        /* \"#utility.yul\":21029:21063   */\n      0x5175616e74697479206578636565647320746865206e756d626572206f662074\n        /* \"#utility.yul\":21025:21026   */\n      0x00\n        /* \"#utility.yul\":21017:21023   */\n      dup3\n        /* \"#utility.yul\":21013:21027   */\n      add\n        /* \"#utility.yul\":21006:21064   */\n      mstore\n        /* \"#utility.yul\":21098:21126   */\n      0x69636b65747320796f75206861766520696e206163636f756e74000000000000\n        /* \"#utility.yul\":21093:21095   */\n      0x20\n        /* \"#utility.yul\":21085:21091   */\n      dup3\n        /* \"#utility.yul\":21081:21096   */\n      add\n        /* \"#utility.yul\":21074:21127   */\n      mstore\n        /* \"#utility.yul\":20889:21134   */\n      pop\n      jump\t// out\n        /* \"#utility.yul\":21140:21506   */\n    tag_151:\n        /* \"#utility.yul\":21282:21285   */\n      0x00\n        /* \"#utility.yul\":21303:21370   */\n      tag_373\n        /* \"#utility.yul\":21367:21369   */\n      0x3a\n        /* \"#utility.yul\":21362:21365   */\n      dup4\n        /* \"#utility.yul\":21303:21370   */\n      tag_98\n      jump\t// in\n    tag_373:\n        /* \"#utility.yul\":21296:21370   */\n      swap2\n      pop\n        /* \"#utility.yul\":21379:21472   */\n      tag_374\n        /* \"#utility.yul\":21468:21471   */\n      dup3\n        /* \"#utility.yul\":21379:21472   */\n      tag_150\n      jump\t// in\n    tag_374:\n        /* \"#utility.yul\":21497:21499   */\n      0x40\n        /* \"#utility.yul\":21492:21495   */\n      dup3\n        /* \"#utility.yul\":21488:21500   */\n      add\n        /* \"#utility.yul\":21481:21500   */\n      swap1\n      pop\n        /* \"#utility.yul\":21140:21506   */\n      swap2\n      swap1\n      pop\n      jump\t// out\n        /* \"#utility.yul\":21512:21931   */\n    tag_83:\n        /* \"#utility.yul\":21678:21682   */\n      0x00\n        /* \"#utility.yul\":21716:21718   */\n      0x20\n        /* \"#utility.yul\":21705:21714   */\n      dup3\n        /* \"#utility.yul\":21701:21719   */\n      add\n        /* \"#utility.yul\":21693:21719   */\n      swap1\n      pop\n        /* \"#utility.yul\":21765:21774   */\n      dup2\n        /* \"#utility.yul\":21759:21763   */\n      dup2\n        /* \"#utility.yul\":21755:21775   */\n      sub\n        /* \"#utility.yul\":21751:21752   */\n      0x00\n        /* \"#utility.yul\":21740:21749   */\n      dup4\n        /* \"#utility.yul\":21736:21753   */\n      add\n        /* \"#utility.yul\":21729:21776   */\n      mstore\n        /* \"#utility.yul\":21793:21924   */\n      tag_376\n        /* \"#utility.yul\":21919:21923   */\n      dup2\n        /* \"#utility.yul\":21793:21924   */\n      tag_151\n      jump\t// in\n    tag_376:\n        /* \"#utility.yul\":21785:21924   */\n      swap1\n      pop\n        /* \"#utility.yul\":21512:21931   */\n      swap2\n      swap1\n      pop\n      jump\t// out\n        /* \"#utility.yul\":21937:22131   */\n    tag_85:\n        /* \"#utility.yul\":21977:21981   */\n      0x00\n        /* \"#utility.yul\":21997:22017   */\n      tag_378\n        /* \"#utility.yul\":22015:22016   */\n      dup3\n        /* \"#utility.yul\":21997:22017   */\n      tag_87\n      jump\t// in\n    tag_378:\n        /* \"#utility.yul\":21992:22017   */\n      swap2\n      pop\n        /* \"#utility.yul\":22031:22051   */\n      tag_379\n        /* \"#utility.yul\":22049:22050   */\n      dup4\n        /* \"#utility.yul\":22031:22051   */\n      tag_87\n      jump\t// in\n    tag_379:\n        /* \"#utility.yul\":22026:22051   */\n      swap3\n      pop\n        /* \"#utility.yul\":22075:22076   */\n      dup3\n        /* \"#utility.yul\":22072:22073   */\n      dup3\n        /* \"#utility.yul\":22068:22077   */\n      sub\n        /* \"#utility.yul\":22060:22077   */\n      swap1\n      pop\n        /* \"#utility.yul\":22099:22100   */\n      dup2\n        /* \"#utility.yul\":22093:22097   */\n      dup2\n        /* \"#utility.yul\":22090:22101   */\n      gt\n        /* \"#utility.yul\":22087:22124   */\n      iszero\n      tag_380\n      jumpi\n        /* \"#utility.yul\":22104:22122   */\n      tag_381\n      tag_141\n      jump\t// in\n    tag_381:\n        /* \"#utility.yul\":22087:22124   */\n    tag_380:\n        /* \"#utility.yul\":21937:22131   */\n      swap3\n      swap2\n      pop\n      pop\n      jump\t// out\n\n    auxdata: 0xa26469706673582212207e1a516afb59d80132007c5d6393c62fda575e09a96a1a1450de8a4182457cf564736f6c63430008190033\n}\n",
				"bytecode": {
					"linkReferences": {},
					"object": "6080604052348015600e575f80fd5b506116118061001c5f395ff3fe608060405260043610610054575f3560e01c8063089cdd0c146100585780637322b6041461008257806386156302146100c35780639c7e1d6a146100eb578063ada1ddca14610107578063dae7a13c1461012f575b5f80fd5b348015610063575f80fd5b5061006c61016b565b60405161007991906109ea565b60405180910390f35b34801561008d575f80fd5b506100a860048036038101906100a39190610a35565b610171565b6040516100ba96959493929190610b6b565b60405180910390f35b3480156100ce575f80fd5b506100e960048036038101906100e49190610cb0565b61028c565b005b61010560048036038101906101009190610d34565b6104e4565b005b348015610112575f80fd5b5061012d60048036038101906101289190610d9c565b610768565b005b34801561013a575f80fd5b5061015560048036038101906101509190610dec565b6109b2565b60405161016291906109ea565b60405180910390f35b60025481565b5f602052805f5260405f205f91509050805f015f9054906101000a900473ffffffffffffffffffffffffffffffffffffffff16908060010180546101b490610e57565b80601f01602080910402602001604051908101604052809291908181526020018280546101e090610e57565b801561022b5780601f106102025761010080835404028352916020019161022b565b820191905f5260205f20905b81548152906001019060200180831161020e57829003601f168201915b505050505090806002015f9054906101000a900463ffffffff16908060020160049054906101000a900461ffff16908060020160069054906101000a900461ffff16908060020160089054906101000a900467ffffffffffffffff16905086565b8067ffffffffffffffff1642106102d8576040517f08c379a00000000000000000000000000000000000000000000000000000000081526004016102cf90610ef7565b60405180910390fd5b5f8261ffff160361031e576040517f08c379a000000000000000000000000000000000000000000000000000000000815260040161031590610f85565b60405180910390fd5b6040518060c001604052803373ffffffffffffffffffffffffffffffffffffffff16815260200186868080601f0160208091040260200160405190810160405280939291908181526020018383808284375f81840152601f19601f8201169050808301925050505050505081526020018463ffffffff1681526020018361ffff1681526020018361ffff1681526020018267ffffffffffffffff168152505f8060025481526020019081526020015f205f820151815f015f6101000a81548173ffffffffffffffffffffffffffffffffffffffff021916908373ffffffffffffffffffffffffffffffffffffffff1602179055506020820151816001019081610427919061116d565b506040820151816002015f6101000a81548163ffffffff021916908363ffffffff16021790555060608201518160020160046101000a81548161ffff021916908361ffff16021790555060808201518160020160066101000a81548161ffff021916908361ffff16021790555060a08201518160020160086101000a81548167ffffffffffffffff021916908367ffffffffffffffff16021790555090505060025f8154809291906104d890611269565b91905055505050505050565b5f805f8481526020019081526020015f2060020160089054906101000a900467ffffffffffffffff1667ffffffffffffffff1603610557576040517f08c379a000000000000000000000000000000000000000000000000000000000815260040161054e906112fa565b60405180910390fd5b425f808481526020019081526020015f2060020160089054906101000a900467ffffffffffffffff1667ffffffffffffffff16116105ca576040517f08c379a00000000000000000000000000000000000000000000000000000000081526004016105c190611362565b60405180910390fd5b5f805f8481526020019081526020015f2090505f808481526020019081526020015f2060020160069054906101000a900461ffff1661ffff168261ffff161115610649576040517f08c379a0000000000000000000000000000000000000000000000000000000008152600401610640906113ca565b60405180910390fd5b8161ffff165f808581526020019081526020015f206002015f9054906101000a900463ffffffff1661067b91906113e8565b63ffffffff1634146106c2576040517f08c379a00000000000000000000000000000000000000000000000000000000081526004016106b990611494565b60405180910390fd5b818160020160068282829054906101000a900461ffff166106e391906114b2565b92506101000a81548161ffff021916908361ffff1602179055508161ffff1660015f3373ffffffffffffffffffffffffffffffffffffffff1673ffffffffffffffffffffffffffffffffffffffff1681526020019081526020015f205f8581526020019081526020015f205f82825461075c91906114e7565b92505081905550505050565b5f805f8381526020019081526020015f2060020160089054906101000a900467ffffffffffffffff1667ffffffffffffffff16036107db576040517f08c379a00000000000000000000000000000000000000000000000000000000081526004016107d2906112fa565b60405180910390fd5b425f808381526020019081526020015f2060020160089054906101000a900467ffffffffffffffff1667ffffffffffffffff161161084e576040517f08c379a000000000000000000000000000000000000000000000000000000000815260040161084590611362565b60405180910390fd5b8261ffff1660015f3373ffffffffffffffffffffffffffffffffffffffff1673ffffffffffffffffffffffffffffffffffffffff1681526020019081526020015f205f8381526020019081526020015f205410156108e1576040517f08c379a00000000000000000000000000000000000000000000000000000000081526004016108d89061158a565b60405180910390fd5b8261ffff1660015f3373ffffffffffffffffffffffffffffffffffffffff1673ffffffffffffffffffffffffffffffffffffffff1681526020019081526020015f205f8381526020019081526020015f205f82825461094091906115a8565b925050819055508261ffff1660015f8473ffffffffffffffffffffffffffffffffffffffff1673ffffffffffffffffffffffffffffffffffffffff1681526020019081526020015f205f8381526020019081526020015f205f8282546109a691906114e7565b92505081905550505050565b6001602052815f5260405f20602052805f5260405f205f91509150505481565b5f819050919050565b6109e4816109d2565b82525050565b5f6020820190506109fd5f8301846109db565b92915050565b5f80fd5b5f80fd5b610a14816109d2565b8114610a1e575f80fd5b50565b5f81359050610a2f81610a0b565b92915050565b5f60208284031215610a4a57610a49610a03565b5b5f610a5784828501610a21565b91505092915050565b5f73ffffffffffffffffffffffffffffffffffffffff82169050919050565b5f610a8982610a60565b9050919050565b610a9981610a7f565b82525050565b5f81519050919050565b5f82825260208201905092915050565b8281835e5f83830152505050565b5f601f19601f8301169050919050565b5f610ae182610a9f565b610aeb8185610aa9565b9350610afb818560208601610ab9565b610b0481610ac7565b840191505092915050565b5f63ffffffff82169050919050565b610b2781610b0f565b82525050565b5f61ffff82169050919050565b610b4381610b2d565b82525050565b5f67ffffffffffffffff82169050919050565b610b6581610b49565b82525050565b5f60c082019050610b7e5f830189610a90565b8181036020830152610b908188610ad7565b9050610b9f6040830187610b1e565b610bac6060830186610b3a565b610bb96080830185610b3a565b610bc660a0830184610b5c565b979650505050505050565b5f80fd5b5f80fd5b5f80fd5b5f8083601f840112610bf257610bf1610bd1565b5b8235905067ffffffffffffffff811115610c0f57610c0e610bd5565b5b602083019150836001820283011115610c2b57610c2a610bd9565b5b9250929050565b610c3b81610b0f565b8114610c45575f80fd5b50565b5f81359050610c5681610c32565b92915050565b610c6581610b2d565b8114610c6f575f80fd5b50565b5f81359050610c8081610c5c565b92915050565b610c8f81610b49565b8114610c99575f80fd5b50565b5f81359050610caa81610c86565b92915050565b5f805f805f60808688031215610cc957610cc8610a03565b5b5f86013567ffffffffffffffff811115610ce657610ce5610a07565b5b610cf288828901610bdd565b95509550506020610d0588828901610c48565b9350506040610d1688828901610c72565b9250506060610d2788828901610c9c565b9150509295509295909350565b5f8060408385031215610d4a57610d49610a03565b5b5f610d5785828601610a21565b9250506020610d6885828601610c72565b9150509250929050565b610d7b81610a7f565b8114610d85575f80fd5b50565b5f81359050610d9681610d72565b92915050565b5f805f60608486031215610db357610db2610a03565b5b5f610dc086828701610c72565b9350506020610dd186828701610d88565b9250506040610de286828701610a21565b9150509250925092565b5f8060408385031215610e0257610e01610a03565b5b5f610e0f85828601610d88565b9250506020610e2085828601610a21565b9150509250929050565b7f4e487b71000000000000000000000000000000000000000000000000000000005f52602260045260245ffd5b5f6002820490506001821680610e6e57607f821691505b602082108103610e8157610e80610e2a565b5b50919050565b7f4576656e742063616e6e6f74206265206372656174656420666f7220612070615f8201527f737420646174652e000000000000000000000000000000000000000000000000602082015250565b5f610ee1602883610aa9565b9150610eec82610e87565b604082019050919050565b5f6020820190508181035f830152610f0e81610ed5565b9050919050565b7f4e756d626572206f66205469636b6574732063616e6e6f7420626520657175615f8201527f6c20746f207a65726f2e00000000000000000000000000000000000000000000602082015250565b5f610f6f602a83610aa9565b9150610f7a82610f15565b604082019050919050565b5f6020820190508181035f830152610f9c81610f63565b9050919050565b7f4e487b71000000000000000000000000000000000000000000000000000000005f52604160045260245ffd5b5f819050815f5260205f209050919050565b5f6020601f8301049050919050565b5f82821b905092915050565b5f6008830261102c7fffffffffffffffffffffffffffffffffffffffffffffffffffffffffffffffff82610ff1565b6110368683610ff1565b95508019841693508086168417925050509392505050565b5f819050919050565b5f61107161106c611067846109d2565b61104e565b6109d2565b9050919050565b5f819050919050565b61108a83611057565b61109e61109682611078565b848454610ffd565b825550505050565b5f90565b6110b26110a6565b6110bd818484611081565b505050565b5b818110156110e0576110d55f826110aa565b6001810190506110c3565b5050565b601f821115611125576110f681610fd0565b6110ff84610fe2565b8101602085101561110e578190505b61112261111a85610fe2565b8301826110c2565b50505b505050565b5f82821c905092915050565b5f6111455f198460080261112a565b1980831691505092915050565b5f61115d8383611136565b9150826002028217905092915050565b61117682610a9f565b67ffffffffffffffff81111561118f5761118e610fa3565b5b6111998254610e57565b6111a48282856110e4565b5f60209050601f8311600181146111d5575f84156111c3578287015190505b6111cd8582611152565b865550611234565b601f1984166111e386610fd0565b5f5b8281101561120a578489015182556001820191506020850194506020810190506111e5565b868310156112275784890151611223601f891682611136565b8355505b6001600288020188555050505b505050505050565b7f4e487b71000000000000000000000000000000000000000000000000000000005f52601160045260245ffd5b5f611273826109d2565b91507fffffffffffffffffffffffffffffffffffffffffffffffffffffffffffffffff82036112a5576112a461123c565b5b600182019050919050565b7f4576656e7420646f6573206e6f742065786973742100000000000000000000005f82015250565b5f6112e4601583610aa9565b91506112ef826112b0565b602082019050919050565b5f6020820190508181035f830152611311816112d8565b9050919050565b7f4576656e742068617320656e6465642e000000000000000000000000000000005f82015250565b5f61134c601083610aa9565b915061135782611318565b602082019050919050565b5f6020820190508181035f83015261137981611340565b9050919050565b7f4e6f7420656e6f756768207469636b657473206c6566740000000000000000005f82015250565b5f6113b4601783610aa9565b91506113bf82611380565b602082019050919050565b5f6020820190508181035f8301526113e1816113a8565b9050919050565b5f6113f282610b0f565b91506113fd83610b0f565b925082820261140b81610b0f565b915080821461141d5761141c61123c565b5b5092915050565b7f4e6f7420656e6f7567682045746865722070726573656e7420696e204163636f5f8201527f756e740000000000000000000000000000000000000000000000000000000000602082015250565b5f61147e602383610aa9565b915061148982611424565b604082019050919050565b5f6020820190508181035f8301526114ab81611472565b9050919050565b5f6114bc82610b2d565b91506114c783610b2d565b9250828203905061ffff8111156114e1576114e061123c565b5b92915050565b5f6114f1826109d2565b91506114fc836109d2565b92508282019050808211156115145761151361123c565b5b92915050565b7f5175616e74697479206578636565647320746865206e756d626572206f6620745f8201527f69636b65747320796f75206861766520696e206163636f756e74000000000000602082015250565b5f611574603a83610aa9565b915061157f8261151a565b604082019050919050565b5f6020820190508181035f8301526115a181611568565b9050919050565b5f6115b2826109d2565b91506115bd836109d2565b92508282039050818111156115d5576115d461123c565b5b9291505056fea26469706673582212207e1a516afb59d80132007c5d6393c62fda575e09a96a1a1450de8a4182457cf564736f6c63430008190033",
					"opcodes": "PUSH1 0x80 PUSH1 0x40 MSTORE CALLVALUE DUP1 ISZERO PUSH1 0xE JUMPI PUSH0 DUP1 REVERT JUMPDEST POP PUSH2 0x1611 DUP1 PUSH2 0x1C PUSH0 CODECOPY PUSH0 RETURN INVALID PUSH1 0x80 PUSH1 0x40 MSTORE PUSH1 0x4 CALLDATASIZE LT PUSH2 0x54 JUMPI PUSH0 CALLDATALOAD PUSH1 0xE0 SHR DUP1 PUSH4 0x89CDD0C EQ PUSH2 0x58 JUMPI DUP1 PUSH4 0x7322B604 EQ PUSH2 0x82 JUMPI DUP1 PUSH4 0x86156302 EQ PUSH2 0xC3 JUMPI DUP1 PUSH4 0x9C7E1D6A EQ PUSH2 0xEB JUMPI DUP1 PUSH4 0xADA1DDCA EQ PUSH2 0x107 JUMPI DUP1 PUSH4 0xDAE7A13C EQ PUSH2 0x12F JUMPI JUMPDEST PUSH0 DUP1 REVERT JUMPDEST CALLVALUE DUP1 ISZERO PUSH2 0x63 JUMPI PUSH0 DUP1 REVERT JUMPDEST POP PUSH2 0x6C PUSH2 0x16B JUMP JUMPDEST PUSH1 0x40 MLOAD PUSH2 0x79 SWAP2 SWAP1 PUSH2 0x9EA JUMP JUMPDEST PUSH1 0x40 MLOAD DUP1 SWAP2 SUB SWAP1 RETURN JUMPDEST CALLVALUE DUP1 ISZERO PUSH2 0x8D JUMPI PUSH0 DUP1 REVERT JUMPDEST POP PUSH2 0xA8 PUSH1 0x4 DUP1 CALLDATASIZE SUB DUP2 ADD SWAP1 PUSH2 0xA3 SWAP2 SWAP1 PUSH2 0xA35 JUMP JUMPDEST PUSH2 0x171 JUMP JUMPDEST PUSH1 0x40 MLOAD PUSH2 0xBA SWAP7 SWAP6 SWAP5 SWAP4 SWAP3 SWAP2 SWAP1 PUSH2 0xB6B JUMP JUMPDEST PUSH1 0x40 MLOAD DUP1 SWAP2 SUB SWAP1 RETURN JUMPDEST CALLVALUE DUP1 ISZERO PUSH2 0xCE JUMPI PUSH0 DUP1 REVERT JUMPDEST POP PUSH2 0xE9 PUSH1 0x4 DUP1 CALLDATASIZE SUB DUP2 ADD SWAP1 PUSH2 0xE4 SWAP2 SWAP1 PUSH2 0xCB0 JUMP JUMPDEST PUSH2 0x28C JUMP JUMPDEST STOP JUMPDEST PUSH2 0x105 PUSH1 0x4 DUP1 CALLDATASIZE SUB DUP2 ADD SWAP1 PUSH2 0x100 SWAP2 SWAP1 PUSH2 0xD34 JUMP JUMPDEST PUSH2 0x4E4 JUMP JUMPDEST STOP JUMPDEST CALLVALUE DUP1 ISZERO PUSH2 0x112 JUMPI PUSH0 DUP1 REVERT JUMPDEST POP PUSH2 0x12D PUSH1 0x4 DUP1 CALLDATASIZE SUB DUP2 ADD SWAP1 PUSH2 0x128 SWAP2 SWAP1 PUSH2 0xD9C JUMP JUMPDEST PUSH2 0x768 JUMP JUMPDEST STOP JUMPDEST CALLVALUE DUP1 ISZERO PUSH2 0x13A JUMPI PUSH0 DUP1 REVERT JUMPDEST POP PUSH2 0x155 PUSH1 0x4 DUP1 CALLDATASIZE SUB DUP2 ADD SWAP1 PUSH2 0x150 SWAP2 SWAP1 PUSH2 0xDEC JUMP JUMPDEST PUSH2 0x9B2 JUMP JUMPDEST PUSH1 0x40 MLOAD PUSH2 0x162 SWAP2 SWAP1 PUSH2 0x9EA JUMP JUMPDEST PUSH1 0x40 MLOAD DUP1 SWAP2 SUB SWAP1 RETURN JUMPDEST PUSH1 0x2 SLOAD DUP2 JUMP JUMPDEST PUSH0 PUSH1 0x20 MSTORE DUP1 PUSH0 MSTORE PUSH1 0x40 PUSH0 KECCAK256 PUSH0 SWAP2 POP SWAP1 POP DUP1 PUSH0 ADD PUSH0 SWAP1 SLOAD SWAP1 PUSH2 0x100 EXP SWAP1 DIV PUSH20 0xFFFFFFFFFFFFFFFFFFFFFFFFFFFFFFFFFFFFFFFF AND SWAP1 DUP1 PUSH1 0x1 ADD DUP1 SLOAD PUSH2 0x1B4 SWAP1 PUSH2 0xE57 JUMP JUMPDEST DUP1 PUSH1 0x1F ADD PUSH1 0x20 DUP1 SWAP2 DIV MUL PUSH1 0x20 ADD PUSH1 0x40 MLOAD SWAP1 DUP2 ADD PUSH1 0x40 MSTORE DUP1 SWAP3 SWAP2 SWAP1 DUP2 DUP2 MSTORE PUSH1 0x20 ADD DUP3 DUP1 SLOAD PUSH2 0x1E0 SWAP1 PUSH2 0xE57 JUMP JUMPDEST DUP1 ISZERO PUSH2 0x22B JUMPI DUP1 PUSH1 0x1F LT PUSH2 0x202 JUMPI PUSH2 0x100 DUP1 DUP4 SLOAD DIV MUL DUP4 MSTORE SWAP2 PUSH1 0x20 ADD SWAP2 PUSH2 0x22B JUMP JUMPDEST DUP3 ADD SWAP2 SWAP1 PUSH0 MSTORE PUSH1 0x20 PUSH0 KECCAK256 SWAP1 JUMPDEST DUP2 SLOAD DUP2 MSTORE SWAP1 PUSH1 0x1 ADD SWAP1 PUSH1 0x20 ADD DUP1 DUP4 GT PUSH2 0x20E JUMPI DUP3 SWAP1 SUB PUSH1 0x1F AND DUP3 ADD SWAP2 JUMPDEST POP POP POP POP POP SWAP1 DUP1 PUSH1 0x2 ADD PUSH0 SWAP1 SLOAD SWAP1 PUSH2 0x100 EXP SWAP1 DIV PUSH4 0xFFFFFFFF AND SWAP1 DUP1 PUSH1 0x2 ADD PUSH1 0x4 SWAP1 SLOAD SWAP1 PUSH2 0x100 EXP SWAP1 DIV PUSH2 0xFFFF AND SWAP1 DUP1 PUSH1 0x2 ADD PUSH1 0x6 SWAP1 SLOAD SWAP1 PUSH2 0x100 EXP SWAP1 DIV PUSH2 0xFFFF AND SWAP1 DUP1 PUSH1 0x2 ADD PUSH1 0x8 SWAP1 SLOAD SWAP1 PUSH2 0x100 EXP SWAP1 DIV PUSH8 0xFFFFFFFFFFFFFFFF AND SWAP1 POP DUP7 JUMP JUMPDEST DUP1 PUSH8 0xFFFFFFFFFFFFFFFF AND TIMESTAMP LT PUSH2 0x2D8 JUMPI PUSH1 0x40 MLOAD PUSH32 0x8C379A000000000000000000000000000000000000000000000000000000000 DUP2 MSTORE PUSH1 0x4 ADD PUSH2 0x2CF SWAP1 PUSH2 0xEF7 JUMP JUMPDEST PUSH1 0x40 MLOAD DUP1 SWAP2 SUB SWAP1 REVERT JUMPDEST PUSH0 DUP3 PUSH2 0xFFFF AND SUB PUSH2 0x31E JUMPI PUSH1 0x40 MLOAD PUSH32 0x8C379A000000000000000000000000000000000000000000000000000000000 DUP2 MSTORE PUSH1 0x4 ADD PUSH2 0x315 SWAP1 PUSH2 0xF85 JUMP JUMPDEST PUSH1 0x40 MLOAD DUP1 SWAP2 SUB SWAP1 REVERT JUMPDEST PUSH1 0x40 MLOAD DUP1 PUSH1 0xC0 ADD PUSH1 0x40 MSTORE DUP1 CALLER PUSH20 0xFFFFFFFFFFFFFFFFFFFFFFFFFFFFFFFFFFFFFFFF AND DUP2 MSTORE PUSH1 0x20 ADD DUP7 DUP7 DUP1 DUP1 PUSH1 0x1F ADD PUSH1 0x20 DUP1 SWAP2 DIV MUL PUSH1 0x20 ADD PUSH1 0x40 MLOAD SWAP1 DUP2 ADD PUSH1 0x40 MSTORE DUP1 SWAP4 SWAP3 SWAP2 SWAP1 DUP2 DUP2 MSTORE PUSH1 0x20 ADD DUP4 DUP4 DUP1 DUP3 DUP5 CALLDATACOPY PUSH0 DUP2 DUP5 ADD MSTORE PUSH1 0x1F NOT PUSH1 0x1F DUP3 ADD AND SWAP1 POP DUP1 DUP4 ADD SWAP3 POP POP POP POP POP POP POP DUP2 MSTORE PUSH1 0x20 ADD DUP5 PUSH4 0xFFFFFFFF AND DUP2 MSTORE PUSH1 0x20 ADD DUP4 PUSH2 0xFFFF AND DUP2 MSTORE PUSH1 0x20 ADD DUP4 PUSH2 0xFFFF AND DUP2 MSTORE PUSH1 0x20 ADD DUP3 PUSH8 0xFFFFFFFFFFFFFFFF AND DUP2 MSTORE POP PUSH0 DUP1 PUSH1 0x2 SLOAD DUP2 MSTORE PUSH1 0x20 ADD SWAP1 DUP2 MSTORE PUSH1 0x20 ADD PUSH0 KECCAK256 PUSH0 DUP3 ADD MLOAD DUP2 PUSH0 ADD PUSH0 PUSH2 0x100 EXP DUP2 SLOAD DUP2 PUSH20 0xFFFFFFFFFFFFFFFFFFFFFFFFFFFFFFFFFFFFFFFF MUL NOT AND SWAP1 DUP4 PUSH20 0xFFFFFFFFFFFFFFFFFFFFFFFFFFFFFFFFFFFFFFFF AND MUL OR SWAP1 SSTORE POP PUSH1 0x20 DUP3 ADD MLOAD DUP2 PUSH1 0x1 ADD SWAP1 DUP2 PUSH2 0x427 SWAP2 SWAP1 PUSH2 0x116D JUMP JUMPDEST POP PUSH1 0x40 DUP3 ADD MLOAD DUP2 PUSH1 0x2 ADD PUSH0 PUSH2 0x100 EXP DUP2 SLOAD DUP2 PUSH4 0xFFFFFFFF MUL NOT AND SWAP1 DUP4 PUSH4 0xFFFFFFFF AND MUL OR SWAP1 SSTORE POP PUSH1 0x60 DUP3 ADD MLOAD DUP2 PUSH1 0x2 ADD PUSH1 0x4 PUSH2 0x100 EXP DUP2 SLOAD DUP2 PUSH2 0xFFFF MUL NOT AND SWAP1 DUP4 PUSH2 0xFFFF AND MUL OR SWAP1 SSTORE POP PUSH1 0x80 DUP3 ADD MLOAD DUP2 PUSH1 0x2 ADD PUSH1 0x6 PUSH2 0x100 EXP DUP2 SLOAD DUP2 PUSH2 0xFFFF MUL NOT AND SWAP1 DUP4 PUSH2 0xFFFF AND MUL OR SWAP1 SSTORE POP PUSH1 0xA0 DUP3 ADD MLOAD DUP2 PUSH1 0x2 ADD PUSH1 0x8 PUSH2 0x100 EXP DUP2 SLOAD DUP2 PUSH8 0xFFFFFFFFFFFFFFFF MUL NOT AND SWAP1 DUP4 PUSH8 0xFFFFFFFFFFFFFFFF AND MUL OR SWAP1 SSTORE POP SWAP1 POP POP PUSH1 0x2 PUSH0 DUP2 SLOAD DUP1 SWAP3 SWAP2 SWAP1 PUSH2 0x4D8 SWAP1 PUSH2 0x1269 JUMP JUMPDEST SWAP2 SWAP1 POP SSTORE POP POP POP POP POP POP JUMP JUMPDEST PUSH0 DUP1 PUSH0 DUP5 DUP2 MSTORE PUSH1 0x20 ADD SWAP1 DUP2 MSTORE PUSH1 0x20 ADD PUSH0 KECCAK256 PUSH1 0x2 ADD PUSH1 0x8 SWAP1 SLOAD SWAP1 PUSH2 0x100 EXP SWAP1 DIV PUSH8 0xFFFFFFFFFFFFFFFF AND PUSH8 0xFFFFFFFFFFFFFFFF AND SUB PUSH2 0x557 JUMPI PUSH1 0x40 MLOAD PUSH32 0x8C379A000000000000000000000000000000000000000000000000000000000 DUP2 MSTORE PUSH1 0x4 ADD PUSH2 0x54E SWAP1 PUSH2 0x12FA JUMP JUMPDEST PUSH1 0x40 MLOAD DUP1 SWAP2 SUB SWAP1 REVERT JUMPDEST TIMESTAMP PUSH0 DUP1 DUP5 DUP2 MSTORE PUSH1 0x20 ADD SWAP1 DUP2 MSTORE PUSH1 0x20 ADD PUSH0 KECCAK256 PUSH1 0x2 ADD PUSH1 0x8 SWAP1 SLOAD SWAP1 PUSH2 0x100 EXP SWAP1 DIV PUSH8 0xFFFFFFFFFFFFFFFF AND PUSH8 0xFFFFFFFFFFFFFFFF AND GT PUSH2 0x5CA JUMPI PUSH1 0x40 MLOAD PUSH32 0x8C379A000000000000000000000000000000000000000000000000000000000 DUP2 MSTORE PUSH1 0x4 ADD PUSH2 0x5C1 SWAP1 PUSH2 0x1362 JUMP JUMPDEST PUSH1 0x40 MLOAD DUP1 SWAP2 SUB SWAP1 REVERT JUMPDEST PUSH0 DUP1 PUSH0 DUP5 DUP2 MSTORE PUSH1 0x20 ADD SWAP1 DUP2 MSTORE PUSH1 0x20 ADD PUSH0 KECCAK256 SWAP1 POP PUSH0 DUP1 DUP5 DUP2 MSTORE PUSH1 0x20 ADD SWAP1 DUP2 MSTORE PUSH1 0x20 ADD PUSH0 KECCAK256 PUSH1 0x2 ADD PUSH1 0x6 SWAP1 SLOAD SWAP1 PUSH2 0x100 EXP SWAP1 DIV PUSH2 0xFFFF AND PUSH2 0xFFFF AND DUP3 PUSH2 0xFFFF AND GT ISZERO PUSH2 0x649 JUMPI PUSH1 0x40 MLOAD PUSH32 0x8C379A000000000000000000000000000000000000000000000000000000000 DUP2 MSTORE PUSH1 0x4 ADD PUSH2 0x640 SWAP1 PUSH2 0x13CA JUMP JUMPDEST PUSH1 0x40 MLOAD DUP1 SWAP2 SUB SWAP1 REVERT JUMPDEST DUP2 PUSH2 0xFFFF AND PUSH0 DUP1 DUP6 DUP2 MSTORE PUSH1 0x20 ADD SWAP1 DUP2 MSTORE PUSH1 0x20 ADD PUSH0 KECCAK256 PUSH1 0x2 ADD PUSH0 SWAP1 SLOAD SWAP1 PUSH2 0x100 EXP SWAP1 DIV PUSH4 0xFFFFFFFF AND PUSH2 0x67B SWAP2 SWAP1 PUSH2 0x13E8 JUMP JUMPDEST PUSH4 0xFFFFFFFF AND CALLVALUE EQ PUSH2 0x6C2 JUMPI PUSH1 0x40 MLOAD PUSH32 0x8C379A000000000000000000000000000000000000000000000000000000000 DUP2 MSTORE PUSH1 0x4 ADD PUSH2 0x6B9 SWAP1 PUSH2 0x1494 JUMP JUMPDEST PUSH1 0x40 MLOAD DUP1 SWAP2 SUB SWAP1 REVERT JUMPDEST DUP2 DUP2 PUSH1 0x2 ADD PUSH1 0x6 DUP3 DUP3 DUP3 SWAP1 SLOAD SWAP1 PUSH2 0x100 EXP SWAP1 DIV PUSH2 0xFFFF AND PUSH2 0x6E3 SWAP2 SWAP1 PUSH2 0x14B2 JUMP JUMPDEST SWAP3 POP PUSH2 0x100 EXP DUP2 SLOAD DUP2 PUSH2 0xFFFF MUL NOT AND SWAP1 DUP4 PUSH2 0xFFFF AND MUL OR SWAP1 SSTORE POP DUP2 PUSH2 0xFFFF AND PUSH1 0x1 PUSH0 CALLER PUSH20 0xFFFFFFFFFFFFFFFFFFFFFFFFFFFFFFFFFFFFFFFF AND PUSH20 0xFFFFFFFFFFFFFFFFFFFFFFFFFFFFFFFFFFFFFFFF AND DUP2 MSTORE PUSH1 0x20 ADD SWAP1 DUP2 MSTORE PUSH1 0x20 ADD PUSH0 KECCAK256 PUSH0 DUP6 DUP2 MSTORE PUSH1 0x20 ADD SWAP1 DUP2 MSTORE PUSH1 0x20 ADD PUSH0 KECCAK256 PUSH0 DUP3 DUP3 SLOAD PUSH2 0x75C SWAP2 SWAP1 PUSH2 0x14E7 JUMP JUMPDEST SWAP3 POP POP DUP2 SWAP1 SSTORE POP POP POP POP JUMP JUMPDEST PUSH0 DUP1 PUSH0 DUP4 DUP2 MSTORE PUSH1 0x20 ADD SWAP1 DUP2 MSTORE PUSH1 0x20 ADD PUSH0 KECCAK256 PUSH1 0x2 ADD PUSH1 0x8 SWAP1 SLOAD SWAP1 PUSH2 0x100 EXP SWAP1 DIV PUSH8 0xFFFFFFFFFFFFFFFF AND PUSH8 0xFFFFFFFFFFFFFFFF AND SUB PUSH2 0x7DB JUMPI PUSH1 0x40 MLOAD PUSH32 0x8C379A000000000000000000000000000000000000000000000000000000000 DUP2 MSTORE PUSH1 0x4 ADD PUSH2 0x7D2 SWAP1 PUSH2 0x12FA JUMP JUMPDEST PUSH1 0x40 MLOAD DUP1 SWAP2 SUB SWAP1 REVERT JUMPDEST TIMESTAMP PUSH0 DUP1 DUP4 DUP2 MSTORE PUSH1 0x20 ADD SWAP1 DUP2 MSTORE PUSH1 0x20 ADD PUSH0 KECCAK256 PUSH1 0x2 ADD PUSH1 0x8 SWAP1 SLOAD SWAP1 PUSH2 0x100 EXP SWAP1 DIV PUSH8 0xFFFFFFFFFFFFFFFF AND PUSH8 0xFFFFFFFFFFFFFFFF AND GT PUSH2 0x84E JUMPI PUSH1 0x40 MLOAD PUSH32 0x8C379A000000000000000000000000000000000000000000000000000000000 DUP2 MSTORE PUSH1 0x4 ADD PUSH2 0x845 SWAP1 PUSH2 0x1362 JUMP JUMPDEST PUSH1 0x40 MLOAD DUP1 SWAP2 SUB SWAP1 REVERT JUMPDEST DUP3 PUSH2 0xFFFF AND PUSH1 0x1 PUSH0 CALLER PUSH20 0xFFFFFFFFFFFFFFFFFFFFFFFFFFFFFFFFFFFFFFFF AND PUSH20 0xFFFFFFFFFFFFFFFFFFFFFFFFFFFFFFFFFFFFFFFF AND DUP2 MSTORE PUSH1 0x20 ADD SWAP1 DUP2 MSTORE PUSH1 0x20 ADD PUSH0 KECCAK256 PUSH0 DUP4 DUP2 MSTORE PUSH1 0x20 ADD SWAP1 DUP2 MSTORE PUSH1 0x20 ADD PUSH0 KECCAK256 SLOAD LT ISZERO PUSH2 0x8E1 JUMPI PUSH1 0x40 MLOAD PUSH32 0x8C379A000000000000000000000000000000000000000000000000000000000 DUP2 MSTORE PUSH1 0x4 ADD PUSH2 0x8D8 SWAP1 PUSH2 0x158A JUMP JUMPDEST PUSH1 0x40 MLOAD DUP1 SWAP2 SUB SWAP1 REVERT JUMPDEST DUP3 PUSH2 0xFFFF AND PUSH1 0x1 PUSH0 CALLER PUSH20 0xFFFFFFFFFFFFFFFFFFFFFFFFFFFFFFFFFFFFFFFF AND PUSH20 0xFFFFFFFFFFFFFFFFFFFFFFFFFFFFFFFFFFFFFFFF AND DUP2 MSTORE PUSH1 0x20 ADD SWAP1 DUP2 MSTORE PUSH1 0x20 ADD PUSH0 KECCAK256 PUSH0 DUP4 DUP2 MSTORE PUSH1 0x20 ADD SWAP1 DUP2 MSTORE PUSH1 0x20 ADD PUSH0 KECCAK256 PUSH0 DUP3 DUP3 SLOAD PUSH2 0x940 SWAP2 SWAP1 PUSH2 0x15A8 JUMP JUMPDEST SWAP3 POP POP DUP2 SWAP1 SSTORE POP DUP3 PUSH2 0xFFFF AND PUSH1 0x1 PUSH0 DUP5 PUSH20 0xFFFFFFFFFFFFFFFFFFFFFFFFFFFFFFFFFFFFFFFF AND PUSH20 0xFFFFFFFFFFFFFFFFFFFFFFFFFFFFFFFFFFFFFFFF AND DUP2 MSTORE PUSH1 0x20 ADD SWAP1 DUP2 MSTORE PUSH1 0x20 ADD PUSH0 KECCAK256 PUSH0 DUP4 DUP2 MSTORE PUSH1 0x20 ADD SWAP1 DUP2 MSTORE PUSH1 0x20 ADD PUSH0 KECCAK256 PUSH0 DUP3 DUP3 SLOAD PUSH2 0x9A6 SWAP2 SWAP1 PUSH2 0x14E7 JUMP JUMPDEST SWAP3 POP POP DUP2 SWAP1 SSTORE POP POP POP POP JUMP JUMPDEST PUSH1 0x1 PUSH1 0x20 MSTORE DUP2 PUSH0 MSTORE PUSH1 0x40 PUSH0 KECCAK256 PUSH1 0x20 MSTORE DUP1 PUSH0 MSTORE PUSH1 0x40 PUSH0 KECCAK256 PUSH0 SWAP2 POP SWAP2 POP POP SLOAD DUP2 JUMP JUMPDEST PUSH0 DUP2 SWAP1 POP SWAP2 SWAP1 POP JUMP JUMPDEST PUSH2 0x9E4 DUP2 PUSH2 0x9D2 JUMP JUMPDEST DUP3 MSTORE POP POP JUMP JUMPDEST PUSH0 PUSH1 0x20 DUP3 ADD SWAP1 POP PUSH2 0x9FD PUSH0 DUP4 ADD DUP5 PUSH2 0x9DB JUMP JUMPDEST SWAP3 SWAP2 POP POP JUMP JUMPDEST PUSH0 DUP1 REVERT JUMPDEST PUSH0 DUP1 REVERT JUMPDEST PUSH2 0xA14 DUP2 PUSH2 0x9D2 JUMP JUMPDEST DUP2 EQ PUSH2 0xA1E JUMPI PUSH0 DUP1 REVERT JUMPDEST POP JUMP JUMPDEST PUSH0 DUP2 CALLDATALOAD SWAP1 POP PUSH2 0xA2F DUP2 PUSH2 0xA0B JUMP JUMPDEST SWAP3 SWAP2 POP POP JUMP JUMPDEST PUSH0 PUSH1 0x20 DUP3 DUP5 SUB SLT ISZERO PUSH2 0xA4A JUMPI PUSH2 0xA49 PUSH2 0xA03 JUMP JUMPDEST JUMPDEST PUSH0 PUSH2 0xA57 DUP5 DUP3 DUP6 ADD PUSH2 0xA21 JUMP JUMPDEST SWAP2 POP POP SWAP3 SWAP2 POP POP JUMP JUMPDEST PUSH0 PUSH20 0xFFFFFFFFFFFFFFFFFFFFFFFFFFFFFFFFFFFFFFFF DUP3 AND SWAP1 POP SWAP2 SWAP1 POP JUMP JUMPDEST PUSH0 PUSH2 0xA89 DUP3 PUSH2 0xA60 JUMP JUMPDEST SWAP1 POP SWAP2 SWAP1 POP JUMP JUMPDEST PUSH2 0xA99 DUP2 PUSH2 0xA7F JUMP JUMPDEST DUP3 MSTORE POP POP JUMP JUMPDEST PUSH0 DUP2 MLOAD SWAP1 POP SWAP2 SWAP1 POP JUMP JUMPDEST PUSH0 DUP3 DUP3 MSTORE PUSH1 0x20 DUP3 ADD SWAP1 POP SWAP3 SWAP2 POP POP JUMP JUMPDEST DUP3 DUP2 DUP4 MCOPY PUSH0 DUP4 DUP4 ADD MSTORE POP POP POP JUMP JUMPDEST PUSH0 PUSH1 0x1F NOT PUSH1 0x1F DUP4 ADD AND SWAP1 POP SWAP2 SWAP1 POP JUMP JUMPDEST PUSH0 PUSH2 0xAE1 DUP3 PUSH2 0xA9F JUMP JUMPDEST PUSH2 0xAEB DUP2 DUP6 PUSH2 0xAA9 JUMP JUMPDEST SWAP4 POP PUSH2 0xAFB DUP2 DUP6 PUSH1 0x20 DUP7 ADD PUSH2 0xAB9 JUMP JUMPDEST PUSH2 0xB04 DUP2 PUSH2 0xAC7 JUMP JUMPDEST DUP5 ADD SWAP2 POP POP SWAP3 SWAP2 POP POP JUMP JUMPDEST PUSH0 PUSH4 0xFFFFFFFF DUP3 AND SWAP1 POP SWAP2 SWAP1 POP JUMP JUMPDEST PUSH2 0xB27 DUP2 PUSH2 0xB0F JUMP JUMPDEST DUP3 MSTORE POP POP JUMP JUMPDEST PUSH0 PUSH2 0xFFFF DUP3 AND SWAP1 POP SWAP2 SWAP1 POP JUMP JUMPDEST PUSH2 0xB43 DUP2 PUSH2 0xB2D JUMP JUMPDEST DUP3 MSTORE POP POP JUMP JUMPDEST PUSH0 PUSH8 0xFFFFFFFFFFFFFFFF DUP3 AND SWAP1 POP SWAP2 SWAP1 POP JUMP JUMPDEST PUSH2 0xB65 DUP2 PUSH2 0xB49 JUMP JUMPDEST DUP3 MSTORE POP POP JUMP JUMPDEST PUSH0 PUSH1 0xC0 DUP3 ADD SWAP1 POP PUSH2 0xB7E PUSH0 DUP4 ADD DUP10 PUSH2 0xA90 JUMP JUMPDEST DUP2 DUP2 SUB PUSH1 0x20 DUP4 ADD MSTORE PUSH2 0xB90 DUP2 DUP9 PUSH2 0xAD7 JUMP JUMPDEST SWAP1 POP PUSH2 0xB9F PUSH1 0x40 DUP4 ADD DUP8 PUSH2 0xB1E JUMP JUMPDEST PUSH2 0xBAC PUSH1 0x60 DUP4 ADD DUP7 PUSH2 0xB3A JUMP JUMPDEST PUSH2 0xBB9 PUSH1 0x80 DUP4 ADD DUP6 PUSH2 0xB3A JUMP JUMPDEST PUSH2 0xBC6 PUSH1 0xA0 DUP4 ADD DUP5 PUSH2 0xB5C JUMP JUMPDEST SWAP8 SWAP7 POP POP POP POP POP POP POP JUMP JUMPDEST PUSH0 DUP1 REVERT JUMPDEST PUSH0 DUP1 REVERT JUMPDEST PUSH0 DUP1 REVERT JUMPDEST PUSH0 DUP1 DUP4 PUSH1 0x1F DUP5 ADD SLT PUSH2 0xBF2 JUMPI PUSH2 0xBF1 PUSH2 0xBD1 JUMP JUMPDEST JUMPDEST DUP3 CALLDATALOAD SWAP1 POP PUSH8 0xFFFFFFFFFFFFFFFF DUP2 GT ISZERO PUSH2 0xC0F JUMPI PUSH2 0xC0E PUSH2 0xBD5 JUMP JUMPDEST JUMPDEST PUSH1 0x20 DUP4 ADD SWAP2 POP DUP4 PUSH1 0x1 DUP3 MUL DUP4 ADD GT ISZERO PUSH2 0xC2B JUMPI PUSH2 0xC2A PUSH2 0xBD9 JUMP JUMPDEST JUMPDEST SWAP3 POP SWAP3 SWAP1 POP JUMP JUMPDEST PUSH2 0xC3B DUP2 PUSH2 0xB0F JUMP JUMPDEST DUP2 EQ PUSH2 0xC45 JUMPI PUSH0 DUP1 REVERT JUMPDEST POP JUMP JUMPDEST PUSH0 DUP2 CALLDATALOAD SWAP1 POP PUSH2 0xC56 DUP2 PUSH2 0xC32 JUMP JUMPDEST SWAP3 SWAP2 POP POP JUMP JUMPDEST PUSH2 0xC65 DUP2 PUSH2 0xB2D JUMP JUMPDEST DUP2 EQ PUSH2 0xC6F JUMPI PUSH0 DUP1 REVERT JUMPDEST POP JUMP JUMPDEST PUSH0 DUP2 CALLDATALOAD SWAP1 POP PUSH2 0xC80 DUP2 PUSH2 0xC5C JUMP JUMPDEST SWAP3 SWAP2 POP POP JUMP JUMPDEST PUSH2 0xC8F DUP2 PUSH2 0xB49 JUMP JUMPDEST DUP2 EQ PUSH2 0xC99 JUMPI PUSH0 DUP1 REVERT JUMPDEST POP JUMP JUMPDEST PUSH0 DUP2 CALLDATALOAD SWAP1 POP PUSH2 0xCAA DUP2 PUSH2 0xC86 JUMP JUMPDEST SWAP3 SWAP2 POP POP JUMP JUMPDEST PUSH0 DUP1 PUSH0 DUP1 PUSH0 PUSH1 0x80 DUP7 DUP9 SUB SLT ISZERO PUSH2 0xCC9 JUMPI PUSH2 0xCC8 PUSH2 0xA03 JUMP JUMPDEST JUMPDEST PUSH0 DUP7 ADD CALLDATALOAD PUSH8 0xFFFFFFFFFFFFFFFF DUP2 GT ISZERO PUSH2 0xCE6 JUMPI PUSH2 0xCE5 PUSH2 0xA07 JUMP JUMPDEST JUMPDEST PUSH2 0xCF2 DUP9 DUP3 DUP10 ADD PUSH2 0xBDD JUMP JUMPDEST SWAP6 POP SWAP6 POP POP PUSH1 0x20 PUSH2 0xD05 DUP9 DUP3 DUP10 ADD PUSH2 0xC48 JUMP JUMPDEST SWAP4 POP POP PUSH1 0x40 PUSH2 0xD16 DUP9 DUP3 DUP10 ADD PUSH2 0xC72 JUMP JUMPDEST SWAP3 POP POP PUSH1 0x60 PUSH2 0xD27 DUP9 DUP3 DUP10 ADD PUSH2 0xC9C JUMP JUMPDEST SWAP2 POP POP SWAP3 SWAP6 POP SWAP3 SWAP6 SWAP1 SWAP4 POP JUMP JUMPDEST PUSH0 DUP1 PUSH1 0x40 DUP4 DUP6 SUB SLT ISZERO PUSH2 0xD4A JUMPI PUSH2 0xD49 PUSH2 0xA03 JUMP JUMPDEST JUMPDEST PUSH0 PUSH2 0xD57 DUP6 DUP3 DUP7 ADD PUSH2 0xA21 JUMP JUMPDEST SWAP3 POP POP PUSH1 0x20 PUSH2 0xD68 DUP6 DUP3 DUP7 ADD PUSH2 0xC72 JUMP JUMPDEST SWAP2 POP POP SWAP3 POP SWAP3 SWAP1 POP JUMP JUMPDEST PUSH2 0xD7B DUP2 PUSH2 0xA7F JUMP JUMPDEST DUP2 EQ PUSH2 0xD85 JUMPI PUSH0 DUP1 REVERT JUMPDEST POP JUMP JUMPDEST PUSH0 DUP2 CALLDATALOAD SWAP1 POP PUSH2 0xD96 DUP2 PUSH2 0xD72 JUMP JUMPDEST SWAP3 SWAP2 POP POP JUMP JUMPDEST PUSH0 DUP1 PUSH0 PUSH1 0x60 DUP5 DUP7 SUB SLT ISZERO PUSH2 0xDB3 JUMPI PUSH2 0xDB2 PUSH2 0xA03 JUMP JUMPDEST JUMPDEST PUSH0 PUSH2 0xDC0 DUP7 DUP3 DUP8 ADD PUSH2 0xC72 JUMP JUMPDEST SWAP4 POP POP PUSH1 0x20 PUSH2 0xDD1 DUP7 DUP3 DUP8 ADD PUSH2 0xD88 JUMP JUMPDEST SWAP3 POP POP PUSH1 0x40 PUSH2 0xDE2 DUP7 DUP3 DUP8 ADD PUSH2 0xA21 JUMP JUMPDEST SWAP2 POP POP SWAP3 POP SWAP3 POP SWAP3 JUMP JUMPDEST PUSH0 DUP1 PUSH1 0x40 DUP4 DUP6 SUB SLT ISZERO PUSH2 0xE02 JUMPI PUSH2 0xE01 PUSH2 0xA03 JUMP JUMPDEST JUMPDEST PUSH0 PUSH2 0xE0F DUP6 DUP3 DUP7 ADD PUSH2 0xD88 JUMP JUMPDEST SWAP3 POP POP PUSH1 0x20 PUSH2 0xE20 DUP6 DUP3 DUP7 ADD PUSH2 0xA21 JUMP JUMPDEST SWAP2 POP POP SWAP3 POP SWAP3 SWAP1 POP JUMP JUMPDEST PUSH32 0x4E487B7100000000000000000000000000000000000000000000000000000000 PUSH0 MSTORE PUSH1 0x22 PUSH1 0x4 MSTORE PUSH1 0x24 PUSH0 REVERT JUMPDEST PUSH0 PUSH1 0x2 DUP3 DIV SWAP1 POP PUSH1 0x1 DUP3 AND DUP1 PUSH2 0xE6E JUMPI PUSH1 0x7F DUP3 AND SWAP2 POP JUMPDEST PUSH1 0x20 DUP3 LT DUP2 SUB PUSH2 0xE81 JUMPI PUSH2 0xE80 PUSH2 0xE2A JUMP JUMPDEST JUMPDEST POP SWAP2 SWAP1 POP JUMP JUMPDEST PUSH32 0x4576656E742063616E6E6F74206265206372656174656420666F722061207061 PUSH0 DUP3 ADD MSTORE PUSH32 0x737420646174652E000000000000000000000000000000000000000000000000 PUSH1 0x20 DUP3 ADD MSTORE POP JUMP JUMPDEST PUSH0 PUSH2 0xEE1 PUSH1 0x28 DUP4 PUSH2 0xAA9 JUMP JUMPDEST SWAP2 POP PUSH2 0xEEC DUP3 PUSH2 0xE87 JUMP JUMPDEST PUSH1 0x40 DUP3 ADD SWAP1 POP SWAP2 SWAP1 POP JUMP JUMPDEST PUSH0 PUSH1 0x20 DUP3 ADD SWAP1 POP DUP2 DUP2 SUB PUSH0 DUP4 ADD MSTORE PUSH2 0xF0E DUP2 PUSH2 0xED5 JUMP JUMPDEST SWAP1 POP SWAP2 SWAP1 POP JUMP JUMPDEST PUSH32 0x4E756D626572206F66205469636B6574732063616E6E6F742062652065717561 PUSH0 DUP3 ADD MSTORE PUSH32 0x6C20746F207A65726F2E00000000000000000000000000000000000000000000 PUSH1 0x20 DUP3 ADD MSTORE POP JUMP JUMPDEST PUSH0 PUSH2 0xF6F PUSH1 0x2A DUP4 PUSH2 0xAA9 JUMP JUMPDEST SWAP2 POP PUSH2 0xF7A DUP3 PUSH2 0xF15 JUMP JUMPDEST PUSH1 0x40 DUP3 ADD SWAP1 POP SWAP2 SWAP1 POP JUMP JUMPDEST PUSH0 PUSH1 0x20 DUP3 ADD SWAP1 POP DUP2 DUP2 SUB PUSH0 DUP4 ADD MSTORE PUSH2 0xF9C DUP2 PUSH2 0xF63 JUMP JUMPDEST SWAP1 POP SWAP2 SWAP1 POP JUMP JUMPDEST PUSH32 0x4E487B7100000000000000000000000000000000000000000000000000000000 PUSH0 MSTORE PUSH1 0x41 PUSH1 0x4 MSTORE PUSH1 0x24 PUSH0 REVERT JUMPDEST PUSH0 DUP2 SWAP1 POP DUP2 PUSH0 MSTORE PUSH1 0x20 PUSH0 KECCAK256 SWAP1 POP SWAP2 SWAP1 POP JUMP JUMPDEST PUSH0 PUSH1 0x20 PUSH1 0x1F DUP4 ADD DIV SWAP1 POP SWAP2 SWAP1 POP JUMP JUMPDEST PUSH0 DUP3 DUP3 SHL SWAP1 POP SWAP3 SWAP2 POP POP JUMP JUMPDEST PUSH0 PUSH1 0x8 DUP4 MUL PUSH2 0x102C PUSH32 0xFFFFFFFFFFFFFFFFFFFFFFFFFFFFFFFFFFFFFFFFFFFFFFFFFFFFFFFFFFFFFFFF DUP3 PUSH2 0xFF1 JUMP JUMPDEST PUSH2 0x1036 DUP7 DUP4 PUSH2 0xFF1 JUMP JUMPDEST SWAP6 POP DUP1 NOT DUP5 AND SWAP4 POP DUP1 DUP7 AND DUP5 OR SWAP3 POP POP POP SWAP4 SWAP3 POP POP POP JUMP JUMPDEST PUSH0 DUP2 SWAP1 POP SWAP2 SWAP1 POP JUMP JUMPDEST PUSH0 PUSH2 0x1071 PUSH2 0x106C PUSH2 0x1067 DUP5 PUSH2 0x9D2 JUMP JUMPDEST PUSH2 0x104E JUMP JUMPDEST PUSH2 0x9D2 JUMP JUMPDEST SWAP1 POP SWAP2 SWAP1 POP JUMP JUMPDEST PUSH0 DUP2 SWAP1 POP SWAP2 SWAP1 POP JUMP JUMPDEST PUSH2 0x108A DUP4 PUSH2 0x1057 JUMP JUMPDEST PUSH2 0x109E PUSH2 0x1096 DUP3 PUSH2 0x1078 JUMP JUMPDEST DUP5 DUP5 SLOAD PUSH2 0xFFD JUMP JUMPDEST DUP3 SSTORE POP POP POP POP JUMP JUMPDEST PUSH0 SWAP1 JUMP JUMPDEST PUSH2 0x10B2 PUSH2 0x10A6 JUMP JUMPDEST PUSH2 0x10BD DUP2 DUP5 DUP5 PUSH2 0x1081 JUMP JUMPDEST POP POP POP JUMP JUMPDEST JUMPDEST DUP2 DUP2 LT ISZERO PUSH2 0x10E0 JUMPI PUSH2 0x10D5 PUSH0 DUP3 PUSH2 0x10AA JUMP JUMPDEST PUSH1 0x1 DUP2 ADD SWAP1 POP PUSH2 0x10C3 JUMP JUMPDEST POP POP JUMP JUMPDEST PUSH1 0x1F DUP3 GT ISZERO PUSH2 0x1125 JUMPI PUSH2 0x10F6 DUP2 PUSH2 0xFD0 JUMP JUMPDEST PUSH2 0x10FF DUP5 PUSH2 0xFE2 JUMP JUMPDEST DUP2 ADD PUSH1 0x20 DUP6 LT ISZERO PUSH2 0x110E JUMPI DUP2 SWAP1 POP JUMPDEST PUSH2 0x1122 PUSH2 0x111A DUP6 PUSH2 0xFE2 JUMP JUMPDEST DUP4 ADD DUP3 PUSH2 0x10C2 JUMP JUMPDEST POP POP JUMPDEST POP POP POP JUMP JUMPDEST PUSH0 DUP3 DUP3 SHR SWAP1 POP SWAP3 SWAP2 POP POP JUMP JUMPDEST PUSH0 PUSH2 0x1145 PUSH0 NOT DUP5 PUSH1 0x8 MUL PUSH2 0x112A JUMP JUMPDEST NOT DUP1 DUP4 AND SWAP2 POP POP SWAP3 SWAP2 POP POP JUMP JUMPDEST PUSH0 PUSH2 0x115D DUP4 DUP4 PUSH2 0x1136 JUMP JUMPDEST SWAP2 POP DUP3 PUSH1 0x2 MUL DUP3 OR SWAP1 POP SWAP3 SWAP2 POP POP JUMP JUMPDEST PUSH2 0x1176 DUP3 PUSH2 0xA9F JUMP JUMPDEST PUSH8 0xFFFFFFFFFFFFFFFF DUP2 GT ISZERO PUSH2 0x118F JUMPI PUSH2 0x118E PUSH2 0xFA3 JUMP JUMPDEST JUMPDEST PUSH2 0x1199 DUP3 SLOAD PUSH2 0xE57 JUMP JUMPDEST PUSH2 0x11A4 DUP3 DUP3 DUP6 PUSH2 0x10E4 JUMP JUMPDEST PUSH0 PUSH1 0x20 SWAP1 POP PUSH1 0x1F DUP4 GT PUSH1 0x1 DUP2 EQ PUSH2 0x11D5 JUMPI PUSH0 DUP5 ISZERO PUSH2 0x11C3 JUMPI DUP3 DUP8 ADD MLOAD SWAP1 POP JUMPDEST PUSH2 0x11CD DUP6 DUP3 PUSH2 0x1152 JUMP JUMPDEST DUP7 SSTORE POP PUSH2 0x1234 JUMP JUMPDEST PUSH1 0x1F NOT DUP5 AND PUSH2 0x11E3 DUP7 PUSH2 0xFD0 JUMP JUMPDEST PUSH0 JUMPDEST DUP3 DUP2 LT ISZERO PUSH2 0x120A JUMPI DUP5 DUP10 ADD MLOAD DUP3 SSTORE PUSH1 0x1 DUP3 ADD SWAP2 POP PUSH1 0x20 DUP6 ADD SWAP5 POP PUSH1 0x20 DUP2 ADD SWAP1 POP PUSH2 0x11E5 JUMP JUMPDEST DUP7 DUP4 LT ISZERO PUSH2 0x1227 JUMPI DUP5 DUP10 ADD MLOAD PUSH2 0x1223 PUSH1 0x1F DUP10 AND DUP3 PUSH2 0x1136 JUMP JUMPDEST DUP4 SSTORE POP JUMPDEST PUSH1 0x1 PUSH1 0x2 DUP9 MUL ADD DUP9 SSTORE POP POP POP JUMPDEST POP POP POP POP POP POP JUMP JUMPDEST PUSH32 0x4E487B7100000000000000000000000000000000000000000000000000000000 PUSH0 MSTORE PUSH1 0x11 PUSH1 0x4 MSTORE PUSH1 0x24 PUSH0 REVERT JUMPDEST PUSH0 PUSH2 0x1273 DUP3 PUSH2 0x9D2 JUMP JUMPDEST SWAP2 POP PUSH32 0xFFFFFFFFFFFFFFFFFFFFFFFFFFFFFFFFFFFFFFFFFFFFFFFFFFFFFFFFFFFFFFFF DUP3 SUB PUSH2 0x12A5 JUMPI PUSH2 0x12A4 PUSH2 0x123C JUMP JUMPDEST JUMPDEST PUSH1 0x1 DUP3 ADD SWAP1 POP SWAP2 SWAP1 POP JUMP JUMPDEST PUSH32 0x4576656E7420646F6573206E6F74206578697374210000000000000000000000 PUSH0 DUP3 ADD MSTORE POP JUMP JUMPDEST PUSH0 PUSH2 0x12E4 PUSH1 0x15 DUP4 PUSH2 0xAA9 JUMP JUMPDEST SWAP2 POP PUSH2 0x12EF DUP3 PUSH2 0x12B0 JUMP JUMPDEST PUSH1 0x20 DUP3 ADD SWAP1 POP SWAP2 SWAP1 POP JUMP JUMPDEST PUSH0 PUSH1 0x20 DUP3 ADD SWAP1 POP DUP2 DUP2 SUB PUSH0 DUP4 ADD MSTORE PUSH2 0x1311 DUP2 PUSH2 0x12D8 JUMP JUMPDEST SWAP1 POP SWAP2 SWAP1 POP JUMP JUMPDEST PUSH32 0x4576656E742068617320656E6465642E00000000000000000000000000000000 PUSH0 DUP3 ADD MSTORE POP JUMP JUMPDEST PUSH0 PUSH2 0x134C PUSH1 0x10 DUP4 PUSH2 0xAA9 JUMP JUMPDEST SWAP2 POP PUSH2 0x1357 DUP3 PUSH2 0x1318 JUMP JUMPDEST PUSH1 0x20 DUP3 ADD SWAP1 POP SWAP2 SWAP1 POP JUMP JUMPDEST PUSH0 PUSH1 0x20 DUP3 ADD SWAP1 POP DUP2 DUP2 SUB PUSH0 DUP4 ADD MSTORE PUSH2 0x1379 DUP2 PUSH2 0x1340 JUMP JUMPDEST SWAP1 POP SWAP2 SWAP1 POP JUMP JUMPDEST PUSH32 0x4E6F7420656E6F756768207469636B657473206C656674000000000000000000 PUSH0 DUP3 ADD MSTORE POP JUMP JUMPDEST PUSH0 PUSH2 0x13B4 PUSH1 0x17 DUP4 PUSH2 0xAA9 JUMP JUMPDEST SWAP2 POP PUSH2 0x13BF DUP3 PUSH2 0x1380 JUMP JUMPDEST PUSH1 0x20 DUP3 ADD SWAP1 POP SWAP2 SWAP1 POP JUMP JUMPDEST PUSH0 PUSH1 0x20 DUP3 ADD SWAP1 POP DUP2 DUP2 SUB PUSH0 DUP4 ADD MSTORE PUSH2 0x13E1 DUP2 PUSH2 0x13A8 JUMP JUMPDEST SWAP1 POP SWAP2 SWAP1 POP JUMP JUMPDEST PUSH0 PUSH2 0x13F2 DUP3 PUSH2 0xB0F JUMP JUMPDEST SWAP2 POP PUSH2 0x13FD DUP4 PUSH2 0xB0F JUMP JUMPDEST SWAP3 POP DUP3 DUP3 MUL PUSH2 0x140B DUP2 PUSH2 0xB0F JUMP JUMPDEST SWAP2 POP DUP1 DUP3 EQ PUSH2 0x141D JUMPI PUSH2 0x141C PUSH2 0x123C JUMP JUMPDEST JUMPDEST POP SWAP3 SWAP2 POP POP JUMP JUMPDEST PUSH32 0x4E6F7420656E6F7567682045746865722070726573656E7420696E204163636F PUSH0 DUP3 ADD MSTORE PUSH32 0x756E740000000000000000000000000000000000000000000000000000000000 PUSH1 0x20 DUP3 ADD MSTORE POP JUMP JUMPDEST PUSH0 PUSH2 0x147E PUSH1 0x23 DUP4 PUSH2 0xAA9 JUMP JUMPDEST SWAP2 POP PUSH2 0x1489 DUP3 PUSH2 0x1424 JUMP JUMPDEST PUSH1 0x40 DUP3 ADD SWAP1 POP SWAP2 SWAP1 POP JUMP JUMPDEST PUSH0 PUSH1 0x20 DUP3 ADD SWAP1 POP DUP2 DUP2 SUB PUSH0 DUP4 ADD MSTORE PUSH2 0x14AB DUP2 PUSH2 0x1472 JUMP JUMPDEST SWAP1 POP SWAP2 SWAP1 POP JUMP JUMPDEST PUSH0 PUSH2 0x14BC DUP3 PUSH2 0xB2D JUMP JUMPDEST SWAP2 POP PUSH2 0x14C7 DUP4 PUSH2 0xB2D JUMP JUMPDEST SWAP3 POP DUP3 DUP3 SUB SWAP1 POP PUSH2 0xFFFF DUP2 GT ISZERO PUSH2 0x14E1 JUMPI PUSH2 0x14E0 PUSH2 0x123C JUMP JUMPDEST JUMPDEST SWAP3 SWAP2 POP POP JUMP JUMPDEST PUSH0 PUSH2 0x14F1 DUP3 PUSH2 0x9D2 JUMP JUMPDEST SWAP2 POP PUSH2 0x14FC DUP4 PUSH2 0x9D2 JUMP JUMPDEST SWAP3 POP DUP3 DUP3 ADD SWAP1 POP DUP1 DUP3 GT ISZERO PUSH2 0x1514 JUMPI PUSH2 0x1513 PUSH2 0x123C JUMP JUMPDEST JUMPDEST SWAP3 SWAP2 POP POP JUMP JUMPDEST PUSH32 0x5175616E74697479206578636565647320746865206E756D626572206F662074 PUSH0 DUP3 ADD MSTORE PUSH32 0x69636B65747320796F75206861766520696E206163636F756E74000000000000 PUSH1 0x20 DUP3 ADD MSTORE POP JUMP JUMPDEST PUSH0 PUSH2 0x1574 PUSH1 0x3A DUP4 PUSH2 0xAA9 JUMP JUMPDEST SWAP2 POP PUSH2 0x157F DUP3 PUSH2 0x151A JUMP JUMPDEST PUSH1 0x40 DUP3 ADD SWAP1 POP SWAP2 SWAP1 POP JUMP JUMPDEST PUSH0 PUSH1 0x20 DUP3 ADD SWAP1 POP DUP2 DUP2 SUB PUSH0 DUP4 ADD MSTORE PUSH2 0x15A1 DUP2 PUSH2 0x1568 JUMP JUMPDEST SWAP1 POP SWAP2 SWAP1 POP JUMP JUMPDEST PUSH0 PUSH2 0x15B2 DUP3 PUSH2 0x9D2 JUMP JUMPDEST SWAP2 POP PUSH2 0x15BD DUP4 PUSH2 0x9D2 JUMP JUMPDEST SWAP3 POP DUP3 DUP3 SUB SWAP1 POP DUP2 DUP2 GT ISZERO PUSH2 0x15D5 JUMPI PUSH2 0x15D4 PUSH2 0x123C JUMP JUMPDEST JUMPDEST SWAP3 SWAP2 POP POP JUMP INVALID LOG2 PUSH5 0x6970667358 0x22 SLT KECCAK256 PUSH31 0x1A516AFB59D80132007C5D6393C62FDA575E09A96A1A1450DE8A4182457CF5 PUSH5 0x736F6C6343 STOP ADDMOD NOT STOP CALLER "
				},
				"gasEstimates": {
					"creation": {
						"codeDepositCost": "1129800",
						"executionCost": "1172",
						"totalCost": "1130972"
					},
					"external": {
						"buy_tickets(uint256,uint16)": "infinite",
						"create_event(string,uint32,uint16,uint64)": "infinite",
						"eventId()": "2403",
						"no_of_events(uint256)": "infinite",
						"tickets(address,uint256)": "infinite",
						"transfer(uint16,address,uint256)": "infinite"
					}
				},
				"methodIdentifiers": {
					"buy_tickets(uint256,uint16)": "9c7e1d6a",
					"create_event(string,uint32,uint16,uint64)": "86156302",
					"eventId()": "089cdd0c",
					"no_of_events(uint256)": "7322b604",
					"tickets(address,uint256)": "dae7a13c",
					"transfer(uint16,address,uint256)": "ada1ddca"
				}
			},
			"storageLayout": {
				"storage": [
					{
						"astId": 19,
						"contract": "Event Management/contract.sol:EventOrg",
						"label": "no_of_events",
						"offset": 0,
						"slot": "0",
						"type": "t_mapping(t_uint256,t_struct(Details)14_storage)"
					},
					{
						"astId": 25,
						"contract": "Event Management/contract.sol:EventOrg",
						"label": "tickets",
						"offset": 0,
						"slot": "1",
						"type": "t_mapping(t_address,t_mapping(t_uint256,t_uint256))"
					},
					{
						"astId": 27,
						"contract": "Event Management/contract.sol:EventOrg",
						"label": "eventId",
						"offset": 0,
						"slot": "2",
						"type": "t_uint256"
					}
				],
				"types": {
					"t_address": {
						"encoding": "inplace",
						"label": "address",
						"numberOfBytes": "20"
					},
					"t_mapping(t_address,t_mapping(t_uint256,t_uint256))": {
						"encoding": "mapping",
						"key": "t_address",
						"label": "mapping(address => mapping(uint256 => uint256))",
						"numberOfBytes": "32",
						"value": "t_mapping(t_uint256,t_uint256)"
					},
					"t_mapping(t_uint256,t_struct(Details)14_storage)": {
						"encoding": "mapping",
						"key": "t_uint256",
						"label": "mapping(uint256 => struct EventOrg.Details)",
						"numberOfBytes": "32",
						"value": "t_struct(Details)14_storage"
					},
					"t_mapping(t_uint256,t_uint256)": {
						"encoding": "mapping",
						"key": "t_uint256",
						"label": "mapping(uint256 => uint256)",
						"numberOfBytes": "32",
						"value": "t_uint256"
					},
					"t_string_storage": {
						"encoding": "bytes",
						"label": "string",
						"numberOfBytes": "32"
					},
					"t_struct(Details)14_storage": {
						"encoding": "inplace",
						"label": "struct EventOrg.Details",
						"members": [
							{
								"astId": 3,
								"contract": "Event Management/contract.sol:EventOrg",
								"label": "organiser",
								"offset": 0,
								"slot": "0",
								"type": "t_address"
							},
							{
								"astId": 5,
								"contract": "Event Management/contract.sol:EventOrg",
								"label": "name_of_event",
								"offset": 0,
								"slot": "1",
								"type": "t_string_storage"
							},
							{
								"astId": 7,
								"contract": "Event Management/contract.sol:EventOrg",
								"label": "price",
								"offset": 0,
								"slot": "2",
								"type": "t_uint32"
							},
							{
								"astId": 9,
								"contract": "Event Management/contract.sol:EventOrg",
								"label": "tickets",
								"offset": 4,
								"slot": "2",
								"type": "t_uint16"
							},
							{
								"astId": 11,
								"contract": "Event Management/contract.sol:EventOrg",
								"label": "tickets_remaining",
								"offset": 6,
								"slot": "2",
								"type": "t_uint16"
							},
							{
								"astId": 13,
								"contract": "Event Management/contract.sol:EventOrg",
								"label": "date",
								"offset": 8,
								"slot": "2",
								"type": "t_uint64"
							}
						],
						"numberOfBytes": "96"
					},
					"t_uint16": {
						"encoding": "inplace",
						"label": "uint16",
						"numberOfBytes": "2"
					},
					"t_uint256": {
						"encoding": "inplace",
						"label": "uint256",
						"numberOfBytes": "32"
					},
					"t_uint32": {
						"encoding": "inplace",
						"label": "uint32",
						"numberOfBytes": "4"
					},
					"t_uint64": {
						"encoding": "inplace",
						"label": "uint64",
						"numberOfBytes": "8"
					}
				}
			},
			"userdoc": {
				"kind": "user",
				"methods": {},
				"version": 1
			}
		}
	}
}